:1000000039C000003FC000003DC000003BC0000000
:1000100039C0000037C0000035C0000033C0000008
:1000200031C000002FC000002DC000002BC0000018
:1000300029C0000027C0000025C0000023C0000028
:1000400021C000001FC000001DC000001BC0000038
:1000500019C0000017C0000015C0000013C0000048
:1000600011C000000FC000000DC000000BC0000058
:1000700009C0000011241FBECFEFD2E0DEBFCDBF0C
:1000800005D028C0BDCF0F920F900895FCDF259AB0
:1000900083E090E02D9A2FE739EA43E02150304089
:1000A0004040E1F700C000002D982FE739EA43E017
:1000B000215030404040E1F700C00000019751F767
:1000C0008FE79DE62DE0815090402040E1F700C091
:0800D0000000DECFF894FFCF21
:00000001FF
