:1030000039C0000098C0000096C0000094C00000C5
:1030100092C0000090C000008EC000008CC0000074
:103020008AC0000088C0000086C00000CAC000003E
:1030300082C0000080C000007EC000007CC0000094
:103040007AC0000078C00000CBC2000074C000004D
:1030500072C0000070C000006EC000006CC00000B4
:103060006AC0000068C0000066C0000064C00000C4
:1030700062C0000011241FBECFEFD2E0DEBFCDBF83
:10308000E3E0F0E089E080935700849180FD12C076
:1030900004B601FE0AC081E02091810130918201D5
:1030A00022343C4D19F080E001C081E094B79D7F4F
:1030B00094BF11C004B603FE0AC081E020918101D3
:1030C0003091820122343C4D19F080E001C080E053
:1030D00094B7977F94BF40E050E0FA0165917491F6
:1030E0008823A1F06F3F7F4F89F084B7877F84BF2B
:1030F00088E10FB6F89480936000109260000FBED4
:103100001092820110928101FA01099511E0A0E06C
:10311000B1E0ECE9FDE302C005900D92A436B107E1
:10312000D9F711E0A4E6B1E001C01D92A138B107C2
:10313000E1F764D231C664CF8091780187FF0FC078
:103140008091E80082FD04C08EB38111F9CF10C0D8
:103150008091E8008B7F0AC08EB3882349F080916C
:10316000E80080FFF9CF8091E8008E7F8093E8002F
:103170000895E0E7F1E03581248193818281909385
:103180006E0180936F01C90190936C0180936D0172
:1031900008958823A9F09091F20091110DC09091AB
:1031A000E8009B7F9093E8009091E80092FD06C0B4
:1031B0009EB39111F9CF04C09091F1008150E9CFF5
:1031C00008951F920F920FB60F9211248F93809142
:1031D000E10080FF15C08091E20080FF11C0809166
:1031E000E2008E7F8093E2008091E2008061809314
:1031F000E2008091D80080628093D80019BC1EBA8A
:103200008091E10084FF2CC08091E20084FF28C0FF
:1032100019BC82E089BD09B400FEFDCF8091D800C1
:103220008F7D8093D8008091E1008F7E8093E100B4
:103230008091E2008F7E8093E2008091E2008160C5
:103240008093E20080918001882311F084E007C020
:103250008091E30087FD02C081E001C083E08EBB66
:103260008091E10083FF2AC08091E20083FF26C0A5
:103270008091E100877F8093E10082E08EBB109215
:1032800080018091E1008E7F8093E1008091E200D7
:103290008E7F8093E2008091E20080618093E20063
:1032A0008091EB0081608093EB001092ED00109212
:1032B000EC0082E28093ED008091EE008F910F9000
:1032C0000FBE0F901F9018959FB7F89407B600FC9B
:1032D000FDCFF999FECF809529E0E1E0F0E0082EDE
:1032E00020935700E8959FBF0895E1E0F0E089E062
:1032F000809357008491089529E0FC0120935700A2
:103300008491089521E2FC0120935700849108954F
:1033100007B600FCFDCFF999FECF21E0FB010A01C1
:1033200020935700E895112408950F931F9361157A
:1033300020E3720781059105F0F48B019C010F7762
:10334000112722273327012B022B032BA1F42FB7A0
:10335000F89407B600FCFDCFF999FECF35E0FB01EC
:1033600030935700E89507B600FCFDCF81E18093CC
:103370005700E8952FBF1F910F9108950F931F934A
:10338000611520E3720781059105F0F48B019C0122
:103390000F77112722273327012B022B032BA1F4B0
:1033A0002FB7F89407B600FCFDCFF999FECF33E0B4
:1033B000FB0130935700E89507B600FCFDCF81E193
:1033C00080935700E8952FBF1F910F910895CF92DA
:1033D000DF92EF92FF921F93CF93DF9300D01F9263
:1033E000CDB7DEB790916B01809170019923D1F038
:1033F000843049F480917101811108C0809172017B
:103400008F3F21F455C0853009F4A4C08AE0809331
:10341000010183E080936A018091EB0080628093D8
:10342000EB00D3C0843009F443C028F4813051F05C
:103430008330D9F0CAC0853009F48CC0863009F4D5
:10344000B1C0C3C010917101123008F0BEC091DE4E
:10345000111109C060916E0170916F012091690195
:10346000822F90E08BDF85E007C080917101982F5B
:103470009D7F29F47EDE89E080930101A6C0813022
:1034800009F0A3C0E0E0F0E084918F3F59F0109282
:103490006901F0936F01E0936E018AE0809301016E
:1034A00085E091C03196E11520E3F20769F78DC000
:1034B00080917101833099F581E080936701E091FB
:1034C0007601F091770180917201309761F081303F
:1034D00009F07BC090917501809174019093650112
:1034E0008093660172C0811112C082E49CED9093BA
:1034F0008201809381012CE088E190E00FB6F8947E
:10350000A895809360000FBE209360005EC08591F7
:103510009491019609F059C01092000156C0811192
:1035200054C0809172018F3F09F04FC0C12CD12C43
:103530007601C701B60122DF80E8C80ED11CE11C6C
:10354000F11CC11420E3D206E104F10491F71092BA
:103550006B013BC080E289838CED8A838BEF8B8388
:103560008091720190917101911107C0833038F5FB
:10357000FE01E80FF11D818112C0913031F58133D8
:1035800059F020F48033D9F488E509C0803631F051
:103590008136A9F482E803C08EE101C084E98093FA
:1035A000680113C080917101833079F480917201B8
:1035B00081110BC0809173018093690106C08AE07C
:1035C0008093010188E080936A010F900F900F9023
:1035D000DF91CF911F91FF90EF90DF90CF900895F2
:1035E0001F920F920FB60F9211248F9380E683B92A
:1035F0008F910F900FBE0F901F901895CF93DF9370
:10360000CDB7DEB727970FB6F894DEBF0FBECDBF9C
:1036100084B7877F84BF88E10FB6F89480936000F9
:10362000109260000FBE90E080E80FB6F89480938F
:103630006100909361000FBE21E025BF92E095BF2D
:10364000809163008E7F80936300209364011092C9
:10365000E2001092E1008091D8008F778093D8002B
:103660008091D80080688093D8008091D8008F7DA9
:103670008093D80019BC99BD09B400FEFDCF1EBAD5
:10368000109280018091EB0081608093EB0010929A
:10369000ED001092EC0082E28093ED008091EE004C
:1036A0008091E1008E7F8093E1008091E200816053
:1036B0008093E2008091E20088608093E200809134
:1036C000E0008E7F8093E00084B1806E84B985B184
:1036D0008F7185B981E080936F0083E080938100D2
:1036E00085B18F71806285B9789488E791E028E090
:1036F000280F2B8381E791E025E0280F2C83909100
:10370000000180916701992309F498C22EB3222306
:10371000D1F32091E80023FFF6CFE8E7F1E08091B4
:10372000F10081932B812E13FACF809178018F774E
:10373000813209F0E2C180E683B980917E019091E7
:103740007F01909377018093760180917901833096
:1037500009F496C158F48130D1F0823009F0CDC11E
:103760008091E800877F8093E80002C1853009F4EA
:10377000ADC108F4A3C1863009F0BFC18091E80053
:10378000877F8093E80082E080930101B5C180913A
:10379000E800877F8093E80080916701882319F013
:1037A00016DE109267018091760190917701009763
:1037B00039F12091E80022FD04C02EB32111F9CF88
:1037C0009CC12091F10020937001019790937701A3
:1037D00080937601E1E7F1E08091F200882379F0AF
:1037E0008091F1008193809176019091770101970A
:1037F00090937701809376012C812E13EDCFE7DD36
:1038000080910101853009F0ABC0809176019091E3
:103810007701892B21F482E080930101A1C08AE124
:10382000B8DCA0906E01B0906F018A2D8F71B1DC71
:1038300080906C0190906D018FEF881A980A8A1819
:103840009B0880917101811178C0C401969587957C
:103850009F838E83650180916901E82EF12CA982F6
:10386000DA82382E2F2C20E08E819F81892B09F45B
:1038700044C08091F2008823D9F08E819F81019706
:103880009F838E834091F1005091F100C701B601F2
:103890002D833EDD2D812F5F4601570192E0890E79
:1038A000911CA11CB11C75016401203471F411C07C
:1038B0008091E8008B7F8093E8008091E80082FD92
:1038C000DCCF8EB38111F9CF18C18E819F81892BF6
:1038D00059F669817A81832D922D2D8326DD2D81E4
:1038E0008E819F81892B09F4BFCFC501B40146DDCC
:1038F00089829A823A2C2B2CB6CF80916C019091C0
:103900006D0190936F0180936E0128C08091F20049
:103910008823B9F06091F10091E0891A91088091B3
:103920006E0190916F0126D280916E0190916F018E
:10393000019690936F0180936E018114910431F789
:103940000DC08091E8008B7F8093E8008091E800B3
:1039500082FDE0CF8EB38111F9CFCFC080E119DCB9
:103960008091E8008B7FC6C08EB3882309F4C5C060
:103970008091E80080FFF8CF80910101893081F0CB
:103980008A3059F480917101813039F490916E013F
:1039900080916F019093F100A8C080916801A5C04B
:1039A00080916E0190916F0140916C0150916D0179
:1039B0004F5F5F4F481B590B20917101211131C09E
:1039C000569547952C0180916901682E712C4150C4
:1039D0005109F0F08091F200803269F0F201859196
:1039E00094918093F1009093F10022E0420E511CDB
:1039F000611C711CECCF8091E8008E7F8093E80001
:103A00008091E80080FDEACF8EB38111F9CF75C0B7
:103A100080916C0190916D0190936F0180936E0184
:103A20002BC0223049F55A01A114B10429F180912B
:103A3000F2008032A1F080916E0190916F0192D1DD
:103A40008093F10080916E0190916F0101969093A7
:103A50006F0180936E0191E0A91AB108E5CF8091C2
:103A6000E8008E7F8093E8008091E80080FDE3CF3E
:103A70008EB38111F9CF41C082E08093010137C03C
:103A80008091E800877F8093E8008091E80080FDC6
:103A900004C08EB38111F9CF30C080916A01809348
:103AA000F1001092F1001092F1001092F10080915B
:103AB00001018093F1001092F10019C08091E8009B
:103AC000877F8093E80010926A0116C08091E80019
:103AD000877F8093E8008091E80080FD04C08EB36A
:103AE0008111F9CF0AC0809101018093F10080918A
:103AF000E8008E7F8093E8001FDB8091E80083FF61
:103B00008EC080917801909179019630E1F128F48E
:103B1000992351F09530B1F082C0983009F454C027
:103B2000993009F463C07BC08D7F803809F077C07D
:103B30008091E800877F8093E8001092F100109256
:103B4000F1004DC081116BC080917A018F77B82E42
:103B50008091E30080788B298093E3008091E800D6
:103B6000877F8093E800E8DA8091E80080FFFCCF4F
:103B70008091E30080688093E300B11002C082E08E
:103B80004DC083E04BC08058823008F048C080911F
:103B90007A0100917B0110E00230110539F0033009
:103BA000110549F001301105D1F578C05BE140E025
:103BB00026E331E086C0882309F475C0813009F41A
:103BC00077C0823061F579C0803849F58091E8008E
:103BD000877F8093E800809180018093F10080913D
:103BE000E8008E7F8093E800A7DA19C0811117C022
:103BF000B0907A0121E02B1590F08091E800877F4A
:103C00008093E800B092800197DAB11006C08091ED
:103C1000E30087FD02C081E001C084E08EBB80919B
:103C2000E80083FF6CCD8091E800877F8093E800F7
:103C30008091EB0080628093EB0061CD811166CDB5
:103C40008FEC97E00197F1F700C000001092E200BE
:103C50001092E1008091E00081608093E00080910B
:103C6000D8008F778093D80019BC80916300816061
:103C7000809363001092640184B18F7184B985B11F
:103C80008F7185B910926F001092810081E085BF1D
:103C900015BEE0916501F0916601099552E140E0A1
:103CA00021E531E00EC054E040E026E131E009C0FA
:103CB0005AE140E02AE131E004C052E140E022E074
:103CC00031E08091E800877F8093E80060917E0179
:103CD00070917F01852F942F6817790708F4CB0125
:103CE00060E0009769F14EB34423B1F14530A1F192
:103CF0004091E80043FD30C04091E80042FD28C0FB
:103D00004091E80040FFEDCF4091F20050E0F90112
:103D10009F01009751F04032510538F421912093D2
:103D2000F10001974F5F5F4FF3CF61E040325105E3
:103D300009F060E04091E8004E7F4093E800D1CF69
:103D40006111D1CF05C08EB3882331F0853021F0C9
:103D50008091E80082FFF7CF8091E8008B7F80930D
:103D6000E8005DCFF999FECF92BD81BDF89A992701
:103D700080B50895262FF999FECF92BD81BDF89A9E
:103D8000019700B4021639F01FBA20BD0FB6F8949F
:0C3D9000FA9AF99A0FBE0895F894FFCF3C
:103D9C00010212034C005500460041002000440073
:103DAC00460055000000040309041A034C0055009A
:103DBC004600410020004C00690062007200610066
:103DCC0072007900000009021B0001010080320919
:103DDC0004000000FE0102000921030000000C1089
:103DEC00011201100100000020EB03FA2F0000016A
:043DFC0002000100C0
:103FA000EDC9C3C9B5C9AEC9A7C99FC98DC908950F
:083FB000089508950895089595
:103FE000DFCFDFCFDFCFDFCFDFCFDFCFDFCFDFCF61
:083FF000DFCFDFCFDFCFDFCF11
:083FF8000030000010DFFBDCCB
:0400000300003000C9
:00000001FF
