:1030000043C0000078C0000076C0000074C000001B
:1030100072C0000070C000006EC000006CC00000F4
:103020006AC0000068C0000066C0000096C00000D2
:1030300062C0000060C000005EC000005CC0000014
:103040005AC0000058C0000017C1000054C0000062
:1030500052C0000050C000004EC000004CC0000034
:103060004AC0000048C0000046C0000044C0000044
:1030700042C00000581A781A131B781A131BB41A8E
:10308000D61A131BE71AF61A11241FBECFEFD2E08F
:10309000DEBFCDBF04B603FE19C0809154019091EC
:1030A000550182349C4D91F484B7877F84BF88E1B9
:1030B0000FB6F89480936000109260000FBE1092DB
:1030C000550110925401E0E0F0E0099511E0A0E014
:1030D000B1E0ECE5F7E302C005900D92AA34B10728
:1030E000D9F711E0AAE4B1E001C01D92A435B107FF
:1030F000E1F7D0D031C384CF80914B0187FF0FC05F
:103100008091E80082FD04C08EB38111F9CF10C018
:103110008091E8008B770AC08EB3882349F08091B4
:10312000E80080FFF9CF8091E8008E778093E80077
:1031300008958F708093E900EBEEF0E0808181606C
:103140008083EDEEF0E010826093EC00408380918C
:10315000EE00881F8827881F08951F920F920FB6D0
:103160000F9211242F933F934F935F936F937F930D
:103170008F939F93AF93BF93EF93FF938091E10061
:1031800080FF15C08091E20080FF11C08091E200B5
:103190008E7F8093E2008091E20080618093E20064
:1031A0008091D80080628093D80019BC1EBA8091AB
:1031B000E10084FF2CC08091E20084FF28C019BC8C
:1031C00082E089BD09B400FEFDCF8091D8008F7DDB
:1031D0008093D8008091E1008F7E8093E100809100
:1031E000E2008F7E8093E2008091E2008160809314
:1031F000E20080915301882311F084E007C08091A0
:10320000E30087FD02C081E001C083E08EBB8091B6
:10321000E10083FF20C08091E20083FF1CC0809109
:10322000E100877F8093E10082E08EBB1092530122
:103230008091E1008E7F8093E1008091E2008E7F9B
:103240008093E2008091E20080618093E20042E09E
:1032500060E080E06EDFFF91EF91BF91AF919F91B1
:103260008F917F916F915F914F913F912F910F902F
:103270000FBE0F901F9018951F920F920FB60F92CE
:1032800011248F9380E683B98F910F900FBE0F901A
:103290001F90189584B7877F84BF88E10FB6F89494
:1032A00080936000109260000FBE90E080E80FB63F
:1032B000F89480936100909361000FBE21E025BFD8
:1032C00092E095BF809163008E7F8093630020938E
:1032D0004A011092E2001092E1008091D8008F77AD
:1032E0008093D8008091D80080688093D800809126
:1032F000D8008F7D8093D80019BC99BD09B400FE19
:10330000FDCF1EBA1092530142E060E080E011DF71
:103310008091E1008E7F8093E1008091E2008160E6
:103320008093E2008091E20088608093E2008091C7
:10333000E0008E7F8093E00084B1806E84B985B117
:103340008F7185B981E080936F0083E08093810065
:1033500085B18F71806285B978948BE491E0D8E073
:10336000D80F01E010E080910001882309F46DC1BD
:103370008EB38823E9F3C091E900CF709091EC00FF
:10338000892F817090FD80E8C82B1092E900809110
:10339000E80083FF56C1EBE4F1E08091F1008193F6
:1033A000DE13FBCF80914B018F77813209F06EC025
:1033B00080E683B980914C01893009F067C0809123
:1033C000E800877F8093E8008091E80082FFFCCFCF
:1033D0003091F1002091F100832F922F9C012F77E3
:1033E00033278F3F4FEF940719F41092000148C024
:1033F0008115E0E39E0708F043C02115310509F06F
:103400003FC04FB7F89453E0FC0150935700E89544
:1034100007B600FCFDCF4FBF61E04091F2004423AE
:10342000E9F0E091F1007091F1004E2F572FF90172
:10343000EE0FFF1FE80FF91F0A0160935700E89590
:1034400011242F5F3F4F2034310539F72FB7F894FF
:1034500035E0FC0130935700E8950AC04091E80040
:103460004B774093E8004091E80042FFFCCFD9CF72
:1034700007B600FCFDCF2FBF81E180935700E89590
:103480008091E8008B778093E80036DE8091E80039
:1034900083FFC9C080914B0190914C01492F50E0AE
:1034A0004A30510508F0BFC0FA01E65CF74E4EC144
:1034B000803899F0823809F0B6C080914F018F7042
:1034C000853008F0B0C08093E9008091EB0085FB67
:1034D000882780F91092E90001C080E09091E8000F
:1034E000977F9093E8008093F1001092F1007AC0EA
:1034F000282F2D7F09F097C0823009F094C0809169
:103500004D01811128C080914F018F702FEF280F3E
:10351000243008F088C08093E9002091EB0020FF60
:103520001AC0933021F48091EB00806212C0909118
:10353000EB0090619093EB00980102C0220F331FC3
:103540008A95E2F72093EA001092EA008091EB005E
:1035500088608093EB001092E9008091E800877FFB
:103560008093E800C9DD5FC081115DC080914D018D
:103570008F77F82E8091E30080788F298093E30085
:103580008091E800877F8093E800B6DD8091E800B5
:1035900080FFFCCF8091E30080688093E300F1100E
:1035A00002C082E001C083E08EBB3DC08058823003
:1035B000D0F580914E01813009F464C0823009F465
:1035C00066C0813209F468C0823269F56AC0803809
:1035D00051F58091E800877F8093E8008091530146
:1035E0008093F1008091E8008E77BACF81111BC0E3
:1035F000F0904D0131E03F15B0F08091E800877FF9
:103600008093E800F092530177DDF11006C08091BD
:10361000E30087FD02C081E001C084E08EBB42E38D
:1036200061EC81E086DD8091E80083FF0AC0809133
:10363000E800877F8093E8008091EB0080628093B0
:10364000EB00CF70C093E9008ECE8FEC97E001972E
:10365000F1F700C000008091E00081608093E000FD
:1036600082E49CED90935501809354012CE088E115
:1036700090E00FB6F894A895809360000FBE209359
:103680006000FFCF32E120E048E351E00EC032E2BB
:1036900020E046E151E009C039E020E048E251E095
:1036A00004C035E120E041E051E08091E800877FEF
:1036B0008093E8006091510170915201832F922F05
:1036C0006817790708F4CB0160E0009769F12EB321
:1036D0002223B1F12530A1F12091E80023FD30C073
:1036E0002091E80022FD28C02091E80020FFEDCFC6
:1036F0002091F20030E0FA01AF01009751F028303C
:10370000310538F441914093F10001972F5F3F4F0D
:10371000F3CF61E02830310509F060E02091E80046
:103720002E772093E800D1CF6111D1CF05C08EB3A1
:10373000882331F0853021F08091E80082FFF7CFB7
:103740008091E8008B778093E8006DCFEE0FFF1F2C
:0C3750000590F491E02D0994F894FFCF4F
:10375C000106DCFF09FBA1010902150025FF750814
:10376C009682009102C009022200010100803209F8
:10377C0004000001030000000921110100012215C1
:10378C00000705810340000512011001000000082C
:0A379C00EB036720010000000001AC
:0400000300003000C9
:00000001FF
