:100000000AC019C018C017C016C015C014C013C04C
:1000100012C011C010C011271FBFCFE5D0E0DEBF56
:10002000CDBF20E0A0E4B0E001C01D93A134B20731
:10003000E1F712D058C0E4CF02990DC047EA51E66B
:1000400041505040E9F700C00000029BFECF40A1A4
:1000500051E0452740A90895089A099A0A9841EF66
:100060004EBD41E04DBDD0E0C0E0D7BDC6BD4FEFB5
:1000700050E04C1B5D0B55BD44BD40A1442339F1FC
:1000800049EF50E041505040E9F700C00000D4DF94
:10009000CF5FDF4FC11751E0D50739F7CFEFD0E081
:1000A000D7BDC6BD4FEF50E04C1B5D0B55BD44BDE9
:1000B00040A1442391F049EF50E041505040E9F70E
:1000C00000C00000B9DFC150D10B50F7CCCF41EEDA
:1000D00054E041505040E9F7D8CF41EE54E0415050
:0A00E0005040E9F7EDCFF894FFCF90
:00000001FF
