:020000040000FA
:080000000001040000000000F3
:020000040000FA
:04000800C80100002B
:020000040000FA
:04000C00C801000027
:020000040000FA
:04001000C801000023
:020000040000FA
:04001400C80100001F
:020000040000FA
:04001800C80100001B
:020000040000FA
:04001C00C801000017
:020000040000FA
:04002000C801000013
:020000040000FA
:04002400C80100000F
:020000040000FA
:04002800C80100000B
:020000040000FA
:04002C00C801000007
:020000040000FA
:04003000C801000003
:020000040000FA
:04003400C8010000FF
:020000040000FA
:04003800C8010000FB
:020000040000FA
:04003C00C8010000F7
:020000040000FA
:04004000C8010000F3
:020000040000FA
:04004400C8010000EF
:020000040000FA
:04004800C8010000EB
:020000040000FA
:04004C00C8010000E7
:020000040000FA
:04005000C8010000E3
:020000040000FA
:04005400C8010000DF
:020000040000FA
:04005800C8010000DB
:020000040000FA
:04005C00C8010000D7
:020000040000FA
:04006000C8010000D3
:020000040000FA
:04006400C8010000CF
:020000040000FA
:04006800C8010000CB
:020000040000FA
:04006C00C8010000C7
:020000040000FA
:04007000C8010000C3
:020000040000FA
:04007400C8010000BF
:020000040000FA
:04007800C8010000BB
:020000040000FA
:04007C00C8010000B7
:020000040000FA
:04008000C8010000B3
:020000040000FA
:04008400C8010000AF
:020000040000FA
:04008800C8010000AB
:020000040000FA
:04008C00C8010000A7
:020000040000FA
:04009000C8010000A3
:020000040000FA
:04009400C80100009F
:020000040000FA
:04009800C80100009B
:020000040000FA
:04009C00C801000097
:020000040000FA
:0400A000C801000093
:020000040000FA
:0400A400C80100008F
:020000040000FA
:0400A800C80100008B
:020000040000FA
:0400AC00C801000087
:020000040000FA
:0400B000C801000083
:020000040000FA
:0400B400C80100007F
:020000040000FA
:0400B800C80100007B
:020000040000FA
:0400BC00C801000077
:020000040000FA
:0400C000C801000073
:020000040000FA
:0400C400C80100006F
:020000040000FA
:0400C800C80100006B
:020000040000FA
:0400CC00C801000067
:020000040000FA
:0400D000C801000063
:020000040000FA
:0400D400C80100005F
:020000040000FA
:0400D800C80100005B
:020000040000FA
:04010800C80100002A
:020000040000FA
:04010C00C801000026
:020000040000FA
:04011000C801000022
:020000040000FA
:04011400C80100001E
:020000040000FA
:04011800C80100001A
:020000040000FA
:04011C00C801000016
:020000040000FA
:04012000C801000012
:020000040000FA
:04012400C80100000E
:020000040000FA
:04012800C80100000A
:020000040000FA
:04012C00C801000006
:020000040000FA
:04013000C801000002
:020000040000FA
:04013400C8010000FE
:020000040000FA
:04013800C8010000FA
:020000040000FA
:04013C00C8010000F6
:020000040000FA
:04014000C8010000F2
:020000040000FA
:04014400C8010000EE
:020000040000FA
:04014800C8010000EA
:020000040000FA
:04014C00C8010000E6
:020000040000FA
:04015000C8010000E2
:020000040000FA
:04015400C8010000DE
:020000040000FA
:04015800C8010000DA
:020000040000FA
:04015C00C8010000D6
:020000040000FA
:04016000C8010000D2
:020000040000FA
:04016400C8010000CE
:020000040000FA
:04016800C8010000CA
:020000040000FA
:04016C00C8010000C6
:020000040000FA
:04017000C8010000C2
:020000040000FA
:04017400C8010000BE
:020000040000FA
:04017800C8010000BA
:020000040000FA
:04017C00C8010000B6
:020000040000FA
:04018000C8010000B2
:020000040000FA
:04018400C8010000AE
:020000040000FA
:04018800C8010000AA
:020000040000FA
:04018C00C8010000A6
:020000040000FA
:04019000C8010000A2
:020000040000FA
:04019400C80100009E
:020000040000FA
:04019800C80100009A
:020000040000FA
:04019C00C801000096
:020000040000FA
:0401A000C801000092
:020000040000FA
:0401A400C80100008E
:020000040000FA
:0401A800C80100008A
:020000040000FA
:0401AC00C801000086
:020000040000FA
:0401B000C801000082
:020000040000FA
:0401B400C80100007E
:020000040000FA
:0401B800C80100007A
:020000040000FA
:0401BC00C801000076
:020000040000FA
:0401C000C801000072
:020000040000FA
:0401C400C80100006E
:020000040000FA
:0401C800C80100006A
:020000040000FA
:0401CC00C801000066
:020000040000FA
:0401D000C801000062
:020000040000FA
:0401D400C80100005E
:020000040000FA
:0401D800C80100005A
:020000040000FA
:100200000F8020000EBF20000E01880000000000BB
:10021000000020000000E000020032000001200089
:1002200020028800140007005B0007000000E000C7
:1002300003003A0000002000010020000200370007
:100240000000200001002000810F7000010032003A
:1002500014000700000020000000E000020032004F
:100260000000020000000000E801020000000000A1
:100270000040DA000000FE004440A9000000200019
:100280000000E0000300320000002000A001880010
:100290004440A800000006008A1F78008B1F7800E9
:1002A0000000060091018800800478000000EB0047
:1002B0001A003700E284440032A0B4009905BA0065
:1002C000E284440032A0B4009906BA00E2844400FB
:1002D00032A0B4000006EB00476FDE00FD07B2005D
:1002E000636CE10003003A00EBFF07000000EB0045
:1002F0000A003700606CE10004003A00005DEB008A
:100300008B05E900FDFF3E00040037006168E10055
:10031000010032000086EB000B00070019C7BA008D
:100320001905BA000E04E00003003A000A00E000DC
:10033000E0FF3A0000000600FE07B2009E018800C0
:100340008A047800F5FF3700395DBA008B05E900B3
:100350000C003200295DBA008B05E900080032006C
:100360000C00E00003003A00E284440032A0B40034
:10037000F5FF370019DDBA008B05E900FAFF3A00F6
:100380008904E800E184440032A0B40000000600C3
:0C0390000040DA000000FE000000050044
:020000040000FA
:10039C00881F780098002000DAA2AB0001003A0018
:1003AC002800200040FE210011002000160007004C
:1003BC000804E900E10F4400FAFF3A004F0478000A
:1003CC0000000600D862A900D882A900D8A2A80013
:1003DC00A8A2EF00DC62A800DC82A900ECFF0700F9
:1003EC00DC62A900DC82A800E9FF0700DC62A8003F
:1003FC00DC82A900E6FF0700DC62A900DC82A80011
:08040C00E3FF0700F3FF3700D6
:020000040000FA
:10041400F03FB1000180B10006003500EE03090091
:1004240000000000403FB1000180B100FBFF3D002F
:100434001000B000203FB000020035000080090029
:080444000000000000000600AA
:020000040000FA
:0200000400FFFB
:10F80000546500007374000020450000455000005E
:10F81000524F00004D200000446100007461000060
:020000040000FA
:0200000401F009
:04000000E0B9000063
:020000040000FA
:0200000401F009
:04000400FF7F00007A
:020000040000FA
:0200000401F009
:040008005FFE000097
:020000040000FA
:0200000401F009
:04001400FFFFFF00EB
:020000040000FA
:0200000401F009
:04001800FFFF0000E6
:00000001FF
