:020000041000EA
:1000000000B5324B212058609868022188439860DF
:10001000D860186158612E4B002199600221596106
:100020000121F02299502B49196001219960352056
:1000300000F044F80222904214D00621196600F024
:1000400034F8196E01211966002018661A6600F04E
:100050002CF8196E196E196E052000F02FF8012189
:100060000842F9D1002199601B49196000215960AB
:100070001A491B48016001219960EB211966A021F2
:10008000196600F012F800219960164914480160C1
:100090000121996001BC002800D000471248134993
:1000A000086003C880F30888084703B5996A0420EC
:1000B0000142FBD001200142F8D103BD02B5186610
:1000C0001866FFF7F2FF186E186E02BD00000240BE
:1000D000000000180000070000035F00212200005C
:1000E000F4000018222000A00001001008ED00E03C
:1000F00000000000000000000000000074B24E7A12
:1001000000200420F7010010C3010010C5010010F9
:10011000C1010010C1010010C1010010C101001097
:10012000C1010010C1010010C1010010C701001081
:10013000C1010010C1010010C9010010CB01001065
:10014000CD010010CD010010CD010010CD01001037
:10015000CD010010CD010010CD010010CD01001027
:10016000CD010010CD010010CD010010CD01001017
:10017000CD010010CD010010CD010010CD01001007
:10018000CD010010CD010010CD010010CD010010F7
:10019000CD010010CD010010CD010010CD010010E7
:1001A000CD010010CD010010CD010010CD010010D7
:1001B000CD010010CD010010CD010010CD010010C7
:1001C00000BE00BE00BE00BE00BE00BEEFF3058054
:1001D000103800BEF2EB8871283A0610483A061033
:1001E0003402001090A31AE700201F49086006C8D7
:1001F00081F3088810471D48006800282FD10DA4FE
:100200000ECC002902D000F012F8F9E71849194A7B
:10021000002000E001C19142FCD1174988471749ED
:1002200088471749884700BEFDE701C901C29A42C5
:10023000FBD37047483A0610C0000020E0180020A9
:1002400068520610000004200000042068520610C6
:10025000001004200010042000000000704709482E
:1002600003F0B6F80047000008ED00E0000000D001
:100270000019002010ED0020652300100D0400106F
:100280002D2300105756000006005250ABB36053A8
:1002900067FC0110060052505422A29D74FC01100C
:1002A00005005250DE65F46868520610F8B5C04685
:1002B00010B5064C2378002B07D1054B002B02D03C
:1002C000044800E000BF0123237010BD781A00200D
:1002D00000000000A8EA0110044B10B5002B03D069
:1002E0000349044800E000BF10BDC0460000000004
:1002F0007C1A0020A8EA0110F8B5D02506000024D9
:1003000001272D060A2001F009FA6B68DB0B3B423E
:100310000CD1642001F002FA064A13787B40137076
:1003200001226B68DB0B1342FBD0F8BD0134A642FF
:10033000E8D1F5E7E80E0020F8B5012305262A4CA0
:10034000227853402370D02703253F06274B1B7884
:10035000002B40D00121002011F0EEFF2378300067
:10036000002B00D10A20FFF7C7FF204B1B78002B82
:1003700035D00021080011F0DFFF23783000002B7A
:1003800000D10A20013DEDB2FFF7B6FF002DDDD10F
:10039000D02703353F068023DB017B6123783000C3
:1003A000002B00D10A20FFF7A7FF8023DB01BB61F0
:1003B00023783000002B00D10A20013DEDB2FFF779
:1003C0009BFF002DE7D123780F20002B00D10018D0
:1003D000FFF792FFB7E780239B047B61BEE7802392
:1003E0009B04BB61C9E7C046E80E00201A4100200B
:1003F0003F2110B5024B034A034801F09BFFC04662
:10040000A8EA0110C3EA0110F9EA011037B51DF09E
:10041000FBF9464D287003F0F4FD2B78002B6CD0CF
:10042000434811F081FF002879D1424A42494348AC
:1004300011F02EFF424B01AA0093424B69464248FD
:1004400001931DF06BFC694640481DF019FD10F04A
:1004500091FF0AF01FFE3E4A3E493F4808F080FAED
:100460003E4C3F4844600EF00DFD200008F0A4FA19
:1004700011F06CFF040001F0E9F902000B1E01DA33
:10048000FFF7B6FF0021374812184B41002B02DA64
:100490000122354B5242354920008A60CB602368E7
:1004A0005B699847012010F0DDFA0E2000F02CF96E
:1004B000D02480232406DB0163620F2000F024F99E
:1004C00080231B02A362002201210F2000F07CF890
:1004D000FA241DF0ADF926481DF0EAF8A40020002A
:1004E00003F094FD702811D12B782249002B00D104
:1004F0002149224803F07AFDF1E7192000F004F9C0
:10050000D02380221B0692045A62CEE76228E6D1ED
:100510001B4802F05DFF00210300080098471948BE
:1005200003F032FD012040423EBDC0461A4100208A
:10053000585800000400400079EB011082EB0110D4
:10054000C0A80201FFFFFF00941A0020E81A002053
:100550000DDA0110F1D90110B7EB011051D90110DA
:10056000E01A002040420F00FFFFFF7F60100020D4
:100570003903001067EB0110B6EB011091EB01108D
:10058000554200006AEB0110084B8200D21840234C
:1005900010B51468C0006340C02423408024640167
:1005A00022431360024BC018416010BD04C00140DB
:1005B00000400140034BC000C0181F234068184092
:1005C0007047C04600400140094B8000C0184B1ED8
:1005D0009941531E9A41C900036892001143594042
:1005E00080230C225B011140184301607047C04614
:1005F00004C00140054B8000C0180222802300295E
:1006000000D1C0239B0118430260704704C0014021
:10061000D0231B061B6870B5084D9B005C59204217
:1006200005D0CC21064B074A074801F083FE04435E
:100630005C510D2000F030F970BDC046143B002025
:1006400041EC011021ED01106DEC011070B5D026C8
:10065000360633680A4D9B005B590400034205D1FE
:10066000D621084B084A094801F064FE0D2000F02D
:10067000F9F933689B005A59A2435A5170BDC046DC
:10068000143B0020D5EC0110FEEC01106DEC0110C4
:100690000722C308104080008140024A3C339B007F
:1006A0009950704700400140F8B5D0231B061C68E4
:1006B0000500631E9C4130200B4B6442044028001F
:1006C000E4180F001600FFF7E3FF07232B40ED08A7
:1006D0009B00AD0065199F408024002E00D1C024EE
:1006E000A40125432F60F8BD00410140054B800067
:1006F000C01840228023002900D1C0239B01184349
:100700000260704704C001400123D022834010B52D
:100710001206936205219361FFF736FF10BD0000BA
:10072000074B10309B688000C150BFF35F8FBFF351
:100730005F8F0021034B196082F310887047C04619
:1007400000ED00E0240100D00388020010B5D90AB2
:100750001C2905D0B121054B054A064801F0EAFDE8
:100760005B051B15181D101810BDC04655ED011076
:10077000D9EF01106AED01100A4B091A0A4A081F45
:10078000C91810B5914201D8C30705D5A321074B5D
:10079000074A084801F0CEFDE0230005400D1B028A
:1007A000184310BDFC070000FE0F0000D0ED011043
:1007B000CDEF01106AED011001228240034B1B684E
:1007C00013405A1E9341D8B27047C04600E100E082
:1007D000002904D0034B1860034B18607047034B8B
:1007E000FBE7C04680E200E000E100E080E100E0DD
:1007F0000123834010B51800FFF7EAFF10BD000089
:1008000001238340014A13607047C04600E200E0C4
:10081000024B10309B688000C058704700ED00E02C
:1008200010B5FFF7F5FF00220300904205D0044BFE
:10083000C01A2F23834252411300180010BDC04636
:10084000EC0E002070B504000D00EFF3108672B6B8
:100850000C4A1368002BFCD0BFF35F8F2000FFF71A
:10086000D7FF094B984207D0A84205D08621074BF5
:10087000074A084801F05EFD320029002000FFF71A
:100880004FFF70BD240100D0CD01001000EE01101B
:10089000FFEF01106AED0110F0B589B006900491E8
:1008A0000392EFF3108372B65C4A07931368002B30
:1008B000FCD0BFF35F8F0022594B9A560292002A58
:1008C00005DAD721574B584A584801F033FD0C221E
:1008D0000299574E51438D190191A9791970554BC1
:1008E0009968069B10339B005C58A31B2F2B1BD9C8
:1008F000514B9C4203D0DE21504B4B4AE4E7019B15
:100900004F49981C8019FFF737FF4E4B019A6880BA
:1009100093534D4BAB80FF23AB71039BEB71049B57
:10092000AB6001242C436FE0F143484B09194B4362
:100930000221CB4146498B4203D9EA21454B3A4A31
:10094000C2E70123270000219F433B000091D97992
:100950000398814226D8009B002B2CD1019B344C5C
:10096000981C37490019FFF707FF019B0600181D67
:1009700039000019FFF700FF3A00374B121B5241B4
:1009800053431B0D0C2202994A432E491153A418BC
:10099000A371039B6680E371049BA080A3602F4B2F
:1009A0003B60BEE706215956002903DB5143009303
:1009B0007318CCE70093009B9B795BB20593009B77
:1009C0001F1D059B002B26DB3800FFF7BDFE010035
:1009D0000198174B0430C018FFF7CEFE060029001F
:1009E0003800FFF7C9FE009B029A98809A710C2389
:1009F00053430F4A9B18194A9E801A60059A9A71B0
:100A0000039ADA71049A9A602100079A0698FFF710
:100A100087FE09B0F0BD124EE1E7C046240100D0C8
:100A20005F43002036EE0110E8EF01106AED01107F
:100A3000EC0E002000ED00E0CD0100105BEE011097
:100A40001C0F002000A1FFFF01BDFFFFABAAAAAA57
:100A50005555551582EE0110AAAA0000014880479D
:100A600001BD0000F0B5060085B00F00EFF3108364
:100A700072B64E4A02931368002BFCD0BFF35F8F0F
:100A800034004B4B10349B68A200D3580193019A59
:100A9000484B9A4265D0BA4200D180E0464BD31A07
:100AA0002F2B5ED83000FFF787FE00210390300027
:100AB000FFF79EFEBFF35F8FEFF30582002A06D09B
:100AC000944204D036213D4B3D4AFF315EE0012384
:100AD0000C21019C8C469C43002337480625A168C5
:100AE0006557B94214D1002D19DA002A45D1002BDF
:100AF00040D0FF329A71334A9A80334A2E49137894
:100B0000A371324B641A644163431B0D137024E0DC
:100B1000002D46DB63465D4323004419DEE70C20CD
:100B20006843254F3B189A68A260DA79E271062281
:100B30009A56A2719B797F2B1AD80430C019FFF7FF
:100B400003FE0100201DFFF717FE0C236B43FF1867
:100B50001D4BA0801A781D70BA7130000399FFF701
:100B600047FE3000029A0199FFF7DAFD05B0F0BDAB
:100B70001748EAE70F4B0193BFE7164B1B1B083BD7
:100B80005A081B0B05D0AB21134B144A144801F033
:100B9000D1FB144BA380144B1343E380DDE7019397
:100BA000DFE76A21114B064A8FE7C046240100D0D7
:100BB00000ED00E0CD010010EC0E0020F4EE01107D
:100BC000BAEF011001BDFFFF5F430020AAAA000099
:100BD00001BD0000260F002026EF0110A3EF011039
:100BE0006AED011000F0FFFF00F8FFFF36EF011083
:100BF00010B5032402002040A040A243FC348440EE
:100C00008140034BD2181368A3430B43136010BDFC
:100C100000E400E0F8B50124294B0443E21A2F2A2E
:100C200006D9C721274B284A4900284801F082FBF2
:100C3000EFF30582002A04D19221254B224AFF318D
:100C4000F3E7EFF3108772B6224909680029FBD059
:100C5000BFF35F8F20490600F61A76417143090DF4
:100C60001E4E49B28C46B168920089580D00002191
:100C7000A5420FD1B3681A4999501A4B1A7882715C
:100C800062461A70BFF35F8F0023124A136087F326
:100C90001088F8BD06229A56624508D10C235943A4
:100CA000074B5918FF238B710F4B8B80E5E7013100
:100CB0000C330429EED10D4B034A9F31BFE7C046E8
:100CC000EC0E00203CEF011089EF01106AED0110DD
:100CD00064EF0110240100D0AAAA000000ED00E09A
:100CE000CD0100105F43002001BDFFFF72320210F2
:100CF000054B064A1360064A136053609360D36045
:100D000013615361936170478080808000E400E04C
:100D100004E400E01F2110B5091A024800F034FF76
:100D200010BDC0460EED002007B5064B0100009334
:100D300000220523044800F0FDFE002801DB1F23EC
:100D4000181A0EBD6EEF01100EED002070B50400F4
:100D50000E00150000F04AFF0100200000F006F828
:100D6000A680E580BFF35F8F70BD0000024BC918FD
:100D7000890001607047C046400000343F2110B533
:100D8000024B034A034801F0D5FAC046A8EA011015
:100D900000F10110F9EA0110F8B504000D0000F0AF
:100DA00055FD06000F1E01DAFFF7E8FFFA220023C7
:100DB00028000021920002F0E9FE80197941002903
:100DC00002DA012002494042206061602000F8BD43
:100DD000FFFFFF7F10B5040000F008FF01002000B6
:100DE000FFF7C4FFFF232371BFF35F8F10BD10B562
:100DF000040000F0FBFE01002000FFF7B7FFFF2317
:100E0000A380BFF35F8F10BD034BC9188900016039
:100E1000BFF35F8F7047C0464000003410B5040038
:100E2000012000F0EFFE01002000FFF7EDFF10BDF4
:100E300030B5084D03006C6A012200208C4206D3B5
:100E4000AD6A10009D4202D2081B431E984110401B
:100E500030BDC0460040054070B50C0005000800DC
:100E600000F0EAFD2000094900F02AFD00F0BEFE76
:100E7000074B2C75C018D0231B061B6880006B75B0
:100E8000044BA4006860E55070BDC04629110010F5
:100E900040000034FC3A00200A4B1868EFF310823F
:100EA00072B601680029FCD0BFF35F8F1B68BFF3E7
:100EB0005F8F0021196082F3108840BF002000215D
:100EC0007047C046343D002010B5002903D00368A8
:100ED0001B7B8B4205D23C21054B064A064801F09C
:100EE00029FA064B8068C9180901401810BDC04690
:100EF0004EF101103CF4011070F10110FFFFFF0FE3
:100F000070B516000500FFF7DFFF31000400280070
:100F1000FFF7DAFF626841680123914205D803D1E7
:100F200001682268914200D80023D8B270BD000049
:100F30003F2110B5024B034A034801F0FBF9C046BC
:100F4000A8EA01100DF40110F9EA011010B504002F
:100F500000F07CFC002901DAFFF7EAFF2060616005
:100F6000200010BD0B0010B5002902D0027B8A4280
:100F700005D26821054B064A064801F0DBF903213A
:100F8000594300680339401810BDC046D0F1011024
:100F9000A1F40110ECF1011010B5427B01238A424B
:100FA00004D0FFF7DFFF83785A1E9341180010BD6D
:100FB000F8B507000D001400FFF7D4FF0600002D60
:100FC00005D16F210E4B0F4A0F4801F0B3F9002CE9
:100FD00003D170210D4B0B4AF6E7A54203D17121D5
:100FE0000B4B084AF0E721003800FFF7BBFF857084
:100FF0003378002B01D13470F8BD4370FBE7C04655
:101000005FF201108FF40110ECF1011076F2011083
:1010100069F20110F0B585B002930CAB1C780DABF2
:101020001B780700056801920393002C0BD0210068
:101030002800FFF7B1FF002815D067212B4B2C4A61
:101040002C4801F077F9AC7B002C44D0210028001B
:10105000FFF788FF4378AB73002B00D1EB730023BD
:1010600083704370037021003800FFF72DFF019B50
:1010700021000360029B43600A9B83600B9BC3605B
:101080002800FFF76FFF00238370437003706E7BAF
:101090009E4228D022003100A8686B68984700283B
:1010A0001CD0220031002800FFF782FF6E73A64299
:1010B00011D1387D019A029B00F04CFC051E06D030
:1010C000039B002B03D12100386800F0D3FE0E9B58
:1010D000002B00D01D70200005B0F0BD32002100B3
:1010E0002800FFF765FF2600E0E7C0467FF2011009
:1010F000ADF4011070F1011010B5002903D00368A0
:101100001B7B8B4205D24121044B054A054801F067
:1011100011F9C0680139401810BDC0464EF10110E8
:1011200070F4011070F101100023F0B593B00C932E
:10113000774B8200D6580E9010A8FFF707FF109B40
:10114000119C726808930994EFF3108572B61368C6
:10115000002BFCD0BFF35F8F336807935F7B002FBA
:101160006BD039003000FFF7AFFE0268436804001F
:1011700008980999121A8B41002B52DC01D1002AE0
:101180004FD10021079800F06BFEB84205D08E21A8
:10119000604B614A614801F0CDF8226863680A92A9
:1011A0000B93A3680793E3680893079B002B03D175
:1011B00092215B4B584AEDE739003000FFF79CFF66
:1011C000037800200C931B023B4333617368BFF329
:1011D0005F8F00221A6085F31088079B934200D12D
:1011E00090E00C9B08991B023B430D931800079B52
:1011F0009847726804000D00EFF3108372B60F93E6
:101200001368002BFCD0BFF35F8F002D3CDA3369ED
:10121000002B4ED00D9A934217D0A121414B3E4A4C
:10122000B8E7226863680E9800F094FB002400235E
:101230000A930B9408930793C8E70023002438000F
:101240000A930B9408970797C0E70A9A0B9B121B07
:10125000AB41002B02DA0122334B524200210491B0
:10126000013103910899300001910799029700918B
:10127000FFF7D0FE002372683361BFF35F8F136006
:101280000F9B83F3108857E723002B4311D033695A
:10129000002B0ED00D9A934203D0A421214B1E4A5D
:1012A00078E710A8FFF752FE109A119B12196B41B4
:1012B000CFE73468002F05D039002000FFF76CFE1F
:1012C000002804D0F621194B194A1A4863E7E57B38
:1012D000002D04D029002000FFF744FE4770A37BB7
:1012E000002B06D1002D03D0FB21134B104AECE755
:1012F000A77339003000E773FFF7FEFE0378013370
:101300000370B7E7002800D016E713B0F0BDC04661
:10131000FC3A0020A7F2011022F4011070F1011034
:10132000BDF20110C6F20110FFFFFF7F02F30110B2
:1013300082F40110ECF1011024F3011010B50B4CF4
:101340006368002B0CD110212300094A206800F0AB
:10135000E7FC032000F058FA03212000FFF77CFD92
:101360000A210448FFF702FD10BDC046340F0020DB
:10137000010F0010343D0020054810B54368002BD4
:1013800005D15E21034B044A044800F0D3FF10BD91
:10139000340F002038F3011059F4011070F10110DE
:1013A00070B50500182002F061FC0D490400020030
:1013B000280000F0BCFC10212060280002F06CFC2A
:1013C0000121A060280002F067FCE060012000F02D
:1013D0002FFA01002000FFF73FFD200070BDC0463E
:1013E000010F0010144B70B5984205D1D321134B57
:1013F000134A144800F09EFF037D134A9B009C583B
:10140000844203D0D721114B0D4AF2E700259D50AD
:10141000206800F0A2FC2900207D00F051FA207D18
:1014200000F0FEF9E06802F04FFCA06802F04CFC0E
:10143000200002F049FC70BD340F002036EF01108F
:1014400046F4011070F10110FC3A002059F301102C
:10145000F0B51D0027238DB0140002AA9B180022AE
:1014600014A90978069007911A70069B5A68EFF341
:10147000108772B61368002BFCD0BFF35F8F272351
:1014800002AA9B180493002303930293139B220048
:101490000193129B069800932B00FFF7BBFD0600FB
:1014A0000020864204D031000698FFF725FE007820
:1014B000069B5B68BFF35F8F00221A6087F310887A
:1014C00096421CD0272302AA9B181B78002B19D107
:1014D000000230430DB0F0BD06000F00A41BBD415B
:1014E000002906DB08A8FFF731FD089C099DA41917
:1014F0007D41002DB9DA0124084D6442B5E7012091
:101500004042E7E7079B002B06D0129B002013996F
:10151000984703000B43DFD10020DBE7FFFFFF7F8D
:10152000F0B51F268BB002A9761800210400317097
:101530004068EFF3108772B601680029FCD0BFF352
:101540005F8F0121039100210291119920000191E7
:10155000109904960091FFF75DFD002305000793A5
:10156000984205D001002000FFF7C6FD03780793DD
:101570006368BFF35F8F00221A6087F3108895427B
:101580000AD03378934202D0207D00F075FA079B91
:10159000180228430BB0F0BD01204042FAE70000DA
:1015A000F7B505000C1E3CD04268EFF3108372B60D
:1015B00001931368002BFCD0BFF35F8F2F68E6B256
:1015C00031003800FFF7E8FC2B6900281DD09C4251
:1015D00006D12C21144B154AFF31154800F0AAFE04
:1015E00031002800FFF788FD240A0378E4B20020C8
:1015F000A3420DD13100380000F03CFC002807D197
:1016000099210C4B094A4900E7E79C4200D1286127
:101610006B68BFF35F8F00221A60019B83F3108811
:10162000FEBD0800FCE7C04681F30110F5F3011090
:1016300070F10110A5F30110407D7047F0B5EFF394
:10164000058306000F0087B0002B02D0264800F06B
:1016500001FF06246442E517A4197D418D4206D896
:1016600001D1844203D8002D03DAFFF761FC002486
:10167000002504A8FFF76AFC0498059922002B00B6
:10168000121A8B41002B08DC01D1002A05D1300051
:10169000390000F0E5F807B0F0BDFFF76DFE00235C
:1016A00002930193114B220000932B00FFF7D0FE11
:1016B0000028ECDB20002900FFF7BAFB0028E6D168
:1016C0000B4B1868EFF3108272B601680029FCD04A
:1016D000BFF35F8F1B68BFF35F8F0021196082F338
:1016E000108820BFE6E7C046A8F30110990E00104D
:1016F000343D002037B50D0004006846FFF726FC96
:101700000098019900196941002902DA0120024973
:101710004042FFF793FF37BDFFFFFF7FFA2210B56E
:1017200000239200002102F031FAFFF7E3FF10BD21
:101730007FB5EFF3058605000C00002E05D02800CC
:101740002100FFF775FB04B070BDFFF715FE084BD5
:101750000296019600932A002300FFF779FE061EE9
:10176000EDDD20BFFFF708FE3100FFF719FFE6E7C8
:10177000990E0010F7B5EFF30583180001931038A8
:10178000EFF3108772B6194B1B68002BFBD0BFF329
:101790005F8F012631008140154B164D696319603A
:1017A000154B1B781A00C24094466446002234420E
:1017B0000AD0124E6C6A8500AE59B4420FD3104A5B
:1017C0008B430D49AA580B70BFF35F8F0023074965
:1017D0000B6087F310889A4200D09047F7BD019BB9
:1017E00008499B005B1819681960EDE7280100D0D3
:1017F0003C70054000400540FCEC0020E83D002026
:10180000641E0020D03F054010B50100024A034885
:1018100000F073F910BDC046D0F40110FC42002066
:1018200010B50100014800F0AFF910BDFC420020E6
:1018300007B5044B0100009300220323024800F087
:1018400079F90EBDF2F40110FC420020034B596AF5
:101850000A00986A596A8A42FAD1704700400540E6
:10186000054B5A6A8A42FCD38A4202D19A6A824262
:1018700000D370475A6AF7E70040054070B504008E
:101880000D00FFF7E3FF02000B0020002900801885
:1018900059418B4204D801D1824201D8002905DA8E
:1018A0003F21044B044A054800F044FDFFF7D8FFF0
:1018B00070BDC046A8EA0110ABF50110F9EA0110AD
:1018C000F7B504000D00EFF3108372B61C4F0093C0
:1018D0003B68002BFCD0BFF35F8FA300194E019330
:1018E000002D1BD02000FEF793FF86420BD0310065
:1018F0002000FEF7A7FF01212000FEF779FF01235A
:10190000A340114A1360114B019A9D50BFF35F8FA2
:1019100000233B60009B83F31088F7BD0B4BA200B4
:101920009D500122A2400A4920000B7893430B707E
:101930003100FFF797F829002000FEF759FFE5E78F
:10194000280100D07517001038600540641E002083
:10195000FCEC0020F0B589B0069306000592FFF775
:1019600075FF059B0493069B01938B4203D851D1CD
:10197000049B83424ED9EFF3108372B6264F079330
:101980003B68002BFCD0BFF35F8F0124B440234B96
:10199000234D1B78069902932343DBB20393039AEA
:1019A0001E4B1A70059A331D9B006C635A511D4AD9
:1019B000B30099502B6A234212D12B6C234209D0D9
:1019C0000020BFF35F8F00233B60079B83F31088E9
:1019D00009B0F0BDC521144B144A154800F0AAFC0B
:1019E000FFF734FF019B8B42EAD802D1049B83426C
:1019F000E6D8039B029A01209342E2D01F23020003
:101A000033409A400B4B2C626C631A60034B029A72
:101A10001A70D6E70120DBE7280100D0FCEC00209B
:101A200000400540E83D002006F5011091F5011049
:101A300027F5011080E200E010B5EFF3108472B6D4
:101A40000A490B68002BFCD0BFF35F8F0123834052
:101A5000074A0848136202789A430270BFF35F8F07
:101A600000230B6084F3108810BDC046280100D00D
:101A700000400540FCEC002010B5EFF3108472B676
:101A80000A490B68002BFCD0BFF35F8F0123834012
:101A9000074802781A430270BFF35F8F00220A6082
:101AA00084F31088034A136010BDC046280100D09B
:101AB000FCEC00203C600540EFF3108072B6034A56
:101AC0001368002BFCD0BFF35F8F70472C0100D050
:101AD000BFF35F8F0022024B1A6080F310887047BB
:101AE0002C0100D00722CB08C35C012011408840A4
:101AF0001840431E9841C0B27047F8B505000C006D
:101B00001700FFF7D9FF210006002800FFF7EAFFC2
:101B1000002803D02100380000F09CFC072101239D
:101B2000E2080C40A340A95C30000B43AB54FFF724
:101B3000CFFFF8BDF7B5050014001F000191FFF7B6
:101B4000BBFF0600BC4202D9012464420DE0210023
:101B50002800FFF7C7FF002812D1072201232240E7
:101B60009340E1086A5C13436B543000FFF7B0FF09
:101B7000002C07DA019B002B04D0089800F06AFCC7
:101B80000134DFE72000FEBD70B505000C00FFF753
:101B900093FF210006002800FFF7A4FF002805D1CD
:101BA0003321084B084A094800F0C4FB07210122F1
:101BB000E0080C40A2402B5C93432B543000FFF70D
:101BC00087FF70BDC0F5011049F60110DFF5011067
:101BD0000021044B044ABFF35F8F02C39342FAD142
:101BE0007047C046000100D0800100D0044A107840
:101BF000431CDBB2172B01D8137070471023FBE78F
:101C00005C0F002007B5044B0100009318221F232E
:101C10000248FFF78FFF0EBD58F601101421002077
:101C20000B0010B5002902D0027B8A4205D2682140
:101C3000054B064A064800F07DFB03215943006826
:101C40000339401810BDC046D0F1011078F70110DB
:101C5000ECF10110F8B507000D001400FFF7E0FFEC
:101C60000600002D05D16F210E4B0F4A0F4800F0E2
:101C700061FB002C03D170210D4B0B4AF6E7A54206
:101C800003D171210B4B084AF0E721003800FFF720
:101C9000C7FF85703378002B01D13470F8BD4370D5
:101CA000FBE7C0465FF2011066F70110ECF101108E
:101CB00076F2011069F2011070B506000C001500F3
:101CC000002912D0002A09D080687368984700283C
:101CD00006D02A0021003000FFF7BCFF200070BDB5
:101CE000220029003000FFF7B5FF2C00F6E770B5A1
:101CF000002301240500067B43738473C673A64248
:101D000006D831002800FFF78BFF0023437070BD19
:101D100021002800FFF784FF0134E4B24470EEE7AD
:101D200010B5017342608360FFF7E1FF10BDF8B5A5
:101D300005000F0001201021160001F0ADFF032166
:101D40000400280001F0A8FF2060200025736760D0
:101D5000A660FFF7CCFF2000F8BD10B504000068B6
:101D600001F0B2FF200001F0AFFF10BDF7B5050094
:101D70000C1E21D0FFF754FF4678002E1CD03100F6
:101D80002800FFF74DFF0027437821004770280007
:101D90000193FFF745FF3200210047702800FFF74D
:101DA0008BFF019904002800FFF7E0FF21000200EB
:101DB0002800FFF781FF04002000FEBDF8B50400F5
:101DC0000D001700002905D138211F4B1F4A20485C
:101DD00000F0B0FAFFF724FF4378002B03D03A213C
:101DE0001C4B1A4AF3E78378002B03D03B211A4B94
:101DF000164AECE701782000FFF7B8FF0600002F35
:101E000012D0E77B002F04D039002000FFF708FF35
:101E10004570A37B002B06D1002F03D042210F4B2E
:101E20000A4AD4E7A573E573002E05D031002000DF
:101E3000FFF7F6FE0023837029002000FFF7F0FE75
:101E4000002343703000F8BD33F7011053F7011041
:101E500073F60110D4F60110F9F6011024F3011005
:101E600070B5457B0A0029000400FFF7A7FF6073E7
:101E7000280070BD70B504000D1E3CD0437B8B4222
:101E800004D10121FFF7ECFF012070BDFFF7C8FE70
:101E90000600817800208142F7D02000FFF7C0FEC5
:101EA0000178A94211D1737803700023012229001F
:101EB0002000B3707370FFF781FF617B02008142E5
:101EC00014D171210D4B0E4A0DE02000FFF7A8FE42
:101ED0004178A94202D173784370E6E70029F4D132
:101EE000084B074A6B31084800F024FA2000FFF73E
:101EF000E3FE6073C8E70800C7E7C0461DF701109E
:101F00003BF701107232021073F60110F0B585B084
:101F100003920A9A05000F00934205D23321314BF8
:101F2000314A324800F006FA0C241A0E1B020292C3
:101F300001930A9A00230198029901F0D3FA6C43A5
:101F40002B4B0600E4186368834200D260602B1FAD
:101F5000DBB20093C023009A9B012343012A30D8AF
:101F6000012F2ED103221A60A3683B42FCD0039AB2
:101F7000236852015A408021E02349011A40009B06
:101F800021430A60012B09D8032223687B401340B8
:101F90000B600123BB40A2681342FCD08023802247
:101FA0009B01234312011A60019832000023029919
:101FB000666001F097FA0F4BAD005851012005B053
:101FC000F0BD802212011A600A4BAA00D1580029E4
:101FD000CDD0586901F048FA431C03205843033818
:101FE000FDD2C4E784F7011001F8011095F7011044
:101FF000008000401821002073B50C2000F0F8F894
:1020000000F072F900280AD000232C4A2C489900CD
:10201000013388500A2BFAD12A4B536273BD2A4DE3
:10202000A86700F04DF90122284B1A606B6C012B58
:10203000FCD10322264B1A60AC6B012CFCD102258B
:102040000526210000950623224A234800F054F873
:1020500033002100214A2248009600F04DF8214B20
:102060002900214D009300220420FFF74FFF2B0091
:102070002100002230000095FFF748FF0022104C9D
:102080001100230000940720FFF740FF00222300E7
:10209000110000940820FFF739FF0022094B1100BE
:1020A000009309202300FFF731FF00222B001100CD
:1020B00000950620FFF72AFFB0E7C0461821002050
:1020C000006CDC021BB70000008000403CB0004008
:1020D00030B00040002F685900800240008C8647D5
:1020E00000C00240001BB70040597307014B80003D
:1020F000C058704718210020F8B517000400304878
:102100000D001E0001F0B0F92E4B0100FA182E4B05
:102110009A4205D911212D4B2D4A2E4800F00AF97B
:10212000380001F0A1F902009823103A5B009A42AE
:1021300003D91921284B264AEFE7731E062B03D833
:10214000069B013B062B03D91C21244B204AE4E7C4
:10215000069A330416031E432368002B0FDA3F222E
:1021600023681340AB420AD1A3681B051B0D8342B1
:1021700005D1EE22E368D2021340B3421BD0184BC4
:102180009C4219D080235B01164A17491360174AF5
:1021900013601F008A689743FBD1C023221D9B0157
:1021A000134321222560A0601A602268002AFCDA0D
:1021B0000822E6601A60F8BD80239B01E4E7C04670
:1021C000001BB70080E84BD380F8A93211F801104A
:1021D0003BF9011070F80110D6F80110F2F8011067
:1021E00000C0024000E0004000C0004000F000409D
:1021F0008023024A9B000343D3627047008005405E
:10220000024B1A68024B5A607047C046A83A002039
:102210000080054003008020124AC00510B5124C12
:10222000106012480460E020114CC004002906D060
:102230002060002B05D180231B06236010BD106099
:10224000F7E7FA208022C00058435204094B90421D
:1022500005D21860FFF7D4FF8023DB05EDE7064ABF
:102260001A60F7E700B00540FCFF010008200140BC
:1022700000A00540A83A0020FFFFFF0070B5040051
:10228000100080220A4BD2051A600A4B002C0CD099
:102290000125094A2C43DA61084A62401A625962F0
:1022A0009C620021FFF7B6FF70BDDC61F9E7C04614
:1022B00000B0054000800540D3C007B02D3FF84F67
:1022C000AA22064B12011A602F220549DA60054A3C
:1022D00011605A68002AFCDA7047C046004002408C
:1022E00000B0FA0000600240024B18688007C00F7F
:1022F0007047C04600C0064000BEFDE7084A030024
:102300001168002901D10749116010680649C318F6
:102310008B4201D81360704701204042FBE7C04662
:102320001036002010ED00200000042010B5FFF74B
:10233000E3FF000013B50C001900074B002A01D180
:10234000064B1A000192009302002300044801F09A
:102350004DFE0120FFF7D0FF44F90110B6EB01104C
:1023600051F90110294B2A4A70B51A60294E2A4B9F
:102370002A4D33601900AA689143FBD1284C294BA0
:102380009C4229D3FFF738FE274B3360AB68DB0153
:102390008033FBD14022254B25489A675A671A673C
:1023A000DA66244B98421AD3234D244CC0222800CD
:1023B000A16801F0A7FCEFF30583A560002B00D016
:1023C00000BEFFF705FCFEF793FCFEF7B7FF1C4CC1
:1023D0001C4B9C4217D370BD08CC9847CFE7040034
:1023E00003680834002B0BD0012B05D08721164B36
:1023F000164A1748FFF79EFFFEF7F9FC2000D0E7CA
:10240000FEF7E8FCFAE708CC9847E1E700E0004077
:10241000BFCDFBFE00F00040FE7F3C0000C000404E
:10242000C8180020D8180020FFFFFF0100F001406D
:10243000B8180020C81800200000002000ED00E0BF
:10244000D8180020E018002080F9011017FA0110B8
:102450009DF901100FB407B5084801F095FD049BE4
:10246000002B07D005A91800019101F09DFD04483B
:1024700001F08AFD0120FFF73FFFC04607FA011077
:10248000B5EB01107047F7B500930B9B04000E00ED
:1024900017009B0720D00192099D019A099B98186B
:1024A000421B002D1AD10B9BC51B9B0723D4FEBDDD
:1024B00031002020009BA0470135099BFA1A0A9B96
:1024C00052199D42F4D3099A0A9900238A4200D8EE
:1024D0008B1ADB190193DFE7099DEEE7089B013DAD
:1024E000585D3100009BA047D7E702003100202053
:1024F000009BA04701350A9B7819AB42F5D8D6E777
:10250000F0B589B0070010A80678149805910692D6
:102510000E990F9A139C079383071ED4012505403B
:10252000002C07D0002D05D0002E02D10C2318421C
:1025300000D0013C30239C4604E0202A05D06346AD
:102540008B540132129B9342F7D830239C46002DC6
:1025500003D0A24201D21F2A19D9C3063AD5430596
:102560001AD4002A18D0129B9A4201D0A24213D149
:10257000551E012A0FD0119B023A102B0FD02A00B2
:10258000119B022B21D11F2A0ED862251BE0634626
:102590008B540132DBE72A00119B102BF0D183060C
:1025A0000ED478251F2A0ED903900192009138008D
:1025B000079B069A05990294FFF765FF09B0F0BDE5
:1025C00058251F2AF0D88D5401321F2AECD8302507
:1025D0008D5401321F2AE7D82D25002E05D12B2539
:1025E000430702D40307DFD520258D540132DBE7F2
:1025F000F0B597B00A921CAA0B9308CA0D00127886
:10260000219C09900C92002B01D110229443620569
:1026100001D5002B1FD06122A10600D541221E004A
:102620000027D2B20A3A0D9230001E9900F01CFF2A
:102630000D9ACBB29A188446D2B2092901D8303308
:10264000DAB2202006A90918CA551E9A7B1C9642A8
:1026500001D3834213D1209A019305921F9A0EABA6
:1026600004921E9A009303920C9A290002920B9BEB
:102670000A9A09980694FFF743FF17B0F0BD1F00B0
:102680006646D1E7F0B59BB00D9322AB1B78209D39
:102690000E932B00219C249F259E0A900B910C9257
:1026A000234303D1289A10339A432892289B5B0531
:1026B00004D52A00002322439A422AD0289A612373
:1026C000920600D541230022DBB20A3B09920F9308
:1026D0003A0033002800210000F004FF0F9BD2B223
:1026E000D318DBB29C4610901191092A02D83032DF
:1026F000D3B29C4620200AAA12186046099B099969
:1027000001335054A64204D801D1AF4201D8202B46
:1027100013D1289A01930692279A12AB0592269A12
:10272000009304920E9A0D9B02920B990C9A0A98B0
:102730000397FFF7E5FE1BB0F0BD109D119C0993B8
:10274000C6E70000F0B595B00E931A9B0F920A935E
:102750001B9B0A9A0B930B9B0C900D911000190078
:1027600001F03BF9002811D10122D44B0A980B99B2
:10277000524201F02DF9002808D10122D04B0A98CD
:102780000B99524201F00EF9002813D01E9B0A9AB1
:1027900004931D9B0D9903931C9B0C9802930B9B18
:1027A000009201930F9A0E9B00F0BCF902001000FA
:1027B00015B0F0BD002200230A980B9901F0F2F841
:1027C000002800D165E18022120694460A9B0693F8
:1027D0000B9B6344079380231E9ADB001A401192DF
:1027E0001E9A1A4201D106231C93069D079B069E42
:1027F000079F1D4300D151E15800B24B400DC01856
:1028000001F0FEF8B04AB14B01F08DF8B04AB14B7F
:1028100001F06AF8079BB04A1B031B0B1A43040024
:102820000D0030001100AD4B002201F058F8AC4A09
:10283000AC4B01F078F802000B002000290001F0F9
:1028400053F801F0F5F8099001F0DAF8A64AA74B21
:1028500006000F0001F067F80022A54B01F044F8D4
:1028600001F0E6F8A34AA44B39001090300001F0C3
:102870005AF8060010980F0001F0C2F89F4AA04BCA
:1028800001F051F802000B003000390001F027F888
:1028900002000B0004000D0001F045F822000600C4
:1028A0000F002B002000290001F01EF800221290DA
:1028B0001391944B3000390001F01BF80022924B29
:1028C00001F012F802000B003000390001F011F89D
:1028D00000228E4B01F008F802000B003000390096
:1028E00001F007F80F008021060022002B000020D5
:1028F000C90500F0F4FF02000B003000390000F0C1
:10290000F3FF02000B001298139900F0F2FF00226F
:10291000714B00F0E9FF7E4B109C9C466444002202
:10292000230501F000F8069A079B06000F0001F04E
:102930004FF800280AD0099B3000013B3900099369
:102940000022714B00F0D5FF06000F00099B052403
:102950006333C62B00D8A2E01E9B1B0523D5330092
:102960003B4311D0069807996A4A6B4B01F028F84F
:10297000002800D197E0069807990022674B01F0E4
:1029800011F8002800D18EE01C9B099A934200DCCC
:1029900087E09D1A6B1E1C93802300241E9ADB0087
:1029A0001A431E9209941D9B00259C4200D21D1BB8
:1029B00002231E9A1A4010921E9A1A4203D06342B2
:1029C00063415B421D40099B002B07D00698079985
:1029D00032003B0000F08DFF06900791002200239B
:1029E0000A980B9900F0DEFF002809D0802000062D
:1029F000844606990A00079961440B0006920793E2
:102A00001E9A474B0D99134004931C9B0C980293FC
:102A10000395069A079B009201930F9A0E9B00F074
:102A200081F80200002C00D1C1E61E9B45209B06C8
:102A300000D420300E9B0D990C9D561CA8470523F1
:102A40000593002303930A330293099B013CDB0F98
:102A50000193099B0D99DA179D1855400E9B320082
:102A60000C9804940095FFF7C3FD109B0200002B07
:102A700000D19CE60F9BC41A0F9B1A191D9BA34201
:102A800000D894E620200E9B0D990C9DA847013498
:102A9000F2E70A980B99069007919CE609950424A1
:102AA0005AE7002377E71C9B002B00D17BE7119BA3
:102AB0005A1E93411C9AD31A1C9374E7FFFFEF7FB1
:102AC000FFFFEFFF01FCFFFFFB799F501344D33F53
:102AD000B3C8608B288AC63F0000F03F0000F83F73
:102AE00061436F63A787D23F71A379094F930A406F
:102AF0000000E03F1655B5BBB16B0240EF39FAFE5E
:102B0000422EE63F00002C40000024400000184008
:102B1000FF0300002D431CEBE2361A3F80842E4158
:102B2000FFF7FFFFF0B59BB0209E219F09900A910F
:102B30000B920C9332003B0030003900229C00F0D5
:102B40004CFF002808D0249B0393239B029303236C
:102B50000193B04B009324E0012230003900AE4BCA
:102B6000524200F01FFF002807D0249B0393239BB1
:102B7000029304230193A94BECE7012230003900B2
:102B8000A74B524200F024FF002814D00423249ABB
:102B90001A420DD0A34A24990193039123990092DC
:102BA00002910C9B0B9A0A990998FFF76CFC1FE0A5
:102BB00003239D4AEFE70022300039009B4B00F0D1
:102BC00007FF002807D1002230003900984B00F0A1
:102BD000E9FE00280ED0249B009601970493239BC6
:102BE0000B9A03930A990C9B09980294FFF7AAFD8C
:102BF0001BB0F0BD002200233000390000F0D2FEEF
:102C0000002877D03B0032000020002100F067FE52
:102C1000012306000F000D93249B5B056CD5220059
:102C2000302112AB203A08940898251A092807D9B0
:102C3000089819700138089001339042F4D120258A
:102C40003900300000F0F4FE089B0790DA00794B61
:102C50009B185C681B680E930F9400F0D1FE020075
:102C60000B003000390000F03AFE0E9A0F9B00F086
:102C70005AFE1090119100F0FFFE040000F0BCFE1F
:102C800002000B001098119900F029FE00226A4BF7
:102C90001090119100F09CFE00282FD001342000EC
:102CA00000F0AAFE02000B000E980F9900F080FEC3
:102CB000002803D00024079B01330793089B002BB7
:102CC0002AD00A26202D47D10323249A1340012B12
:102CD00000D08BE0239B002B00D187E00D9B002BC5
:102CE00002D10C331A4202D0239B013B23933022A2
:102CF00012AB6FE00D908FE7062490E7002210984A
:102D000011994D4B00F04EFE0028D7D1002C01D078
:102D1000E307D3D50134D1E7079800F071FE020034
:102D20000B003000390000F0DAFD0022424B0600B3
:102D30000F0000F037FE00280CD1002230003900CF
:102D40003D4B00F045FE002804D10123079A1340B3
:102D5000D31807930A2438E0089B0CAA013B089378
:102D6000172331009B1820000135EF1800F07CFB81
:102D7000303139702000310000F076FB092C0CD87E
:102D80003020089B12A95B19202D9DD06A1C9D4202
:102D900005D12E234B551500DCE7040092E748557A
:102DA0001500F1E717230CAA9B180798210001359D
:102DB000EE1800F031FB303107983170210000F03F
:102DC0002BFB0790002800D17EE7202DEAD17BE77E
:102DD000EA5401352399A94208D9202DF8D1249B22
:102DE00001950393239B029312ABB3E6202DF6D0FB
:102DF0000D9A12AB002A03D02D225A550135EEE769
:102E0000249A520701D52B22F7E7249A1207E6D518
:102E10002022F2E72DFA0110FFFFEFFF31FA011037
:102E2000FFFFEF7F28FA011024FA011065CDCD4194
:102E300065CDCDC138FA01100000E03F10B5002883
:102E400002D00B684968984710BD0000F0B59BB0F0
:102E50001500209F0D900E910F93002901D1894BF1
:102E60000D9300260BE00F9B01330F93252816D0FE
:102E70003200741C2B000D9E0E99B04726000F9B4C
:102E800018780028EFD13200AE4200D36A1E2B0022
:102E900000200E990D9CA04730001BB0F0BD002310
:102EA0000120082405E02D2A16D0302A0CD1034336
:102EB0000F910F9A0F99127801312B2A0FD0F2D867
:102EC000202A0ED0232A0ED01000303809282CD802
:102ED00000220A240B920EE002221343E8E70422A8
:102EE000FBE72343E4E71022F7E70B9A0F906243D6
:102EF000303A8A180B920F9A1178501C0A00303A17
:102F0000092AF2D900200F9A0C9011782E2928D185
:102F10008021C9000B430F990132497808003038ED
:102F200009283CD80A218C4615E000200B902A2A5B
:102F3000E8D104CF0B92824204DA022213430B9AA7
:102F400052420B920F91DDE760460C9A4243303AB1
:102F50008A180C9222001178541C08003038092875
:102F6000F2D91078511C6C282CD024D8682831D084
:102F70006A2837D011000C784A1C0F92782C04D89C
:102F8000572C32D8452C5CD056D8731C3200200008
:102F90000B930E992B000D9CA0470B9E6FE72A29DF
:102FA000DFD104CF0C92D2430C99D21711400F9A63
:102FB0000C910232D5E7742801D07A28DAD1802228
:102FC00052000BE050786C28F9D1C02189000B43E6
:102FD000911CD0E75078682802D080221343CAE7BA
:102FE000C021F4E780229200F8E72000583820281A
:102FF000CBD81BF0F9FC4900CAFFCAFFCAFFCAFFC1
:10300000CAFFCAFFCAFFCAFFCAFF4900F800490049
:103010002600E5002600CAFF4900CAFFCAFFCAFF12
:10302000CAFFCAFF4900B301CAFFCAFF4001CAFF75
:103030004900CAFFCAFF4900462C00D1BEE0472C18
:10304000A3D1202221009143472904D180221201DB
:10305000134302229443452C01D12022134307221B
:1030600004930B9B073703930C9B974302930CCF5E
:103070000E99009201930D982B003200FFF762FB2E
:10308000AFE0C04685240010782C47D0582C00D1E2
:1030900078E16F2C00D179E1622C00D178E1102227
:1030A0009343063A692C03D0642C01D00C218B4346
:1030B000590501D501218B43802189001940692CD4
:1030C00001D0642C46D100292AD0072107378F432D
:1030D0003C0003CF08930B9B049207930C9B08348E
:1030E000069300230593CB0F0293CB1711931093F4
:1030F00043401493119B4B401593149A159B1098C1
:103100001199121A8B41009201930E992B003200F3
:103110000D98FFF7B7FA06002700B0E61022C5E7C2
:103120003C1DD9050DD5396805930B9B029204937C
:103130000C9B0393CB0F0193CB17C91859400091F7
:1031400024E03968580601D5C9B2EDE71806EBD579
:1031500009B2E9E700290DD008930B9B07210793DB
:103160000C9BFC1D069300238C4304920593029351
:103170000CCCC8E73C1DD8050FD505930B9B0292DC
:1031800004930C9B019103933B6800932B00320046
:103190000E990D98FFF72CFABDE73968580609D546
:1031A000C9B205930B9B029204930C9B03930023DB
:1031B0000193C4E71806F4D589B2F2E7202213433D
:1031C000072204930B9B073703930C9B97430293AF
:1031D0000CCF0E99009201930D982B003200FFF74F
:1031E000A1FC06004BE602221A40129202220124A0
:1031F000134218D1320005E02B0020200E990D9CBF
:10320000A0470C9A0B99531C0C939B1B8B42F3D336
:103210000023994201D00B00013BF6180B9B0224BE
:10322000002B00D05C1C01CF731C32000C930E9954
:103230002B000D9EC0B2B047129B002B19D00C9AE8
:1032400012940AE0531C139320202B000E990D9E1C
:10325000B047129B139A013312930B9B1299994218
:10326000F0D30B9A0023A24200D3131B0C9AD3185D
:103270000C930C9E03E6390004C913920C9A169124
:10328000002A01D10122524213990C008A18217898
:10329000002901D0A24214D1139A1900A41A802245
:1032A000D20011401791134203D00C9A944200D9D6
:1032B000140002221A4018920222134217D132003F
:1032C00009E00134E3E7531C129320202B000E99F0
:1032D0000D9FB847129AA31B0B99D3189942F2D8A5
:1032E0000023A14200D30B1B0134F6181C191296BF
:1032F0000AE00C93129B129A013319930E992B003A
:103300000D9FB847199B1293139B129A9B1B985CB5
:10331000002807D0179B002BECD00C9B0C9A013B8C
:10332000002AE6D1189B002B15D0129A06E0561CF5
:103330002B0020200E990D9FB8473200129B0B994D
:10334000E31A9B189942F2D80023A14200D30B1B29
:10335000129AD3181293169F129E90E521221343BE
:103360000593082304930C9B3200039310230293CC
:103370000023019308CF0E9900930D982B00FFF7BF
:1033800037F92EE720221343103A8FE608228DE604
:1033900002228BE61FB5039101210290009304489D
:1033A00013004A4202A9FFF751FD05B000BDC04617
:1033B0003D2E001001480421014B1847600F0020EA
:1033C000F1330010014B9B6818470000600F00208C
:1033D000142310B50100188804331B88984710BDCA
:1033E000162310B50100188802331B88984710BDBA
:1033F000F8B50E00040000270125B74201D12800CE
:10340000F8BD2068FFF7E4FF01C4431E9841404225
:1034100005400137F1E70000124A936F9B0815D26F
:103420009066D166002905D0FFE7FFE7FFE7516FFF
:10343000106F704704B580210906C217514000285B
:1034400000D0C8431BF098FA002104BDF0B5146EFB
:10345000556E576F166FFFF7E3FF14665566576793
:103460001667F0BD000000D0114A936F9B0813D27D
:1034700010665166002905D0FFE7FFE7FFE7516FAF
:10348000106F704704B5002801D00020C0431BF026
:1034900073FA002104BDC046F0B5146E556E576F27
:1034A000166FFFF7E5FF1466556657671667F0BDA0
:1034B000000000D094464A4A926F9208624601D2B8
:1034C00028E0C046F0B5464E346E756E776F366FA5
:1034D00000F020F89446424A14665566576716670E
:1034E0006246F0BD94463E4A926F9208624601D20F
:1034F00054E0C046F0B53A4E346E756E776F366F55
:1035000000F04CF89446364A1466556657671667BD
:103510006246F0BD002B24DB11D000293EDA00B555
:10352000C943404200D1013100F038F8C94340425C
:1035300000D10131DB43524200D1013300BD002AEA
:10354000EBD1002801D1002905D00020C90FC907FF
:1035500001D1C043410800B51BF0D6F90022002379
:1035600000BD00B500290ADBDB43524200D1013324
:1035700000F014F8C943404200D1013100BDC943F5
:10358000404200D10131DB43524200D1013300F00F
:1035900005F8DB43524200D1013300BD002923D19D
:1035A000002B18D1002A0CD0BC460D4F38667A6625
:1035B00000210023FFE7FFE7FFE77A6F386F6746D8
:1035C0007047002801D00748010000B51BF09CF9A6
:1035D0000022002300BD02000B00002000217047E4
:1035E000000000D0FFFFFFFF002B00D0BFE0130C56
:1035F00028D1002AE7D080B4114F39667A66FFE7F8
:10360000FFE730B4040C7B6F396F1B0423433B6628
:103610007A66FFE7FFE7FFE7C04684B27B6F3D6F46
:103620001B0423433B667A66FFE7FFE7C04600239F
:103630002C042D0C7A6F386F00196941B0BC7047AB
:10364000000000D0F0B594460025140E01D11202FE
:103650000835140F01D112010435940F01D19200E5
:103660000235D40F01D152000135D40B0134254F5E
:103670007C66254C3C660E0C93B2FFE7FFE7FFE744
:103680003C6F6643360C7703BE467343DF0B5B0427
:10369000C01AB941130C7343DB18C91ACE0866432C
:1036A000360CB64493B273431F0F1B01C01AB941C5
:1036B000130C73431F0B1B05C01AB941860D8F02F3
:1036C0003E436643360C092D24DB520A7243801AAE
:1036D0007703460A6643360C16235B1BDE40DF4049
:1036E000BF1964466643821B7046043506330100E9
:1036F000D940A840C01900D30131A24206D200230C
:10370000F0BD0000000000D0FFFFFFFF121B0130E2
:10371000F3D3F1E709277F1BFE406446A2B2724350
:10372000801A00D20139220C7243130C1204821A3F
:1037300099410B007046043513370100F940A84049
:10374000801900D30131002B02D1A2420AD2F0BD70
:10375000013000D30131121BFAD2013BF8D1A24251
:1037600000D2F0BD013000D30131121BF7E7F0B5F4
:103770001C0C00D080E00CB400251C0A04D11B02F4
:10378000160E3343120208351C0B04D11B01160F11
:103790003343120104359C0B04D19B00960F334335
:1037A00092000235DC0B02D192185B4101351C00FE
:1037B000971864410134464F7C66464C3C660E0CBB
:1037C000FFE7FFE7FFE7C0463C6F6643360C770331
:1037D000BE4697B27743C01B00D20139C01B00D24E
:1037E00001399FB27743C91BC91B170C77437E046D
:1037F000FF0B801BB941CE086643360C0C2D33DB22
:10380000B644120B1F053A431B0B97B27743C01BFC
:1038100000D201399FB27743C91B170C77433E048E
:103820003F0C801BB941860D8F023E43664329271A
:103830007F1BFE400C3D7746AF40BF1930BCA2B2A3
:10384000ABB272437343801A9941220C7243130C3A
:103850001204801A994102000B000137001BA94194
:10386000F9D2781E0021F0BD0C277F1BFE40774661
:103870007F0BAF40FF19E0E700245D1C07D0144F19
:103880007D663966FFE7FFE7FFE7FFE73C6F95B22C
:103890009EB265436643401BB141150C1E0C654347
:1038A000664336042F0C3E432D04401BB141994220
:1038B00004D202000B0020000021F0BD01D1904293
:1038C000F7D3801A994101349942F2D3F6E7000008
:1038D000000000D0FFFFFFFF48404140484018B4BF
:1038E000134B5B68019308BD18B4114B1B6801931F
:1038F00008BD94460F4A926F920805D2624618B4EA
:103900000B4BDB68019308BD0A4AF0B5146E556E87
:10391000576F166F6246FFF7F2FF064A1466556648
:1039200057671667F0BD18B4014B9B68019308BD3B
:10393000283B0020000000D0FFB5504042405040DE
:1039400059404B40594000E0FFB5154F4C00640D05
:1039500003D0BC4204D10C0314D80020090D090582
:103960005C00640D03D0BC4204D11C030AD80022C1
:103970001B0D1B0501264B4009D44B4003D58B4240
:1039800000D18242FFBD9942FCD19042FFBD0B4362
:10399000DB1803431343F5D0C9434918FFBD0000AA
:1039A000FF07000000B5FFF7CFFF804100BDC04614
:1039B00000B5FFF7C9FF01D9002000BD012000BDFF
:1039C00000B5FFF7B9FF01D9002000BD012000BDFF
:1039D00000B5FFF7B1FF804100BD012040054A005E
:1039E000121804D85A00121801D80020704701207C
:1039F00070470020704700000021002805D1704763
:103A0000C1174840401AFAD0C90713B5064B1B68C6
:103A100098470CBC441CA2401005120B0349091B1B
:103A200009051943114310BD303C00201F0400005C
:103A300010B54C00620D8023D218DB00D21A5B0552
:103A40007E2A10DD9E3A13DACC1709034908194380
:103A50005242D140640001341532202A05DAD040A8
:103A60000843604310BD002010BD0846604310BDF0
:103A7000C80FC018013810BD18B4024B5B6A01931F
:103A800008BD0000283B002010B50148FEF7E2FC0D
:103A900088FA0110132370B51D78204C012D0ED12A
:103AA00000231F499A000133A150202BFAD11D4B4E
:103AB000A3641D48FFF78CFC1C4B186070BD012DE2
:103AC000F5DD1B48FFF78CFC06001A48FFF788FC61
:103AD000023803789B007F2B05DC3221164B174AF6
:103AE0001748FEF727FC80223100200000F00AF979
:103AF000022DDED1134B1A88B5231B029A4209D13D
:103B0000114A124B12889A4204D1114A114B128861
:103B10009A42CCD00020FEF79DFCC046283B0020F6
:103B2000893A0010593B00104C330000303C002013
:103B30005344000053460000A0FA011063FB01103B
:103B4000F2FA011054380000D8380000494600004D
:103B50009C3800005946000007B56046002800D197
:103B600000BE01880A0A0230DF2AFAD1C9B28208EF
:103B700004D3028840880004104300E00068024A31
:103B80005050039007BD0000283B002051434343A1
:103B9000C9188C46110C83B24B4310B4040C61431A
:103BA00092B280B2504362431C041B0C001910BC3B
:103BB00059411304120CC018514161447047000070
:103BC00010B50148FEF746FCB6EB0110132310B503
:103BD00016481C78FFF704FC0100012C14D1144C8A
:103BE0005422200000F08EF80023124A2168002998
:103BF00000D1226001330434202BF7D10E48FFF7A7
:103C0000E7FB0E4B186010BD012CF7DD831E1B78FF
:103C10009B007F2B05DC4221094B0A4A0A48FEF72C
:103C200089FB8022024800F06DF8E7E75346000068
:103C3000343C0020C13B00104C330000303C0020DD
:103C400077FB011018FC0110A9FB011010B500282A
:103C500003D0044B4018984202D90348FEF7FAFB00
:103C600010BDC046000004202BFC011070B50500FB
:103C7000084E30001AF000FF28001AF08DF90400F9
:103C800030001AF039FE29002000FFF7DFFF200086
:103C900070BDC046B818002070B50D000400094E74
:103CA00030001AF0E9FE290020001AF015F904008E
:103CB00030001AF021FE29002000FFF7C7FF200086
:103CC00070BDC046B818002070B50400054D28002E
:103CD0001AF0D2FE20001AF069F928001AF00CFE42
:103CE00070BDC046B818002001480421014B184798
:103CF000700F0020F1330010014B1B6818470000C3
:103D0000700F0020014B5B6818470000700F002007
:103D1000030010B5080011001B68984710BD000093
:103D2000F7B505000E001F000192134B1C68002C14
:103D30000ED1124901984B6A9F4204D8896A814288
:103D400017D29F4215D101200021FDF797FDECE726
:103D50000B4B1B68002B03D0A34201D02469E6E77C
:103D6000A368002BFAD03100280098470028F5DD21
:103D7000FEBD01204042FBE7AC2F00200040054083
:103D8000B82F0020F8B50C000021437D0500160077
:103D900008008B421ED1110020002B689847F8BD07
:103DA000002927D0631E5B5C0D3B5A425341DBB2B6
:103DB000625C4F1C0A2A0CD1002B0AD1814203DD20
:103DC000091A2B68201898470D4802212B6898473C
:103DD000380039008E42E3DC86420DDD311A2B6853
:103DE00020189847A419013C23780D3B5A425341AF
:103DF0002B75D4E72B7DDBE7002ED0DDF2E7C04644
:103E000047FD011070B505000A4B1C68002C01D15C
:103E10002C6070BD2368002B0AD0074B1B68002B59
:103E200001D09C4204D12900200004C9FFF7AAFF59
:103E30002469EBE7AC2F0020B82F00200B6870B589
:103E400005000C00802B02D10800FFF7DBFF216882
:103E50004B1C23606418257170BD00003F2110B514
:103E6000024B034A0348FEF765FAC046A8EA011070
:103E700032FD0110F9EA011010B5FDF7E7FC020070
:103E80000B1E01DAFFF7EAFF0021064812184B412A
:103E9000002B02DA0122044B524204481AF0BCFD06
:103EA00010BDC04640420F00FFFFFF7FC01800203A
:103EB00010B502481AF020FD10BDC046C018002001
:103EC000F0B585B006000D001C000092FFF7D4FF8E
:103ED00001906B1C03D130001AF056FB0500144F03
:103EE000002C00D1134F144B1C68002C06D1019BF1
:103EF000002B01D0FFF7DCFF05B0F0BD2368002BDD
:103F000013D00E4B1B68002B01D09C420DD12A0010
:103F100031002000B847009B002B06D002ABD91D12
:103F20000A23012220000B70B8472469DDE7C04650
:103F3000113D0010853D0010AC2F0020B82F00204F
:103F4000094A1368002B03D1002908D0106006E04D
:103F5000834205D1002902D11869106019617047A8
:103F60001A001B691032EDE7AC2F0020054B10B58D
:103F70001C68002C00D110BD6368002B00D098474E
:103F80002469F6E7AC2F002070B505001AF0FCFAA2
:103F900004000100002328000122FFF791FFFFF732
:103FA000E5FF200070BD000070B5A2B004000E0057
:103FB000FFF762FF002322000193050033000A4847
:103FC00001A9FFF7E7F9019B0400002B02D001A82B
:103FD000FFF718FFFFF7CAFF002D01D0FFF768FFBA
:103FE000200022B070BDC0463D3E00100FB407B5A2
:103FF00004A901C90191FFF7D7FF03B008BC04B0C1
:10400000184710B500F00CFA10BD000037B50400D9
:104010000025FDF71BFC02000B00A94201DAFFF7A7
:104020001DFF12196B41002B02DA0122094B52428B
:1040300001AC01212000FFF773FE002808DB06D148
:104040009E21054B054A06484900FEF773F9207882
:104050003EBDC046FFFFFF7FA5F301101FFD01100D
:10406000B9FC0110704700000022014B1A70704724
:10407000604300204B790020FF2B0BD18B798342CA
:1040800008D1CB79012B05D1082A03D98A78024BB4
:1040900009301A707047C046604300200120704705
:1040A00070B5012923D113495379107909781B027E
:1040B0000343002099421BD15678012E11D1D378A9
:1040C00095781B0204001D43DB0502D534006B0A02
:1040D0009C400948FFF77CF97F210300294020001C
:1040E0009847022E04D164220100FEF7C7F8012090
:1040F00070BDC0466043002055420000012303709C
:10410000004870474CFD011048780B788A7800020F
:104110001843120410439622CB7810B51B060343B4
:10412000D200934206D10448FFF752F90021030060
:104130000800984710BDC04655420000024B186069
:10414000024B19607047C0460C210020102100204E
:1041500010B5024B1878FCF753FB10BD66430020E6
:104160003F2110B5024B034A0348FEF7E3F8C0466F
:10417000A8EA011000FE0110F9EA0110054B1868C9
:10418000EFF3108272B601680029FCD0BFF35F8F95
:104190005A607047F43A002070B50D4C2368002B2C
:1041A00013D0FFF7EBFF00230A4A137006CCBFF3CE
:1041B0005F8F0B6082F3108800240025064B18786F
:1041C000FCF71EFB2900200070BDFA24A400F4E7D0
:1041D000F43A0020A7DC0020664300201FB504004D
:1041E000FDF734FB02000B1E01DAFFF7B9FFFA20DE
:1041F0000021800012184B41002B02DA0122064BED
:1042000052420121029100210191044920000091B4
:10421000FDF71EF904B010BDFFFFFF7F99410010AC
:1042200010B50400FDF712FB02000B1E01DAFFF7C8
:1042300097FF0021054812184B41002B02DA01229A
:10424000034B524220002260636010BD40420F00C9
:10425000FFFFFF7F70B5144D002128001AF0A4FB6A
:10426000041E08D001200021404200F045FD280036
:104270001AF042FB70BD0D4D2B68002BFAD0FFF7F2
:104280007DFF01210A4A13781170DBB206CDBFF31E
:104290005F8F0C6082F31088002BEBD1FDF76CF878
:1042A000FFF79CFFE6E7C046D03D0020F43A00202F
:1042B000A7DC0020F0B585B0019002A80091FFF7BF
:1042C000AFFF029A039B2D481AF0A6FB002851D09D
:1042D000002001F0A3F800284ED100200021284B37
:1042E0001860596043E0009B00205F1B01F024F937
:1042F0000400B84200DD3C00002C18D0019B2200D5
:104300005919002001F0FEF804000120002140426C
:1043100000F0F2FC002001F0B9F8FDF797FA184B15
:104320002D1918605960009BAB42DCDC1FE00120B6
:104330002100404200F0E0FC200001F0A7F820003E
:1043400001F06CF8002812D0200001F0F5F80028E8
:10435000E9D10027FDF77AFA0A4E094B1A685B6823
:1043600092197B41994202D8DDD19042DBD90348B2
:104370001AF0C2FA05B0F0BD0025D4E7D03D002008
:10438000681A002020A1070073B5040000200E0069
:1043900001F044F8002803D103246442200076BDD4
:1043A000002001F053F80028F6D06846FFF738FFE8
:1043B000009A019B114D28001AF02EFB0028EBD02B
:1043C000002001F02BF8002810D0002001F03EF86A
:1043D00000280BD021003200002001F043F8041E19
:1043E00000D1033C28001AF087FAD7E70120032404
:1043F0000021404200F080FC6442F3E7D03D002001
:10440000054B10B51868002804D0044B0022196829
:1044100000F092FB10BDC0460C21002010210020AE
:10442000D02370B51B061C68FCF7A6FFFDF704F946
:10443000A04205D0B2211F4B1F4A2048FDF77AFF4A
:104440001F4B1B7801F00AFA1E48FCF7C3FC012041
:10445000FCF76AFC1C4C1D492070C0B2FCF7F2F955
:1044600020780121FCF7C4F90520FCF7D9F9184E92
:10447000041E10D0174900220520FCF70DFAFDF7A5
:10448000B5FB01003000FCF7BFFC01211248FFF72B
:1044900057FD01240BE0FCF76FFFFFF79FFE08229A
:1044A000050021003000FFF727FC002DEDDA200089
:1044B00070BDC04636EF0110F1FD011064FD011022
:1044C000443A0610D03D00206643002055420010BB
:1044D000F43A002051410010800F0020004870473E
:1044E00085FE01100048704731FE011010B5040030
:1044F00014480378002B02D1112100F03BF8002C66
:104500000CD1114B114A5A800123C0220133DBB276
:104510000D485B0092001343038010BD0020052C62
:10452000FBD802000A4BA400E4580749A05CD3B2B0
:104530000028EAD0013248800231132AF6D1130054
:10454000E3E7C046FDEC00203840002009040000ED
:1045500098FE011010B5024800F03CF810BDC046AE
:104560005FEC002010B508220149FFF7CBFB10BD1E
:104570005FEC0020F8B50023994209D001250F26F1
:104580000139994201D9102B08D10022C254F8BD3B
:104590001F210C4B0C4A0D48FDF7CCFE1F000C4CA4
:1045A0002F405A08A25C3C0067426741BF003A4175
:1045B0003240D4B227003737092A00DC073FC754FE
:1045C0000133DEE7F60502101EFF0110B0FE0110F8
:1045D0005FEC002070B50024092688B00500320089
:1045E000210001A80094FFF787FB3200210005A8F5
:1045F0000494FFF781FB4B236A466846137004A9B5
:104600000D221AF071F91521082228006944FFF7DC
:1046100079FB08B070BD0000F8B57F230340C409E2
:104620005D002F4E2F197F01F719B8700120A043AC
:1046300078700020F87098013983FA768C46DF0094
:104640003018012C10D127497F18876200272819BC
:104650004001301880680760BB4209D164013619F7
:104660007360214BF360F8BD20497F188760EDE748
:10467000581E9B01C000F318012C1AD11C49401888
:10468000586261463F233F3189B29943022A00D1E3
:10469000490018482D1903686D0176195918F360FF
:1046A0000160880609D05421134B144A1448FDF7C1
:1046B00041FE144940185860E3E713484340414025
:1046C00080204001814203D95621104B0B4AEDE76F
:1046D00092061A4380231B061A4373681A60C2E7C6
:1046E0001836002080001050000110508400105037
:1046F00008001050E43A0020ED00021025020210DC
:104700001C0102100C001050000010509901021002
:1047100010B5002806D0D521054B064A06484900A9
:10472000FDF708FE01210520FCF762F810BDC04628
:10473000DE010210160202101C010210010010B569
:10474000002806D0DB21054B054A06484900FDF745
:10475000F1FD0200044800F0FBF810BDDE0102107C
:10476000060202101C010210383600208022024B83
:104770005202DA647047C0460020115070B5041E22
:1047800006D08621164B174A1748FF31FDF7D2FD98
:1047900000F0B8F80C23154DFF22AB670520144933
:1047A000FCF77AF8210040221248FFF7A5FA220010
:1047B00020004021FFF730FF220040218020FFF73A
:1047C0002BFF1AF0D1F801232B6480239B05EB64A7
:1047D000094A0A4B20001A60FFF7C8FF70BDC046A7
:1047E000DE010210380202101C01021000001150FC
:1047F000B10700201836002010D0010090001150A1
:104800000B785B0605D14B78052B02D18A78014BDA
:104810001A6070470000115010B50C00002806D037
:10482000FC210A4B0A4A0B48FF31FDF783FD6379EF
:10483000CA7809791B020B435B059207A078920F97
:10484000590DFFF7E9FE012010BDC046DE01021040
:10485000F80102101C01021010B51AF085F810BD05
:1048600010B50C0011001A00002805D0084B094AA9
:1048700009490A48FDF75EFD7F2020404000E40919
:10488000074B00194001C01800F062F8012010BD6C
:10489000DE010210EA0102100A0200001C010210EF
:1048A000183600207F22080010B51040CC091142B4
:1048B00003D107497D3A121B8A6680224000054BCE
:1048C000001940010021C01812011AF0CDF810BDE6
:1048D00000201150183600207F22080010B510402B
:1048E00011420AD00022C909400040180349400182
:1048F0000818C27002491AF0B7F810BD1836002027
:10490000FFF7FFFF80230D4A5B0470B513600C4A6C
:104910000C4913601C008A689443FBD10A4D2100A6
:1049200028009C22FFF7E8F9802221005201074865
:10493000FFF7E2F909236B6770BDC04600E0004055
:1049400000F0004000C00040000011500000105076
:1049500070B5837E04000D001600002B01D01AF004
:1049600073F80023E38201332000A682A376256139
:1049700019F0B2FF002803D08022074B92021A6080
:1049800020001AF069F8002802D00123237770BDB7
:1049900020001AF049F8FAE7902011500CC8BFF334
:1049A0005F8F0021116083F3108870470A4A03006B
:1049B000002A0BD0094A1078984205D91820084AD5
:1049C00043431068C01870471B1ADBB200208342B3
:1049D000F9D10448F7E7C046FD4000101B41002014
:1049E000281B0020540302100168EFF3108372B6F5
:1049F0000A68002AFCD0BFF35F8F4360704770B530
:104A000005000C001600C86800F080FC3200280089
:104A10000121E368984770BD70B5050000242000AF
:104A2000FFF7C4FF002819D04368280098470C4BB3
:104A300001341B78E4B2A342F1D20A4C5322002184
:104A40002000FFF759F91022FF21E01CFFF754F96D
:104A500020002022FF211330FFF74EF970BDC04621
:104A60001B4100201D410020024B5878431E9841F5
:104A7000C0B270471D410020024B18784007C00F9C
:104A80007047C0461D410020034B1878FF38431E75
:104A90009841C0B27047C046BC0F002070B51D4D94
:104AA00004002B780120FF2B32D1532200211A4819
:104AB000FFF722F9194E3000FCF78CF9184B1E60F5
:104AC000184E30001430FCF7A9F9300001F030FA2C
:104AD000154B1E60154B002B04D01548FFF70EFB3D
:104AE000144B186000263000FFF760FF00280FD03D
:104AF000036898470E4B01361B78F6B2B342F2D2E8
:104B000020002C70FFF73AFE2000FFF701FE012085
:104B100070BDC046BC0F00201D410020081E0020B3
:104B2000501E0020A00F0020541E0020FD40001049
:104B30001B410020281B00201FB5802302901B0171
:104B4000039101A81100019319F046FF05B000BDC3
:104B5000702370B58A780C001A4201D0002070BD15
:104B6000064B20001D78064B997800F0C3FE002804
:104B7000F4D021002800FFF74FFEF0E7BC0F002023
:104B80001D410020F7B506000C001F000025019212
:104B9000019BAB4201DC012003E06378052B01D0CF
:104BA0000020FEBDE3789B079B0FBB42F8D121009C
:104BB0003000FFF7CDFF0028F2D0A378DA09012AF0
:104BC00005D1099A137023780135E418E0E7089AB3
:104BD000F8E700007F2010B50840C90940003331D4
:104BE0004118034B03484018196800F040FE10BDFF
:104BF000501E00201D4100207F2010B50840C9092B
:104C0000400033314118034B03484018196800F045
:104C100056FE10BD501E00201D4100207F2070B5A3
:104C200008400E4C4000CD09241864193034E57852
:104C30000020ED0710D40125E67809482E430078BE
:104C4000E670FFF70DFE002806D10422E378AB439F
:104C5000E370E3789343E37070BDC0461D410020CC
:104C6000BC0F00207F2310B50B400B4C5B00E418F9
:104C7000CA09A4183034E3789B070BD4074B187883
:104C8000FFF710FE0223E2781343E3700123E2787A
:104C90001343E37010BDC0461D410020BC0F00202F
:104CA0007F2310B50B400B4C5B00E418CA09A41815
:104CB0003034E3789B070BD5074B1878FFF70CFED1
:104CC0000222E3789343E370E378013A9343E3707D
:104CD00010BDC0461D410020BC0F00207F22CB0923
:104CE0000A40044952008918C9183031C878800731
:104CF000C00F70471D410020F0B58BB000F0B3FD30
:104D0000002800D17BE2BE4B07AC1D682E00143694
:104D10003000FFF769FE2800210001F0A8F8050027
:104D20003000FFF73BFE002D00D168E260780138CB
:104D30000728E8D819F058FE08001100E7FF4102E3
:104D400050021C001A025C022078FFF765FE00F09A
:104D5000D3FA2279AB4B9A70D5E72078FFF75CFE47
:104D600000F0CAFAA84B002BCDD000E000BFCAE784
:104D70000120A44D04212B78277803432B702B00AE
:104D800033331A78602682431A701A788A431A706D
:104D90002B0034331A7882431A701A7800208A4321
:104DA0001A7000F0B3FA23791A0032400092B2422E
:104DB00027D0402A0CD19548002822D000F0A6FA2E
:104DC0000121380008AA00E000BF00289BD118E0AC
:104DD000DB06DB0E0193012B00D154E1022B00D145
:104DE00079E1002B0DD1009B202B14D1237A0F2BBE
:104DF00007D8EB18D878FFF7D9FD08AA011E00D014
:104E000080E107AC20780021FFF74CFD802120785D
:104E1000FFF748FD77E7009B002BF2D16079092866
:104E2000EFD819F0E1FD20011801EEFF0F01EEFFB0
:104E30000A00B000EEFF16001C0008A800F06CFA93
:104E40003800A179FFF77AFC02232A7813432B70EC
:104E500059E706AA6B780232137001230EE1A37999
:104E600000936B78009A9A4235D06B78002B07D06C
:104E70003800FFF7F1FCAC783800FFF7CDFDAC70DF
:104E8000009B002B27D0581EC0B2FFF72BFB002839
:104E9000B7D043780393022BB3D101210400C27928
:104EA0000934931152110B400A4012015B01134364
:104EB0002A782F318A4313432B70C37882781B02E0
:104EC0001343C3180493049BA3420CD8504B002BEC
:104ED00001D000E000BF4B4B009A5A70380008A97F
:104EE00000F0CEF90FE70122637801920B2B03D17A
:104EF000E37801932378E4186378042B81D10026AA
:104F0000049B1B1B9BB205933000FFF74FFD051E52
:104F100000D176E721003800059AAB6898470290E7
:104F2000082829D9059B834226D3019B012B05D153
:104F3000384BAA689A4201D1039B01930022314861
:104F4000019B9A420CD133002100029A133000F0E9
:104F500001FD029BE418304B1B78B342B3D250E7FB
:104F6000A378D318DBB2C318D978FF2900D048E75B
:104F70000132DE70D2B2E3E7274B01361B78F6B27E
:104F8000B342C1D23DE7E3881A0A501EDBB20E28B5
:104F900000D936E719F028FD0F002600460035FF3E
:104FA00035FF4F00260035FF35FF35FF35FF35FF54
:104FB00035FF35FF1800FFF791FA12230200380081
:104FC00008A900F06FF900E7144B002B00D118E797
:104FD00000E000BF021E00D113E7C37881781B02F6
:104FE0000B43ECE7022A03D11800FFF77BFAF1E745
:104FF0000B4A002A00D104E7180000E000BFE9E7EF
:10500000541E00201D410020000000000000000090
:1050100000000000FD5500101B41002000000000B2
:105020000000000018002189FFF760FA021E00D17D
:10503000E7E60378C3E7734B002B00D1E1E600E01D
:1050400000BFF3E7E388012B00D0DAE62A780733C4
:1050500013432B7042E7E388012B00D0D1E60822EE
:105060002B789343F5E701212B7806AA58090840CD
:10507000990802231940023201431180380008A91F
:1050800000F010F93FE6237A0F2B00D9B9E6EB18B0
:10509000D878FFF78BFC011E00D1B2E6380008AAD1
:1050A000FFF7ADFC002800D02DE623791D00354028
:1050B000334200D0A5E663790A3B012B00D9A0E674
:1050C000280000F023F963790A2B00D006E706AB2D
:1050D0009A1C1570C1E67023267A1E4200D090E615
:1050E0000F3333405B00F209EB189B18D87CFFF7B5
:1050F0005DFC009B0290002B08D0002800D180E6C8
:10510000010008AA3800FFF77AFC5EE6637901998E
:105110001A008A43012A0BD0002B00D071E631001F
:105120003800FFF7DBFD06AB9A1C1080019BA5E75A
:10513000E288002A05D131003800012B13D1FFF796
:10514000AFFD029B002B00D1DDE5190008AA380055
:10515000FFF755FC3435002000F0D8F82B78DB073A
:1051600000D5D0E5BAE6FFF77DFDEAE77F20257997
:10517000254B28404100EA095B189B181A000126BC
:105180003032D178B143D170D1780336B143D17088
:10519000002806D1290062792078A36800F0CAF8B7
:1051A000B1E5D87CFFF702FC031E28D01E69290058
:1051B00062792078A368B047A5E5134B1A78D20727
:1051C00000D4A0E5114A002A00D19CE51878000718
:1051D000C00F00E000BF96E50B4B1B78DB0700D447
:1051E00091E50B4B002B00D18DE500E000BF8AE577
:1051F0006368002B00D186E5A068984783E50BB073
:10520000F0BDC046000000001D410020000000006D
:105210000000000070B5134B0600D9899889421A26
:10522000151C92B2402A00D940251A78ADB27F2AC7
:105230000ED9884211D00C4C2A0099682000FEF744
:1052400061FD802122002B003000FFF7E7FC70BDDC
:10525000884204D100210022F5E78021FBE70021EC
:10526000014AF0E7F41D0020101E002049B2C94396
:10527000002310B5C90F1A00C901FFF7CFFC10BDFC
:1052800070B5074E0500082230000C00FEF73AFD0D
:1052900000232800F3602178B360FFF7E7FF70BDBB
:1052A000F41D0020F7B5134F150006000822380042
:1052B0000C000193FEF726FD0023BD60FB81E3791E
:1052C000A2791B02019913431A1C8B4201D96A4629
:1052D000928891B2BA81002B07D0002901D0281EF4
:1052E00002D03000FFF796FFFEBD30002178FFF7B7
:1052F000BDFFF9E7F41D002010B51422002102487B
:10530000FEF7FAFC10BDC046F41D0020014B1861E9
:105310007047C046F41D002010B5054C010008225E
:105320002000FEF7EFFC0023A360E36010BDC04641
:10533000F41D002070B5254C1E0023780500DA0905
:10534000C9098A4213D0002086422CD1204B8342C7
:1053500003D021002800FFF753FA23690120002B16
:1053600021D0220003212800984701201BE07F2B39
:1053700006D8A368181E16D032001649FEF7C2FCE4
:10538000A268E38992199B19A260E2889BB2E3812B
:105390009A4201D03F2E15D82369002B04D1280052
:1053A0002178FFF763FF70BD022122002800984793
:1053B000011EF4D12800FFF775FA80212800FFF7BD
:1053C00071FAD2E72800FFF725FFECE7F41D002073
:1053D00001480010101E002070B5050010350400B3
:1053E000280000F030FD3F2812D90020E178FFF7B7
:1053F000F1FB00280CD0280000F025FDE1783F28C3
:1054000007D992239B00E21800204023FFF706FCF7
:1054100070BD0020FFF7F0FBFAE7000010B50400B4
:10542000FFF722FB002801D1002010BDFFF724FB6D
:105430000028F9D1B220012380004443024800191A
:1054400000791840F1E7C0462C1B0020B2239B00D6
:10545000584310B5024B1030C01800F0C5FC10BD09
:105460002C1B002070B5B224A40044432000064E3B
:10547000103092B2801900F01BFD0500A019FFF753
:10548000ABFF280070BDC0462C1B0020F7B5040000
:10549000FFF7EAFA002801D10020FEBDFFF7ECFA81
:1054A000051EF9D1B220800044432600144F243653
:1054B000F619300000F098FC0028EDD03B192800C8
:1054C00099780193FFF786FB0028E5D0A2239B0083
:1054D000E418E71939004022300000F0E9FC019B94
:1054E00004009978002808D003003A002800FFF74C
:1054F00095FB0028D0D02000CFE7FFF77DFBFAE72F
:105500002C1B002070B5B224A4004443094B243462
:10551000E418050092B2200000F001FD0600200012
:1055200000F062FC3F2802D92800FFF7AFFF3000EF
:1055300070BDC0462C1B0020B2239B00584310B501
:10554000024B2430C01800F07EFC10BD2C1B002044
:10555000F7B5B222154C002120009200FEF7CCFBDB
:10556000FF236371124B802700260125E380082367
:105570007F003A00258123730E492B0000960E48C8
:1055800000F0FEFB2B003A000C4900950C4800F09F
:10559000F7FB0C4D2800FBF71DFC25620A4DE66168
:1055A0002800FBF717FC25636663F7BD2C1B002062
:1055B00000C2FFFF641B00203C1B0020641C002075
:1055C000501B0020641D00206C1D002010B505221A
:1055D00000210748FEF790FB064800F0A9FC064CA6
:1055E000200000F0A5FC0121200000F0C0FC10BD4F
:1055F0002C1B00203C1B0020501B0020F0B54B79D9
:10560000070085B0022B03D00025280005B0F0BDAF
:105610008B79022BF8D11F4EB378002BF4D18B7805
:10562000092533700C780C1903E02378ED18ADB21E
:10563000E4186378242B1DD19542F6D96378042BA6
:1056400014D163790A2B11D1237838000393E11820
:10565000114B0193114B009302231A00FFF792FAAA
:105660000028D1D0039B0E35ED18ADB23000FFF706
:10567000B3FECAE7052BE1D121003800FFF768FA35
:105680000028C1D0A37873702378ED18ADB2E41868
:10569000D4E7C0462C1B00202E1B00202F1B00200F
:1056A000F8B5050060200B001100127800240240BC
:1056B000202A43D12A4F4A790E7938781202324390
:1056C00090423BD148782038032837D819F09CF90C
:1056D00002151838012B06D107232800214AFFF7AD
:1056E000E1FD01242AE0032BFBD11F4B002BF8D056
:1056F00000201C49FEF708FDF3E7012BF1D1EBE791
:10570000012B03D12800FFF7BBFDEAE7032BE8D10B
:105710000124CD788A7821002D0215432E001348EC
:105720003D71A94300F023FC114B2640002BD8D03B
:105730006A0831000020224000E000BF2000F8BDD0
:10574000012BDFD0032BCCD10A4B002BC9D08B7897
:10575000C97800200902194300E000BFC1E7C04634
:105760002C1B0020321B002009410010501B002080
:105770000000000000000000F7B5314C01900091DE
:105780001D00E3788B4205D0A3788B4211D0002511
:105790002800FEBD2B4F2C493800AAB200F0BFFBF9
:1057A0002A4B002B0BD12A4B002B1DD12000FFF7D9
:1057B00013FEA378009A93421ED00125E8E763798F
:1057C0000026FF2BEFD0AE42EDD01F4B62799B5DE0
:1057D0009A4207D1380000F01BFB002802D1617902
:1057E00000E000BF0136EEE7380000F011FB0028B2
:1057F000DCD1FEF705FED9E7164B002B02D00020C6
:1058000000E000BF0020FFF741FE0028D5D112487C
:1058100000F0EAFA0028D0D1002DCED03F232E0090
:105820001E401D42C9D1A1780198FFF7D3F9051E8A
:10583000C3D033003200A1780198FFF7EFF9A7E752
:105840002C1B00203C1B0020741D002000000000C9
:105850000144001000000000501B002010B5002083
:10586000FFF71CF910BD10B5FFF70EF910BDF8B524
:1058700003780400DB070E00DD0F002B1DD1037839
:105880005B07DF0F002B14DB01213000494219F0C8
:105890009BF82378DB07DD0F002B0CD123785B0707
:1058A00004D404230125227813432370300019F017
:1058B00023F82800F8BD3D00F8E70025F9E770B5AA
:1058C0000D00012104004942280019F07DF82378D9
:1058D0005B07DE0F002B06DA2378DB0708D40422EF
:1058E000237893432370280019F006F8300070BD28
:1058F0000026F8E710B543790479C2781B022343E8
:105900005B0592075B0D920F022A0DD00020032A3F
:1059100012D0012A07D102394A4251410B4A891853
:1059200099424041C0B210BD0020022906D1084A68
:10593000981843425841F5E7022903D040229A4281
:105940004041EFE78022D200F9E7C046FF030000A4
:1059500000FEFFFF70B57F268A18914200D370BD0C
:105960004C78052C06D18D782C0034406400ED096C
:10597000041963550C780919EFE78A1892B24000B0
:10598000914201D8824201DB121A92B21000704794
:1059900070B50500D41A0800AE88A4B29A4202D2AB
:1059A00071006418A4B2211E11D0A64204D29642FE
:1059B0000FD8921B93B26B819E420CD9EA8829685A
:1059C0005204520C5343C918FEF79CF901210800F8
:1059D00070BDB218EEE79B1B9BB2EDE7F7B59608DA
:1059E0001400050032000B00013A114892B28242C5
:1059F0000ED103232200B60089191A401C4206D09A
:105A0000002301A80193FEF77DF9019B2B60F7BDF0
:105A10001878844667465878000238439F783F04D8
:105A20000743D8780433000638432860DCE7C046D3
:105A3000FFFF0000F0B5050087B000910CA90988B0
:105A40000DA85C1A0078AE88A4B28B4202D277000F
:105A5000E419A4B2002C27D0A64205D29E4226D833
:105A60009B1B340099B26981231C944200D9131CFA
:105A70009CB28E421DD9EA88731A5204520C170048
:105A80009BB25F43A61B8E1956435143BFB2019789
:105A90002F68B6B27F1801281AD09C420CD8390062
:105AA00062430098FEF72EF9200007B0F0BDF3180E
:105AB000D7E7891B89B2DCE73900019A0098FEF725
:105AC00021F9019B00989C46320029686044E9E76F
:105AD0009C4206D83900624392B20098FFF77EFFDD
