:10200000008000209921000085210000852100002A
:1020100000000000000000000000000000000000C0
:10202000000000000000000000000000852100000A
:102030000000000000000000852100008921000050
:1020400085210000852100008521000085210000F8
:1020500085210000852100008521000085210000E8
:1020600085210000852100008521000085210000D8
:1020700085210000852100008521000085210000C8
:1020800085210000852100008521000085210000B8
:1020900085210000852100008521000085210000A8
:1020A0008521000085210000852100008521000098
:1020B00070B500230A243225144A10782100002824
:1020C00000D129008B4216DA114801680A310668EE
:1020D000B14201D9C046FAE70E490968090511D491
:1020E0000368643301688B4201D9C046FAE70123D3
:1020F00011784B401370802306491B010A681A426D
:10210000FCD070BD0133DBB2D7E7C0460000002031
:102110000400002020440041F8B500F05BF8C02224
:10212000124B12031A608022114B12011A60114BDC
:1021300002211A780022197059785A7099789A7089
:10214000D978DA700123802580270B4AED021178B7
:102150003F034B401370094E094C35602760FFF771
:10216000A7FF37602560FFF7A3FFF4E708440041AD
:10217000044400414B44004100000020144400414D
:1021800018440041FEE7FFFF024A13680133136061
:102190007047C0460400002010B5094B094A0A499F
:1021A0008B4207D10021094B094A934205D1FFF721
:1021B000B3FFFEE701CA01C3F2E702C3F5E7C04679
:1021C0000000002020220000040000200400002065
:1021D000080000200B4A0C4913680B4013600622CC
:1021E0000A4B0B491A600B4A116000210A4A116020
:1021F000012219680A431A608022084B12061A60ED
:102200007047C04620080040FFFCFFFF10E000E0E0
:102210003F1F000014E000E018E000E000E100E0F3
:0422200001FFFFFFBC
:04000003000021993F
:00000001FF
