:020000040800F2
:10200000FF4F00203526000881260008832600089F
:1020100085260008872600088926000800000000A1
:102020000000000000000000000000008B260008F7
:102030008D260008000000008F2600089126000869
:102040007D2600087D2600087D2600087D260008E4
:102050007D2600087D2600087D2600087D260008D4
:102060007D2600087D2600087D2600087D260008C4
:102070007D2600087D2600087D2600087D260008B4
:102080007D2600087D2600087D2600087D260008A4
:10209000952600087D2600087D2600087D2600087C
:1020A0007D2600087D2600087D2600087D26000884
:1020B0007D2600087D2600087D2600087D26000874
:1020C0007D2600087D2600087D2600087D26000864
:1020D0007D2600087D2600087D2600087D26000854
:1020E0007D2600087D2600087D26000800000000EF
:1020F00000000000000000000000000000000000E0
:0C21000000000000000000005FF808F183
:10210C0010B5054C237833B9044B13B10448AFF325
:10211C0000800123237010BDAC05002000000000DE
:10212C008056000808B5034B1BB103490348AFF3B5
:10213C00008008BD00000000B0050020805600089B
:10214C0070B50D4E0D4D761BB61006D0002455F80B
:10215C00043B01349847A642F9D1094E094D03F0CE
:10216C0089FA761BB61006D0002455F8043B0134CE
:10217C009847A642F9D170BDFC560008FC560008E1
:10218C0008570008FC560008830730B548D0541E89
:10219C00002A3FD00346CAB201E0013C3AD303F80F
:1021AC00012B9D07F9D1032C2DD9CDB245EA05257C
:1021BC000F2C45EA054536D9A4F1100222F00F0C7C
:1021CC0003F1200EE6444FEA121C03F1100242E91F
:1021DC00045542E9025510327245F8D10CF1010256
:1021EC0014F00C0F03EB021204F00F0C13D0ACF133
:1021FC00040323F003030433134442F8045B9342B7
:10220C00FBD10CF003042CB1CAB21C4403F8012B13
:10221C009C42FBD130BD64461346002CF4D1F9E747
:10222C0003461446BFE71A46A446E0E7024B13B137
:10223C00024800F005B87047000000005922000861
:10224C00002301461A46184600F01AB838B5084B58
:10225C00084D5B1B9C1007D0043B1D44013C55F8FA
:10226C0004399847002CF9D1BDE8384003F008BA7E
:10227C000C57000808570008704700BF704700BF94
:10228C002DE9F047DFF87CA00646DAF80000984606
:10229C000F469146FFF7F0FF1B4B1B68D3F84841E4
:1022AC0024B365681F2D26DC5EB96B1C0235DAF889
:1022BC000000636044F82570FFF7E0FF0020BDE8E4
:1022CC00F087012304EB8501C1F88890D4F88821AC
:1022DC00AB401A43022EC4F88821C1F80881E4D11E
:1022EC00D4F88C211343C4F88C31DEE703F5A674C3
:1022FC00C3F84841D5E7DAF80000FFF7BFFF4FF00D
:10230C00FF30DCE7280400209856000810B54FF485
:10231C0000710D4800F060FDA0B9642000F05EFC77
:10232C000A4A094C137883F0010313704FF40071BF
:10233C00204600F051FD0028F8D0BDE81040642084
:10234C0000F04CBC10BD00BF000C01402C04002060
:10235C002DE9F0410025DFF86480194F98F8002032
:10236C00EBB2002A14BF0A223222934223DA00F085
:10237C002FFC064600F02CFC801B092819D8FFF70F
:10238C00C5FF00F077FB04460028F3D0082828BFCF
:10239C000824A4B22146384600F078FB0028E9D185
:1023AC002146384600F050FB0128E3D1FFF7AEFF81
:1023BC00F6E70135D2E7BDE8F08100BF2C04002020
:1023CC00C905002072B6FEE710B594B014220021A6
:1023DC000CA8FFF7D9FE02244FF480330122CDE97B
:1023EC001143CDE90A234FF4E0130AA8139302F02A
:1023FC0021F808B172B6FEE70F23CDE905344FF48E
:10240C00806307900990214605A8089302F0E8F92B
:10241C0008B172B6FEE71023CDE90200049001A8C2
:10242C00019301F037FB08B172B6FEE714B010BD92
:10243C0030B5494B494D4A4C8DB0AB60032001F08F
:10244C0079FFE36943F08053E361E36903F0805360
:10245C000093009BA36943F00103A361A36903F0FC
:10246C0001030193019B636943F04003636163695A
:10247C0003F040030293029BD5F8FC30D9015EBFF8
:10248C00D5F8FC3043F08073C5F8FC300025354B93
:10249C005D601A6842F001021A6000BF00BF00BF05
:1024AC0000F078FBFFF790FF2F4B06A806938DF8F2
:1024BC001C508DF81D5000F0A4FBA369022243F0C0
:1024CC000403A361A369294803F004030393039B4A
:1024DC00A36908A943F00803A361A36903F00803E7
:1024EC000493049BA36943F01003A361A3694FF405
:1024FC00805403F010030593059B0123CDE9084399
:10250C000323CDE90A2300F08DFB2A462146174808
:10251C0000F068FC642000F061FB2A461449154861
:10252C0002F0FAF908B172B6FEE71349114802F04D
:10253C0008FA08B172B6FEE710490E4801F0B5FE74
:10254C0008B172B6FEE70B4802F002FA08B172B697
:10255C00FEE70DB030BD00BF0020000800ED00E02C
:10256C0000100240001000E0003002400008014062
:10257C0034040020B01400209C04002084040020AB
:10258C001FB501224FF40051244800F02BFC01240C
:10259C004FF400530225002669462048CDE900344B
:1025AC000395029600F03EFB224680211C4800F069
:1025BC0019FC802369461A48CDE90034039502962C
:1025CC0000F030FB4FF4007369461548CDE9024525
:1025DC000093019600F026FB124A104D13786340CD
:1025EC000F4C1370284601224FF4005100F0FAFBF7
:1025FC0020460122802100F0F5FBFFF7A9FE2846BA
:10260C0000224FF4005100F0EDFB00228021204607
:10261C0000F0E8FBFFF79CFEE4E700BF0010014070
:10262C00000C01402C0400200C480D490D4A0023DD
:10263C0002E0D458C4500433C4188C42F9D30A4A6B
:10264C000A4C002301E013600432A242FBD300F0D9
:10265C0021F8FFF775FDFFF793FF7047000000208E
:10266C00AC0500200C570008AC0500208818002091
:10267C00FEE770477047FEE7FEE7FEE7FEE77047B0
:10268C007047704700F098BA014800F057BC00BF83
:10269C00D40500207047000003289ABF014B185C3A
:1026AC0002207047AC56000807B50E4B02689A42E0
:1026BC0015D103F5DA33DA69142042F40002DA6139
:1026CC000022DB69114603F400030193019B01F026
:1026DC0043FE142003B05DF804EB01F06FBE03B0B1
:1026EC005DF804FB005C004000F52C71D0F8E802AA
:1026FC0002F045B9282303FB0103D0F8E802D3F814
:10270C007C2102F069B9282303FB0103D0F8E8020D
:10271C00DA6B02F09BB9D0F8E80202F02FBA8368AA
:10272C0010B5022B044601D0FFF74CFED4F8E8029A
:10273C00012102F00DFAD4F8E802BDE8104002F0D5
:10274C00E0B9000010B50446D0F8E80202F003FA34
:10275C00A36923B1024A136943F00603136110BD48
:10276C0000ED00E0D0F8E80202F0FEB9082310B545
:10277C001D4A04461D48C0E9002302238360002340
:10278C00C0F8E842C4F8C002C0E90633036200F0A6
:10279C002EFB08B1FFF716FE002218231146D4F8C1
:1027AC00C00201F02DFE582300228021D4F8C00273
:1027BC0001F026FEC02300228121D4F8C00201F0D2
:1027CC001FFE4FF4887300220121D4F8C00201F0DF
:1027DC0017FE4FF4807300228221D4F8C00201F05E
:1027EC000FFE002010BD00BF005C0040D40500208F
:1027FC0008B5D0F8C00200F073FBBDE80840FFF745
:10280C004BBF10B51446D0F8C0021A46234601F04F
:10281C0049F8BDE81040FFF73FBF08B5D0F8C0023B
:10282C0001F071F8BDE80840FFF736BF08B5D0F8E5
:10283C00C00201F0C9F8BDE80840FFF72DBF08B58C
:10284C00D0F8C00201F0F4F8BDE80840FFF724BF4F
:10285C00282211F0800FD0F8C0321BBF01F07F018D
:10286C0001FB022102FB01315B1814BF987891F82F
:10287C006A01704708B5D0F8C00200F04AFBBDE809
:10288C000840FFF709BF08B5D0F8C00201F082F884
:10289C00BDE80840FFF700BF08B5D0F8C00201F052
:1028AC005AF8BDE80840FFF7F7BED0F8C00201F0B7
:1028BC0069B8000000487047C00800207047704796
:1028CC00122301480B807047500400200423014858
:1028DC000B80704764040020002370B51E464D1C0D
:1028EC00040FB0F1204F34BF3034373401F81340AB
:1028FC0005F813600133DCB2A2424FEA0010EFD8A6
:10290C0070BD00001A2310B50B800A4BD3F8E807F2
:10291C00D3F8F02780180AD0D3F8EC4706490822E0
:10292C00FFF7DAFF042220461031FFF7D5FF0348EA
:10293C0010BD00BF00F0FF1F6A04002068040020D7
:10294C0010B5044C0A460448214601F020FB2046F1
:10295C0010BD00BFE00A0020B056000810B5044CB2
:10296C000A460448214601F012FB204610BD00BF68
:10297C00E00A0020C356000810B5044C0A4604486F
:10298C00214601F004FB204610BD00BFE00A0020E8
:10299C00D056000810B5044C0A460448214601F0F4
:1029AC00F6FA204610BD00BFE00A0020DB560008F6
:1029BC0000207047F8B50D46044601460E4801F05C
:1029CC0083FC00220D482D7803880D4E0D4F9BB2D1
:1029DC00AA4205D30380084801F095FC0020F8BDFD
:1029EC00A15CF15439880133DBB289B2994201D030
:1029FC000132EDE70220F2E7B01400207C18002031
:102A0C007B1700207E18002010B50B4C00222046AE
:102A1C000A4901F051FC2046094901F055FC80227D
:102A2C00084B00201A7025225A7008229870D87012
:102A3C00187158719A7110BDB0140020C810002084
:102A4C00E00C00207417002010B5094C0A46D4F88D
:102A5C00B832D3F8143243B90146204601F02CFCAD
:102A6C002046BDE8104001F035BC012010BD00BF70
:102A7C00B0140020034B1888034B1B88C01AC0B23B
:102A8C00704700BF7C1800207E18002070B50246ED
:102A9C00FFF7F0FF884213D300230A480A4EDCB23A
:102AAC008C4203F1010501D3002070BD03889BB259
:102ABC00F35C135503880133DBB203802B46EEE73E
:102ACC000120F2E77E1800207B17002000231A4615
:102ADC000549CA540133B3F5807FFAD1034B1A80F0
:102AEC00034B1A80704700BF7B1700207C18002016
:102AFC007E180020202808B503D0212811D00020F2
:102B0C0008BD0A78104B1A704A785A708A789A70F5
:102B1C00CA78DA700A791A714A795A718A799A7173
:102B2C00EDE7094B1A780A705A784A709A788A70CD
:102B3C00DA78CA701A790A715A794A719B798B7151
:102B4C00FFF7C4FFDBE700BF7417002038B50E4B4E
:102B5C00054618784FF47A73B3FBF0F30B4A106800
:102B6C00B0FBF3F001F038FC044658B90F2D09D82E
:102B7C00024629464FF0FF3001F0EEFB2046044B95
:102B8C001D6038BD0120FCE79404002030040020B7
:102B9C0098040020074A08B51368032043F010037B
:102BAC00136001F0C7FB0F20FFF7D0FFFFF761FDAB
:102BBC00002008BD00200240034A044B11681B781A
:102BCC000B441360704700BF801800209404002051
:102BDC00014B1868704700BF8018002038B50446B8
:102BEC00FFF7F6FF0546631C1EBF044B1B78E41869
:102BFC00FFF7EEFF431BA342FAD338BD9404002029
:102C0C00704710B5044650B1437903F0FF0213B975
:102C1C000271FFF7F5FF01230020637110BD012045
:102C2C00FCE700002DE9F74F00221646644F654B78
:102C3C00DFF894C1DFF894E10D6835FA06F402D19F
:102C4C0003B0BDE8F08F4FF0010808FA06F805EA6A
:102C5C00080438EA05057BD14D68032D07D8013DE2
:102C6C00022D00F28880DFE805F0969BA100122D62
:102C7C0000F099806ED8112D00F08F80FF2C98BF3A
:102C8C0082464FF00F0988BF00F1040A4FEA86050F
:102C9C00DAF8008088BF203D09FA05FB28EA0B080A
:102CAC0002FA05F548EA0505CAF80050D1F804A067
:102CBC001AF0805F4CD0BD6926F0030845F0010581
:102CCC00BD61BD6908F1804805F00105019508F565
:102CDC00803806F0030B019D4FEA8B0BD8F8085097
:102CEC0009FA0BF925EA0909394DA84262D005F514
:102CFC008065A84260D005F58065A8425ED005F5D8
:102D0C008065A8420CBF0325042505FA0BF545EA9E
:102D1C000905C8F808501D681AF4803F14BF2543F4
:102D2C00A5431D605D681AF4003F14BF2543A543FD
:102D3C005D609D681AF4801F14BF2543A5439D60F8
:102D4C00DD681AF4001F14BF2C4325EA0404DC6070
:102D5C00013671E7DFF87C904D450CD017D8A9F5FA
:102D6C0080194D4507D009F570294D4503D0A9F5BB
:102D7C0080194D4582D18A68D2B1012A08BFC0F8AA
:102D8C0010804FF0080218BFC0F8148076E7654534
:102D9C00F1D07545EEE7CA6870E7CA6804326DE792
:102DAC00CA6808326AE7CA680C3267E7002265E72E
:102DBC00042263E70025A8E70125A6E70225A4E77E
:102DCC0000100240000401400000311000003210DD
:102DDC0000080140000022108368194214BF012032
:102DEC00002070470AB1016170470904FBE7F0B598
:102DFC00044687B010B390F8A93203F0FF021BB958
:102E0C0080F8A822FFF750FC032325466E4684F871
:102E1C00A93255F8100B01F0CDFE0FCD0FC62B6863
:102E2C00271D3360264697E80E0056F8100B01F06C
:102E3C00B1FE054620B1022384F8A93201254CE0ED
:102E4C000146206801F0C0FE29464FF0010E2825EE
:102E5C000846D4F804C0CAB2944501F101011BD84C
:102E6C00002328251946D8B2844503F1010320D844
:102E7C00EC4635460FCDACE80F002B68CCF8003093
:102E8C0097E80E00206801F0A1FE01230546E8B189
:102E9C00022284F8A922D1E705FB0243C3E90E0004
:102EAC0083F829E083F82820DA8683F82B0018644D
:102EBC00D1E705FB0042C2E95E1182F8691182F884
:102ECC00680182F86B11C2F88011CCE784F82400F9
:102EDC00206884F8A93202F00BF9284607B0F0BD3F
:102EEC0038B590F8A8320446012B10D0012580F893
:102EFC00A852006801F055FE29462046FFF7DFFC7A
:102F0C00206802F0F3F8002084F8A80238BD0220F3
:102F1C00FCE710B590F8A8220446012A0BD0012238
:102F2C0080F8241080F8A822006802F0D9F800205C
:102F3C0084F8A80210BD0220FCE700002DE9F04F38
:102F4C00044685B0006802F0D5F8010409D5DFF815
:102F5C000C93DFF80C832068B0F844301D0400F1AA
:102F6C00C180206802F0C6F842050FD522682046C1
:102F7C00B2F8443023F480631B041B0CA2F84430D9
:102F8C00FFF7CDFB00212046FFF7C3FF206802F0BE
:102F9C00B1F8410408D52268B2F8443023F48043D8
:102FAC001B041B0CA2F84430206802F0A3F8820426
:102FBC0008D52268B2F8443023F400531B041B0CD0
:102FCC00A2F84430206802F095F8C3041CD522689E
:102FDC002046B2F8403023F004031B041B0CA2F86B
:102FEC004030B2F8403023F008031B041B0CA2F84D
:102FFC004030FFF7B7FB2268B2F8443023F480531B
:10300C001B041B0CA2F84430206802F073F807056F
:10301C0046D568462368064619461A4603F120052C
:10302C0032F8047B954226F8027BF9D1B3F84020A4
:10303C0092B242F00102A3F84020B3F8402022F0F3
:10304C0001021204120CA3F84020B3F844205605D8
:10305C00FBD5B3F8442022F480621204120CA3F8BE
:10306C00442030F8022B21F8042B8D42F9D1B3F80F
:10307C004020204692B242F00802A3F84020B3F858
:10308C00442022F400621204120CA3F84420B3F87A
:10309C00402092B242F00402A3F84020FFF752FB0A
:1030AC00206802F027F882050BD522682046B2F87A
:1030BC00443023F400731B041B0CA2F84430FFF7BC
:1030CC002AFB206802F016F8C30508D52268B2F86E
:1030DC00443023F480731B041B0CA2F8443005B05D
:1030EC00BDE8F08FB0F84460B1B216F00F0640F0B6
:1030FC00C18011F010012DD103889BB203EA0903A2
:10310C0043F400430380B0F8503094F828209BB26D
:10311C0003EBC20300EB4300B0F80434E26BC3F3DF
:10312C00090363641344E3632046FFF7ECFA94F855
:10313C002430002B3FF40FAF226C002A7FF40BAF2E
:10314C0094F82430216843F08003A1F84C3084F8C3
:10315C00242000E70588ABB215F4006521D0B0F847
:10316C00503094F868219BB203EBC20300EB43038D
:10317C00B3F80C34B4F86E21C3F30903C4F88431EA
:10318C0004F52C7102F05AFA22682046138823F0B9
:10319C0070031B051B0D43F080031380FFF7A4FA8B
:1031AC00D9E61B047FF5D7AE038823F070031B050B
:1031BC001B0D43F080030380B0F8503094F8682165
:1031CC009BB203EBC20300EB4303B3F80C34C3F321
:1031DC000903C4F884318BB1D4F87C1171B1B4F803
:1031EC006E2102F02BFAD4F87C31D4F884212946D4
:1031FC0013442046C4F87C31FFF77CFA21680B8815
:10320C001F053FF5A8AEB1F85030D4F878519BB2F9
:10321C0001F20C40CDB9C25A22F4F8421204120C3D
:10322C00C252C25A92B242F40042C2520B8823F4E8
:10323C00804323F070031B041B0C83F4405343F4B2
:10324C00004343F080030B8085E63E2D0AD86A08C4
:10325C00EE0748BF0132920292B2E6E70F8FFFFFF2
:10326C000080FFFF6A09ED0608BF02F1FF3248EA51
:10327C008222F1E730F8263019049FB240F1EE803B
:10328C00282130F8263001FB064123F070031B0582
:10329C001B0D43F0800320F8263091F8743100F5B3
:1032AC00806CB3B9B0F8503091F868219BB20633FA
:1032BC0003EBC2033CF81350C5F30905002D00F0D5
:1032CC00B1802B46B1F86E21D1F87C1102F0B6F921
:1032DC00A8E091F86B2191F86831022A40F08180C6
:1032EC00B0F8505017F4804AD1F880214FEAC30B44
:1032FC00ADB207F0400E3BD0AB440BF1020B3CF8E7
:10330C001B50C5F30905954213D90022C1F8802141
:10331C0030F8232022F4804222F070021204120CA6
:10332C0082F4005242F4004242F0800220F8232042
:10333C0004E0521BC1F88021002AE9D0BEF1000F35
:10334C000DD030F8232022F4E04222F07002120457
:10335C00120C42F4004242F0C00220F82320002D4F
:10336C0060D0282101FB06412B46B1F87021ABE758
:10337C005D4406353CF81550C5F30905954212D944
:10338C00C1F880A130F8232022F4804222F0700290
:10339C001204120C82F4005242F4004242F08002F9
:1033AC0020F8232004E0521BC1F88021002AE9D028
:1033BC00BEF1000F0DD130F8232022F4E04222F0B0
:1033CC0070021204120C42F4004242F0C00220F8C7
:1033DC0023203DB3282101FB06412B46B1F8722175
:1033EC0072E730F8232022F4E04222F0700212043B
:1033FC00120C42F4004242F0C00220F8232091F853
:10340C00683130F82320DB0012F4804FB0F85020E4
:10341C0092B256D0023213443CF81350C5F309054E
:10342C00002DA1D1282171436318D3F884212A449B
:10343C00C3F88421D3F87C212A44C3F87C21D3F827
:10344C0080211AB1D3F878319D4243D2282303FB53
:10345C000643204693F86811FFF74CF93A067FF5BE
:10346C007AAD2825206805FB064530F826309BB23E
:10347C0003EA090343F4004320F8263095F82B3077
:10348C0095F82810032B04D01BB1022B3AD1FB0565
:10349C0038D42825B0F8503005FB06429BB20233D5
:1034AC0003EBC10300EB4303B3F800C4176CCCF37C
:1034BC00090C674515D8002313642046FFF723F940
:1034CC0049E5063213443CF81350C5F30905002DA9
:1034DC00A8D082E701F5B4712068214401F020FEE8
:1034EC00BCE7A7EB0C071764002FE6D006FB0555CD
:1034FC00D16B536C61446344D1635364611901F023
:10350C000FFE28E5282303FB0643B0F850C04FEA12
:10351C00C10A1FFA8CFC17F040021B6C00F5806E80
:10352C00D44407F4804700F0E4800CF1020C3EF820
:10353C001CC02822CCF3090C9C4528BF002302FB9D
:10354C00064238BFA3EB0C031364BFB2002B51D15E
:10355C0095F82920002A3AD1B0F850600B01B2B28C
:10356C0000F204461644F25A22F4F8421204120CE9
:10357C00F252F25A92B242F40042F252B0F8502097
:10358C0000F20C4092B21044C25A22F4F8421204D7
:10359C00120CC252C25A92B242F40042C25220469B
:1035AC00FFF7B1F8002F00F0E28095F828102268A0
:1035BC0032F8213023F4E04323F070031B041B0C7E
:1035CC0043F4404343F0800322F82130CFE0012A3A
:1035DC00E5D1B0F850600A011FFA86FC00F20446EF
:1035EC006644B352B0F8506000F20C40B6B23044AE
:1035FC008352D4E76FB130F8213023F4E04323F049
:10360C0070031B041B0C43F4404343F0800320F86D
:10361C002130282303FB064393F84C20012A40F069
:10362C00A680DA6BD3F848E002EB0C075A6CDF6328
:10363C0062445A649A6B964529D3AEEB020EC3F8DA
:10364C0048E095F829C093B2BCF1000F44D1B0F812
:10365C0050C000F2044E1FFA8CFCF44409011ABB52
:10366C003CF8012022F4F8421204120C2CF8012030
:10367C003CF8012092B242F400422CF8012028219F
:10368C0001FB0646328E394601F03AFD6FE0BEF181
:10369C00000F03D1624683F84CE0D2E7002283F896
:1036AC004C209A647246CCE73E2A0CD84FEA520E54
:1036BC00D20748BF0EF1010E4FEA8E2E1FFA8EFE76
:1036CC002CF801E0DBE74FEA521ED20608BF0EF1E0
:1036DC00FF3E48EA8E2EF1E7BCF1010FCFD1B0F8D6
:1036EC00502009011FFA82FC00F20442624453523A
:1036FC00C5E70CF1060C3EF81CC0BFB2CCF3090CAC
:10370C009C4598BFA3EB0C02282303FB06431A64C9
:10371C00002A52D195F82930002B3CD1B0F85060DA
:10372C000B01B2B200F204461644F25A22F4F842EB
:10373C001204120CF252F25A92B242F40042F252B9
:10374C00B0F8502000F20C4092B21044C25A22F44D
:10375C00F8421204120CC252C25A92B242F4004203
:10376C00C2522046FEF7CFFF002F3FF41EAF95F854
:10377C002810226832F821309BB223F4E04323F066
:10378C00400383F0300343F4004343F0800322F8FA
:10379C002130FFF7E0BB012BE3D1B0F850600B01F7
:1037AC001FFA86FC00F204466644F252B0F85060F0
:1037BC0000F20C40B6B23044D2E76FB930F8213089
:1037CC0023F4E04323F070031B041B0C43F440432D
:1037DC0043F0800320F82130282202FB064292F8A5
:1037EC004C30012BC3D1536CD76B6344D2F848E0F7
:1037FC005364936B67449E45D76322D3AEEB030EA1
:10380C00C2F848E095F829201FFA83FC002A3DD124
:10381C00B0F8502000F20C4E92B272440901EBB990
:10382C00535A23F4F8431B041B0C5352535A9BB2A8
:10383C0043F400435352282101FB06466346728E23
:10384C0021E7BEF1000F03D1634682F84CE0D9E7C3
:10385C000023936482F84C307346D3E73E2B0CD88C
:10386C004FEA530EDB0748BF0EF1010E4FEA8E2EC6
:10387C001FFA8EFE22F801E0DDE74FEA531EDB064D
:10388C0008BF0EF1FF3E48EA8E2EF1E7012AD2D195
:10389C00B0F850309AB200F20C4313440A0123F8EA
:1038AC0002C0C8E711F0800F70B505464FF0280430
:1038BC0001F007001CD0012600FB044129444E7086
:1038CC000A614A780870CB7002B1C881022B04BF20
:1038DC0000230B7195F8A832012B12D00123286814
:1038EC0085F8A83201F086F9002085F8A80270BD91
:1038FC000026444304F5B4712C44294484F86961CE
:10390C00DEE70220F3E711F0800F10B54FF028032B
:10391C00044601F0070213D002FB033101440120DD
:10392C0048700A7094F8A832012B12D00123206839
:10393C0084F8A83201F09AFA002084F8A80210BD8D
:10394C00534303F5B47101440344002083F8690127
:10395C00E7E70220F3E770B501F007052821002600
:10396C006943441801F5B4710144C4E95F23C4F8F8
:10397C00846184F8696184F86851006801F0D0FBB7
:10398C00304670BD282301F0070103FB0100D0F87D
:10399C008401704770B501F00705282101FB05046F
:1039AC000026C4E90F23012205FB011184F84C20E9
:1039BC000144A364666484F8292084F828500068C4
:1039CC0001F0AEFB304670BD38B5436801F0070519
:1039DC009D42044628D811F0800F4FF028031AD0CE
:1039EC00012205FB033101444A7001230D708B70D9
:1039FC0094F8A8229A4219D0206884F8A83201F0D1
:103A0C0006FB25B9206804F52C7101F077FB00202A
:103A1C0084F8A80238BD00224B4303F5B47103446B
:103A2C00014483F86921E0E70120F3E70220F1E784
:103A3C0038B5436801F00F029A42044625D811F0BC
:103A4C00800F4FF0280301F0070215D002FB033161
:103A5C0001440120487000250A708D7094F8A8323A
:103A6C00012B14D00123206884F8A83201F0EFFA5E
:103A7C00284684F8A85238BD534303F5B471014469
:103A8C000344002083F86901E5E70120F3E70220F5
:103A9C00F1E7000003682DE9F341D907054620D56D
:103AAC00364CE369DA0032D40126E36943F08053E3
:103ABC00E361E36903F080530193019B304F3B6852
:103ACC00DB0526D5236A13F4407336D1236A6A6862
:103ADC0023F44073134323621EB1E36923F0805334
:103AEC00E3612868830706D52449AB684A6822F449
:103AFC0040421A434A6010F010001BD01F4AE9687C
:103B0C005368002023F480030B43536012E000261B
:103B1C00D4E73B6843F480733B60FFF759F8804669
:103B2C003B68D805CED4FFF753F8A0EB0800642807
:103B3C00F6D9032002B0BDE8F0816A6802F4407245
:103B4C009A42C3D001200F4A236AC2F840040020D5
:103B5C0023F44071C2F840042162D907B6D5FFF7AF
:103B6C0037F841F288380746236A9A07AED4FFF734
:103B7C002FF8C01B4045F7D9DBE700BF001002400F
:103B8C00007000400000424210B504468021FEF750
:103B9C004DFE2046BDE810400021FEF747BE000058
:103BAC0037B50B78044603F06003202B0D4612D07A
:103BBC00402B10D0002B51D14B78092B4ED8DFE87D
:103BCC0013F0EE000A014D0003014D0087001300B5
:103BDC004D00D600A300D4F8B432294620469B6889
:103BEC009847002003B030BD0023ADF806304B8859
:103BFC001A0A013A062A31D8DFE802F004162330FB
:103C0C0030485200D0F8B0321B68207C0DF1060110
:103C1C009847BDF80620002A56D0EB88002B4AD1D5
:103C2C00204600F0FAF9DCE7027CD0F8B43232B965
:103C3C009B6A0DF10600984702234370E9E7DB6AA3
:103C4C00F7E7DBB2052B09D8DFE803F0030C1014FF
:103C5C00181CD0F8B0325B68002BD6D12046FFF789
:103C6C0093FFBEE7D0F8B0329B68F5E7D0F8B032DE
:103C7C00DB68F1E7D0F8B0321B69EDE7D0F8B03271
:103C8C005B69E9E7D0F8B0329B69E5E7037C002B70
:103C9C00E4D1D0F8B4320DF106005B6B9847B8E76D
:103CAC00037C002BDAD1D0F8B4320DF106001B6B7B
:103CBC0098470723C1E79A4228BF1A460146204677
:103CCC00ADF8062000F07FF9EB88002B89D1A7E72F
:103CDC008B88002BC2D1CB88002BBFD14D887F2D78
:103CEC00BCD890F89C32032BB8D0E9B280F89E1265
:103CFC00FEF7C0FD204600F090F91DB1022384F8B8
:103D0C009C326EE70123FAE78978394D0129297035
:103D1C00A4D890F89C32022B08D0032B15D0FFF7B7
:103D2C0033FF2046297800F023FE5AE700293FF4A0
:103D3C0077AF01210323416080F89C32204600F0CC
:103D4C000CFE02287FF46CAF88E731B90223416086
:103D5C0080F89C3200F00CFE62E7416801293FF4C8
:103D6C005FAFC9B200F004FE29786160E6E7CA884B
:103D7C00012A7FF473AF90F89C32022B0AD8002BE7
:103D8C003FF46CAF0146002341F8083F204600F099
:103D9C001AF926E7032B7FF461AF011DF6E790F8C3
:103DAC009C32013B022B3FF659AFCB88022B7FF4A0
:103DBC0055AF0123C360D0F8A4320BB10323C36009
:103DCC00022204F10C01E1E74B88012B7FF409AFCF
:103DDC00C4F8A43224E790F89C32013B022B3FF646
:103DEC003DAF4B88012B7FF4FCAE0023F0E700BF06
:103DFC008418002038B50B78044603F06002402A82
:103E0C000D4601D05B0615D494F89C32013B022B75
:103E1C0010D82B79012B0DD8D4F8B43229469B68D5
:103E2C0020469847EB881BB910B9204600F0F5F8EE
:103E3C00002038BD2046FFF7A7FEF9E738B50A7811
:103E4C00044602F06002202A0B4627D0402A25D0D7
:103E5C0092BB5A788D88012A09793DD0032A25D046
:103E6C0052BB90F89C32022B4DD0032B24D1142240
:103E7C0001F00F0315F0800F02FB030354D09B6974
:103E8C00D3B1142301F07F0505FB0333C51811F0E2
:103E9C007F0355D12B600222294641E0D4F8B4228D
:103EAC001946204692689047002038BD90F89C2215
:103EBC00022A1FD0032A03D02046FFF765FEF3E742
:103ECC005A882AB94A0603D0DB880BB9FEF7AEFC38
:103EDC00204600F0A2F8E7E790F89C22022A09D0CD
:103EEC00032AE9D15B88002BDED14D06F0D0FEF71A
:103EFC00A6FCEDE74B06DFD0FEF798FC80212046B0
:103F0C00FEF794FCD0E74A06D6D12B064FF00003FF
:103F1C004FF002024CBF00F1140100F5AA710B60C6
:103F2C00204600F050F8BFE7D3F85831002BC3D02F
:103F3C00142301F07F0503FB050505F5AA75A6E71B
:103F4C002046FEF785FC08B10123A3E72860A2E711
:103F5C000B7803704B784370CA788B7803EB022391
:103F6C0043804A790B7903EB02238380CA798B79DE
:103F7C0003EB0223C380704710B504468021FEF783
:103F8C0055FC2046BDE810400021FEF74FBC30B573
:103F9C0088B10024013823460134055D002DFAD187
:103FAC00DBB201335B0013800B7003234B700223D5
:103FBC0010F8014F04B930BD5A1CCC54D2B20233A4
:103FCC00DBB28D54F4E71346022210B5C0E9073377
:103FDC00C0F894220A460021FEF755FC002010BDC3
:103FEC0008B513460A460021FEF74DFC002008BD1B
:103FFC001346032210B5C0E95733C0F894220A4681
:10400C000021FEF749FC002010BD08B513460A46F6
:10401C000021FEF741FC002008BD08B50423C0F8C0
:10402C00943200231A461946FEF72DFC002008BDD9
:10403C0008B50523C0F8943200231A461946FEF73A
:10404C002BFC002008BDD0F8BC3210B56BB1D0F8F9
:10405C00B84294F80002FF2807D09B68214694F8D8
:10406C0001229847FF2384F80032002010BD000085
:10407C004323038000487047D4040020432303806B
:10408C000048704718050020432303800048704700
:10409C00680500200A230380004870475C05002057
:1040AC0038B50446D0F8B852FEF7FFFBD4F8B83256
:1040BC00C5F80C024BB1D4F8BC32D5F80402DB685D
:1040CC0005F503719847002038BD0220FCE7F8B5D0
:1040DC00D0F8B862D6B1142202FB0102D4698CB1BB
:1040EC002827D0F8C03207FB0135AB6BB4FBF3F5D6
:1040FC0003FB154434B9D46123462246FEF7C3FBB7
:10410C002046F8BD0020C6F81402FAE70220F8E7B2
:10411C002DE9F7434FF000080A78054612F06004C9
:10412C000E46D0F8B8728DF80580ADF8068028D010
:10413C00202C42D1CC884B78E4B1120611D5D0F8A2
:10414C00BC223946D2F8089018462246C847394650
:10415C002846F288FFF737FF4446204603B0BDE8F7
:10416C00F0832246394687F8003287F80142FFF780
:10417C003FFFF1E7D0F8BC22184695682246A847C5
:10418C00EBE74B780A2B0CD00B2B12D0ABB990F879
:10419C009C32032B11D102220DF10601FFF713FF04
:1041AC00DBE790F89C32032B07D101220DF10501BE
:1041BC00F4E790F89C32032BCFD031462846FFF71A
:1041CC00DBFE0224C9E738B5044600258121FEF741
:1041DC0024FB01212046E562FEF71FFB82212046CD
:1041EC00C4F86C51FEF719FBD4F8B83225644BB106
:1041FC00D4F8BC325B689847D4F8B802FEF75EFB83
:10420C00C4F8B852002038BD2DE9F041037C0446B7
:10421C00BBBB4FF40073022281210125FEF7F1FA9A
:10422C004FF40073E5620127294602222046FEF76F
:10423C00E8FA082303228221C4F86C512046FEF7C9
:10424C00E0FA4FF407702764FEF734FB0546C4F818
:10425C00B80240B34FF00008D4F8BC321B68984742
:10426C00C5F81482C5F81882267C9EB94FF40073E9
:10427C0039462046D5F80422FEF70EFB3046BDE841
:10428C00F0810125402302228121FEF7BAFA402356
:10429C00E562C8E7402339462046D5F80422FEF7EC
:1042AC00FBFA4646EAE73E46E8E719B1C0F8BC120D
:1042BC000020704702207047D0F8B8320020C3F8B5
:1042CC000812C3F810227047D0F8B8320020C3F897
:1042DC0004127047D0F8B82210B582B1D2F814424B
:1042EC00012374B9C2F81432D2F81032812103635D
:1042FC00D2F808229BB2FEF7C6FA204610BD022067
:10430C00FCE71846FAE7D0F8B82210B582B1047C65
:10431C00D2F8042234B94FF400730121FEF7BCFA31
:10432C00204610BD40230121FEF7B6FA0024F7E722
:10433C000224F5E707490302CA6803F4E06322F498
:10434C00E0621204120C134343F0BF6343F40033D6
:10435C00CB60704700ED00E0164B30B5DC68C4F361
:10436C000224C4F10703251D042B28BF0423062DAA
:10437C004FF0FF3598BF002405FA03F388BF033CC8
:10438C0021EA0303A34005FA04F422EA04020028FC
:10439C0043EA0203ACBF00F16040074A4FEA031343
:1043AC00DBB2ABBF00F5614000F00F0080F80033CA
:1043BC00135430BD00ED00E014ED00E0002808DBE4
:1043CC000123420900F01F0003FA00F0014B43F8EF
:1043DC002200704700E100E00138B0F1807F0BD281
:1043EC004FF0E023F021054A586182F82310002099
:1043FC00072298611A6170470120704700ED00E0B8
:10440C0010B5282411F0800F1BBF01F0070101FB30
:10441C00044104FB0100401808BF00F5B47099B2C8
:10442C001AB90273C180002010BD0122836002738F
:10443C00F9E700002DE9F341054638B30368DB07C3
:10444C0010D42B689F075ED42B68190700F1958058
:10445C002B685A0700F1C180E869002840F02C81D4
:10446C00002029E0904C636803F00C03042B07D068
:10447C00636803F00C03082B0AD16368DE0307D5CD
:10448C0023689C03DDD56B68002BDAD1012013E087
:10449C006B68B3F5803F12D1236843F480332360FB
:1044AC00FEF796FB064623689803CAD4FEF790FBEA
:1044BC00801B6428F7D9032002B0BDE8F0819BB9BA
:1044CC00236823F480332360236823F48023236040
:1044DC00FEF77EFB064623689903B2D5FEF778FB00
:1044EC00801B6428F7D9E6E7B3F5A02F236803D126
:1044FC0043F480232360CFE723F4803323602368C5
:10450C0023F48023CBE7684C636813F00C0F07D0BF
:10451C00636803F00C03082B10D16368DA030DD425
:10452C0023689B0702D52B69012BAFD123686A69DD
:10453C0023F0F80343EAC203236085E72A695B4B47
:10454C006AB101221A60FEF743FB064623689F07F7
:10455C00ECD4FEF73DFB801B0228F7D9ABE71A60C1
:10456C00FEF736FB0646236898077FF56DAFFEF71E
:10457C002FFB801B0228F6D99DE7AA694A4E4B4BAC
:10458C00E2B10122C3F88024FEF722FB0446736AD1
:10459C009B070DD54FF4FA52454B1B68B3FBF2F356
:1045AC00019300BF019B5A1E0192002BF9D14FE7DA
:1045BC00FEF70EFB001B0228E9D97CE7C3F8802428
:1045CC00FEF706FB0446736A9F077FF541AFFEF7C3
:1045DC00FFFA001B0228F6D96DE7334CE369D800CB
:1045EC0024D40127E36943F08053E361E36903F0CA
:1045FC0080530093009B2F4E3368D90518D5EB6878
:10460C00012B26D1236A43F001032362FEF7E0FA63
:10461C0041F288380646236A9B073FD5002F3FF4AA
:10462C001BAFE36923F08053E36115E70027E2E752
:10463C00336843F480733360FEF7CAFA80463368FC
:10464C00DA05DCD4FEF7C4FAA0EB08006428F6D92E
:10465C0031E7ABB9236A41F2883823F001032362B6
:10466C00236A23F004032362FEF7B2FA0646236A98
:10467C009807D3D5FEF7ACFA801B4045F7D91AE75B
:10468C00052B236A03D143F004032362BAE723F01A
:10469C0001032362236A23F00403B6E7FEF798FABA
:1046AC00801B4045B7D906E700100240000042428B
:1046BC0030040020007000402A4C636803F00C03A7
:1046CC00082B3ED00022284B02281A662CD1FEF76C
:1046DC007FFA06462368990120D42B6AB3F5803FF4
:1046EC0005D16268A96822F400320A436260696AE3
:1046FC0062680B4322F474121343012263601A4B59
:10470C001A66FEF765FA054623689A013FF5A8AECE
:10471C00FEF75EFA401B0228F6D9CCE6FEF758FAF3
:10472C00801B0228D6D9C6E6FEF752FA0546236846
:10473C009B017FF595AEFEF74BFA401B0228F6D98C
:10474C00B9E601283FF4B8AE63682A6A03F48031F5
:10475C0091427FF49BAE6A6A03F4701393423FF468
:10476C007FAE93E6001002400000424230B5184B79
:10477C0087B002AC03F1100522461868596808335B
:10478C0003C2AB421446F7D140F201231149ADF8F4
:10479C0004304B6803F00C02082A17D1C3F3834290
:1047AC0018326A44DB0312F8100C0CD54B680A4A19
:1047BC00C3F34043504318336B4413F8143CB0FB21
:1047CC00F3F007B030BD054B5843FAE70248F8E761
:1047DC00E95600080010024000127A0000093D0062
:1047EC002DE9F0410D46044610B90120BDE8F081D9
:1047FC00444A136803F007038B4228D321688E07C1
:10480C0030D4CA0743D43F4A136803F00703AB42C2
:10481C0065D822683C4D12F0040F6CD1130706D5F5
:10482C006B68226923F4605343EAC2036B60FFF7A1
:10483C009DFF6B68354AC3F30313D35CD840344BEC
:10484C001860344B1868FEF781F90020CEE7136826
:10485C0023F007030B431360136803F007038B4229
:10486C00C3D1CBE7284B11F0040F1EBF5A6842F49A
:10487C00E0625A60080742BF5A6842F460525A60BC
:10488C005A68A06822F0F00202435A60B9E76268E5
:10489C001D4E012A33681AD113F4003FA5D073685A
:1048AC0041F2883823F0030313437360FEF790F949
:1048BC0007467368626803F00C03B3EB820FA2D057
:1048CC00FEF786F9C01B4045F3D903208EE7022A78
:1048DC0002D113F0007FE1E713F0020FDEE713685B
:1048EC0023F007032B431360136803F00703AB4259
:1048FC007FF47BAF8DE76B68E16823F4E0630B43D7
:10490C006B608BE700200240001002409C560008B0
:10491C00300400209804002008B580B1D0F8B432DF
:10492C0013B10023C0F8B43209B1C0F8B01201239E
:10493C00027080F89C32FDF719FF002008BD0220A0
:10494C00FCE719B1C0F8B412002070470220704780
:10495C0008B5FDF74DFF002008BD08B5D0F8B432FE
:10496C000BB9022008BD1B6898470028FAD0F8E75D
:10497C0008B5D0F8B4325B689847002008BD38B54C
:10498C0000F52A7504462846FFF7E2FA012394F84D
:10499C00A812C4F89432B4F8AE32C4F8983201F0CC
:1049AC001F03012B08D0022B0BD07BB929462046C4
:1049BC00FFF7F6F8002038BD29462046FFF71AFA13
:1049CC00F8E729462046FFF739FAF3E7204601F0CD
:1049DC008001FDF72BFFEDE7F8B5044617460D46B1
:1049EC0039BBD0F89432032B1CD1D0E958629642D3
:1049FC000BD9B61AB2423946C0F860618CBFB2B25C
:104A0C0092B2FFF702FB2846F8BDD0F8B4321B690E
:104A1C0023B190F89C22032A00D198472046FFF737
:104A2C00FCFAF0E7052BEED1C4F89412FDF7FEFE6C
:104A3C00E9E7D0F8B4329B6933B190F89C22032A91
:104A4C0002D198470025DEE70225DCE7F8B50446DD
:104A5C0017460D46002947D1D0F89432022B3CD191
:104A6C00D0E908639E4214D9F31A394603629AB20C
:104A7C00FFF7B6FA2B462A4629462046FDF70CFFCF
:104A8C0094F8A032012B02D1002384F8A0322846DE
:104A9C00F8BDC269B2FBF3F603FB16265EB993426E
:104AAC0009D8D0F898329A4205D20A46FFF798FAFC
:104ABC00C4F89852DEE7D4F8B432DB682BB194F822
:104ACC009C22032A01D12046984780212046FDF7DD
:104ADC00ADFE2046FFF7ACFAD2E733F00403CFD19A
:104AEC008021FDF7A3FECBE7D0F8B4325B6933B17C
:104AFC0090F89C22032A02D198470025C7E702258B
:104B0C00C5E7002270B50446012540261146402316
:104B1C00FDF777FE3346802100222046C4F8585119
:104B2C00C4F86461FDF76DFE0021D4F8B832A561BC
:104B3C00666284F89C52C4F894126160C4F8A412A2
:104B4C0023B1D4F8B43220465B689847002070BD7E
:104B5C0001740020704790F89C3280F89D32042339
:104B6C0080F89C320020704790F89C32042B04BFD4
:104B7C0090F89D3280F89C320020704708B590F870
:104B8C009C22032A04D1D0F8B432DB6903B19847D4
:104B9C00002008BD84B001A880E80E0004B00020FD
:104BAC00704703464FF43F420020A3F84400A3F89B
:104BBC0040207047B0F8403023F47C535B045B0C0E
:104BCC00A0F84030002070470020704784B010B52A
:104BDC00044603A880E80E0000200123A4F840300E
:104BEC00A4F84000A4F84400A4F85000BDE810401C
:104BFC0004B07047F0B50A78CD7830F822400346FF
:104C0C0024F4EC4424F070042404240C032D48D820
:104C1C00DFE805F002444240284644F4007448F2B0
:104C2C008006344323F8224033F822408C4FA4B240
:104C3C003C401443344323F822400C7B03EB021C0E
:104C4C00002C7BD1CE884C78760876005CB3B3F818
:104C5C005040A4B26444A4F8006433F822104E0609
:104C6C0009D533F8221089B2394041F4004141F0A2
:104C7C00C00123F8221033F822107A4C89B2012D8E
:104C8C0001EA040101D081F0200141F4004141F01E
:104C9C008001A9E044F4C0640020C0E744F48064BF
:104CAC00FAE70120BBE7B3F850400D69A4B26444A5
:104CBC00A4F80864B3F85040A4B264446DBBB4F8D3
:104CCC000C1421F4F8410904090CA4F80C14B4F8E0
:104CDC000C146FEA41416FEA514189B2A4F80C14EB
:104CEC0033F822104F040DD533F8221021F4E04193
:104CFC0021F070010904090C41F4404141F080019C
:104D0C0023F8221033F8221021F4804121F0700195
:104D1C000904090C81F44051B7E73E2D05D8690808
:104D2C00ED0748BF01318902D7E76E09E9064E4904
:104D3C0008BF06F1FF3641EA8621CEE733F8226040
:104D4C00B6B23E4046F4014646F0800623F8226097
:104D5C00B3F850400E89A4B2760864447600A4F8E7
:104D6C0000644E89B3F850407608A4B264447600CF
:104D7C00A4F808644978D1BB33F822104E0409D545
:104D8C0033F8221089B2394041F4404141F080019E
:104D9C0023F8221033F822104D060DD533F82210CB
:104DAC0021F4E04121F070010904090C41F40041A7
:104DBC0041F0C00123F8221048F2800433F822108D
:104DCC0021F4804121F070010904090C81F4405157
:104DDC00214323F8221033F8221021F4E04121F072
:104DEC0040010904090C214323F82210F0BD33F8CB
:104DFC0022104C0409D533F8221089B2394041F401
:104E0C00404141F0800123F8221033F8221049066A
:104E1C000DD533F8221021F4E04121F07001090482
:104E2C00090C41F4004141F0C00123F8221033F881
:104E3C0022100C4C89B22140012D18BF81F02001A9
:104E4C0041F4004141F0800123F8221033F8221084
:104E5C0021F4804121F070010904090C15E700BF11
:104E6C008F8FFFFFBF8FFFFF0080FFFF4A780B780B
:104E7C00097BD9BB0AB330F8232051060DD530F885
:104E8C00232022F4E04222F070021204120C42F4AD
:104E9C00004242F0C00220F8232030F8232022F4F4
:104EAC00E04222F040021204120C42F4004242F0A2
:104EBC00800220F823200020704730F82320520471
:104ECC000DD530F8232022F4E04222F070021204B7
:104EDC00120C42F4404242F0800220F8232030F8B9
:104EEC00232022F4804222F07002DCE7002A48D111
:104EFC0030F8232051040DD530F8232022F4E04261
:104F0C0022F070021204120C42F4404242F0800271
:104F1C0020F8232030F8232052060DD530F823201A
:104F2C0022F4E04222F070021204120C42F400420D
:104F3C0042F0C00220F8232048F2800130F82320F0
:104F4C0022F4E04222F070021204120C42F40042ED
:104F5C0042F0C00220F8232030F8232022F48042B3
:104F6C0022F070021204120C0A4320F8232030F8AD
:104F7C00232022F4E04222F040021204120C0A43D5
:104F8C0097E730F8232051040DD530F8232022F474
:104F9C00E04222F070021204120C42F4404242F041
:104FAC00800220F8232030F8232052060DD530F84B
:104FBC00232022F4E04222F070021204120C42F47C
:104FCC00004242F0C00220F8232048F2800130F861
:104FDC00232022F4E04222F070021204120C42F45C
:104FEC00404242F0800220F8232030F8232022F4A3
:104FFC00E04222F040021204120C0A4320F8232053
:10500C0030F8232022F4804222F07002B5E74B786E
:10501C000A788BB130F8223023F4E04323F04003BC
:10502C001B041B0C83F0100343F4004343F0800378
:10503C0020F822300020704730F8223023F48043CF
:10504C0023F070031B041B0C83F48053ECE70B7BE5
:10505C003BBB4B780A7833B330F822305B060DD566
:10506C0030F8223023F4E04323F070031B041B0CB4
:10507C0043F4004343F0C00320F82230CB78012BDB
:10508C000FD030F8223023F4E04323F040031B040C
:10509C001B0C83F0200343F4004343F0800320F8FF
:1050AC0022300020704730F822305B040DD530F8E8
:1050BC00223023F4E04323F070031B041B0C43F455
:1050CC00404343F0800320F8223030F8223023F4A0
:1050DC00804323F070031B041B0C83F44053DAE76A
:1050EC0011B98023A0F84C30002070470020704785
:1050FC0000207047B0F8440080B270470020704721
:10510C0000EB4202013302F580625B0802EB830381
:10511C009A4200D1704731F8020B22F8040BF7E7E2
:10512C00F8B50C46497805460129227B40F08E8162
:10513C00D4F810E0A6696169764528BF764602BBB3
:10514C00B6B2E2883346FFF7DBFFB5F85020217882
:10515C0090B205F20442090102448E52227835F8CD
:10516C00223023F4E04323F040031B041B0C83F098
:10517C003003002043F4004343F0800325F8223031
:10518C00F8BDE2782778022A236A30F827204FEA04
:10519C00071C40F0BB809E4580F09F8022F4E042CB
:1051AC0022F070021204120C42F4014242F080020E
:1051BC0020F8272030F827709B1B17F0400723623C
:1051CC00B0F85020B3B244D097B200F20C423A443B
:1051DC0022F80C306289FFF793FF226A2369616918
:1051EC009A428ABF931B0023324660783144236273
:1051FC00616193B2002840F0D780B5F85000267852
:10520C0080B205F20447360138446AB9325A22F4A6
:10521C00F8421204120C3252325A6FEA42426FEACE
:10522C00524292B2325208E03E2A09D85708D207AD
:10523C0048BF0137BF02BFB237522289284662E00D
:10524C005709D206914A08BF07F1FF3742EA872275
:10525C00E7E71FFA82FE00F20442724422F80C3097
:10526C002289FFF74DFF226A236961699A4284BF44
:10527C00971B3246607831446161276293B20028F3
:10528C0040F0D780B5F85000267880B205F20C4774
:10529C00360138446AB9325A22F4F8421204120C1C
:1052AC003252325A6FEA42426FEA524292B2325250
:1052BC0008E03E2A08D85708D20748BF0137BF027A
:1052CC00BFB237526289B9E75709D2066F4A08BF95
:1052DC0007F1FF3742EA8722E8E722F4E24222F0A4
:1052EC0070021204120C42F4004242F0800220F8C8
:1052FC002720B0F850209BB296B200F20442324400
:10530C0022F80C302289FFF7FBFE27E722F4E0425B
:10531C0022F070021204120C42F4014242F080029C
:10532C0020F8272030F827709B1B17F040072362CA
:10533C00B0F85020B3B244D097B200F20C423A44C9
:10534C0022F80C306289FFF7DBFE226A236961695F
:10535C009A428ABF931B0023324631446161236217
:10536C00002A3FF4FBAE607893B2E8B9B5F8506010
:10537C002778B0B23E2A05F204464FEA07170644D6
:10538C0007D85008D20748BF0130800280B2B8530A
:10539C0053E75009D2063D4A08BF00F1FF3042EAFC
:1053AC00802292B2BA5348E701287FF446AFB5F891
:1053BC005020207896B205F2044200013244835208
:1053CC003BE71FFA82FE00F20442724422F80C30D2
:1053DC002289FFF795FE226A236961699A4284BF8C
:1053EC00971B3246314461612762002A3FF4B6AE06
:1053FC00607893B2E8B9B5F850602778B0B23E2A1D
:10540C0005F20C464FEA0717064407D85008D20796
:10541C0048BF0130800280B2B85353E75009D2061E
:10542C001A4A08BF00F1FF3042EA802292B2BA5306
:10543C0048E701287FF446AFB5F85020207896B2A3
:10544C0005F20C420001324483523BE702BBA369D4
:10545C0021698B4288BF5A1AA261B0F8502088BFCC
:10546C000B46217892B200F20C4009010244002B49
:10547C0000F0C8803E2B00F2D3805808DE0748BFEE
:10548C000130800280B250524BE000BF0080FFFF21
:10549C00E378022B79D151BBB0F85020217893B22C
:1054AC0000F204421A4423690901002B45D1885AA1
:1054BC0020F4F8400004000C8852885A6FEA4040EF
:1054CC006FEA504080B28852B5F85010227889B2F9
:1054DC0005F20C4012010144002B3FD03E2B4BD85F
:1054EC005808DB0748BF0130800280B25052E36994
:1054FC00BBB144F24003227835F8221003EA0100D4
:10550C008B4300D068B935F8223023F4E04323F004
:10551C0070031B041B0C43F4004343F0C00325F839
:10552C002230227835F8223023F4804323F07003A4
:10553C001B041B0C83F440531BE63E2B05D8580868
:10554C00DE0748BF01308002BCE75E09D8063A4846
:10555C0008BF06F1FF3640EA8620B3E7535A23F41E
:10556C00F8431B041B0C5352535A6FEA43436FEA24
:10557C0053439BB25352BAE75809DF062E4B08BF70
:10558C0000F1FF3043EA8023F3E7012B51D1A369EB
:10559C002269934294BF0020981AA06188BF1346D9
:1055AC000029BED1B5F85020217892B205F2044002
:1055BC0009010244ABB9885A20F4F8400004000CED
:1055CC008852885A6FEA40406FEA504080B2885245
:1055DC00B5F85010227889B205F20C401201014442
:1055EC0045E73E2B05D85808DE0748BF013080023E
:1055FC00ECE75E091048DF0608BF06F1FF3640EA0B
:10560C008620E3E7535A23F4F8431B041B0C535234
:10561C00535A6FEA43436FEA53439BB2535280E7AA
:10562C005809DB06044B08BF00F1FF3043EA802326
:10563C00F3E70120A4E500BF0080FFFF00EB42026E
:10564C00F0B502F580625D080C4617462E46023412
:10565C0036B9DB0744BF32F8253001F81530F0BD00
:10566C0037F8040B013E80B204F8020C000A04F86F
:10567C00010CECE7F8B500BFF8BC08BC9E467047BF
:0C568C00F8B500BFF8BC08BC9E46704793
:1056980000000020000000000000000001020304D8
:1056A800060708090002010253544D6963726F65C9
:1056B8006C656374726F6E696373005465737420EC
:1056C80050726F647563740043444320436F6E6681
:1056D80069670043444320496E7465726661636577
:1056E8000002030405060708090A0B0C0D0E0F102B
:0456F800100000009E
:0C56FC00392200083D240008312100087C
:045708000D21000867
:10570C0000000000EC02002054030020BC03002029
:10571C00000000000000000000000000000000007D
:10572C00000000000000000000000000000000006D
:10573C00000000000000000000000000000000005D
:10574C00000000000000000000000000000000004D
:10575C00000000000000000000000000000000003D
:10576C00000000000000000000000000000000002D
:10577C00000000000000000000000000000000001D
:10578C00000000000000000000000000000000000D
:10579C0000000000000000000000000000000000FD
:1057AC0000000000000000000100000000000000EC
:1057BC000E33CDAB34126DE6ECDE05000B000000B1
:1057CC0000000000000000000000000000000000CD
:1057DC0000000000000000000000000000000000BD
:1057EC0000000000000000000000000000000000AD
:1057FC00000000000000000000000000000000009D
:105B2C000000000000000000C8050020010000007B
:105B3C000024F400CD280008D92800084D290008BD
:105B4C00692900081129000885290008A1290008E5
:105B5C0012010002020200408304405700020102BD
:105B6C0003010000040309041A03000000000000F4
:105B7C000000000000000000000000000000000019
:105B8C0000000000152A0008BD290008012B0008A0
:105B9C00C129000801000000100000001542000897
:105BAC00D34100081D4100080000000053400008CC
:105BBC00DB400008AD4000080000000000000000C1
:105BCC0000000000894000087D4000089540000856
:105BDC00A140000809024300020100C03209040080
:105BEC00000102020100052400100105240100013E
:105BFC000424020205240600010705820308001094
:105C0C0009040100020A000000070501024000001F
:105C1C00070581024000000009024300020100C098
:105C2C0032090400000102020100052400100105E4
:105C3C002401000104240202052406000107058248
:105C4C000308001009040100020A00000007050106
:105C5C000200020007058102000200000A06000291
:105C6C00000000400100000009074300020104C0CD
:105C7C003209040000010202010005240010010594
:105C8C0024010001042402020524060001070582F8
:105C9C000308001009040100020A000000070501B6
:0C5CAC00024000000705810240000000DB
:040000050800263594
:00000001FF
