:020000040800F2
:10000000000008245D070008B1070008B3070008D6
:10001000B5070008B7070008B9070008000000008E
:10002000000000000000000000000000AD07000814
:10003000BB07000800000000AD070008BD0700086E
:10004000AD070008AD070008AD070008AD070008C0
:10005000AD070008AD070008AD070008AD070008B0
:10006000AD070008AD070008AD070008AD070008A0
:10007000AD070008AD070008AD070008AD07000890
:10008000AD070008AD070008AD070008AD07000880
:10009000AD070008AD070008AD070008AD07000870
:1000A000AD070008AD070008AD070008AD07000860
:1000B000AD070008AD070008AD070008AD07000850
:1000C000AD070008AD070008AD070008AD07000840
:1000D000AD070008AD070008AD070008AD07000830
:1000E000AD070008AD07000800000000AD070008DC
:1000F000AD070008AD070008AD070008AD07000810
:10010000AD070008AD070008AD070008AD070008FF
:10011000AD070008AD070008AD070008AD070008EF
:10012000AD070008AD070008AD070008AD070008DF
:10013000AD070008AD070008AD070008AD070008CF
:1001400000000000000000000000000000000000AF
:10015000AD070008AD070008AD070008AD070008AF
:10016000AD070008AD070008AD070008AD0700089F
:10017000AD070008AD070008AD070008AD0700088F
:10018000AD070008AD070008AD070008AD0700087F
:10019000AD070008AD070008AD070008AD0700086F
:1001A000AD070008AD070008AD070008AD0700085F
:1001B000AD070008AD070008AD070008AD0700084F
:1001C000AD070008AD070008AD070008AD0700083F
:1001D000AD070008AD070008AD070008AD0700082F
:1001E000AD070008AD070008AD070008AD0700081F
:1001F000AD070008AD070008AD070008AD0700080F
:10020000AD070008AD070008AD070008AD070008FE
:10021000AD070008AD070008AD070008AD070008EE
:10022000AD070008AD070008AD070008000000009A
:10023000AD070008AD07000800000000AD0700088A
:10024000AD070008AD070008AD070008AD070008BE
:10025000AD070008AD070008AD070008AD070008AE
:10026000AD070008AD070008AD070008AD0700089E
:10027000AD070008AD070008AD070008000000004A
:10028000AD070008AD070008AD070008000000003A
:0802900000000000AD070008AA
:1002980010B5054C237833B9044B13B10448AFF3B8
:1002A80000800123237010BD4004002400000000DA
:1002B8001015000808B5034B1BB103490348AFF3F9
:1002C800008008BD00000000440400241015000848
:1002D80070B50D4E0D4D761BB61006D0002455F89E
:1002E800043B01349847A642F9D1094E094D761BC3
:1002F80001F00AF9B61006D0002455F8043B013481
:100308009847A642F9D170BD3C1500083C15000875
:10031800481500083C150008830730B548D0541E1E
:10032800002A3FD0CAB2034601E0013C3AD303F8A1
:10033800012B9D07F9D1032C2DD9CDB245EA05250E
:100348000F2C45EA054536D9A4F1100222F00F0C0E
:1003580003F1200EE6444FEA121C03F1100242E9B1
:10036800045542E9025510327245F8D10CF10102E8
:1003780014F00C0F03EB021204F00F0C13D0ACF1C5
:10038800040323F003030433134442F8045B934249
:10039800FBD10CF003042CB1CAB21C4403F8012BA6
:1003A8009C42FBD130BD64461346002CF4D1F9E7DA
:1003B80003461446BFE71A46A446E0E7024B13B1CA
:1003C800024800F005B8704700000000E503000887
:1003D800002301461A46184600F01AB838B5084BEB
:1003E800084D5B1B9C1007D0043B1D44013C55F88D
:1003F80004399847002CF9D1BDE8384001F08AB893
:100408004C15000848150008704700BF704700BF2A
:100418002DE9F047DFF880A00646DAF80000984694
:100428000F469146FFF7F0FF1A4B1B68D3F8484177
:1004380024B365681F2D26DC5EB96B1C0235DAF81B
:100448000000636044F82570FFF7E0FF0020BDE876
:10045800F08704EB85010123C1F88890D4F888213E
:10046800AB401A43022EC4F88821C1F80881E4D1B0
:10047800D4F88C211343C4F88C31DEE703F5A67455
:10048800C3F84841D5E7DAF80000FFF7BFFF4FF09F
:10049800FF30DCE7281500082804002470B5002583
:1004A800114C124E2278EBB2002A14BF0A223222D3
:1004B800934210DA0A20013500F020FA2021304654
:1004C80000F020FB0028EDD1642000F017FA237813
:1004D80083F001032370054C2021204600F012FB15
:1004E8000028F9D070BD00BF2C0400240008025871
:1004F80030B5012287B00D46044600F009FB002301
:1005080001A9204605930195CDE903330123029300
:1005180000F00CFA07B030BD10B502209CB000F016
:10052800FDFA00230093254BDA6A22F00102DA6211
:10053800DB6A03F001030093214B9A6942F44042BD
:100548009A619A6902F440420092009A9A6990046A
:10055800FCD5442200210BA80824FFF7DDFE012367
:100568004FF480320521169309A81994CDE9093270
:1005780002220A23CDE912226022CDE91733CDE900
:10058800141200F047FB08B172B6FEE73F220323BE
:100598000421039004940DEB0100CDE901234023CD
:1005A8004FF48062CDE90533CDE9072300F086FEDC
:1005B80008B172B6FEE71CB010BD00BF00040058B9
:1005C80000480258424B5A6912F4003270B586B09E
:1005D80011D1BFF34F8FBFF36F8FC3F85022BFF312
:1005E8004F8FBFF36F8F5A6942F400325A61BFF3DD
:1005F8004F8FBFF36F8F364A536913F4803323D17B
:10060800C2F88430BFF34F8FD2F8803043F6E074DD
:10061800C3F3C900C3F34E335B0103EA0406014682
:1006280046EA81750139C2F86052F9D2203B13F1CC
:10063800200FF2D1BFF34F8F536943F480335361D6
:10064800BFF34F8FBFF36F8F00F018F9FFF764FF08
:10065800204BD3F8E02042F00102C3F8E020D3F8A1
:10066800E02002F001020192019AD3F8E02042F062
:100678000202C3F8E020D3F8E02002F0020202925E
:10068800029AD3F8E02042F00402C3F8E020D3F83D
:10069800E02002F004020392039AD3F8E02042F02B
:1006A8000802C3F8E020D3F8E02002F00802049220
:1006B800049AD3F8E02042F01002C3F8E020D3F8FF
:1006C800E03003F010030593059B06B070BD00BF32
:1006D80000ED00E0004402587FB502211948FFF7F9
:1006E80007FF08211848FFF703FF1022002102A87E
:1006F800FFF712FE202301A9144801930123114D8D
:10070800039300F013F9124A0F4C137883F0010396
:10071800137028460122022100F0FAF9204600222F
:10072800082100F0F5F9FFF7B9FE2846002202215A
:1007380000F0EEF901220821204600F0E9F9FFF760
:10074800ADFEE6E70000025800040258000802580F
:100758002C040024DFF834D000F02EF80C480D49A2
:100768000D4A002302E0D458C4500433C4188C4204
:10077800F9D30A4A0A4C002301E013600432A2426A
:10078800FBD3FFF7A5FDFFF7A7FF7047000008247C
:1007980000000024400400244C15000840040024F4
:1007A80064040024FEE770477047FEE7FEE7FEE7B3
:1007B800FEE7704700F090B818491948D1F888301A
:1007C80043F4700310B5C1F88830164B1A6842F02C
:1007D80001021A6000221A611C68204018609A61A0
:1007E800DA611A629A62DA621A635A639A63DA639E
:1007F8001A645A64186820F4802018601A660A4B34
:100808001B681B0C1B04B3F1005F03D2074B0122CA
:10081800C3F808214FF000638B6010BD00ED00E0C5
:100828007FEDF6EA004402580010005C0080005199
:1008380038B50F4B0546187808B9012038BD4FF474
:100848007A730C4AB3FBF0F31068B0FBF3F000F0D6
:10085800CDF904460028F0D10F2DEED802462946DE
:100868004FF0FF3000F090F9034B20461D60E5E79C
:1008780038040024300400243C04002410B503206C
:1008880000F070F900F07AFC0F49104A8B69C3F345
:100898000323D35C03F01F03D8408B6903F00F03D5
:1008A800D35C0B4A03F01F0320FA03F31360094BD0
:1008B80018600F20FFF7BCFF044618B9FFF773FF55
:1008C800204610BD0124FBE7004402582C150008FF
:1008D8003404002430040024034A044B11681B78B4
:1008E8000B441360704700BF6004002438040024E0
:1008F800014B1868704700BF6004002438B50446EF
:10090800FFF7F6FF0546631C1EBF044B1B78E4186F
:10091800FFF7EEFF431BA342FAD338BD3804002487
:10092800014B1868000C70470010005C2DE9F74F68
:100938000023DFF8CC914FF0B0440A6832FA03F58F
:1009480002D103B0BDE8F08F4FF0010E0EFA03FE9E
:100958001EEA020200F0BD804E684FEA43084FF0DD
:10096800030C06F003050CFA08FC6F1E6FEA0C0C6A
:10097800012F34D8876807EA0C0ACF6807FA08F706
:1009880047EA0A078760476827EA0E0EC6F300178A
:100998009F4047EA0E074760C768022D07EA0C0E1A
:1009A8008F6807FA08F747EA0E07C76019D14FEAB8
:1009B800D30A03F0070B4FF00F0E00EB8A0A4FEA39
:1009C8008B0BDAF820700EFA0BFE27EA0E0E0F6971
:1009D80007FA0BF747EA0E07CAF8207001E0032D63
:1009E800DAD1076805FA08F516F4403F07EA0C075C
:1009F80047EA050707606CD0D9F8F45023F00307DD
:100A080003F0030C4FF00F0E45F0020507F1B04755
:100A18004FEA8C0CC9F8F45007F58067D9F8F45000
:100A280005F002050195019D0EFA0CF5D7F808802E
:100A380028EA050E314DA8424DD005F58065A8423B
:100A48004BD005F58065A84249D005F58065A842D8
:100A580047D005F58065A84245D005F58065A842D0
:100A680043D005F58065A84241D005F58065A842C8
:100A78003FD005F58065A8423DD005F58065A842C0
:100A88000CBF09250A2505FA0CF516F4801F45EA5E
:100A98000E05BD606FEA020725680CBF3D4015438F
:100AA80016F4001F256065680CBF3D40154316F419
:100AB800003F6560D4F884500CBF3D401543F603F1
:100AC800C4F88450D4F8805054BF3D401543C4F84E
:100AD8008050013331E70025D5E70125D3E702250A
:100AE800D1E70325CFE70425CDE70525CBE7062584
:100AF800C9E70725C7E70825C5E700BF0000025872
:100B0800004402580369194214BF012000207047AD
:100B18000AB1816170470904FBE7000038B5104C41
:100B2800E36813F0040FE36805D103F00703181A0C
:100B380018BF012038BD23F007031843E060FFF712
:100B4800D7FE054663689B0401D50020F2E7FFF74E
:100B5800CFFE401BB0F57A7FF4D90120EAE700BF49
:100B68000048025807490302CA6803F4E06322F404
:100B7800E0621204120C134343F0BF6343F40033E2
:100B8800CB60704700ED00E0164B30B5DC68C4F36D
:100B98000224C4F10705231D042D28BF0425062BB4
:100BA8004FF0FF338CBF033C002403FA05F50028FF
:100BB80003FA04F321EA050122EA030201FA04F127
:100BC80041EA02034FEA0313DBB206DB00F160409F
:100BD80000F5614080F8003330BD00F00F00024A94
:100BE8001354F9E700ED00E014ED00E00138B0F12E
:100BF800807F0BD24FF0E023054AF0215861002096
:100C080082F82310072298611A6170470120704703
:100C180000ED00E0F8B5044608B901208BE0036850
:100C2800DF075ED423689E0700F1AF802368DA06E9
:100C380027D59E4B1A69996A02F03802082A07D00C
:100C4800182A40F0078101F00302012A40F00281CE
:100C58001B68DB0502D5E369802BDED1FFF760FE58
:100C680041F20303216A9842904B00F2EC805A68E3
:100C7800202922F0F8420CBF42F0804242EA816209
:100C88005A602368190700F1278123689A0600F142
:100C9800488123685D071ED5854D2B6843F4807312
:100CA8002B60FFF725FE06462B68DA0540F15E81CA
:100CB800A3687E4D012B40F060812B6F43F0010348
:100CC8002B6741F28837FFF713FE784E0546336FDE
:100CD8009B0740F17881606A002840F07B81002002
:100CE80029E0724B1A69996A02F03802102A05D075
:100CF800182A0AD101F00302022A06D11B689D03B3
:100D080090D56368002B8DD187E76268B2F5803F84
:100D180012D11A6842F480321A60FFF7E9FD634E77
:100D28000546336898033FF57DAFFFF7E1FD401BAB
:100D38006428F6D90320F8BD5C4D2B689AB923F4D2
:100D480080332B602B6823F480232B60FFF7D0FDC2
:100D580006462B6899037FF565AFFFF7C9FD801B31
:100D68006428F6D9E6E7B2F5A02F07D143F480232B
:100D78002B602B6843F480332B60CEE723F4803359
:100D88002B602B6823F48023F6E7484BE1681A6947
:100D9800986A12F0380203D0182A2BD1820729D179
:100DA8001B685B0702D500293FF437AF3F4D2A681F
:100DB80022F019020A432A60FFF79AFD06462B68BB
:100DC8005F0711D5FFF7ACFD41F203032269984292
:100DD8006B6822D823F47C33402A0CBF43F40033D9
:100DE80043EA02336B6021E7FFF782FD801B02288C
:100DF800E5D99FE71A68A9B122F019022B4D0A43D9
:100E08001A60FFF775FD06462B685807DAD4FFF716
:100E18006FFD801B0228F7D98CE723F0FE4343EAD5
:100E28000263DFE722F00102204E1A60FFF760FD3F
:100E38000546336859077FF5F9AEFFF759FD401BA2
:100E48000228F6D976E7DA6822F07C5242EA016293
:100E5800DA6016E7E2696AB31A68144D42F0800254
:100E68001A60FFF745FD06462B68DF0511D5FFF729
:100E780057FD41F20303226A984210D86B68202A72
:100E880023F0F8430CBF43F0804343EA82636B606E
:100E9800F7E6FFF72DFD801B0228E5D94AE7EB6846
:100EA80023F07C5343EA0263EB60EAE6004402580D
:100EB800004802581A68884E22F080021A60FFF72C
:100EC80017FD05463368D8057FF5DBAEFFF710FD43
:100ED800401B0228F6D92DE763697F4D83B16B6FFC
:100EE80043F001036B67FFF703FD06466B6F9B0733
:100EF8003FF5CBAEFFF7FCFC801B0228F6D919E7BB
:100F08006B6F23F001036B67FFF7F2FC06466B6F0C
:100F18009F077FF5BAAEFFF7EBFC801B0228F6D9D6
:100F280008E7A3696C4D83B12B6843F480532B60A9
:100F3800FFF7DEFC06462B6898043FF5AAAEFFF7DC
:100F4800D7FC801B0228F6D9F4E62B6823F48053DB
:100F58002B60FFF7CDFC06462B6899047FF599AE08
:100F6800FFF7C6FC801B0228F6D9E3E6FFF7C0FCB2
:100F7800801B64287FF698AEDCE6B3B92B6F41F28C
:100F8800883723F001032B672B6F23F004032B67AB
:100F9800FFF7AEFC06462B6F98077FF59CAEFFF770
:100FA800A7FC801BB842F6D9C4E6052B2B6F03D1EA
:100FB80043F004032B6780E623F001032B672B6FB4
:100FC80023F004037CE6FFF793FC401BB8427FF64E
:100FD8007EAEAFE6404D2B6903F03803182B7DD069
:100FE8002B68022823F080732B6067D1FFF780FC01
:100FF80006462B6899015BD4AB6AA26A23F47C731A
:1010080023F003031343E26A43EA0213AB62636B00
:10101800A26B013B013A5B0212049BB202F4FE028E
:101028001343226B013AC2F308021343E26B013AFD
:10103800120602F0FE4213432B63EB6A23F001030E
:10104800EB626B6BA26C23F47F4323F0F80343EA53
:10105800C2036B63EB6A226C23F00C031343EB624D
:10106800EB6A626C23F002031343EB62EB6A43F40E
:101078008033EB62EB6A43F40033EB62EB6A43F4D0
:101088008023EB62EB6A43F00103EB622B6843F0C9
:1010980080732B60FFF72CFC0F4D04462B689A01D8
:1010A8003FF51DAEFFF724FC001B0228F6D941E6E8
:1010B800FFF71EFC801B02289BD93BE6FFF718FCB4
:1010C80004462B689B017FF50AAEFFF711FC001B55
:1010D8000228F6D92EE600BF004402580128AA6A61
:1010E8002B6B3FF428AE02F00301A06A81427FF423
:1010F80094ADC2F30512E16A8A427FF48EAD226B89
:10110800C3F30801013A91427FF487AD626BC3F3E0
:101118004621013A91427FF480ADA26BC3F30641A8
:10112800013A91427FF479ADE26BC3F30663013A69
:1011380093427FF472AD6B6BA26CC3F3CC039A42FB
:101148003FF4CDAD0C4DEB6A23F00103EB62FFF7E2
:10115800CFFB0646FFF7CCFBB042FBD06B6BA26C13
:1011680023F47F4323F0F80343EAC2036B63EB6A7B
:1011780043F00103EB62B2E500440258484B1A6998
:1011880002F03802102A30B500F08680182A0CD0F8
:10119800002A40F083801A68424812F0200F03D0DA
:1011A8001B68C3F3C103D84030BD996A9D6ADC6AE5
:1011B80015F47C7FC5F305105A6BF5D0C2F3CC0249
:1011C80004F0010407EE900A01F003016243B7EE50
:1011D800006AF8EEE76A012907EE902AFAEEE97A42
:1011E8004CD002293CD0002948D11A68920627D54C
:1011F80019682C4AC1F3C1011B6BCA40C3F3080329
:1012080007EE102AF8EEC75A85EEA67A06EE903A4F
:10121800F8EEE66A76EEA77A77EE867A204B67EEE6
:10122800877A1B6BC3F34623013307EE103AF8EEB7
:10123800C76A87EEA67AFCEEC77A17EE900AB3E77C
:101248001B6BC3F3080307EE103AB8EEC77A77EEC4
:10125800277A77EE867A9FED146A86EE267ADDE79E
:101268001B6BC3F3080307EE103AB8EEC77A77EEA4
:10127800277A77EE867A9FED0D6AEEE71B6BC3F34C
:10128800080307EE103AB8EEC77A77EE277A77EEBA
:10129800867A9FED076AE0E7064885E7064883E710
:1012A800004402580090D0030024744C20BCBE4B6C
:1012B8000024744A40787D0100093D002DE9F04181
:1012C8000D46044610B90120BDE8F081884A13682C
:1012D80003F00F038B42C0F0938023685F0700F18F
:1012E8009B801E070BD583496669C86900F07000AA
:1012F800864204D9CA6922F070023243CA61D8060C
:101308000BD57C49A669C86900F4E060864204D917
:10131800CA6922F4E0623243CA6199060BD575495D
:10132800E669086A00F07000864204D90A6A22F069
:10133800700232430A629A070BD56E49E6688869DB
:1013480000F00F00864204D98A6922F00F02324366
:101358008A61DF076ED423689E0700F1A180644983
:101368000A6802F00F02AA4200F2A880580700F1AA
:10137800B18019070BD55F496569C86900F070002D
:10138800854204D2CA6922F070022A43CA61DA0689
:101398000BD55849A569C86900F4E060854204D2B4
:1013A800CA6922F4E0622A43CA619B060BD5514AF6
:1013B800E069116A01F07001884204D2136A23F0CF
:1013C800700303431362FFF7D9FE4A494A4A8B69FF
:1013D800C3F30323D35C03F01F03D8408B6903F0E6
:1013E8000F03D35C454A03F01F0320FA03F313608D
:1013F800434B1860434BBDE8F0411868FFF718BA33
:10140800136823F00F030B431360136803F00F03F3
:101418008B427FF458AF60E736492669886900F047
:10142800700086427FF65DAF8A6922F0700232430F
:101438008A6156E72F4BA1689A6922F470620A43C1
:101448009A6162681B68022A1DD113F4003F3FF4B9
:101458003AAF284E41F28838336923F00703134323
:101468003361FFF745FA07463369626803F03803CA
:10147800B3EBC20F3FF46FAFFFF73AFAC01B40451A
:10148800F2D9032020E7032A02D113F0007FDEE718
:10149800012A02D113F4807FD9E713F0040FD6E7AD
:1014A8001449E668886900F00F008642BFF457AF18
:1014B8008A6922F00F0232438A6150E70A6822F0F3
:1014C8000F022A430A600A6802F00F02AA427FF458
:1014D800FAAE4BE707492569886900F07000854234
:1014E800BFF447AF8A6922F070022A438A6140E755
:1014F80000200052004402582C150008340400242F
:10150800300400243C040024F8B500BFF8BC08BC33
:101518009E467047F8B500BFF8BC08BC9E467047A9
:10152800000000240000000001020304010203047B
:041538000607080991
:0C153C00C5030008CD050008BD02000832
:0415480099020008FC
:10154C0000000000EC02002454030024BC0300241F
:10155C00000000000000000000000000000000007F
:10156C00000000000000000000000000000000006F
:10157C00000000000000000000000000000000005F
:10158C00000000000000000000000000000000004F
:10159C00000000000000000000000000000000003F
:1015AC00000000000000000000000000000000002F
:1015BC00000000000000000000000000000000001F
:1015CC00000000000000000000000000000000000F
:1015DC0000000000000000000000000000000000FF
:1015EC0000000000000000000100000000000000EE
:1015FC000E33CDAB34126DE6ECDE05000B000000B3
:10160C0000000000000000000000000000000000CE
:10161C0000000000000000000000000000000000BE
:10162C0000000000000000000000000000000000AE
:10163C00000000000000000000000000000000009E
:10196C0000000000000000005C04002401000000E6
:10197C000090D0030090D003010000001000000084
:040000050800075D8B
:00000001FF
