:100000000C9475000C9492000C9492000C94920045
:100010000C9492000C9492000C9492000C94920018
:100020000C9492000C9492000C9492000C94920008
:100030000C9492000C9492000C9492000C949200F8
:100040000C94D7010C9492000C9492000C949200A2
:100050000C9492000C9492000C9492000C949200D8
:100060000C9492000C9492000C9400000C940000EC
:100070000C9400000C9400000000000024002700F5
:100080002A002D0000000000250028002B002E0073
:10009000000000002300260029002C0004040404B2
:1000A0000404040402020202020203030303030322
:1000B000050505050505050301020408102040801B
:1000C00001020408102001020408102002080104A3
:1000D0001040204000000008500201000003040707
:1000E0000000000000000000000011241FBECFEF40
:1000F000D8E0DEBFCDBF11E0A0E0B1E0E6ECF5E076
:1001000002C005900D92A230B107D9F721E0A2E01C
:10011000B1E001C01D92AB30B207E1F70E941D02B1
:100120000C94E1020C94000081508B3088F5E82F8C
:10013000F0E0E356FF4F0C94DB02B200B600A800DB
:10014000AE00C800C800B900BF00C300C900CD00A0
:10015000809180008F778093800008958091800047
:100160008F7DF9CF84B58F7784BD089584B58F7D59
:10017000FBCF8091B0008F778093B000089580917D
:10018000B0008F7DF9CF809190008F7780939000A1
:100190000895809190008F7DF9CF80919000877FA6
:1001A000F5CFCF93DF93EEEDF0E08491E2ECF0E059
:1001B000D491E6EAF0E0C491CC23A1F081110E9431
:1001C0009400EC2FF0E0EE0FFF1FE057FF4FA591DA
:1001D000B491EC91ED2381E090E009F480E0DF91AF
:1001E000CF91089580E090E0FACF1F93CF93DF93F3
:1001F000282F30E0F901EC52FF4F8491F901E854C7
:10020000FF4FD491F901E456FF4FC491CC23A9F0DC
:10021000162F81110E949400EC2FF0E0EE0FFF1FCB
:10022000EC57FF4FA591B4918FB7F894EC91111151
:1002300008C0D095DE23DC938FBFDF91CF911F9153
:100240000895DE2BF8CFCF93DF9390E0FC01E854C4
:10025000FF4F249184569F4FFC0184918823D1F055
:1002600090E0880F991FFC01E858FF4FA591B491C9
:10027000FC01EC57FF4FC591D49161110EC09FB79F
:10028000F8948C91E22FE0958E238C932881E223C1
:10029000E8839FBFDF91CF9108958FB7F894EC91D9
:1002A000E22BEC938FBFF6CF3FB7F8948091070114
:1002B00090910801A0910901B0910A0126B5A89B6F
:1002C00005C02F3F19F00196A11DB11D3FBFBA2FE8
:1002D000A92F982F8827BC01CD01620F711D811DA8
:1002E000911D660F771F881F991F08958F929F9207
:1002F000AF92BF92CF92DF92EF92FF924B015C01DF
:100300000E9454016B017C010E9454016C197D090B
:100310008E099F09683E734081059105A8F321E08D
:10032000821A9108A108B10888EEC80E83E0D81E91
:10033000E11CF11C81149104A104B10429F7FF9080
:10034000EF90DF90CF90BF90AF909F908F900895E7
:10035000CF93DF93D0E02D2F0D2E000C330BC091E7
:10036000000182E390E0CC2311F08AE090E02817AE
:100370003907A4F46AE070E080E090E00E94760122
:100380000E94D100892B89F464E670E080E090E05F
:100390000E94760181E0C827C09300010E94D1002D
:1003A000892BE1F3DF91CF910895DF5FD4CF1F92C6
:1003B0000F920FB60F9211242F933F938F939F9319
:1003C000AF93BF938091030190910401A091050127
:1003D000B09106013091020120E4230F2D3728F05F
:1003E00023EC230F0196A11DB11D209302018093E0
:1003F000030190930401A0930501B093060180913D
:10040000070190910801A0910901B0910A0101969C
:10041000A11DB11D8093070190930801A0930901CC
:10042000B0930A01BF91AF919F918F913F912F910E
:100430000F900FBE0F901F9018958091F200806171
:100440008EBB80E88093F2009EB39093F20080937D
:10045000610091E0909361009091F2009F799EBBC2
:100460008093F2009EB39093F2009091F2009B7FF4
:100470009EBB8093F2009EB39093F2008093610044
:1004800010926100789484B5826084BD84B58160E7
:1004900084BD85B5826085BD85B5816085BD80914F
:1004A0006E00816080936E001092810080918100C7
:1004B00082608093810080918100816080938100BF
:1004C000809180008160809380008091B100846081
:1004D0008093B1008091B00081608093B0008091E2
:1004E000910082608093910080919100816080935F
:1004F00091008091900081608093900080917A00BB
:10050000846080937A0080917A008D7F80937A0056
:1005100080917A008E7F80937A0080917A00806843
:1005200080937A001092C10061E08DE00E94230167
:1005300061E08CE00E94230161E08BE00E942301D6
:1005400060E08AE00E942301C0E0D0E061E08DE03D
:100550000E94F50061E08CE00E94F50060E08BE015
:100560000E94F5000E94A80160E08CE00E94F50066
:1005700061E08BE00E94F5000E94A80160E08DE040
:100580000E94F50061E08CE00E94F50060E08BE0E5
:100590000E94F5000E94A80160E08CE00E94F50036
:1005A00061E08BE00E94F5000E94A801209771F2A3
:1005B0000E940000CBCFEE0FFF1F0590F491E02DBD
:0605C0000994F894FFCF3E
:0205C600010032
:00000001FF
