:020000040800F2
:100000000000012049140008991400089914000800
:1000100099140008991400089914000800000000C1
:10002000000000000000000000000000991400081B
:1000300099140008000000009914000877110008C6
:1000400099140008991400089914000899140008DC
:100050009914000899140008591200085F1200084A
:10006000651200086B12000871120008991400084C
:1000700099140008991400089914000899140008AC
:10008000991400089914000899140008991400089C
:1000900099140008991400089914000877120008B0
:1000A000ED10000879100008991400089D10000850
:1000B000B1100008000000000000000099140008C2
:1000C000991400089914000899140008991400085C
:1000D000991400089914000899140008991400084C
:1000E0008D120008991400080000000000000000B4
:1000F0000000000000000000000000000000000000
:100100000000000099140008000000009914000885
:100110000000000000000000C5100008D910000811
:1001200099140008991400089914000899140008FB
:10013000991400080000000000000000000000000A
:100140009914000899140008991400080000000090
:1001500099140008991400089914000899140008CB
:100160009914000899140008991400080000000070
:100170009914000899140008000000000000000015
:0C01800099140008991400089914000854
:10018C0010B5054C237833B9044B13B10448AFF3C5
:10019C0000800123237010BD94000020000000009B
:1001AC009415000808B5034B1BB103490348AFF382
:1001BC00008008BD00000000980000209415000885
:1001CC0038B5124C00252278002AEBB214BF0A2253
:1001DC003222934211DA0A2000F0C2F801214FF0CA
:1001EC00904000F051FA01350028ECD1642000F069
:1001FC00B7F8237883F00103237001214FF090406E
:10020C0000F042FA0028F8D038BD00BF00000020F2
:10021C0010B5012286B0044601464FF0904000F024
:10022C0039FA0023CDE90333059301A901234FF0DB
:10023C0090400194029300F063F906B010BD0000E9
:10024C007FB5104BDA6C42F00102DA64DB6C03F020
:10025C00010300934FF40060009BFFF7D9FF4FF4AC
:10026C008050FFF7D5FF1022002102A801F036F9CB
:10027C00012301A94FF09040019300F041F907B020
:10028C005DF804FB0010024008B501224FF4006138
:10029C004FF0904000F0FEF900224FF480514FF0E7
:1002AC00904000F0F7F9FFF78BFF00224FF400614C
:1002BC004FF0904000F0EEF901224FF480514FF0D6
:1002CC00904000F0E7F9BDE80840FFF779BF7047B0
:1002DC0038B50F4B0546187808B9012038BD0D4AC2
:1002EC004FF47A73B3FBF0F31068B0FBF3F000F04B
:1002FC008FF804460028F0D10F2DEED8024629467F
:10030C004FF0FF3000F052F8034B20461D60E5E73C
:10031C00010000202C0000200400002010B5032058
:10032C0000F032F80020FFF7D3FF044618B9FFF7AE
:10033C00CEFF204610BD0124FBE70000034A044B0E
:10034C0011681B780B441360704700BFB00000208D
:10035C0001000020014B1868704700BFB00000205E
:10036C0038B50446FFF7F6FF631C1CBF054B1B7822
:10037C00054618BFE418FFF7EDFF431BA342FAD361
:10038C0038BD00BF010000200749CA6822F4E062B2
:10039C000302120403F4E063120C134343F0BF6333
:1003AC0043F40033CB60704700ED00E0164B30B5E2
:1003BC00DC68C4F30224C4F10705231D042D28BFF7
:1003CC000425062B4FF0FF338CBF033C002403FAAB
:1003DC0005F521EA0501A34022EA0302A140002809
:1003EC0041EA0203ACBF00F16040084A4FEA031334
:1003FC00B8BF00F00F00DBB2AABF00F56140135488
:10040C0080F8003330BD00BF00ED00E014ED00E0DB
:10041C000138B0F1807F0BD24FF0E023054A5861D0
:10042C00F02182F823100020072298611A6170478E
:10043C000120704700ED00E0704708B5FFF7FCFFA6
:10044C0008BD704710B5044608B9012010BD437FA4
:10045C0003F0FF0213B90277FFF7F3FF0223637770
:10046C002379E3B92368134A5A619A6822F0180277
:10047C009A6062792368D2B94FF0FF321A619A6898
:10048C00616922F060020A439A609A68A16922F0BD
:10049C0080020A439A60012363770020D6E7D4E9EF
:1004AC000212204600F008F80028E2D0CDE72269BD
:1004BC00E4E700BFB71DC10410B51F23013B1CD3DB
:1004CC0021FA03F4E407F9D5102A12D004D83AB172
:1004DC00082A10D001200BE0182AFBD1062BF9D8E2
:1004EC0000684161836823F018031A43826000207E
:1004FC0010BD072BF3E70F2BF1E7002AEAD1EFE74A
:10050C002DE9F74FDFF87C915C4C00230A6832FA36
:10051C0003F502D103B0BDE8F08F012505FA03FE07
:10052C001EEA020200F0A0804E68032706F00305C5
:10053C004FEA430807FA08FC6F1E012F6FEA0C0CF8
:10054C0034D8876807EA0C0ACF6807FA08F747EA35
:10055C000A078760476827EA0E0EC6F300179F400C
:10056C0047EA0E074760C76807EA0C0E8F6807FA60
:10057C0008F747EA0E07022DC76019D14FEAD30AD4
:10058C0000EB8A0A03F0070BDAF820704FEA8B0BAA
:10059C004FF00F0E0EFA0BFE27EA0E0E0F6907FA3C
:1005AC000BF747EA0E07CAF8207001E0032DDAD1E9
:1005BC00076805FA08F507EA0C072F4316F4403FC5
:1005CC00076051D0D9F8605045F00105C9F860506A
:1005DC00D9F8605023F0030707F1804705F00105B7
:1005EC0007F58037019503F0030E019DBD684FEAB6
:1005FC008E0E4FF00F0C0CFA0EFCB0F1904F25EA5A
:10060C000C0C33D01E4DA84232D005F58065A842A3
:10061C0030D005F58065A8422ED005F58065A8423E
:10062C000CBF0425072505FA0EF545EA0C05BD603F
:10063C00A568D74316F4801F0CBF3D401543A56039
:10064C00E56816F4001F0CBF3D401543E560656876
:10065C0016F4003F0CBF3D40154365602568F6035A
:10066C0054BF3D401543256001334FE70025DAE7C1
:10067C000125D8E70225D6E70325D4E7000401407D
:10068C0000040048001002400369194214BF012005
:10069C00002070470AB18161704781627047000089
:1006AC00044A5169014208B502D0506100F0B8FD0E
:1006BC0008BD00BF00040140024B186800F4C06084
:1006CC00704700BF00700040174A1368B0F5007FF8
:1006DC0003F4C0631DD1B3F5007F01D10020704736
:1006EC00136823F4C06343F4007313600F4B1B684F
:1006FC0032214B430E49B3FBF1F3013351694905E8
:10070C0000D523B953695B05E8D503207047013B3D
:10071C00F4E7B3F5806F1FBF136823F4C06343F491
:10072C0080631360DAE700BF007000402C000020EB
:10073C0040420F0037B51E4DAB6DDA00044618D59C
:10074C00FFF7BAFFB0F5007F23D1802C29D9A02C5C
:10075C008CBF02200120174A136823F007030343C0
:10076C001360136803F00703181A18BF012003B0B5
:10077C0030BDAB6D43F08053AB65AB6D03F0805374
:10078C000193019BFFF798FFAB6D23F08053AB6592
:10079C00D8E7802C07D808D0A4F1700358425841F0
:1007AC00D9E70020D7E70320D5E70220D3E700BF25
:1007BC000010024000200240224B9A68D96812F0C7
:1007CC000C0205D00C2A15D101F00301012918D116
:1007DC0019681D48090755BFD3F894101968C1F35F
:1007EC000321C1F3031150F821004AB30C2A09D09C
:1007FC0000207047042A22D0082A144818BF002071
:10080C0070470020DA6802F00302022A15D00F4963
:10081C00032A08BF0846D968DA68C2F306224243A5
:10082C00D868C0F34160C1F30211013001314000BE
:10083C00B2FBF1F2B2FBF0F070470548EBE704486D
:10084C00704700BF00100240BC15000800127A006F
:10085C000024F4002DE9F743054608B9012047E0D0
:10086C00944C0368A668E768DB0606F00C0607F0F4
:10087C00030775D51EB10C2E54D1012F52D123680C
:10088C00980702D5AB69002BE8D02368286A1907B2
:10089C0056BFD4F8943023681B0903F0F003984238
:1008AC0029D9FFF747FF0028D8D1236843F0080364
:1008BC00236023682A6A23F0F003134323606368E0
:1008CC00EA6923F47F4343EA02236360FFF774FF72
:1008DC00A368794AC3F30313D35C03F01F03D84016
:1008EC00764B1860764B1868FFF7F2FC002837D06F
:1008FC0003B0BDE8F083236843F00803236023684A
:10090C0023F0F003034323606368EA6923F47F4315
:10091C0043EA02236360002ED8D1FFF70BFF0028B7
:10092C00D4D09BE7AB69002B3AD0236843F001038A
:10093C002360FFF70FFD804623689A0728D52368AC
:10094C0043F00803236023682A6A23F0F00313435F
:10095C0023606368EA6923F47F4343EA02236360FC
:10096C002B68D8072DD42B6899076BD42B681807E4
:10097C0000F1A8802B68590700F1CE802B689906EE
:10098C0000F13781AB6A002B40F05D810020AFE7AE
:10099C00FFF7E0FCA0EB08000228CDD90320A7E765
:1009AC00236823F001032360FFF7D4FC80462368FF
:1009BC009B07D5D5FFF7CEFCA0EB08000228F6D993
:1009CC00ECE7082E03D00C2E08D1032F06D1236898
:1009DC009A03C8D56B68002BC5D13FE76B68B3F59C
:1009EC00803F10D1236843F480332360FFF7B2FCBF
:1009FC00804623689B03B6D4FFF7ACFCA0EB080041
:100A0C006428F6D9CAE7B3F5A02F04D1236843F4C0
:100A1C0080232360E6E7226822F480322260226879
:100A2C0022F480222260002BE0D1FFF793FC804659
:100A3C002368980397D5FFF78DFCA0EB080064287A
:100A4C00F6D9ABE7042E03D00C2E10D1022F0ED109
:100A5C002368590503D5EB68002B3FF4FFAE6368A0
:100A6C002A6923F0F85343EA026363607EE7EB687C
:100A7C007BB1236843F480732360FFF76BFC07465C
:100A8C0023685A05EBD4FFF765FCC01B0228F7D985
:100A9C0084E7236823F480732360FFF75BFC07462D
:100AAC0023685B057FF562AFFFF754FCC01B02287F
:100ABC00F6D973E700100240AC1500082C0000209A
:100ACC00040000206B699BB1D4F8943043F001030F
:100ADC00C4F89430FFF73EFC0746D4F894309A07DC
:100AEC003FF548AFFFF736FCC01B0228F5D955E798
:100AFC00D4F8943023F00103C4F89430FFF72AFCA7
:100B0C000746D4F894309B077FF534AFFFF722FCEF
:100B1C00C01B0228F5D941E7A36DD80029D4A36DD9
:100B2C0043F08053A365A36D03F080530193019BA5
:100B3C004FF00108964F3B68D9051DD5AB68012BCA
:100B4C002BD1D4F8903043F00103C4F89030FFF768
:100B5C0001FC41F288390746D4F890309B0742D506
:100B6C00B8F1000F3FF40AAFA36D23F08053A365D7
:100B7C0004E74FF00008DDE73B6843F480733B600B
:100B8C00FFF7E8FB81463B68DA05D7D4FFF7E2FBB9
:100B9C00A0EB09000228F6D900E7052B06D1D4F802
:100BAC00903043F00403C4F89030CAE7D4F8902096
:100BBC0022F00102C4F89020D4F8902022F0040214
:100BCC00C4F89020002BC2D1FFF7C4FB41F2883946
:100BDC000746D4F890309807C2D5FFF7BBFBC01B73
:100BEC004845F6D9DAE6FFF7B5FBC01B4845B3D943
:100BFC00D4E66B6A9BB1D4F8983043F00103C4F887
:100C0C009830FFF7A7FB0746D4F898309A073FF5C2
:100C1C00B9AEFFF79FFBC01B0228F5D9BEE6D4F88E
:100C2C00983023F00103C4F89830FFF793FB074684
:100C3C00D4F898309B077FF5A5AEFFF78BFBC01B54
:100C4C000228F5D9AAE6022B40F08880E368EA6A0C
:100C5C0003F00301914222D1296B03F07002013998
:100C6C00B2EB011F1BD1696B03F4FE42B2EB012FF7
:100C7C0015D1A96B03F07842B2EBC16F0FD1EA6BBF
:100C8C00520803F4C001013AB1EB425F07D12A6C60
:100C9C00520803F0C063013AB3EB426F45D00C2EFF
:100CAC003FF4DCAD23685E013FF5D8AD236823F03B
:100CBC0080732360FFF74EFB0646236898012ED401
:100CCC00E268344B1340EA6A13436A6B43EA02232B
:100CDC00AA6B43EAC2632A6B013A43EA0213EA6B3A
:100CEC005208013A43EA42532A6C5208013A43EA49
:100CFC004263E360236843F080732360E36843F04E
:100D0C008073E360FFF726FB0546236899013FF5E6
:100D1C003DAEFFF71FFB401B0228F6D93EE6FFF75E
:100D2C0019FB801B0228C8D938E623689A013FF5C5
:100D3C002DAE236843F080732360E36843F0807327
:100D4C00E360FFF707FB054623689B013FF51EAEEA
:100D5C00FFF700FB401B0228F6D91FE60C2E3FF4D0
:100D6C007DAD236823F080732360FFF7F3FA05460B
:100D7C00236813F0007304D1E168074A0A40E2606B
:100D8C0004E6FFF7E7FA401B0228F1D906E600BF9C
:100D9C00007000408C809D01FCFFEEFE2DE9F041BF
:100DAC000D46044610B90120BDE8F0814B4A13688A
:100DBC0003F007038B422CD32068860734D4C10779
:100DCC003FD421688A0768D4444A136803F00703A8
:100DDC00AB426FD811F0040F414D77D10B0706D5FC
:100DEC00AB68226923F4605343EAC203AB60FFF79C
:100DFC00E3FCAB683B4AC3F30313BDE8F041D35C9F
:100E0C0003F01F03D840384B1860384B1868FFF7B5
:100E1C005FBA136823F007030B431360136803F0E6
:100E2C0007038B42BFD1C7E72D4AA668916801F032
:100E3C00F0018E4281BF936823F0F003334393603B
:100E4C00BDE76268264E032A33681AD113F0007F7F
:100E5C00A9D0B36823F003031343B360FFF77AFA06
:100E6C0041F288380746B368626803F00C03B3EBB1
:100E7C00820FA6D0FFF76EFAC01B4045F3D90320B2
:100E8C0092E7022A02D113F4003FE1E712B913F002
:100E9C00020FDDE713F4806FDAE7114AA668906859
:100EAC0000F0F00086423FBF936823F0F003334319
:100EBC00936089E7136823F007032B4313601368CF
:100ECC0003F00703AB427FF46EAF83E7AB68E268D5
:100EDC0023F4E0631343AB6080E700BF00200240C3
:100EEC0000100240AC1500082C000020040000206B
:100EFC007047704703681A69910710B504460FD5FF
:100F0C00DA6892070CD56FF002021A61012202779F
:100F1C009B69990700F0858000F024F90023237762
:100F2C0023681A69520710D5DA6850070DD56FF08F
:100F3C0004021A61022222779B6913F4407F204637
:100F4C0075D000F00FF90023237723681A69110775
:100F5C000FD5DA6812070CD56FF008021A6104225B
:100F6C002277DB699B07204667D000F0FBF8002353
:100F7C00237723681A69D00610D5DA68D1060DD507
:100F8C006FF010021A6108222277DB6913F4407F9C
:100F9C00204658D000F0E6F80023237723681A691E
:100FAC00D20708D5DA68D00705D56FF001021A61AF
:100FBC00204600F0B4F823681A69110608D5DA68DF
:100FCC00120605D56FF080021A61204600F043F836
:100FDC0023681A69D00508D5DA68110605D56FF4AF
:100FEC0080721A61204600F037F823681A6952069D
:100FFC0008D5DA68500605D56FF040021A61204614
:10100C00FFF777FF23681A69910622D5DA689206F2
:10101C001FD56FF0200220461A61BDE8104000F089
:10102C0019B800F09DF82046FFF762FF76E700F054
:10103C0097F82046FFF75CFF85E700F091F8204613
:10104C00FFF756FF93E700F08BF82046FFF750FFB1
:10105C00A2E710BD704770477047836810B504460F
:10106C0013B1032201469847204610BD10B5074C1A
:10107C00206810B10430FFF73DFF606920B1BDE876
:10108C0010400430FFF736BF10BD00BFB400002085
:10109C00034B186810B10430FFF72CBF704700BF2A
:1010AC00B4000020034B586810B10430FFF722BF86
:1010BC00704700BFB4000020034B986810B1043097
:1010CC00FFF718BF704700BFB4000020034BD8686F
:1010DC0010B10430FFF70EBF704700BFB400002002
:1010EC00034B186910B10430FFF704BF704700BF01
:1010FC00B4000020826810B50AB900F0F7F9BDE819
:10110C001040C368184708B500B9FEE700F03EF977
:10111C000068C36E13B16430FFF7ECFF08BDFFF736
:10112C00F2BF10B500B9FEE7037F013B072B10D8C7
:10113C00DFE803F014040F100F0F0F12022400F05D
:10114C0025F9240100686434204483680BB1FFF74F
:10115C00D1FF10BD0324F2E70424F0E70124EEE7ED
:10116C00FFF7DFBFFFF7DDBF704708B5FFF7E6F805
:10117C00FFF763F9FFF7F8FF08BD70470F4B9A6D47
:10118C0042F080529A659A6D84B002F080520192BE
:10119C00019A1A6E42F001021A661A6E02F00102EE
:1011AC000292029A9A6C42F480529A649B6C03F4F9
:1011BC0080530393039B04B0704700BF00100240A0
:1011CC000C4BD3F8FC20D2015EBFD3F8FC2042F0CC
:1011DC008072C3F8FC20084B00225A601A6842F057
:1011EC0001021A6000BF00BF00BF5868B0FA80F05F
:1011FC004009704700ED00E0001000E008B5FFF773
:10120C00BDFFFFF7DDFFFFF789F8FFF7B6FF00F032
:10121C00CBF8BDE808400148FFF714B908000020DE
:10122C000023012803F1010202D040081346F8E71D
:10123C001421DBB24B43044A181D1044816811B1D0
:10124C0013441B6918477047CC0000200120FFF79E
:10125C0027BA0220FFF724BA0420FFF721BA08208E
:10126C00FFF71EBA1020FFF71BBA38B5052420254E
:10127C00A8B2FFF715FA013C4FEA4505F8D138BD85
:10128C0038B506244FF48065A8B2FFF709FA013C83
:10129C004FEA4505F8D138BD204B072119750821B7
:1012AC0083F82810092183F83C100A21062283F8C0
:1012BC00501017211A7083F86410002283F87810EC
:1012CC0083F88C1083F8A01083F8B4102821DA600E
:1012DC001A625A639A64DA651A67C3F88420C3F8F1
:1012EC009820C3F8AC20C3F8C02083F8C810C3F80A
:1012FC00D42083F8DC10C3F8E82083F8F010C3F88E
:10130C00FC2083F80411C3F8102183F81811C3F8DA
:10131C00242183F82C11C3F838217047CC0000200D
:10132C0038B5054CA4F5A075143C201DFFF795FEAF
:10133C00AC42F9D138BD00BF0C020020114B4FF06C
:10134C0000629A60D3F8882042F47002C3F88820B7
:10135C000D4B1A68002142F001021A6099601A685C
:10136C0022F0A85222F410221A604FF48052DA6054
:10137C001A6822F480221A6040F27F7299611A6214
:10138C00704700BF00ED00E00010024004387047C9
:10139C00FEE70000024B16221A604FF0FF30704738
:1013AC000C0200200120704700B597B044220021A8
:1013BC0005A800F093F814220021684600F08EF87E
:1013CC004FF40070FFF780F900B1FEE7102305938E
:1013DC00602301220D930223CDE90B20CDE90F32BE
:1013EC00282011920722CDE9120205A8CDE9143369
:1013FC00FFF730FA00B1FEE7CDE902000F2203231C
:10140C00049004216846CDE90023FFF7C7FC00B126
:10141C00FEE717B05DF804FB08B50320FEF7B4FF38
:10142C00BDE8084000F034B808B5AFF30080FEF713
:10143C0007FFFEF729FF00F02AF8FAE7DFF834D0AF
:10144C00FFF77CFF0C480D490D4A002302E0D458ED
:10145C00C4500433C4188C42F9D30A4A0A4C0023F2
:10146C0001E013600432A242FBD300F013F8FFF743
:10147C00DBFFFEE7000001200000002094000020AC
:10148C00001600089400002010020020FEE77047B0
:10149C00FFF7B4BE70B50D4D0D4C641BA4100026A7
:1014AC00A64209D10B4D0C4C00F06EF8641BA41035
:1014BC000026A64205D170BD55F8043B984701366D
:1014CC00EEE755F8043B98470136F2E7EC150008B7
:1014DC00EC150008EC150008F8150008024403464A
:1014EC00934200D1704703F8011BF9E708B500F0EF
:1014FC0000F808B5062000F02BF80120FFF748FF94
:10150C001F2938B504460D4604D9162303604FF045
:10151C00FF3038BD426C12B152F821304BB9204625
:10152C0000F030F82A4601462046BDE8384000F06D
:10153C0017B8012B0AD0591C03D1162303600120C4
:10154C00E7E7002442F82540284698470020E0E7CA
:10155C00024B01461868FFF7D3BF00BF30000020D4
:10156C0038B5074D00230446084611462B60FFF79B
:10157C0011FF431C02D12B6803B1236038BD00BF9F
:10158C000C020020FFF70EBFF8B500BFF8BC08BC7A
:10159C009E467047F8B500BFF8BC08BC9E46704725
:1015AC000000000000000000010203040607080907
:1015BC00A0860100400D0300801A060000350C00C7
:1015CC0040420F0080841E0000093D0000127A008A
:1015DC000024F40000366E010048E801006CDC02C7
:0C15EC0025140008B1010008A512000839
:0815F8008D0100082D1300080D
:101600000101000010000000003002400000000056
:1016100000000000000000000000000000000000CA
:1016200000000000000000000000000000093D0074
:101630003400002000000000000000000000000056
:10164000000000000000000000000000000000009A
:10165000000000000000000000000000000000008A
:10166000000000000000000000000000000000007A
:10167000000000000000000000000000000000006A
:10168000000000000000000000000000000000005A
:041690000000000056
:040000050800144992
:00000001FF
