:020000041000EA
:10000000002008205D0100101301001015010010F0
:100010001101001011010010110100101101001058
:100020001101001011010010110100101701001042
:100030001101001011010010190100101B01001026
:100040001D0100101D0100101D0100101D010010F8
:100050001D0100101D0100101D0100101D010010E8
:100060001D0100101D0100101D0100101D010010D8
:100070001D0100101D0100101D0100101D010010C8
:100080001D0100101D0100101D0100101D010010B8
:100090001D0100101D0100101D0100101D010010A8
:1000A0001D0100101D0100101D0100101D01001098
:1000B0001D0100101D0100101D0100101D01001088
:1000C0001D0100101D0100101D0100101D01001078
:1000D0001D0100101D0100101D0100101D01001068
:1000E0001D0100101D0100101D0100101D01001058
:1000F0001D0100101D0100101D0100101D01001048
:100100001D0100101D0100101D0100101D01001037
:1001100000BE00BE00BE00BE00BE00BEEFF3058004
:10012000103800BEF2EB88713448001054480010BB
:10013000A801001090A31AE7D3DEFFFF42012110AF
:10014000FF010000C0500000793512AB4FF00000F5
:100150002049086006C881F3088810474FF05040D6
:10016000006810B14FF00000F2E70FA40ECC002998
:1001700002D000F015F8F9E71749184A002000E00E
:1001800001C19142FCD1002080F30A8814498847BC
:10019000144988471449884700BEFDE701C901C2D8
:1001A0009A42FBD3704700BF544800101001002052
:1001B000B40A0020F85100100000082000000820B8
:1001C000F851001000100820001008200000000066
:1001D0007047000008ED00E0B40A00205C18002021
:1001E000511B0010FD020010491B0010F8B500BFA4
:1001F00010B5054C237833B9044B13B1044800E023
:1002000000BF0123237010BD400C0020000000003F
:100210009044001008B5034B1BB10349034800E0AC
:1002200000BF08BD00000000440C002090440010F6
:1002300070B500244FF0504605460A2001F0A2F8A0
:10024000736801341A0407D5A542F6D14FF0504225
:1002500053681B04FCD570BD642001F093F8034A79
:10026000137883F001031370F0E700BF080A002041
:100270002DE9F0414FF0010800271F4D2B7883EA4C
:1002800008032B700324192648EC4060002B14BF90
:1002900005200A20FFF7CCFF47EC40602B78002BAD
:1002A00014BF05200A20FFF7C3FF631E13F0FF04ED
:1002B00001D02B78E8E703240E2648EC40602B7829
:1002C000002B14BF05200A20FFF7B2FF47EC406067
:1002D0002B78002B14BF05200A20FFF7A9FF631E0F
:1002E00013F0FF04E9D12B78002B14BF0F201E2040
:1002F000FFF79EFF2B78C5E7080A00202DE9F043A1
:100300008BB001F047FD192000F0D6FA4FF001083C
:10031000192348EC44300E2000F0CEFA0E2348ECAE
:1003200044300F2000F0C8FA00260F2046EC4400AD
:100330002E4C3246414600F0A7FA2D49204600F0E7
:10034000F3F806210746102000F080FA43461022F9
:100350003146CDF80080204600F000F94FF480339C
:100360004FF4F832CDE906324FF4402307F1070885
:100370000DF1180C09960DF1080E0893BA1C4FEAFE
:10038000083848EAC2189CE80F008EE80F00DFF832
:100390006C90CDF80C809EE80F008CE80F0063464F
:1003A0003A4631462046CDF8249000F01FF92368E4
:1003B000052043F00103236001F08EF903465B083A
:1003C000033B0C4823610C4D01F0F6F84FF47A70B2
:1003D00001F0E2FC702805D06228F7D10021084620
:1003E00001F048FA284601F0FFFCEFE7000020503A
:1003F000B844001071020010904400100002000484
:10040000D0F8683191F807C0F3B91CF0040F1ED181
:1004100091F90530002B01DB934218D1012391F8AB
:1004200004C000F12F400B4900F56000000D03FAF5
:100430000CF351F82010013B03FA02F20A4214BFF8
:100440006FF00800002070471CF0010FE0D06FF043
:100450000A007047C4100020F8B504460F46154640
:10046000FFF7CEFF20BB3E79396886B1AC46114A12
:1004700001EB460E31F8023B0CF11200134208BFAB
:100480005B1971450CF1010C44F82030F2D10122C6
:1004900004F12F44084B04F56004B240240D013AE6
:1004A000284602FA05F553F82420154343F8245052
:1004B000F8BD00BF00E0FFFFC4100020012300F1E1
:1004C0002F4010B400F56000164C4FEA105C8B40D2
:1004D000002A54F82C4003F1FF330CDBC1F120005B
:1004E00082421CDC934023420CBF10464FF0FF3089
:1004F0005DF8044B7047D1F120000BD403FA00F2F1
:10050000224202D1F4E72242F2D00138411C03FA20
:1005100000F2F8D16FF008005DF8044B70474FF01F
:10052000FF30E5E7C4100020F8B50D46064600F0A0
:10053000C5F895F90520074629793046FFF7BEFF33
:10054000041E05DB224629463046FFF785FF044698
:10055000384600F0C5F82046F8BD00BF2DE9F0414F
:10056000D0F868419DF81860121B1F2A3AD84EF245
:100570009F074EF280054FF4003401EB410C00EB75
:10058000CC0E002E18BF3D460EF5435E00EBCC0CA2
:10059000052BDCF8DC704FEA4108DCF8CC600EF18A
:1005A0000C0ECEF800400CD95401053B44F0A05489
:1005B0000532052BCCF8DC4002F01F02CCF8D850F5
:1005C000F2D8414400EBC1040020510141EA8363A9
:1005D000C4F8DC30C4F8D850C4F8DC70C4F8CC607F
:1005E000BDE8F0816FF00400FAE700BFF0B5012527
:1005F00004688D4024EA0504046093B3D3E90156EE
:100600001F68DC6801EB410300EBC303C3F8C8704B
:100610004FEA410CC3F8D060C3F8CC50C3F8DC40BB
:100620004FF0013E4FF0004602F01F0401228C44BF
:1006300000EBCC0303F5865301F108070D1D0EFAFC
:1006400001F11E6100EBCC0C1E6102FA05F5816020
:10065000BA4000F50050056002600020CCF8D84098
:10066000F0BD4FF480374FF440264FF4F83501EBDE
:10067000410400EBC404C4F8C8704FEA410CC4F84C
:10068000D060C4F8CC50C4F8DC30C9E70FB400B572
:1006900083B0049C074801F0A7FB3CB105A92046A4
:1006A000019101F037FA044801F09EFB012001F0AE
:1006B00049FA00BFD0440010E0440010EFF310806E
:1006C00072B6064BD3E8CF1F01220029FAD1C3E846
:1006D000412F0029F6D1BFF35F8F70474B0F0020E9
:1006E0000023034AC2E88F3F80F31088704700BFA1
:1006F0004B0F002070B5EFF3108572B6134CD4E8A1
:10070000CFCF0126BCF1000FF9D1C4E84C6FBCF18A
:10071000000FF4D1BFF35F8F4FF0010C4FEAD10E01
:1007200001F007030CFA03F310F80EC01CEA0306ED
:1007300008D14CEA030300F80E30C4E88F6F85F34C
:10074000108870BD1046FFF7A1FF00BF4B0F0020BF
:10075000F8B5EFF3108572B6234CD4E8CF7F0126AD
:10076000002FFAD1C4E8476F002FF6D1BFF35F8F97
:100770009A4227D80126D70810F807E002F0070CA4
:1007800006FA0CFC1EEA0C0F00EBD2070DD125E097
:100790004FEAD20E10F80EE002F0070C06FA0CFC3D
:1007A0001EEA0C0F00EBD20718D001329342EFD2B1
:1007B0004FF0FF300023C4E88F3F85F31088984244
:1007C00007DBF8BD0023C4E88F3F85F310884FF0A6
:1007D000FF300029F5D00698FFF758FF4EEA0C0CC1
:1007E000104687F800C0E5E74B0F0020044A107858
:1007F000431CDBB2172B88BF10231370704700BF58
:10080000090A002010B5054C82B001461F231822AA
:1008100000940348FFF79CFF02B010BDE4440010B1
:10082000941300204FF0E022936843F0005393604C
:10083000704700BF0021044B03F12002C3E88F1F63
:1008400001339342FAD17047400F002010B44FF4A7
:1008500080740C4B53F8202003EB8003C00082F01F
:10086000400200F1804003F5805C02F0C00200F518
:10087000203003F54053CCF8002041601C605DF847
:10088000044B7047048003400A4B002914BF4FF00B
:10089000080C4FF0000C03EB80010AB14CF0040C83
:1008A00053F8203001F5805183EA0C0303F00C0368
:1008B0000B6070470480034030B4002343EC4400D5
:1008C00043EC400005254FF480740B4BC20053F8F5
:1008D000201003EB800081F0400102F1804303F51A
:1008E000203301F0C00200F5805100F540500A604D
:1008F0005D60046030BC7047048003404FF080307E
:10090000034B04491A4604338B421060FAD17047F6
:1009100000E400E034E400E0012300F01F02934013
:10092000400941B1800000F1604000F56140C0F82D
:10093000803103607047024A203042F8203070470F
:1009400000E100E00123064A410952F8212000F0AD
:100950001F0003FA00F0104214BF18460020704731
:1009600000E100E001224309044900F01F0002FAFF
:1009700000F0403341F82300704700BF00E100E081
:10098000064B10309B6853F8200028B1044BC01A66
:100990002F288CBF00200120704700BF00ED00E031
:1009A0000C0A0020F8B50D46EFF3108772B6124E10
:1009B000D6E8CF2F0123002AFAD1C6E8423F002A09
:1009C000F6D1BFF35F8F0D4B00F110049B680C4A0A
:1009D00053F82430934203D0994201D000F096FF9F
:1009E000064B9B6843F82450BFF35F8F0023C6E893
:1009F0008F3F87F31088F8BD490F002000ED00E01D
:100A00001D0100102DE9F04F80468B46174683B03C
:100A1000EFF3108372B6DFF8D0A10093DAE8CF1FAE
:100A200001230029FAD1CAE8413F0029F6D1BFF3DA
:100A30005F8F664E96F90050002DC0F2A080644C86
:100A400005EB450304EB8300817908F11008317050
:100A500060499B008968994651F828E00646AEEB4C
:100A600004012F294FEA450231D95B4B9E4540F0E6
:100A7000A2805A4B09F10209A144043BA3EB0903EC
:100A8000C3F34A036FEAC3434FF421416FEAD343F0
:100A9000154424F8251004EB85056B804BF60153B3
:100AA000AB80FF2346F0010EEF71C5F808B0AB71C3
:100AB000484B9B6843F828E0BFF35F8F0023CAE8E8
:100AC0008F3F009B83F3108803B0BDE8F08F2EF0BA
:100AD000010191F807C0BC452BD84FF42146E652DE
:100AE0003E4B09F102062644043B09F104099B1B15
:100AF000A1440E1FC771A6EB0906394FC6F34A067B
:100B00003E438680C3F34A03364E3B4343804AF656
:100B1000AA250B461B1B5B415D432D0DC0F808B099
:100B2000857140F0010E0E60C2E7C079B8422BD942
:100B3000614691F9063003EB430004EB8000002B83
:100B40008446F2DA4BF6015001930B1D043EF61A6F
:100B5000C6F34A066FEAC6466FEAD64602EB050CB4
:100B6000DFF88090019B8D7104EB8C058E8044F83A
:100B70002C90A880AB71EF71C5F808B098E700F031
:100B8000C5FE96F900505AE788880193400501F1A7
:100B9000040315D44FEA605C6FF007000CF1020CFF
:100BA000A0EB090003EB4C0C001B6044C0F34A00AF
:100BB00040F46040CAE7019200F0A8FE019A58E7AD
:100BC00000F5FF1000F5FF501F30E3E75418002038
:100BD0000C0A002000ED00E01D0100103C0A00207E
:100BE00000E0FFFF01488047490F00202DE9F04158
:100BF000EFF30586F6B2EFF3108E72B6204DD5E80E
:100C0000CF2F0123002AFAD1C5E8423F002AF6D1AE
:100C1000BFF35F8F1B4F40F0010CBA684AF6AA235E
:100C200052F82680184C0246121B524153431B0DAA
:100C3000E04559B214D02246002392F906C00C3286
:100C40008C4512D00133042BF7D1104B00221C78B5
:100C500019708471C5E88F2F8EF31088BDE8F0817C
:100C6000BB680B4A43F82620EFE7FF2203EB430360
:100C700004EB83039A714BF601529A80E5E700BFBB
:100C8000490F002000ED00E00C0A0020541800205D
:100C90001D01001010B5074C82B00146052300224B
:100CA00000940548FFF754FD0028A8BFC0F13300A9
:100CB00002B010BD0045001058180020014B194427
:100CC00001607047400F0020F8B5124D124EB5423A
:100CD0001ED2FF272C460CE0FFF788FD0146284670
:100CE000FFF7ECFFA780BFF35F8F0834B4420FD249
:100CF00025462368002BEFD1FFF778FD01462846F3
:100D0000FFF7DCFF2771BFF35F8F0834B442EFD3E6
:100D1000F8BD00BFA40A0020B40A002010B50446A4
:100D2000FFF764FD01462046FFF7C8FFFF2323714C
:100D3000BFF35F8F10BD00BF10B504460120FFF761
:100D400061FD034B18442060BFF35F8F10BD00BFEF
:100D5000400F0020024B19440160BFF35F8F7047C2
:100D6000400F00200D4B1A68EFF3108172B6D2E8E5
:100D7000CFCF0120BCF1000FF9D1C2E84C0FBCF17C
:100D8000000FF4D1BFF35F8F00221B68C3E88F2FE1
:100D900081F3108840BF00200021704734180020E4
:100DA0002DE9F04F2DED028B85B0EFF30583DBB21B
:100DB000103B9A0818BF01224FF0010103F0030015
:100DC000B14B00EB82020CBFB04FB14F53F8226021
:100DD00001FA00F207F541539FEDA98BB04601904F
:100DE00000925A6031E0B8F804301B0440F18E8064
:100DF00098F80630002B40F0DB80B8F90820002A74
:100E0000C0F22181D8F8143002EB420203EBC20297
:100E1000D2E90245B5F1FF3F08BFB4F1FF3F09D069
:100E2000019B07EB8301BB6A0A69D21AE31A93425A
:100E300038BF0C61384600F027FB201A65EB01052E
:100E4000012875F1000380F2FE80B8F90840009B8C
:100E5000002CFB63C7DBD8F814A004EB440B384626
:100E60000AEBCB05D5E9029600F00EFB484561EB95
:100E700006010029B7DB002EC0F2C3802B69854A2A
:100E8000934200F0F1806A88B8F9080092B242EA11
:100E900000406969984702460B4652EA030100F098
:100EA000B080002B80F2D580B9EB020266EB030321
:100EB000C5E902233AF93B50002D94DBD8F814C061
:100EC00005EB45010CEBC1018868101AC86863EB9B
:100ED0000000002887DBA8F8085007E08568551B4C
:100EE000C56863EB0505002D08DB0146B1F900601C
:100EF00006EB4600002E0CEBC000EFDA2AF83B6050
:100F00000C80B8F804301B043FF572AFD8F81030ED
:100F1000EFF3108272B6D3E8CF0F01210028FAD187
:100F2000C3E8401F0028F6D1BFF35F8F4FF6FF7074
:100F3000B8F804900023D8F810100FFA89F9A8F82F
:100F40000400C1E88F3F82F310889945FFF650AF47
:100F5000BA46D8F8145008F1080B09EB490E05EB16
:100F6000CE03D3E90267B8F90830DC46002B05DA76
:100F70000FE035F934308446002B0ADB03EB4304E1
:100F800005EBC400D0E90212711A67EB0202002AD5
:100F9000EFDAACF8009035F93E9025F83E30B9F123
:100FA000000FDADA98F806305746002B3FF425AFE9
:100FB000002388F80630B8F9083008F1080C5E1CE8
:100FC00041D01A46D8F8144003E08446591C3FF437
:100FD00016AF03EB430104EBC10045881E462D0408
:100FE00034F93130F1D5964280ED028BEED0ACF879
:100FF0000030B8F8082024F831203246A8F80860FC
:10100000E4E73AF83B30A8F80830D8F81030EFF3AE
:10101000108272B6D3E8CF0F01210028FAD1C3E8BD
:10102000401F0028F6D1BFF35F8FB8F80230D8F820
:1010300010102AF83B300023A8F80240C1E88F3F87
:1010400082F31088CFE640BF05B0BDEC028BBDE84F
:10105000F08F3846CDE9022300F016FA029A039B7E
:10106000821843EB010323E7696908460B69029183
:1010700098470028C5D00299D1E900230DE700BFA9
:10108000FFFFFFFFFFFFFFFF0C18002000000B40D9
:1010900000800B40A10D001070B51F4D2C692CB1C4
:1010A000BDE870400A211D48FFF708BE1C4E032111
:1010B000304600F0D7F9EE60FFF798FB1949032698
:1010C000084428614FF050404FF6FF7223460F242A
:1010D00015492E70A96000686969AA806C806870E3
:1010E00021F813200C330132C02B92B2F8D108241E
:1010F0000B4B0E4A0320D5600D491C62FFF752FCD2
:1011000001210320FFF708FC0A4B0A211C60034859
:10111000BDE87040FFF7D2BD540A0020341800200B
:1011200000000B40400F0020FFFF10000C180020B3
:10113000A10D001040200B4000487047540A0020C9
:101140000146F0B50069EFF3108772B6D0E8CF5FC3
:101150000124002DFAD1C0E8454F002DF6D1BFF390
:101160005F8FB1F902E04C690EEB4E0C4FEACC06F2
:10117000BEF1000FA8BFA05B4FF00005A8BF4880DC
:1011800004EBCC0C0869C0E88F5F87F31088AE458C
:1011900035DBBCF80200CCE902230130C0F30E00BD
:1011A000012838BF0120059BACF80200CCF81030B4
:1011B000069B40EA0E40CCF814300B69EFF3108226
:1011C00072B6D3E8CFCF0127BCF1000FF9D1C3E845
:1011D0004C7FBCF1000FF4D1BFF35F8F8B88A3531A
:1011E000A1F804E00B69C3E88F5F82F31088012245
:1011F000CB68097803F501538A405A60F0BD4FF07F
:10120000FF30F0BD2DE9F0479DF828900546DDE957
:10121000086790461C46B9F1000F06D100F03CF972
:10122000804564EB0101002908DB4246234628463D
:10123000CDE90867BDE8F047FFF782BF4846BDE843
:10124000F08700BF4289B2EB214F38DD42690B14B1
:1012500003EB430310B502EBC3030469EFF3108CF7
:1012600072B6D4E8CFEF0122BEF1000FF9D1C4E885
:101270004E2FBEF1000FF4D1BFF35F8F5A8889B2B1
:1012800092B28A4207D000230269C2E88F3F8CF3F2
:101290001088184610BD42F400425A8001230022F3
:1012A00001698371C1E88F2F8CF31088C2680178BF
:1012B00002F5015203FA01F11846516010BD0020F9
:1012C000704700BF407870472DE9F041861F41F11B
:1012D000FF35B04271EB050338BF002682B038BF3E
:1012E000354604460F4600F0D7F8301A65EB010189
:1012F000012871F1000306DA2046394602B0BDE844
:10130000F04100F0F9B800F0C7F8864265EB010142
:1013100000290ADB0021174B3246009316482B4662
:101320000191FFF70DFF0028E6DB4FF0000C13489A
:10133000134A436A9D4204D8816AB142DCD29D427D
:10134000DAD11368EFF3108172B6D3E8CF8F5FF074
:10135000010EB8F1000FF8D1C3E848EFB8F1000F63
:10136000F3D1BFF35F8F1368C3E88FCF81F3108889
:1013700020BFDEE7650D0010540A002000000B407E
:101380003418002010B5044600F086F84FF47A7344
:10139000E4FB0301BDE810400029BCBF4FF0FF3063
:1013A0006FF00041FFF790BFF0B507460E4683B0DF
:1013B000EFF30584E4B2002C3AD1274D2A78E9688E
:1013C00004328B6A51F82220D21AC31A93420CD3EA
:1013D00020BF224A506A86422ED8936A9F4224D95F
:1013E000301A18BF012003B0F0BD00F055F8874255
:1013F00066EB0101002911DB194B2846CDE90034C9
:101400003A463346FFF79CFE011E07DD134B5A6A2E
:1014100096421BD920BF1048FFF714FF0F4B586AA4
:10142000864209D89B6A9F42DAD8012003B0F0BDFA
:101430000A4B586A884202D2002003B0F0BD9B6A72
:10144000BB42F2D2401A18BF0120F6E79B6A9F42C6
:10145000E1D99642DFD1DDE7540A002000000B40BD
:10146000650D001010B4054B054C064AA04214BF90
:101470001846581C5DF8044BFFF73CB99813002040
:1014800000800B401C450010416A0B46826A416A8D
:101490008B42FAD110467047034B596A0A46986A44
:1014A000596A9142FAD1704700000B4010B4114ABA
:1014B000536A9C46946A536A6345FAD100194B41BA
:1014C0004FF0000228BF012212B14FF0FF3318463F
:1014D00008494A6A9A42FCD39A4207D1054A02E077
:1014E000516A994202D1916A8142F9D35DF8044B65
:1014F000704700BF00000B40074A536A9942FCD86E
:10150000994207D1044B02E05A6A914202D19A6A89
:101510008242F9D3704700BF00000B4003BD00BFFB
:1015200010B5044600F008FA2346BDE810401847FD
:10153000F0B5054687B0192017460E46FFF702FAA8
:10154000002104461920FFF7E7F9002201204FF09F
:10155000504311469446CDE90465CDE90022039736
:101560000290B9B11A6D9507FCD5596540BF1A6D47
:10157000D00703D420BF1A6DD207FBD59A6D8A42DB
:101580000DD04FF0000C06AA02EB8C0252F8181C8A
:10159000E7E79A6D1A6DD607FBD440BFE2E70CF17E
:1015A000010CBCF1050FEED92146192007B0BDE8AA
:1015B000F040FFF7B1B900BF0B4B0C4A10B49A4290
:1015C00088BF4FF0FF330A4C0A4A03F2F471926865
:1015D000C3F8F407C3F8FC4707485DF8044BC3F8A9
:1015E000F837FFF7A5BF00BF00080820000008205B
:1015F0002115001000ED00E01D15001000EB400C5F
:101600004FEA8C0C0CF1804CF0B50CF5803C059D3C
:10161000DCF80440A0F1040EAC425FFA8EFE38BF45
:10162000CCF80450BEF1010F27D94FF40067244EC7
:101630000CF54054276056F82070AFB9DCF8004034
:101640000CF5805784EA421202F0E002BEF1010F6D
:101650003A6026D94FF4006246F820300CF500536A
:101660001A60CCF80450F0BD7469B4FBF7F401348F
:1016700004EB4404033CFDD2E0E70129D5D1032665
:101680000CF540542660DCF80840E407FBD5DCF894
:1016900000400CF5805784EA421202F0E002084E46
:1016A0003A600122DCF800404C4004F003043C6046
:1016B00002FA01F1DCF808200A42FBD0CAE700BFB9
:1016C0009C13002010B54FF4803482B00094FFF7D3
:1016D00095FF02B010BD00BF014B53F820007047CA
:1016E0009C13002070B4039C0568240344EA034360
:1016F0001B4C002DB4FBF1F4B2FBF4F21FDB194DCF
:10170000194CA8420CBF4FF400454FF48045174ECA
:10171000256004F580542560B46835EA0404FBD1E3
:10172000212500F540540434016082602560026880
:10173000002AFCDA0822C360226070BC704704688B
:1017400004F03F048C42DAD18468C4F30B04944261
:10175000D5D1C46804F4EE249C42D0D1EDE700BF9B
:10176000001BB7000080054000200240000002403E
:1017700030B44FF080441D4B1C60E0B11C4CA3F50D
:101780004053DC611B4C40F0010044401C62596234
:1017900098624FF080454FF0E061144B1648174CAB
:1017A0001D60846019604AB930BC4FF00042A3F557
:1017B00080531A607047124BD861EAE74FF47A738E
:1017C00003FB02F2B2F1807F09D20E4B1A604FF098
:1017D000804130BC0A480C4B4260196070476FF082
:1017E0007F4308491A460B60F1E700BF00B00D4087
:1017F000D3C007B02D3FF84F00A00140F3FFFF0119
:1018000000800D40FC17002000A00D40012300EBDC
:101810004000800000F1804000F5841041600360CA
:10182000704700BF10B5002482B00B46E48A002147
:1018300041E800F1CDE900034B0254BF102104211F
:1018400044F25220A047DDE9002386460A214FF4E6
:101850008170F44602B0BDE8104060470023DB8A87
:10186000002242E800F2520201D41021184704215C
:10187000184700BF08B5034608462BB193FAA3F3F7
:10188000B3FA83F341F020001946FFF7CBFF00BF06
:1018900008B50B46011E02DB22B143F030031846A7
:1018A000FFF7C0FF43F02003F9E700BF034AD2F877
:1018B0002838002BFBD0BFF35F8F704700000E402D
:1018C0000021044B044ABFF35F8F43F8041B93428B
:1018D000F9D170470C080E402C080E4010B42F2090
:1018E0004FF42A64054A064B06491460D06019601B
:1018F0005368002BFCDA5DF8044B7047008004400D
:1019000000A0044000B0FA00704700BF08B50148CD
:10191000FEF7BCFE4045001038B5054C054DAC4205
:1019200004D254F8043B9847AC42FAD338BD00BF08
:10193000484400108844001038B5054C054DAC42B1
:1019400004D254F8043B9847AC42FAD338BD00BFE8
:10195000744400108844001010B40748074C084B2A
:10196000084A094904601A608B6832EA0303FBD114
:101970005DF8044B704700BF002002407F3BEFEF53
:1019800000300240F6FFF30300000240044BDB6C22
:10199000B3F5004F03D14FF48022024BDA64704755
:1019A00000001150002011504FF0E022044BD2F8FB
:1019B000881D0B43C2F8883D10EE3004704700BF0D
:1019C000030330006FF06041044B054A19609368CF
:1019D000DB4333F06043FAD1704700BF0030024070
:1019E0000000024010B545F25320FFF737FFBDE875
:1019F000104003460420184710B545F25320FFF766
:101A00002DFFBDE81040034601201847FEF712BF26
:101A100010B5054B054C4FF488721846A16802F0CA
:101A2000CBFBA06010BD00BF0000002000ED00E077
:101A30000023F0B52B4C83B0C4F88430FFF74EFF81
:101A40000122294BDA63636C012BFCD10321264A66
:101A5000244B11639D6B012DFCD1052302271E46EB
:101A600000242946214A22480097FFF73BFE2946D9
:101A70003346204A20480096FFF734FE3946224676
:101A800004201E4BFFF71EFE2946224630461C4B03
:101A9000FFF718FE2246082021461A4BFFF712FED8
:101AA000224609202146174BFFF70CFE224606204E
:101AB0002146134BFFF706FE114B22460720214615
:101AC000FFF700FE0420FFF707FE0F4DA5FB0035D2
:101AD000AD0CE0B229460134FFF798FE062CF8D190
:101AE00003B0F0BD0000014000300140002F6859F4
:101AF00000000540008C864700800540001BB700B1
:101B000080D1F008006CDC0283DE1B4300B9704713
:101B100000F05AB910B5094B84B01C684CB10346AB
:101B200000914FF0FF3203A90548A047012004B0FF
:101B300010BD00F059F9204604B010BDF817002080
:101B40000D1B001000BEFDE708B5FFF7FBFF00BF4F
:101B500038B5064D064CFFF7DFFEAC4204D254F810
:101B6000043B9847AC42FAD338BD00BF9044001004
:101B70008844001003680846114618472DE9F047CD
:101B8000B2F100092CDD002482460F4601252046D3
:101B9000DFF87C804E1E2CB3337816F8012FA3F1AA
:101BA0000D03B3FA83F30A2A4FEA531320D02B46CE
:101BB000994504F1010405F10105ECDC814505DDE1
:101BC000A9EB0001DAF80030384498474F4417F881
:101BD000013CA3F10D03B3FA83F35B098AF81430D7
:101BE000BDE8F08716F8012F9AF814300A2ADED1E2
:101BF000002BDCD1A04204DA211ADAF80030384494
:101C0000984740460221DAF8003098472846CEE748
:101C1000DC45001010B5447D1CB1BDE81040FFF755
:101C2000ADBF0346BDE810408C461B6811466046B8
:101C3000184700BF2DE9F04F83B00D4691461F466F
:101C40008046FFF729FC244A821841F10003002B4B
:101C5000BCBF4FF0FF326FF00043204802F0D4FBCE
:101C60006B1C824603D1404602F06EFB05461C4BBE
:101C70001C4E1C681C4B002F08BF1E46ECB14FF0D9
:101C80000A0B1A4F01E02469BCB12368002BFAD07B
:101C90003B680BB1A342F6D120462A464146B047E5
:101CA000B9F1000FEFD0204601220DF107018DF8A8
:101CB00007B0B0472469002CE7D1BAF1000F03D177
:101CC000284603B0BDE8F08F044802F075FB2846B3
:101CD00003B0BDE8F08F00BF40420F00AC0A002007
:101CE000EC130020151C0010751B0010F4130020CD
:101CF0002DE9F04F07460E46984683B0DFF860B0F6
:101D0000DFF860A0DFF860900192DBF8004014B9C2
:101D100011E024697CB1DAF800500DB1A542F8D188
:101D2000A368002BF5D03146384698470028F0DDEF
:101D300003B0BDE8F08FD9F8243098450BD8D9F816
:101D4000282001998A4201D2984504D06FF0010001
:101D500003B0BDE8F08F01200021FFF7A7FBD4E717
:101D6000EC130020F413002000000B40084A136815
:101D700023B90AE003F110021B6933B19842F9D18B
:101D800029B9036913600161704701B110607047A0
:101D9000EC13002000F044BA10B582B00446FFF7FF
:101DA0007BFB221841F10003002BBCBF4FF0FF3238
:101DB0006FF00043012101A8FFF79AFF0028A8BF98
:101DC0009DF8040002B010BD012310B5044682B096
:101DD000002219460DF107008DF80740FFF72AFF92
:101DE000204602B010BD00BF38B5044602F0ACFA80
:101DF000012305461A4620462946FFF71BFF054BDF
:101E00001C682CB1636803B198472469002CF9D190
:101E1000284638BDEC130020704700BF0022014B5C
:101E20001A707047551800204B79FF2B0BD1887919
:101E300048B9CB79012B07D1082A05D9034B8A78F9
:101E400009201A7070470020704700BF5518002005
:101E500001207047012908D110B5124B0C461B78A0
:101E60009188994203D0002010BD0120704753781B
:101E7000012B08D0022BF6D1002164220846FFF77F
:101E800077FC204610BD5188CB054BBF4A0A4A0A51
:101E900010464FF0FF3002F0010201F07F01FFF722
:101EA000F7FC00BF5518002000487047004600109E
:101EB000012907D15378012B02D19388072B03D036
:101EC00000207047012070471146A623014A01F007
:101ED000D3B900BF244600100346012201481A70FE
:101EE000704700BFE045001008B50B68B3F5966F6A
:101EF00000D008BD00224FF0FF301146FFF7C8FCAC
:101F0000024A034B10601960704700BF8C13002019
:101F100090130020014B1878FEF724BD56180020BE
:101F200038B5044600200D4601F098FA90B3002021
:101F300001F0AAFA70B3FFF7AFFA184A821841F11C
:101F40000003002BBCBF4FF0FF326FF0004314487A
:101F500002F05AFAF0B1002001F080FA58B90021DD
:101F60004FF0FF3000F0A8FC6FF002040C4802F0C4
:101F700023FA204638BD002001F086FA0028EED072
:101F800021462A46002001F08BFA041E08BF6FF09C
:101F90000204EBE76FF00204EBE700BF40420F00E2
:101FA0003818002008B5FFF777FA0F4A821841F178
:101FB0000003002BBCBF4FF0FF326FF000430B4813
:101FC00002F022FA70B14FF0FF30002100F074FCF3
:101FD000002001F083FA0028F5D1BDE8084003484D
:101FE00002F0EAB908BD00BF40420F0038180020D7
:101FF0002DE9F84307460E46FFF74EFA344A821899
:1020000041F10003002BBCBF4FF0FF326FF00043E3
:10201000304802F0F9F908B9BDE8F883002001F072
:102020001DFA002849D0002E42DD0025DFF8A880E7
:10203000DFF8A89013E02246002001F093FA002177
:1020400004464FF0FF3000F037FC002001F046FA64
:10205000FFF722FAC8E900012544AE4228DD00203E
:1020600001F0A4FA741B8442A8BF04467919002C1D
:10207000E1D121464FF0FF3000F01EFC204601F078
:102080002DFA204601F0EAF990B1204601F08EFACF
:102090000028E2D1FFF700FAD8F80030D8F8042081
:1020A00013EB090342F10002834272EB0103D4D225
:1020B0000848BDE8F84302F07FB900200021064B34
:1020C000C3E90001BDE8F843024802F075B900BF5A
:1020D00040420F0038180020380C002020A10700D3
:1020E00030B5002185B02A4802F07EF9F0B9294BBD
:1020F0001A68CAB1EFF3108172B6D2E8CF5F01243B
:10210000002DFAD1C2E8454F002DF6D1BFF35F8F05
:10211000214C1D6822785960D3B201222270C5E893
:102120008F0F81F31088CBB105B030BD00214FF087
:10213000FF3000F0C1FB002001F0A6F9044614486E
:1021400002F03AF9002CEFD0144B1B68002BEBD0B7
:10215000134A106805B0BDE830401847FEF7ECFFA1
:102160000446FFF799F910F57A7241F10003012551
:10217000002120460B4C002BBCBF4FF0FF326FF00C
:102180000043CDE901150094FFF73CF805B030BDE0
:102190003818002004180020571800208C13002045
:1021A00090130020A92100101A4B70B51A6812B3C1
:1021B000EFF3108172B6D2E8CF4F0120002CFAD194
:1021C000C2E8440F002CF6D1BFF35F8F0022124CFF
:1021D000186859602270C0E88F2F81F310880F4E65
:1021E000002430780025FEF7ADFB68B900240025F7
:1021F0002046294670BD094E4FF47A743078002588
:10220000FEF7A0FB0028F1D03078FEF7ABFB2046AC
:10221000294670BD041800205718002056180020C9
:102220004FF0504330B585B01C68FEF785FFFFF7CF
:1022300049F8A04202D0002005B030BD264B1B78E3
:1022400001F0BCFC25480368002B42D00120FEF7BA
:1022500021FD0346224C2349C0B22370FEF7A2FBA6
:1022600020780121FEF758FB0E20FEF789FB18BBF2
:102270001D4B0125C3E90000FEF75EFF0446FFF792
:102280000BF910F57A7241F1000300212046174C3A
:10229000002BBCBF4FF0FF326FF00043CDE90115BA
:1022A0000094FEF7AFFF0028C5DB01211048FFF7BF
:1022B0005DFD012005B030BD0120FEF7A3FA014607
:1022C0000948FEF747FD00220E200A49FEF79AFB57
:1022D000EBE7FEF723FDB9E750480010381800205F
:1022E00056180020E120001004180020A921001039
:1022F0006C0A0020151F0010004870476C47001042
:10230000004870471847001038B51A4B04461A7831
:102310002AB344B940F209424FF44173164D6A8022
:1023200015482B8038BD052C21D8144B124D53F87D
:10233000241028460023013903E0132B20F8022F34
:1023400012D011F8012F5FFA83FC0133002AF4D177
:102350000CF10103DBB25B0043F44073E0E71121B1
:10236000184600F029F8D4E74FF44A73D8E7002064
:1023700038BD00BF40180020C41300208047001063
:1023800000B545F247308BB0FFF768FA01220346EB
:10239000092101A89847074A0DF113030DF10B001D
:1023A00013F80119834202F8011FF9D10BB05DF84F
:1023B00004FB00BF2B180020013924D0002210B4E8
:1023C000124C00F1FF3C5308E35C12F0010F08BF10
:1023D0001B1103F00F03092B02F10102D4BF3033AC
:1023E00037338A420CF8013F07D0102AEBD1002383
:1023F00010305DF8044B03707047002310445DF803
:10240000044B037070470023037070472C180020A2
:10241000F8B500F031F90C2340261A4D1A4CAB6781
:10242000FF220E201949FEF7EDFA32460021204620
:1024300001F038FF164B8021A36201270023154AC3
:102440006184A260843A677026832687C2F884304C
:10245000C2F88030636084F8213084F83B306362D6
:102460000D4BE360E36201F0AFFF4FF000504FF41B
:1024700080320A490A4B2F64E864C5F89010DA6488
:10248000F8BD00BF00001150F813002081030020A8
:1024900080001050840010500001105010D0010036
:1024A0000020115001210E20FEF736BA002202480A
:1024B000114600F001B900BF18140020044B197038
:1024C00021B14FF40032034BC3F89020704700BF96
:1024D00052180020002011500B785B0602D14B7877
:1024E000052B00D070474B88014ADBB21360704760
:1024F000000011504FF0000C2DE9F0418878CF78A2
:102500008B8800F07F01344D4E0006EBD01205EBB6
:102510004212C4099070C7F30100C3F30A03D076D6
:1025200084F0010082F803C0138307F003075070A2
:1025300094BB0422294802EBC10205EB811E02EB89
:102540000008CEF8088042F800C081B3244AC900D0
:102550000A44CEF8042023483F33016823F03F03A8
:10256000022F214A08BF5B000B44036081EA020886
:102570005340321905EB4212B3F5805FD16027D882
:10258000344405EB44156B6848EA876242F0004228
:1025900001201A60BDE8F08110480AB200EBC108C2
:1025A00005EB811ECEF8288040F832C041B90023E7
:1025B0000E4A05EB44140120E2606360BDE8F0813F
:1025C000C90001F1A04101F58011CEF82410C2E745
:1025D000FFF79CF9D4E700BFF813002080001050EB
:1025E000040010500018002000001050000110508E
:1025F00001F0EABE8C4608B5114607481A460CF0B1
:102600007F034FEADC1C0CEB430C00EB4C1000F09A
:1026100053F8012008BD00BFF813002011F07F001F
:102620000AD0C909074B01EB40004FF400620021BA
:1026300003EB401001F000BF034BC909C1F10202D6
:102640009A66EFE7F81300200020115011F07F0385
:1026500000D17047002210B4C809064C00EB4300BB
:1026600004EB40136FF4006118465DF8044BDA7018
:1026700001F0E2BEF81300204FF0805209480A49E9
:1026800008B50A4B02600A609968C94311F080518D
:10269000FAD14FF48052064801F004FE0922054B9E
:1026A0005A6708BD0020024000300240000002408E
:1026B0000000105000001150837E10B50446BBB9D5
:1026C0004FF0000C01232046A2822161A4F816C01D
:1026D000A37601F081FE20B14FF40032084BC3F81D
:1026E0009020204601F060FE28B10123237710BD21
:1026F00001F09AFEE4E72046BDE8104001F08CBEF0
:10270000002011502DE9F04100241D4D8046234644
:102710002A781C4F1C4E0DE0336813EB441325D070
:10272000DB68404698472A780134E4B2511CA14244
:10273000234606DBA242A3EB0203EDD807EB4313CB
:10274000EEE7124C54220021204601F0ABFD4FF081
:10275000FF33251D6360C5E90133EB6004F114000C
:102760002022BDE8F041FF2101F09CBD4FF0E023A5
:10277000D3F8F03DDB0700D500BEBDE8F08100BF17
:1027800051180020F44700105C0C0020A80F002016
:10279000704700BF704700BF00207047002070479F
:1027A000704700BF704700BF704700BF704700BF51
:1027B000024B5878003818BF01207047A80F00203E
:1027C000024B1878C0F38000704700BFA80F0020AC
:1027D0002DE9F8432D4F3B78FF2B02D00120BDE8B7
:1027E000F883002154220646294801F05BFD0022AF
:1027F000284D294B294C28461A70FEF78FFA284B92
:1028000004F114001D60FEF797FA204601F09AFCCF
:10281000244A254B146023B12448FFF75DFB244B69
:1028200018600024214D23462A78DFF88890DFF8CD
:1028300080800EE0D8F8003013EB441311D05B68B1
:102840007BB198472A780134E4B2511CA142234657
:1028500012DBA242EED89B1A09EB43135B68002BF4
:10286000EFD14FF0E023D3F8F00D10F00100B6D017
:1028700000BE0020BDE8F88330463E70FFF7C8FD7B
:102880003046FFF70FFE0120BDE8F883A00A0020C4
:10289000A80F0020600F002053180020840A002099
:1028A000FC0F002000100020D91E0010511800203D
:1028B0005C0C0020F44700102DE9F04FDFF8CC92BB
:1028C0008BB099F80030FF2B00F0EF80AA4CDFF8B6
:1028D000C0A2DFF8C0B225686B69EFF3108272B650
:1028E000D3E8CF0F01210028FAD1C3E8401F002808
:1028F000F6D1BFF35F8FAA61284607A901F0E4FA79
:1029000000236A69C2E88F3FAB6983F3108800280F
:1029100000F0CB809DF81D30013B072B00F28E8329
:10292000DFE803F0A5B0919A89360A04089B002BD2
:10293000D1D009989847CEE79DF820108F4B01F031
:102940007F0503EB450303EBD11393F834206FF3BA
:10295000000283F8342093F834206FF3820283F866
:102960003420002D00F0A480854A1B7D127893420C
:1029700080F09180DBF8002012EB431300F08E8092
:102980009D699DF82120099B9DF81C00A847A2E79E
:102990007C4A1378002B00F081801378013BDBB276
:1029A0001370137803F0FF00002B94D1734D9DF842
:1029B0001C802B7843F001032B7095F8343060F3C2
:1029C000000385F8343095F8343060F3820385F8DD
:1029D000343095F8353060F3000385F8353095F8DC
:1029E000353060F3820385F8353000F08DFC9DF8BA
:1029F000203003F06002602A0BD0402A64D003F03C
:102A00001F03012B00F0C880022B00F08980002BEF
:102A100066D04FF0E023D3F8F03DDD0700D500BECF
:102A20009DF81C000021FFF7F9FD80219DF81C0096
:102A3000FFF7F4FD4FE7514B1B78D9077FF54BAFFC
:102A4000FFF7B4FE47E74D4BDB78DA077FF543AF7E
:102A50000898FFF79FFE3EE7484B1A78D0077FF5AE
:102A60003AAF1878C0F3C000FFF79EFE33E79DF839
:102A70001C00FFF747FE00F03DFC404B9DF8202076
:102A80009A7028E79DF81C00FFF73CFE00F032FC2E
:102A9000FFF788FE1FE7501C984211DA4FF0E02341
:102AA000D3F8F03DDC0700D500BE0BB0BDE8F08FD9
:102AB000099B9DF821209DF81C0000F039FC0AE7D5
:102AC0009B1A0AEB43135BE72F4800F01DFC4046BE
:102AD000012108AAFFF7ECF900287FF4FCAE9FE77C
:102AE000202A00F08D81002A93D19DF82130092BF6
:102AF0008FD801A252F823F09F2D0010832D0010D3
:102B0000132A0010C12D0010132A0010692D001087
:102B1000172D0010132A0010012D0010272C001073
:102B20009DF8241011F0700F7FF473AF144B01F077
:102B30007F06187805EB460303EBD1131F7DCB0905
:102B400087424FEA460601935BD3431CBB42C0F267
:102B500074813F1A0AEB4717002A00F072817869E6
:102B600000F0D2FB404601217B6908AA9847002863
:102B70007FF4B1AE54E700BF00100020A80F002082
:102B80005118002053180020B11E0010A00A002088
:102B9000F44700105C0C00209DF824300F2B3FF60A
:102BA0003FAFB54A2B441B791578AB4234D36A1C2E
:102BB0009A42FFF635AF5B1B0AEB4315686900F0DC
:102BC000A3FB012140466B6908AA984700287FF4BF
:102BD00082AE9DF8203013F060057FF421AF9DF8A0
:102BE00021300A3B012B3FF61BAF00F08DFB9DF817
:102BF00021300A2B00F0F781404608A900F022FBA3
:102C000069E6DBF8003003EB4717002A00F0198172
:102C1000002F3FF405AFA2E7DBF8005015EB43159A
:102C20003FF4FEAECAE76B789DF822609E4200F04A
:102C300054816B78002B40F0C4816E70002E00F040
:102C40004A81701EC0B2FFF75BFB002800F065816F
:102C50004378022B40F061812B78C27923F0300158
:102C6000C2F340131B01C2F3801243EA42130B4329
:102C70002B70438800F10906C3180293CDF80C802D
:102C8000029BB34240F2AA8172780B2A00F0B58110
:102C90000123042A40F0418118464FF00008029AAF
:102CA0007549921B33460978064692B2CDF80480E6
:102CB0001EE0DBF8007017EB481700F02E81194674
:102CC000049303983B6905929847DDE9043208288C
:102CD00008F1010102D9824280F004815FFA81F893
:102CE0006549CDF804800978481C804500F31581BA
:102CF00001984145A0EB0101DBD80AEB4117DEE763
:102D00006B7840468DF81A300DF11A02012308A99C
:102D100000F0B2FADFE5BDF82200030A5A1EC0B285
:102D20000E2A3FF67DAE01A151F822F04B2F001084
:102D3000DD2D0010872F0010212A0010212A0010FD
:102D4000692F0010DD2D0010212A0010212A00100B
:102D5000212A0010212A0010212A0010212A001007
:102D6000212A00103D2F001008A800F0D3FA404699
:102D70009DF82210FFF79AFB2B7843F002032B708B
:102D8000A9E5BDF82230012B7FF44AAE2B784046EE
:102D90006FF3C30308A92B7000F054FA9BE540467B
:102DA0002B789A0802F00202C3F340131343ADF8E4
:102DB0001A300DF11A02022308A900F05DFA8AE523
:102DC000BDF82230012B7FF42BAE2B78404643F028
:102DD000080308A92B7000F035FA7CE5022B00F0FF
:102DE0001181FFF7DBFC024600283FF419AE404694
:102DF000538808A900F040FA00287FF46CAD0FE674
:102E00009DF824300F2B3FF60BAE1B4A2B441B7949
:102E10001578AB4227D2DBF8005015EB43153FF491
:102E2000FFAD686900F070FA404601216B6908AA9D
:102E3000984700287FF44FADF2E5002A7FF4F0AD0B
:102E400000279DF8212002F0FD03012B16D0002A57
:102E50007FF4DFAD019B35442B4493F8343040467A
:102E6000C3F34003A3E76A1C9A42FFF6D9AD5B1B8C
:102E70000AEB4315D5E700BF51180020BDF82230FA
:102E8000ABB9012A00F0878099F80000FFF7C6FB74
:102E9000019AAB19134493F8342042F0020283F8EC
:102EA000342093F8342042F0010283F83420002FBC
:102EB0003FF411AD786900F027FA7B69012108AA77
:102EC00040469847002000F01FFA95F83530DE079D
:102ED0003FF501AD90E6FFF765FC404608A900F01C
:102EE000B1F9F8E43246012A1E46134600F0A080EC
:102EF000002A00F08E800022B77805E081F8048077
:102F0000D1B28B4240F28580B91855FA81F191F81F
:102F100004C00132BCF1FF0FF0D04FF0E023D3F832
:102F2000F03DDB0700D500BE4FF0E023D3F8F03DC5
:102F3000DF0700D500BE00236B7071E5FEF7B4FF1C
:102F4000024600287FF453AF6AE5FFF7D5F9024641
:102F500000283FF45EAD4046122308A900F08CF92A
:102F600000287FF4B8AC5BE5FFF716FC02460028AA
:102F70003FF456AD4046137808A900F07DF90028CB
:102F80007FF4A9AC4CE5BDF82410FFF7BDF902466B
:102F90000028EFD144E599F800000293FFF756FBB3
:102FA000019BAA191A4492F83410029B63F3410161
:102FB00082F8341092F8341063F3000182F8341070
:102FC00075E700214046FFF779FA4046FFF710FB0E
:102FD000AF784046FFF796FBAF702EE6DDF80C8029
:102FE000FFF7DEFB79E74046012308A90DF11A023D
:102FF0008DF81A5000F040F96DE43278F3781644F9
:10300000727846E6FFF77CF9024600287FF4EFAEBF
:10301000FFE402464346314606440D4800F056FEA2
:103020000C4B019A1B7801339A427FF729AE74E763
:103030003A6909498A4208BF02235CE74FF0E0235E
:10304000D3F8F03DDB077FF546AC00BE43E400BF9C
:10305000BC0F002051180020A936001038B58B781D
:1030600013F0700F08D04FF0E023D3F8F03DDB07EA
:1030700000D500BE002038BD074A084B0C46084664
:1030800091781D7800F0EEFD0028ECD0214628460E
:10309000BDE83840FFF72EBAA80F0020A00A002094
:1030A0002DE9F047DDE9088952B307460C461E4674
:1030B00015464FF0000A16E0E37803F00303B3422D
:1030C00014D121463846FFF7C9FFE0B1A3780AF1D1
:1030D000010ADA0914BF89F8003088F80030237833
:1030E000AA451C440CD06378052BE5D04FF0E023B3
:1030F000D3F8F03DDA0700D500BE0020BDE8F08728
:103100000120BDE8F0874FF0E023D3F8F03DDB0766
:10311000F3D500BEBDE8F0870B46064A06481168A5
:10312000DA09343203F07F0302EB4303184400F062
:1031300053BD00BFFC0F0020A80F00200B46064A1D
:1031400006481168DA09343203F07F0302EB4303C7
:10315000184400F06BBD00BFFC0F0020A80F00203A
:1031600010B5194C01F07F0C04EB4C0404EBD110AA
:1031700090F834C01CF0010F08D04FF0E023D3F8D2
:10318000F03DDA0700D500BE002010BD90F834C035
:1031900000F130040D484CF0010C007884F804C0B4
:1031A000FFF728FA0028F0D14FF0E022237960F3EE
:1031B00000032371237960F382032371D2F8F03D79
:1031C000DB07E1D500BE10BDA80F0020A00A00203B
:1031D0001A4910B5B1F80CC0CA8991F900E0ACEBFE
:1031E00002039BB2402B28BF4023BEF1000F0446D0
:1031F00082B012DB94454FF0000107D02046104A00
:1032000002B0BDE81040FFF7ABBF8021002220468E
:1032100002B0BDE81040FFF7A3BF9445F5D01A46B1
:1032200089680748019300F0C7FF80212046044ABF
:10323000019B02B0BDE81040FFF792BF2C0F0020A9
:10324000680F002030B50B4C8C46A646002305467F
:10325000086849681A46AEE803009CF90010284641
:103260009942C4E90233BDE83040ACBF8021194621
:10327000FFF776BF2C0F002070B51D4C0026A64628
:103280008C46054608684968E681AEE80300A260FE
:10329000BCF806108B4228BF0B46A38139B103B19D
:1032A000D2B12846FFF794FF70B1012070BD9CF9A0
:1032B00000200B46002A28460A46ACBF8021002188
:1032C000FFF74EFF0028F0D14FF0E023D3F8F03D98
:1032D000DB0707D500BE70BD4FF0E023D3F8F03D0B
:1032E000D90701D4002070BD00BE104670BD00BFDC
:1032F0002C0F00200022034BC3E90022C3E9022265
:103300001A6170472C0F0020014B1861704700BFF5
:103310002C0F002030B40246044C002523460068E0
:103320005168C4E9025530BC03C370472C0F00201C
:1033300070B5304CC90922780546B1EBD21F1E4644
:103340001ED043B14FF0E023D3F8F03DDA0700D5AB
:1033500000BE002070BD2146FFF7BEF823696BB1A7
:103360002246032128469847012070BD0146284681
:10337000FFF754F980212846FFF750F9012070BD6E
:1033800094F90020002A06DBA0680028E1D01A4644
:10339000194900F011FFA168E28931443244A1606B
:1033A000E18892B29142E28107D03F2E05D92846AA
:1033B000FFF70EFF0028E1D114E023692BB10221B1
:1033C00028460C4A98470028D0D0002394F90020C2
:1033D00028469A42ACBF802119461A46FFF7C0FE24
:1033E0000028CBD14FF0E023D3F8F03DDB07B0D578
:1033F00000BE70BD2C0F0020680F002070B5044681
:10340000FFF7D6F900B970BDFFF7DAF905460028D5
:10341000F9D1E378002BF6D004F11006304600F025
:1034200041FD3F28EFD92846E178FFF775FE0028D7
:10343000E9D0304600F036FD3F2808D92846E1782B
:1034400004F512724023BDE87040FFF789BE28469C
:10345000E178BDE87040FFF771BE00BF10B50446CB
:10346000FFF7A6F908B9002010BDFFF7A9F9002859
:10347000F9D14FF43273034803FB0400007900F0E4
:10348000010010BD640C00204FF4327208B5034BEC
:1034900002FB0030103000F0EBFC08BD640C002093
:1034A00010B54FF6FF7C4FF6FE7E4FF43274724536
:1034B00098BF944600FB04F4074B04F110001FFA78
:1034C0008CF218441C4400F027FD034620461C469D
:1034D000FFF794FF204610BD640C00202DE9F04159
:1034E0000446FFF765F910B90020BDE8F081FFF749
:1034F00067F906460028F7D14FF4327000FB04F458
:10350000DFF85C8004F124054544284600F0B0FC57
:103510000028E9D008EB04073046B978FFF7FCFD36
:103520000028E1D004F52274444428464022214674
:1035300000F0F2FC054670B1034622463046B978E9
:10354000FFF70EFE50B94FF0E023D3F8F03DDB0754
:10355000CAD500BEC9E7B978FFF7F0FD2846C4E731
:10356000640C002038B54FF6FE754FF6FF734FF42C
:10357000327CAA4298BF13460B4C9AB20CFB004413
:1035800024340546204600F037FD034620461C46FD
:1035900000F06EFC3F2801D8204638BD2846FFF7D2
:1035A0009DFF204638BD00BF640C00204FF43272EE
:1035B00008B5034B02FB0030243000F073FC08BD5B
:1035C000640C0020F0B500251A4C83B029464FF456
:1035D0003272204600F066FEFF234FF4E1310822EC
:1035E000154863710570A160A27304F138010123CD
:1035F0004FF48072009504F1100000F007FC0123E5
:103600004FF4807204F59C71009304F50E7704F179
:10361000240000F0FBFB04F510763846FDF77EFB36
:103620003046FDF77BFBC4E90757C4E90C6503B0DE
:10363000F0BD00BF640C0020600C0020064B1A6A2D
:10364000196B12B10022C3E9072211B10022C3E9AC
:103650000C220120704700BF640C0020002210B52E
:103660000E4C0F48237802600271DA0707D59B07DA
:103670000BD5BDE8104001210A4800F07FBD103095
:1036800000F060FD23789B07F3D4064800F05AFD54
:10369000BDE810400121034800F070BD600C00201F
:1036A000640C0020880C0020F0B54B7983B0022B0D
:1036B00002D18B79022B03D00025284603B0F0BD40
:1036C000264FBB783BB14FF0E023D3F8F03DDB074A
:1036D000F2D500BEF0E78B7806463B700C780925E2
:1036E0000C44617824290BD1082A02D810E0AA42A0
:1036F0000ED323781C4461782B4424299DB2F6D044
:1037000005290BD06378042B02D163790A2B12D0E0
:103710001248FFF773FE284603B0F0BD214630463D
:10372000FFF79CFC0028CED0A3787B702278AB18E2
:103730009DB21444E6E70A4B2778019301330093C6
:10374000022330461A46E119FFF7AAFC0028BAD036
:1037500005F10E0317FA83F39DB2D9E7640C00203C
:10376000660C0020137803F06003202B0ED170B597
:10377000294C938894F800C09C4509D15378203B8C
:10378000032B05D8DFE803F00C1922060020704750
:10379000002070BD012930D0032933D0012070BD35
:1037A00001290CD00329F9D11C4B002BF6D00020A5
:1037B0001B49FEF799FB012070BD0129EED111468E
:1037C0000723174AFFF758FD012070BD012914D0C7
:1037D0000329E3D15588134805F0010686F001015D
:1037E000257100F0CBFC104B002BD7D031460020C8
:1037F000C5F3400200E000BFD0E71146FFF722FD0D
:10380000012070BD094B002BC8D00020518800E07A
:1038100000BF012070BD00BF640C0020E91E001035
:103820006C0C0020880C002000000000000000004C
:103830002DE9F047374D0C46EA7807468A421E4686
:1038400056D19AB205F5127105F1100000F0D4FBC3
:10385000314BD3B16B79FF2B17D0B6B105F24728A6
:1038600008EB060AA8F2372902E0D0450DD06B79A3
:1038700018F8012F9A42F8D1484600F009FB0028B9
:10388000F3D1697900E000BFEFE7244B23B124486E
:1038900000F0FEFA00283AD01E48FFF7AFFDAB78E3
:1038A000A34203D001242046BDE8F0871D4B13B18D
:1038B000002000E000BF0020FFF710FE0028F1D13B
:1038C000194800F0D5FA0028ECD1002EEAD016F005
:1038D0003F06E7D13846A978FFF71EFC04460028CA
:1038E000E0D0334632463846A978FFF739FCDAE7AC
:1038F000AB788B42DAD04FF0E023D3F8F04D14F0E0
:103900000104D0D000BE00242046BDE8F08700E0CE
:1039100000BFC1E7640C00200000000000000000B0
:10392000740C002000000000880C002010B5044634
:103930000020A178FFF7F0FB00B910BD201D00F0BA
:10394000B1FA3F2808D9A17804F50F724023BDE8E9
:1039500010400020FFF704BCA1780020BDE8104013
:10396000FFF7ECBB2DE9F0410446FEF721FF10B94B
:103970000020BDE8F081FEF723FF06460028F7D1BE
:103980004FF42F7000FB04F4DFF85C8004F118059D
:103990004544284600F06CFA0028E9D008EB0407FB
:1039A00030467978FFF7B8FB0028E1D004F51F74A2
:1039B000444428464022214600F0AEFA054670B144
:1039C0000346224630467978FFF7CAFB50B94FF0DC
:1039D000E023D3F8F03DDB07CAD500BEC9E779780C
:1039E000FFF7ACFB2846C4E7D0100020F0B5002557
:1039F000154C83B029464FF42F72204600F052FC3C
:103A000004F12C0101234FF48072201D009500F079
:103A1000FDF904F50B7701234FF4807204F59671DC
:103A2000009504F1180000F0F1F904F50D76384620
:103A3000FDF774F93046FDF771F9C4E90457C4E99C
:103A4000096503B0F0BD00BFD0100020064B5A69D5
:103A5000596A12B10022C3E9042211B10022C3E95C
:103A600009220120704700BFD010002010B5064C7D
:103A70000023204640F8043B00F064FB04F11800EA
:103A8000BDE8104000F05EBBD01000204B79FF2B4A
:103A900001D000207047F0B5214C83B06578A37841
:103AA0002B4302D0002003B0F0BD0D788B780F7946
:103AB0000E460D442370FFB16B78052B0AD0AB186E
:103AC0009D4202D306E0AB4204D929780D446978BF
:103AD0000529F8D13A46134F29467B1C00930197DC
:103AE0000223FFF7DDFA58B13379C3EBC3031D445A
:103AF000A3788BB963785BB9A81B80B203B0F0BD23
:103B00004FF0E022D2F8F02DD207CBD500BECAE7A5
:103B10000020FFF727FFEFE7781EFFF707FFE9E731
:103B2000D0100020D1100020F8B5204D1C46AA78F6
:103B30008A4213D06B788B420DD11D4B06461BB1C8
:103B40000020A1B200E000BF0020FFF70BFFA8B1EA
:103B500001273846F8BD00273846F8BD9AB205F56A
:103B60000F71281D00F048FA124B13B1002000E03D
:103B700000BF0E48FFF7DAFE0127EDE70E4800F020
:103B800077F90028E4D1002CE2D014F03F04DFD113
:103B900030466978FFF7C0FA07460028D8D0234698
:103BA000224630466978FFF7DBFAD5E7D0100020CF
:103BB0000000000000000000E810002008B5002010
:103BC000FEF706FE00B108BD4FF0E023D3F8F03D4C
:103BD000DB07F8D500BE08BDF8B5037813F0010483
:103BE0001AD1037805465A07C3F3800701D520464A
:103BF000F8BD0E464FF0FF31304600F0FDFB2B784C
:103C000013F001040BD12B785B0709D42B78012426
:103C100043F004032B7003E000242046F8BD3C462B
:103C2000304600F0C9FB2046F8BD00BF70B50D4618
:103C300004464FF0FF31284600F0DEFB2378C3F343
:103C400080065B0708D5237813F0010211BF002618
:103C5000237862F382032370284600F0ADFB3046E0
:103C600070BD00BFC378828803F003000228C2F34E
:103C70000A0205D003281BD0012807D00020704776
:103C800002291ED0402A09D801207047022940F29B
:103C9000FF3308BF4FF480639342F6D24FF0E02326
:103CA000D3F8F00D10F00100EFD000BE00207047F7
:103CB00002290CBF4FF4806340239342EED30120CE
:103CC000E3E7B2F5007FDFD0E8E700BF0A449142A6
:103CD00005D325E091F800C061448A4221D991F8CA
:103CE00001C0BCF1050FF5D100B591F802C00CF090
:103CF0007F0E00EB4E0E4FEADC1C0EF80C3091F8F4
:103D000000C061448A4209D991F801C0BCF1050F95
:103D1000EBD091F800C061448A42F5D85DF804FB0D
:103D200070477047B0F804C010B59A42A2EB030484
:103D300038BF04EB4C04A4B28E46DCB1A4450CD2CF
:103D4000944594BFA2EB0C030CEB02039BB29C4581
:103D5000438104D8A3EB0C039BB29C45FAD9C288DB
:103D60000168C2F30E02704602FB031100F024FA50
:103D7000012010BD204610BD2DE9F047BDF82040C0
:103D800085881E1BA34238BF06EB4506B6B2074620
:103D90008846D6B1B54230D3964228BF1646A542D2
:103DA00003D8641BA4B2A542FBD9FA882B1B39683F
:103DB0009BB2C2F30E0C9E42E1460CFB041107D8E5
:103DC00040460CFB06F200F0F7F93046BDE8F087FC
:103DD00013FB0CF31FFA83FA5246404600F0ECF94D
:103DE000721B224412FB09F2396808EB0A0092B2F6
:103DF00000F0E2F93046BDE8F0879D4294BF5B1BBE
:103E00005B199CB22E464481C6E700BF2DE9F04104
:103E1000B2F5004F9DF8188027D80446C0681746B1
:103E20000E461D4618B14FF0FF3100F0E5FA20694B
:103E300018B14FF0FF3100F0DFFA0022C5F30E0396
:103E4000E06843EAC83362812660A780E38022816C
:103E500008B100F0B1FA206920B100F0ADFA0120FC
:103E6000BDE8F0810120BDE8F0810020BDE8F081CF
:103E7000038942899BB292B28088934236BFC2EBDB
:103E800040029B1A9B189BB2984228BF1846704765
:103E90000289438990B29BB2C01AB0FA80F04009FF
:103EA000704700BF038942899BB2808892B29342D7
:103EB00036BFC2EB40029B1A9B189BB2984286BF4A
:103EC000C01A80B20020704738B5044600690D461C
:103ED00018B14FF0FF3100F08FFA2289638929462B
:103EE0009BB292B22046FFF71DFF6289A18892B271
:103EF00013189BB29A4205464FEA410209D8B3EB28
:103F0000410F06DA2069638108B100F055FA2846AE
:103F100038BD9B1A9BB2F5E730B5044600690D46E3
:103F200085B028B14FF0FF31039200F065FA039A93
:103F300023896089294680B200909BB22046FFF712
:103F40001BFF6289A18892B283189BB29A420546F0
:103F50004FEA41020AD8B3EB410F07DA20696381C7
:103F600008B100F029FA284605B030BD9B1A9BB273
:103F7000F4E700BFF8B50446C0680E4618B14FF02C
:103F8000FF3100F039FA2589238961899BB289B212
:103F9000A2888B4236BFC1EB42015B1A5B189BB211
:103FA0009A42ADB208D8E779FF0905D1E06808B1B7
:103FB00000F002FA3846F8BD95422B4603D39B1A0F
:103FC0009BB29342FBD2E2882068C2F30E0202FB4E
:103FD0000300314600F0F0F86B1CA2889BB29D42B2
:103FE0004FEA420104D95B1A9BB201272381DDE726
:103FF000B3EB420FF9DBF6E72DE9F04F144683B03F
:10400000002A57D00646C0688B4618B14FF0FF31E2
:1040100000F0F2F9F27937897389D209B588BFB215
:104020009BB23AD19F4236BFC3EB4503FB1ADB1963
:104030009BB29D4243D9A5EB03081FFA88F8A0451F
:1040400028BFA046B6F806A008EB07091FFA89F9B1
:10405000BD423C4603D8641BA4B2AC42FBD22B1B2E
:1040600030689BB2CAF30E024345924602FB04003D
:104070004ED3594602FB08F200F09EF8B288B945CB
:104080004FEA420302D3B9EB420F03DBA9EB03096A
:104090001FFA89F9A6F8089013E0AC42A84619D394
:1040A000B6F806A0641BCAF30E0202FB04BB45B1BE
:1040B0001F46C9E79046404603B0BDE8F08F4FF079
:1040C0000008F0680028F6D000F076F9404603B00A
:1040D000BDE8F08F9F4236BFC3EB4502FA1AD219F2
:1040E00092B2690022448A420ADB03EB05091FFAF7
:1040F00089F9A9EB0407BFB2BB421DD97F1ABFB231
:1041000004EB0709A046B6F806A01FFA89F99FE755
:1041100013FB02F359469AB2019200F04DF8019A4E
:1041200030680BEB0201A8EB0502224412FB0AF2F5
:1041300092B200F041F8A1E7B942DFDDA046B6F83F
:1041400006A085E710B50446C06818B14FF0FF31EE
:1041500000F052F9206918B14FF0FF3100F04CF92E
:104160000023E0686381238108B100F025F920690C
:1041700008B100F021F9012010BD00BF38B5044698
:10418000C0680D4618B14FF0FF3100F035F92069D5
:1041900018B14FF0FF3100F02FF9E379E06865F3D3
:1041A000C713E37108B100F007F9206908B100F006
:1041B00003F9012038BD00BF844641EA000313F033
:1041C000030349D1403A23D30B6803604B68436033
:1041D0008B688360CB68C3600B6903614B69436183
:1041E0008B698361CB69C3610B6A03624B6A43626B
:1041F0008B6A8362CB6AC3620B6B03634B6B436353
:104200008B6B8363CB6BC36340304031403ADBD26E
:1042100030320BD30B6803604B6843608B6883605C
:10422000CB68C36010301031103AF3D20C3205D392
:1042300051F8043B40F8043B043AF9D2043208D068
:10424000D2071CBF11F8013B00F8013B01D30B88DA
:1042500003806046704700BF082A13D38B07B1D094
:1042600010F00303AED0C3F10403D21ADB071CBF66
:1042700011F8013B00F8013BA4D331F8023B20F8D0
:10428000023B9FE7043AD9D3013A11F8013B00F809
:10429000013BF9D20B7803704B7843708B788370B5
:1042A0006046704770B5860748D0541E002A3FD03C
:1042B000CAB2034601E0013C3AD303F8012B9D0743
:1042C000F9D1032C2DD9CDB20F2C45EA052545EAAD
:1042D000054536D9A4F1100C03F1200E03F11002AC
:1042E0002CF00F064FEA1C1CB64442E9045542E983
:1042F000025510327245F8D10CF1010214F00C0F86
:1043000004F00F0C03EB021213D0ACF1040323F002
:1043100003030433134442F8045B9342FBD10CF0D3
:1043200003042CB1CAB21C4403F8012B9C42FBD1FC
:1043300070BD64461346002CF4D1F9E703461446D9
:10434000BFE71A46A446E0E720F0030110F003009F
:10435000C0F1000051F8043B00F1040C4FEACC0C12
:104360006FF000021CBF22FA0CF213434FF0010C55
:104370004CEA0C2C4CEA0C4CA3EB0C0222EA030294
:1043800012EACC1204BF51F8043B0430F4D0C2F15D
:10439000000102EA0102B2FA82F2C2F11F0200EB4E
:1043A000D2007047F8B500BF01B40248844601BC92
:1043B000604700BF7506002001B40248844601BC76
:1043C000604700BF6902002001B40248844601BC76
:1043D000604700BFA502002001B40248844601BC2A
:1043E000604700BF4D06002001B40248844601BC6E
:1043F000604700BF1101002001B40248844601BC9F
:10440000604700BF3D02002001B40248844601BC61
:10441000604700BFD101002001B40248844601BCBE
:10442000604700BFED06002001B40248844601BC8D
:10443000604700BF9D06002001B40248844601BCCD
:10444000604700BFA9060020E519001059190010A7
:104450008D190010311A0010C5190010C118001074
:104460000D1A0010AD180010C90C0010111A001020
:104470009910001009190010F9190010A91900105D
:1044800025080010FD0800101502001081230010FF
:104490000A54686520626F61726420697320275234
:1044A0006173706265727279205069205069636F20
:1044B0002032270A00000000C044001008FF01005D
:1044C000A080406022A001E0440022A000E047005C
:1044D0000A2A2A2A2050414E4943202A2A2A0A0021
:1044E0000A0000004E6F207370696E6C6F636B730F
:1044F0002061726520617661696C61626C650000A3
:104500004E6F207573657220495251732061726538
:1045100020617661696C61626C650000486172645B
:104520007761726520616C61726D20256420616C19
:10453000726561647920636C61696D656400000077
:1045400048617264206173736572740052656C65B2
:1045500061736500626F6F74325F77323571303826
:1045600030000000322E312E300000007069636F81
:10457000320000007465737400000000446563201D
:10458000203120323032340005005250DE65F468AC
:104590000C520010060052505422A29D7C4500107F
:1045A00006005250861C030274450010060052504B
:1045B000BBFF3CB66C45001006005250ABB36053D5
:1045C0006445001006005250E182887F5445001077
:1045D00006005250D3F075424C4500100D0A000001
:1045E00000000000191E0010000000001D1E001039
:1045F000291E0010551E0010511E00100000000062
:10460000050F2100011C100500DF60DDD88945C7BA
:104610004C9CD2659D9E648A9F00000306A6000103
:10462000000000000A00000000000306A6000800C9
:10463000020002009C001400030057494E555342EB
:1046400000000000000000000000800004000100E5
:104650002800440065007600690063006500490099
:104660006E00740065007200660061006300650002
:10467000470055004900440000004E007B006200E6
:1046800063003700330039003800630031002D002B
:1046900037003300630064002D00340063006200C3
:1046A00037002D0039003800620038002D00390035
:1046B000310033006100380066006300610037009C
:1046C0006200660036007D00000000005553422065
:1046D000737464696E202F207374646F75740000A6
:1046E0000600525053B4F4A1CC46001052617370CE
:1046F0006265727279205069000000005069636F32
:1047000000000000426F61726420434443000000D7
:1047100052657365740000000902540003010080B3
:104720007D080B00020202000009040000010202E1
:1047300000040524002001052401000104240206D0
:104740000524060001070581030800100904010083
:10475000020A00000007050202400000070582026D
:104760004000000904020000FF00010512011002D0
:10477000EF0201408A2E090000010102030100003E
:1047800000000000EC460010FC460010401800201D
:104790000447001010470010556E68616E646C6528
:1047A000642049525120307825780A006570202510
:1047B0003032582077617320616C726561647920B2
:1047C000617661696C61626C6500000043616E270F
:1047D0007420636F6E74696E7565207866657220EB
:1047E0006F6E20696E61637469766520657020253F
:1047F0003032580000000000C53500103D36001072
:104800005D360010A93600106537001031380010F1
:104810000000000000000000ED3900104D3A0010CB
:104820006D3A00108D3A0010B11E0010293B0010A7
:044830000000000084
:104834008845001094450010A0450010AC450010B8
:10484400B8450010C4450010D0450010E0460010E3
:10485400034600B50268EFF3108C72B6D2E8CFEFCE
:104864000120BEF1000FF9D1C2E84E0FBEF1000FD6
:10487400F4D1BFF35F8F93F90420002A0ADB79B1E6
:1048840000200A6000221B68C3E88F2F8CF3108875
:104894005DF804FB4FF05042126801201A71F1E7F1
:1048A4000846EFE74FF050412DE9F843002704464E
:1048B40016469946D1F8008009E02368C3E88F7F43
:1048C4008CF310883046494600F026FCE8B9256888
:1048D400EFF3108C72B6D5E8CF2F0123002AFAD15A
:1048E400C5E8423F002AF6D1BFF35F8F94F9045024
:1048F400002DE2DA0023226884F80480C2E88F3FA6
:104904008CF310880120BDE8F8830020BDE8F8830B
:1049140030B501460468EFF3108C72B6D4E8CFEFDB
:104924000125BEF1000FF9D1C4E84E5FBEF1000FBE
:10493400F4D1BFF35F8F90F90440002C11DB002108
:104944000568C5E88F1F8CF310884FF0504C9CF914
:1049540000C0A44501D1084630BDBDE83040FFF792
:10496400A1BF4FF05040006800230A680871C2E8F4
:104974008F3F8CF31088012030BD00BF70B5054611
:104984000C4600F0C1FB4FF47A7C02460B46E4FB74
:104994000C23002B2846BDE87040BCBF4FF0FF320B
:1049A4006FF00043FFF77EBF0368EFF3108272B627
:1049B400D3E8CFCF0121BCF1000FF9D1C3E84C1FDC
:1049C400BCF1000FF4D1BFF35F8F4FF0FF0C002355
:1049D400016880F804C0C1E88F3F82F3108840BFAB
:1049E400704700BF0022114608B5D30003F1A0436D
:1049F400013203F580130F2A9960D960F5D14FF481
:104A040070720021034800F08FFB034B034A1A60C5
:104A140008BD00BF38140020001800208001105089
:104A24002DE9F04F234B85B0D3F858A0BAF1000F0D
:104A340025D0002401254FF002081F4F03E06D002C
:104A4400DCB2202C1BD01AEA050F04F10103F6D0C6
:104A5400E6434FEA540906F0010618FB096B174BAD
:104A640007EB4B1B9D6558462AEA050A6D0000F0CA
:104A74000FFA38B90134E4B2BAF1000FE1D105B04C
:104A8400BDE8F08F0023072206EB490607EB461624
:104A9400F18A96F802C0039101A80121CDE90133FE
:104AA4008DF808C08DF8052000F012FA584600F081
:104AB40095F9DFE700001150F81300200030115081
:104AC4002DE9F0416D4B84B0D3F8985015F40034BF
:104AD40033D000226A496B4B896A6B4C904619604B
:104AE40004F5806602E04034A6420CD0E37E022B3B
:104AF400F9D1A77E002FF6D0237F002B73D1403449
:104B0400A6423A46F2D13AB9604B1B7823B94FF426
:104B140000325F4BC3F8902000220326574B01213B
:104B24009B6C01A8C3F30A0301924FF4003402936F
:104B340003928DF8056000F0CBF9EA065AD4EB0332
:104B440031D5544E44F48034B37E9BB10221524B90
:104B54004A4A1966536E9F07FCD54FF44052002110
:104B64004C4800F041F94B4800F038F90222484B18
:104B74005A661A66012396F83A20F370F2B90123B3
:104B84004FF4C061454A019186F8233092E803004E
:104B940004AA02E90300194601A800F099F94FF4A8
:104BA40000323B4B1A65E9044DD46A0439D42B0412
:104BB40025D4AC425CD104B0BDE8F081364A13661A
:104BC400A2F50052536ED807FCD54FF44052002191
:104BD4002D4800F009F92C4800F000F901222C4B73
:104BE4005A661A66CBE7204684F81C8000F01EF94A
:104BF4003A4678E744F01004FFF712FF9FE70023DA
:104C04000522012101A8CDE9013303938DF8052084
:104C140000F05EF94FF400621D4B44F400441A6541
:104C2400C7E7042200230DEB02000121CDE9013383
:104C340003938DF8052000F04BF91022144B44F433
:104C440080441A65B3E700260C4B44F480541E607C
:104C5400FFF7C8FE012101A8019602968DF8051000
:104C6400039600F035F94FF40022094B1A659CE7CE
:104C74000B4884EA050100F03FFA00BF0000115020
:104C840000000B40F01300201814002052180020DC
:104C940000301150F8130020002011500000105073
:104CA4009847001030B5038B848AA34228BF23465B
:104CB4001D46C378641BA4B2848223B345F4105EFA
:104CC400427883F00103C3707346AAB9D0E9032381
:104CD4004FEA811C65B10CF1FF3C624403EB050C07
:104CE40013F8014B634502F8014FF9D10369848A33
:104CF4002B4403614EF400430CB943F4804301B1E7
:104D04001B04184630BD45F4806ED9E7836810B49F
:104D14001C6801B1240C4378C4F309045BB9C38A49
:104D24002344C382038BA34284BF0023838220468F
:104D34005DF8044B7047D0E9032302EB81114CB1B9
:104D4400013B01EB040C11F8012B614503F8012F21
:104D5400F9D10369C18A23446218C2820361E1E77D
:104D640010B50446836800211B68FFF7CFFF636812
:104D74001B685B0002D5238B834200D010BD204604
:104D8400BDE810400121FFF7C1BF00BF084B1B6CF9
:104D940013F0020302D18278D20901D100207047B6
:104DA400C07EA0F10200B0FA80F04009704700BF55
:104DB4000000115008B5FFF7E9FF50B1054A064B52
:104DC400906A1B68A0F54870C01AC6288CBF0020E2
:104DD400012008BD00000B40F01300200023C0E9AF
:104DE40004338376704700BF10B5836809B11C682B
:104DF400214082B1114352050DD51A6854050CD4D3
:104E0400084A21F480641C60126C920703D40C23BA
:104E1400033BFDD28368196010BD8178024800F01D
:104E24006BF900BF00001150AC47001030B5436867
:104E3400002183B004461D68FFF734FF134B40F490
:104E440080521B6C13F0020FA3780ED05B060ED0B9
:104E540025F0A04545F000550021204663681D60FB
:104E640003B0BDE83040FFF7BFBFDB09F0D0A38A31
:104E7400002BEDD0012120460192FFF713FF019A88
:104E840025F0005545F0A0450243E5E70000115028
:104E940038B5857E0446A5B1FFF762FFA38A0BB936
:104EA400284638BD2046FFF785FF054620B101237B
:104EB40000252377284638BD2046FFF7B7FF28464C
:104EC40038BD8178014800F017F900BFCC470010C5
:104ED4002DE9F04343780546023B0E4685B0042B8A
:104EE40013D8DFE803F003486B7442000021774BCA
:104EF4001A786FF300021A701A786FF341021A706D
:104F040059701A7861F382021A70714B1C686369D4
:104F1400EFF3108272B6D3E8CF0F01210028FAD143
:104F2400C3E8401F0028F6D1BFF35F8FA261294672
:104F3400204600F001F900236269C2E88F3FA369AB
:104F440083F3108848B94FF0E023D3F8F03DDB0732
:104F540008D500BE05B0BDE8F083324669782878EC
:104F640000F0C2F805B0BDE8F0835A4A1378013363
:104F7400DBB21370C9E70024DFF86081234698F898
:104F84000020554FDFF858910CE0D9F8003013EBAE
:104F940044130CD198F800200134E4B2511CA1420E
:104FA40023461DDB9442F0D39B1A07EB4313DB69C2
:104FB400002BEFD0696828789847EBE7434B1A78C1
:104FC400D707CFD51A7842F004021A709DE73F4BF9
:104FD4001A78D407C6D51A786FF382021A7094E748
:104FE4003A4C2378580733D4E378DA07BAD5002744
:104FF400032337492A780C6869680397CDE901715E
:105004008DF804208DF805306369EFF3108272B6D1
:10501400D3E8CF0F01210028FAD1C3E8401F0028AC
:10502400F6D1BFF35F8F204601A9A26100F084F896
:105034006369C3E88F7FA36983F31088002882D053
:1050440032469DF805109DF8040000F04DF889E7FC
:105054004FF00008052223781D496FF38203237063
:105064002B780F68CDF804808DF805208DF8043076
:10507400CDE902887B69EFF3108272B6D3E8CF0FD3
:1050840001210028FAD1C3E8401F0028F6D1BFF35C
:105094005F8F3846BA6101A900F04EF87B69C3E816
:1050A4008F8FBB6983F3108838B94FF0E023D3F8AE
:1050B400F03DD90798D500BE96E732469DF8051015
:1050C4009DF8040000F010F88EE700BFA80F002040
:1050D4000010002053180020F4470010511800203D
:1050E4005C0C00200000000001B40248844601BCAE
:1050F400604700BF9127001001B40248844601BCF8
:10510400604700BF8D06001001B40248844601BC0C
:10511400604700BF9914001001B40248844601BCE2
:10512400604700BFA913001001B40248844601BCC3
:10513400604700BFA542001001B40248844601BC88
:10514400604700BF753F0010011000000000000020
:105154000000010000000000000000000000020048
:105164000000000000000000000003000000000038
:10517400000000000000FF000000000001B54868C6
:1051840001318E460047704609380149884701BD00
:10519400ED0B001000000000000000000000000003
:1051A4000000000000000000B80A0020F11F0010F9
:1051B400A51F0010211F0010011F00100000000097
:1051C400000100000410002010000C00000000008A
:1051D40000000000000000000000000000000000CB
:1051E400FF000000000000000000000000000000BC
:0451F40000000000B7
:1051F800D3DEFFFFFE010000FF01000040AFFFFF0C
:04520800793512AB37
:040000051000014D99
:00000001FF
