:10000000004000202D0300006D0300006F0300007E
:1000100000000000000000000000000000000000E0
:10002000000000000000000000000000710300005C
:1000300000000000000000007303000075030000D2
:10004000310400007703000077030000770300000D
:100050007703000000000000770300007703000032
:1000600077030000770300007703000077030000A8
:100070007703000077030000770300007703000098
:1000800077030000A9050000770300007703000054
:100090007703000077030000770300007703000078
:1000A000770300007703000000000000000000005C
:1000B0000000000000000000000000000000000040
:1000C00010B5064C2378002B07D1054B002B02D02E
:1000D000044800E000BF0123237010BD7C00002015
:1000E0000000000048070000044B10B5002B03D0AF
:1000F0000349044800E000BF10BDC04600000000F6
:100100008000002048070000402292029A1A92467E
:100110007047C046174B002B00D1134B9D46FFF78D
:10012000F3FF00218B460F461348144A121A00F0C1
:10013000F3FA0E4B002B00D098470D4B002B00D04C
:1001400098470020002104000D000D48002802D02F
:100150000C4800E000BF00F0BBFA2000290000F0CE
:1001600089F800F09FFAC046000008000000000077
:1001700000000000004000207C000020AC000020B7
:10018000000000000000000070470000052804D1B6
:10019000024A13680133DBB21360704798000020F5
:1001A00043095A4253411F225B421040C340DB07C0
:1001B00000D4FEE7A020C00570470000F7B5144A40
:1001C000144F154B166801903868F258010A000662
:1001D0001043FA220023920000F036FAFA24002598
:1001E0004904C00B01430091A4000B4B3868F2583E
:1001F000010A00062B001043220000F025FA009BA4
:100200004904C00B0843C01A019B9842EDD3F7BDC7
:10021000080000209800002004050000F8B5002424
:100220000A25134E2B003778002F00D132239C4231
:1002300010DA2800FFF7C2FF0620FFF7B1FFA22364
:10024000DB00C3585B060FD46420FFF7B7FF012320
:100250005F403770A2254024ED000620FFF7A0FF85
:1002600043592342F9D0F8BD0134E4B2D9E7C0467E
:1002700000000020F8B5274800F07EF800F090F864
:10028000002000F0ADF8244C244A2000244900F05E
:10029000F7F82000002100F069F90121200000F0AA
:1002A00074F9200000F052F91220FFF779FFE923DA
:1002B0000327DB00C75080231A4EDB028351050061
:1002C0001420FFF76DFFEA23DB00C75080235B0398
:1002D000835104000620FFF763FFE3230022DB00C5
:1002E000C2500123A127104AFF0011784B40137020
:1002F00080238022DB025203AB51E251FFF78EFFD5
:1003000080238022DB025203EB51A251FFF786FFCC
:10031000EEE7C04689010000080000208D010000C2
:10032000020000200C0500000000002003210A4804
:1003300002680A430260094802680A4302600849E9
:10034000084A094B9B1A03DD043BC858D050FBDC1C
:1003500000F072F9FFF7DEFE24050040540500406E
:1003600054070000000000207C000020FEE7FEE7AC
:10037000FEE7FEE7FEE7FEE7002800D1FEE7054BBB
:100380001A79002A04D11860013203481A717047A3
:100390000248FCE79C0000200000AD0B0C00AD0BF8
:1003A00010B50D4B1B79002B00D1FEE701200B4B44
:1003B0001A68024209D1C024FF21A4001A598A43B5
:1003C0001100C0220A431A5118608022A323012180
:1003D000D205DB00D15010BD9C00002000E100E000
:1003E0000F4B1B79002B00D1FEE7002802D001281B
:1003F0000CD0FEE70B4B80221860C1230221D205EE
:100400009B00D1500122084B1A6070470022074B15
:100410001A60C122013BFF3B920098501860F4E73C
:100420009C00002004010040080000400001004042
:10043000104B10B51A68002A0AD0002080221860DC
:10044000C22301219B00D205D1500B4B1B6898475A
:100450000A4B1A68002A0BD000221A608022C2239D
:1004600002219B00D205D150034B01201B68984705
:1004700010BDC046000100409C0000200401004067
:10048000F7B5002900D1FEE7002A00D1FEE70327D7
:100490004379284C9D007B432A51274D5B5D002BFF
:1004A00045D1FF220426944614008657F3B2374004
:1004B0000193FF006346BC408A78E44392011A40EE
:1004C000BA40002E16DBC0271C4BB608B600F61843
:1004D000BF00F3591C402243F2511F22019B1A40D6
:1004E00001239340154A136080220B8852019342E6
:1004F0000DD3FEE70F26019B3340083B104E9B08AF
:100500009B009B19DE6934402243DA61ECE7A122AB
:100510000468D200A3500323427908795343EA18B0
:100520005070C978074891700122EA54FEBD064810
:10053000FCE7C046A8000020A400002000E100E085
:1005400000ED00E00000AD0B0500AD0B0323417989
:10055000054A4B43995C012900D0FEE70068016021
:10056000022199547047C046A4000020036800206F
:100570001A00FC325060D120012280001A5000295C
:1005800002D0C12189005A507047036800201A0028
:10059000FC329060D120022280001A50002902D043
:1005A000C12189005A507047F8B58026D22700240F
:1005B0007602BF00C1231C4D9B00EB581E420FD09A
:1005C0001A4AA3009B181A68002A09D0C222920076
:1005D000EE51AE5000221A60154BE0B21B689847EE
:1005E00001347600042CE5D1C1239B00EB58DB07D6
:1005F00009D5104B5A68002A05D000225A600C4BCE
:1006000020001B689847C1239B00EB589B0709D526
:10061000084B9A68002A05D000229A60044B0520F6
:100620001B689847F8BDC0460010014040110140CA
:10063000A8000020FC100140014B024A1A607047DC
:10064000100000200024F400F0B5CE46474680B5E7
:10065000070099463B0C9C4613041B0C1D000E0022
:1006600061460004140C000C45434B436043614356
:10067000C0182C0C20188C46834203D980235B02BF
:100680009846C444494679437243030C63442D049D
:100690002D0CC918000440198918C0BCB946B046D1
:1006A000F0BDC046084B10B50400002B02D000215D
:1006B00000E000BF054B1868836A002B00D0984704
:1006C000200000F031F8C0460000000044070000A0
:1006D00070B500260C4D0D4C641BA410A64209D128
:1006E000002600F023F80A4D0A4C641BA410A64211
:1006F00005D170BDB300EB5898470136EEE7B30063
:10070000EB5898470136F2E774000020740000208F
:10071000740000207800002003008218934200D16A
:10072000704719700133F9E7FEE7C046F8B5C046D7
:10073000F8BC08BC9E467047F8B5C046F8BC08BC7B
:0C0740009E4670471400002000000000DE
:08074C00BCF9FF7F0100000071
:1007540001000000034100000010014011000400EA
:100764000024F4000000000000000000000000006D
:100774000000000000000000000000000000000075
:100784000000000000000000000000000000000065
:100794000000000000000000000000000000000055
:1007A4000000000000000000000000000000000045
:1007B4000000000000000000000000000000000035
:0C07C40000000000E9000000C10000007F
:040000030000032DC9
:00000001FF
