:100000004BC600007EC600007CC600007AC6000019
:1000100078C6000076C6000074C6000072C60000F4
:1000200070C600006EC600000C9411280C94DF28E6
:1000300068C6000066C6000064C6000062C6000014
:1000400060C60000FAC700005CC600005AC6000087
:1000500058C6000056C6000054C6000052C6000034
:1000600050C600000C945A124CC600004AC600004C
:1000700048C6000046C6000044C6000042C6000054
:1000800040C600003EC600003CC600003AC6000064
:1000900038C6000036C6000034C6000032C6000074
:1000A00030C600002EC600002CC600002E034A00F9
:1000B00078004D0061006B00650020005500530082
:1000C00042002D004700500049004F0020004D0025
:1000D0006F00640075006C006500000062034A0058
:1000E00078004D0061006B0065002000280068006A
:1000F00074007400700073003A002F002F0073002A
:100100006F00750072006300650066006F0072008A
:10011000670065002E006E00650074002F007000FF
:1001200072006F006A0065006300740073002F00A6
:100130006A0078006D0061006B0065002900000016
:100140000403090409028300040100C032080B0003
:10015000020202010009040000010202010005245C
:10016000001001042402060524060001070583038C
:100170000800FF09040100020A000000070502024E
:1001800010000507058102100005080B020202029B
:10019000010009040200010202010005240010010F
:1001A000042402060524060203070586030800FF4F
:1001B00009040300020A00000007050502100005FB
:1001C0000705840210000512011001EF020108EB7F
:1001D000034E2001000102DC010DFF08FF040506AB
:1001E0000740401040102040802300260029002CAA
:1001F000002F002F002F002F00250028002B002E9D
:10020000003100310031003100240027002A002D88
:10021000003000300030003000D000CF000000007F
:10022000000000000000000000204000000000006E
:10023000000000010005000A0032006400F401E83B
:10024000038813DC057805B004E8039001FA003256
:1002500000190005006E6F7420696D706C656D6526
:100260006E746564207965740042422D5357494D80
:1002700020636F6D6D616E6420574F544620666138
:10028000696C65640042422D5357494D20636F6D80
:100290006D616E6420524F5446206661696C6564DE
:1002A0000042422D5357494D20746865206E756D8C
:1002B000626572206F6620627974657320697320AD
:1002C0006F7574206F662074686520616C6C6F7741
:1002D00065642072616E67650042422D5357494D37
:1002E00020636F6D6D616E642053525354206661BC
:1002F000696C65640042422D5357494D2074726108
:100300006E73666572206661696C65640042422D99
:100310005357494D20746865206E756D6265722073
:100320006F662032582062697473206973206F757C
:1003300074206F662074686520616C6C6F776564EB
:100340002072616E67650042422D5357494D2074FB
:100350006865206E756D626572206F6620626974D3
:1003600073206973206F7574206F66207468652030
:10037000616C6C6F7765642072616E6765004242E4
:100380002D5357494D206661696C656420746F2058
:100390006C696E652072657365740042422D535717
:1003A000494D206973206E6F7420656E61626C65C3
:1003B00064006661696C656420746F20696E69749D
:1003C00069616C697A652042422D5357494D00425C
:1003D000422D5357494D20697320616C72656164E9
:1003E0007920656E61626C65640063616E6E6F7426
:1003F00020656E61626C652042422D5357494D2045
:10040000626563617573652048572D5350492069B3
:100410007320616C726561647920656E61626C65E0
:10042000640063616E6E6F7420656E61626C65203E
:1004300042422D5357494D206265636175736520B3
:1004400042422D5553525420697320616C7265618C
:10045000647920656E61626C6564206F7220485714
:100460002D555352542068617320656E61626C652E
:100470006420736C6176652073656C656374696F65
:100480006E20737570706F72740042422D55535216
:10049000542072656365697665206661696C656480
:1004A0000042422D55535254207472616E736D692F
:1004B00074206661696C65640042422D5553525444
:1004C00020746865206E756D626572206F662062AB
:1004D00079746573206973206F7574206F6620745A
:1004E000686520616C6C6F7765642072616E67650A
:1004F0000042422D55535254206661696C65642058
:10050000746F2070756C73652074686520736572F4
:1005100069616C20636C6F636B206C696E6500426F
:10052000422D55535254206661696C656420746F86
:1005300020646573656C65637420736C6176650017
:1005400042422D55535254206973206E6F742065BA
:100550006E61626C6564006661696C656420746FCD
:1005600020696E697469616C697A652042422D5513
:100570005352540042422D55535254206973206106
:100580006C726561647920656E61626C656400639C
:10059000616E6E6F7420656E61626C652042422DE3
:1005A0005553525420626563617573652048572D19
:1005B00053504920697320616C72656164792065CC
:1005C0006E61626C65640063616E6E6F7420656E4F
:1005D00061626C652042422D55535254206265631E
:1005E000617573652042422D5357494D2069732030
:1005F000616C726561647920656E61626C6564002E
:1006000048572D55535254206661696C65642074B7
:100610006F20646573656C65637420736C617665C7
:10062000006661696C656420746F20696E69746925
:10063000616C697A6520736C6176652073656C65A1
:100640006374696F6E20737570706F727420666F5B
:10065000722048572D5553525400696E20746865B6
:100660002063757272656E742073746174652C20DA
:1006700048572D5553525420646F6573206E6F7424
:1006800020737570706F727420736C61766520735F
:10069000656C656374696F6E20626563617573650F
:1006A00020746865207369676E616C2069732061CE
:1006B0006C72656164792075736564206279204885
:1006C000572D5350492F42422D5357494D004857FB
:1006D0002D55535254206973206E6F7420656E61DE
:1006E000626C6564006661696C656420746F206982
:1006F0006E697469616C697A652048572D5553524B
:10070000540048572D5553525420697320616C7220
:100710006561647920656E61626C65640063616E19
:100720006E6F7420656E61626C652048572D55535D
:10073000525420626563617573652048572D554199
:10074000525420697320616C726561647920656E12
:1007500061626C656400746865207365636F6E64C4
:100760006172792028706173732D7468726F756778
:10077000682920696E7465726661636520726561BF
:100780006420627566666572206973206E6F7420DE
:10079000656D7074790048572D5541525420697326
:1007A000206E6F7420656E61626C656400666169BD
:1007B0006C656420746F20696E697469616C697A14
:1007C000652048572D55415254006661696C656437
:1007D00020746F20696E697469616C697A65207430
:1007E0006865207365636F6E64617279202870613B
:1007F00073732D7468726F7567682920696E7465EC
:1008000072666163650048572D55415254206973E3
:1008100020616C726561647920656E61626C6564EB
:100820000063616E6E6F7420656E61626C65204856
:10083000572D554152542062656361757365204898
:10084000572D5553525420697320616C7265616451
:100850007920656E61626C65640048572D54574974
:100860002072656164206661696C65640048572D7B
:10087000545749207772697465206661696C6564B4
:100880000048572D54574920746865206E756D6275
:100890006572206F66206279746573206973206FBA
:1008A0007574206F662074686520616C6C6F776565
:1008B000642072616E67650048572D54574920695E
:1008C00073206E6F7420656E61626C656400666192
:1008D000696C656420746F20696E697469616C6904
:1008E0007A652048572D5457490048572D54574989
:1008F00020697320616C726561647920656E616244
:100900006C65640048572D5350492058422073703D
:10091000656369616C206661696C65640048572D88
:10092000535049205842207472616E73666572207C
:100930006661696C65640048572D5350492074689E
:1009400065206E756D626572206F662070616972D8
:1009500073206973206F7574206F6620746865203A
:10096000616C6C6F7765642072616E6765006661AB
:10097000696C656420746F20636C656172204857F0
:100980002D53504920627265616B006661696C6528
:100990006420746F207365742048572D535049208C
:1009A000627265616B006661696C656420746F20BA
:1009B0007365742048572D53504920535049206D7A
:1009C0006F6465006661696C656420746F2073658F
:1009D000742048572D53504920636C6F636B20641B
:1009E0006976696465720048572D535049207472C6
:1009F000616E73666572206661696C656400485754
:100A00002D53504920746865206E756D62657220A3
:100A10006F66206279746573206973206F75742026
:100A20006F662074686520616C6C6F7765642072F6
:100A3000616E67650048572D535049206661696CA7
:100A4000656420746F20646573656C6563742073DE
:100A50006C6176650048572D535049206661696C7A
:100A6000656420746F2073656C65637420736C61BA
:100A700076650048572D535049206973206E6F7476
:100A800020656E61626C6564006661696C656420F6
:100A9000746F20696E697469616C697A6520485762
:100AA0002D5350490048572D5350492069732061F8
:100AB0006C726561647920656E61626C6564006367
:100AC000616E6E6F7420656E61626C652048572D93
:100AD00053504920626563617573652042422D530E
:100AE00057494D20697320616C7265616479206596
:100AF0006E61626C65640063616E6E6F7420656E1A
:100B000061626C652048572D5350492062656361CE
:100B10007573652042422D555352542069732061EC
:100B20006C726561647920656E61626C6564206FCA
:100B3000722048572D555352542068617320656EBA
:100B400061626C656420736C6176652073656C65A9
:100B50006374696F6E20737570706F727400726564
:100B6000636569766520636F6D6D616E6420706189
:100B700072616D65746572206279746528732920CD
:100B800074696D656F757400696E76616C69642057
:100B9000636F6D6D616E6400000000FFFF01FFFF79
:100BA0000000FFFFFF06FFFFFFFFFFFFFFFFFFFF4C
:100BB000FFFFFFFFFFFFFFFF0302000201FFFFFF38
:100BC000FFFFFFFFFFFFFFFFFFFFFFFFFFFFFFFF35
:100BD000FFFFFFFFFFFFFFFF01000000010101FF1A
:100BE000010103FF01FFFFFF05FFFFFFFFFFFFFF05
:100BF000FFFFFFFFFFFFFFFF040002020202FFFFF3
:100C0000FFFFFFFFFFFFFFFFFFFFFFFFFFFFFFFFF4
:100C1000FFFFFFFFFFFFFFFF0000FFFF000001FFDE
:100C2000FFFFFFFFFFFFFFFFFFFFFFFFFFFFFFFFD4
:100C3000FFFFFFFFFFFFFFFF01000000000001FFBB
:100C4000FFFFFFFFFFFFFFFF04000000020101FFA5
:100C5000FFFFFFFFFFFFFFFFFFFFFFFFFFFFFFFFA4
:100C6000FFFFFFFFFFFFFFFF00000002000404FF83
:100C7000FFFFFFFFFFFFFFFFFFFFFFFFFFFFFFFF84
:100C8000FFFFFFFFFFFFFFFFFFFFFFFFFFFFFFFF74
:100C9000FFFFFFFFFFFFFFFF11241FBECFEFDAE0D2
:100CA000DEBFCDBF14BE0FB6F894A895809160004A
:100CB000886180936000109260000FBED9D28823B3
:100CC00049F02FEF83E294EF215080409040E1F70C
:100CD00000C00000C8D211E0A0E0B1E0E8E1FAE510
:100CE00002C005900D92A834B107D9F724E0A8E41A
:100CF000B1E001C01D92A634B207E1F703D00C9415
:100D00000A2D7EC980E890E00FB6F89480936100C8
:100D1000909361000FBE0E94F427579AF9D1C4D274
:100D20000E94941B78942FEF81EE94E02150804034
:100D30009040E1F700C000008BE191E00E94DF1BD2
:100D400080E091E00E9450258BE191E00E940A2B07
:100D500080E091E00E940A2BF2D16B017C01F894B3
:100D600080914C0190914D01A0914E01B0914F01A5
:100D7000892B8A2B8B2BF1F48091480190914901AA
:100D8000A0914A01B0914B01892B8A2B8B2B81F0CA
:100D90008091480190914901A0914A01B0914B0185
:100DA00078948C159D05AE05BF0530F653D2C4CF9F
:100DB0007894C2CF80914C0190914D01A0914E0149
:100DC000B0914F01409148015091490160914A0111
:100DD00070914B01452B462B472B49F478948C1589
:100DE0009D05AE05BF0508F0A7CF32D2A5CF8090F4
:100DF000480190904901A0904A01B0904B0178942D
:100E00008C159D05AE05BF0528F08C149D04AE041D
:100E1000BF04CBCF1DD2F9CF089508958BE191E0A7
:100E20000E94742A80E091E00C94742A8BE191E096
:100E30000E947A2B80E091E00C947A2BCF93C62FFE
:100E40008050914061F40E94B412882341F0CC2379
:100E500019F0CF910C94F612CF910C941F13CF91EF
:100E600008950895CF93DF9300D000D000D0CDB780
:100E7000DEB78D839E838D819E818B51914091F54C
:100E800080912F0190913001A0913101B0913201F8
:100E9000803B9440A105B105E1F451D169837A8387
:100EA0008B839C83DC01CB0186509F4FAF4FBF4F9C
:100EB0008093480190934901A0934A01B0934B015C
:100EC0000F900F900F900F900F900F90DF91CF9198
:100ED0000895109248011092490110924A0110920F
:100EE0004B01EECFAD81BE8154968D919D910D90B9
:100EF000BC91A02D89839A83AB83BC83BC01CD01B7
:100F00000E94BA12ED81FE81818D823099F150F4F8
:100F1000811134C080E00E94C312AD81BE81599618
:100F20001C9203C083508230A8F3ED81FE81808D36
:100F3000882331F18150823038F1ED81FE81828D3C
:100F40008730E9F150F58530A1F18630B1F10E948A
:100F5000B412882309F4B4CF0E94B712882389F110
:100F60000F900F900F900F900F900F90DF91CF91F7
:100F70000C94A51380E20E94C312D7CF80E3FBCF6D
:100F800080E00E94C612D9CF88E00E94C61282E09B
:100F9000AD81BE8158968C93D0CF88508230B8F600
:100FA00086E00E94C91288E0AD81BE815A968C937A
:100FB000CECF80E00E94C912CACF82E0FBCF84E08E
:100FC000F9CF0F900F900F900F900F900F90DF912F
:100FD000CF910C9495139C01DA01832F99278230CD
:100FE000910509F18330910539F0019709F180E00D
:100FF00090E020E030E00EC0C9019927213069F06F
:101000008230910569F0E0E4F1E0892B81F7849169
:1010100090E09F012D933C930895ECEDF0E0F7CF25
:10102000ECEAF0E0F4CF83E890E024E431E0F2CFA2
:1010300082E190E027EC31E0EDCF1F921FB61F92C6
:1010400011242F933F938F939F93AF93BF938091DE
:10105000540190915501A0915601B09157010A9603
:10106000A11DB11D8093540190935501A093560189
:10107000B0935701809150012AE030E0811102C005
:1010800024E630E0809152019091530101969093B3
:101090005301809352018217930730F190915101CF
:1010A00081E0911180E0809351018091510188236A
:1010B00029F15F9A80915001882329F18091510193
:1010C0008823F1F0C901880F991F820F931F96950D
:1010D00087959695879590935301809352018091BF
:1010E0005001815080935001BF91AF919F918F919A
:1010F0003F912F911F901FBE1F9018955F98DACFD8
:1011000080E090E0E8CF1092530110925201ECCFB2
:1011100010928000E1E8F0E080818B60808383ECB6
:1011200099E0909389008093880010928500109236
:101130008400EFE6F0E08081826080830895CF93A1
:10114000DF9300D000D0CDB7DEB7F8948091540182
:1011500090915501A0915601B091570189839A83CE
:10116000AB83BC83789469817A818B819C810F9059
:101170000F900F900F90DF91CF91089584E08093AE
:101180005001089590915902911107C0809359021E
:1011900081E08093580281E00895981304C0809103
:1011A00058028F5FF6CF80E008959091590298130E
:1011B0000BC080915802815080935802811102C067
:1011C0001092590281E0089580E00895C82F0E948E
:1011D0009E272FEF31EE44E0215030404040E1F7B0
:1011E00000C0000085E090E05F9A2FEF31EE44E010
:1011F000215030404040E1F700C000005F982FEFE1
:1012000031EE44E0215030404040E1F700C00000A2
:101210000197009749F78FEF91EE24E081509040BD
:101220002040E1F700C00000F894CC2331F087E7BC
:1012300097E7909301088093000888E19CE00FB63F
:10124000F894A895809360000FBE90936000FFCF44
:1012500080E0BCDF81E0BADF8AEA9AEA9093470433
:10126000809346040895109247041092460408950E
:1012700081E020914604309147042A3A3A4A09F025
:1012800080E00895CF93DF93EC0189818F70809384
:10129000E9008091E80080FF03C0DF91CF910895BD
:1012A000CE010E940A2BF5CF87E08093C10091E028
:1012B0009093C30093E09093C000EAE7F0E080834E
:1012C0008081806880830895EF92FF920F931F932F
:1012D000CF93DF9308EE11E0AEE0B0E057E070E8A6
:1012E0009CEF950F282F543014F4262F952F30E0C3
:1012F000990F02C0359527959A95E2F72370FD0165
:10130000E75FFD4FE590F490FD01E750FE4FC5917A
:10131000D491F8019491213061F0223011F1211122
:1013200011C0F701208190952923208328819223E1
:1013300008C0F7013081292F20952323208328819D
:10134000922B9883769551500150110912975F3F67
:1013500009F0C6CFDF91CF911F910F91FF90EF90D1
:101360000895F7012081292B2083242F2723211181
:10137000E6CF28819095DBCFFF920F931F93CF93F9
:10138000DF930F92CDB7DEB74EE050E027E030E0BC
:1013900070E8982F9723992351F1F901E75DFD4FEC
:1013A000E491E983FA01E75FFD4F05911491FA0199
:1013B000E750FE4FA591B491F901EF51FE4FF49023
:1013C000F80190819F21992391F09981992339F017
:1013D0009981F091C00090959F239093C000962F23
:1013E00097239923A1F09C91EF2DE92BEC9376950F
:1013F00021503109425051092F3F320709F0C9CF1E
:101400000F90DF91CF911F910F91FF9008959C91C4
:10141000EF2DE095E923EACF0F931F93CF93DF934E
:101420000F92CDB7DEB74EE050E027E030E010E895
:1014300080E0F901E75DFD4FE491E983FA01E75FA0
:10144000FD4F65917491FA01E751FE4FA591B4915A
:10145000F901EF51FE4F0491FB019081902391110E
:101460000FC09981992339F099816091C0009095BE
:1014700096239093C0009C91E02FE923E111812BEA
:10148000169521503109425051092F3F320789F6F4
:101490000F90DF91CF911F910F910895CF93DF931C
:1014A0000F92CDB7DEB790E0FC01E75DFD4FE49110
:1014B000E9839C01220F331FF901E75EFD4FA591DF
:1014C000B491F901E75FFD4F25913491FC01EF5193
:1014D000FE4F9491F90180818923882351F08981FD
:1014E000882339F06C9399818091C000892B809377
:1014F000C0000F90DF91CF91089590E0FC01EE0FB6
:10150000FF1FE75FFD4FA591B491FC01EF51FE4F26
:10151000249187529E4FFC018491EC91E223E111CA
:101520001EC08F3FE1F020917B00982F990F990FFB
:1015300090722F7D922B90937B00877080648093B4
:101540007C0080917A00806480937A0080917A0098
:1015500086FDFCCF8091780090917900089580E01D
:1015600090E0089580917B00806280937B0087ECFF
:1015700080937C0080917A00806480937A008091CF
:101580007A0086FDFCCF80917800909179000895D3
:10159000883030F120915D0230915E02232B19F4E6
:1015A0009CB59F7B9CBD8C3069F168F48A3069F1F1
:1015B0008B3071F1883079F181E290E090935E0296
:1015C00080935D0208958E3049F18F3051F18D3056
:1015D00059F1863660F18F3668F58456990BEECF57
:1015E0009FEF980F963008F4892F91E08927982F64
:1015F000969520915F02922B9CBD81708DBD80E0FD
:1016000090E0DCCF8CE191E0D9CF85E490E0D6CFBB
:101610008DE890E0D3CF80E190E0D0CF85E794E0F3
:10162000CDCF88EE98E0CACF89E392E0C7CF81E0C2
:1016300090E0C4CF8BE090E0C1CF982F842F209111
:101640006102211122C06093600244E0949F9001E6
:101650001124206520935F0291FB222720F920931B
:101660005C02917090935B02662389F028982A9A15
:1016700090915C02992369F0299A239894B197601C
:1016800094B986DF81E08093610281E00895289A11
:10169000EECF2998F2CF80916102882381F084B146
:1016A000807F84B980915D0290915E02892B19F44C
:1016B0008CB58F7B8CBD1092610210925A020895F6
:1016C000CF93C0916102CC2329F090915A029111DD
:1016D00004C05EDF8C2FCF910895C0E0FBCF982F20
:1016E00080916102882309F140915F02437F54E0B9
:1016F000959F90011124242B20935F0291FB2227B8
:1017000020F920935C02917090935B0220915D021E
:1017100030915E02232B49F42CB59CB59F7B9CBD78
:10172000237090915F02922B9CBD0895809161027D
:10173000089580916102882339F090916002992385
:1017400011F0289A089528980895809161028823BD
:1017500039F090916002992311F028980895289A01
:101760000895CF93DF93FC019B0180916102882350
:1017700099F090915A029111B0C06115710561F014
:1017800040915D0250915E02452B09F487C040E014
:1017900050E0421753071CF0DF91CF91089568E0A5
:1017A00070E09081A92FB0E0AA0FBB1FA083A09189
:1017B0005B02AA2309F43DC0A0915C02A1112BC0D9
:1017C000299AA0E0B0E0C0915D02D0915E02AC1712
:1017D000BD0718F197FF25C02A9A90915C029923C2
:1017E00011F1299AA0E0B0E0C0915D02D0915E02B3
:1017F000AC17BD07D0F0A3B1A3FBAA27A0F9908135
:101800009A2B9083615071096115710551F64F5FF4
:101810005F4F3196BECF2998D4CF000000001196BB
:10182000D2CF2A98DACF2998DDCF00000000119698
:10183000DBCF97FF29C02A9A90915C02992331F15E
:101840002998A0E0B0E0C0915D02D0915E02AC1793
:10185000BD07F0F0A3B1A3FBAA27A0F990819A2BB2
:10186000908390915C029923B9F0299AA0E0B0E0AE
:10187000C0915D02D0915E02AC17BD0708F0C2CFE7
:10188000000000001196F4CF2A98D6CF299AD9CF1C
:10189000000000001196D7CF2998E8CFF8949081E6
:1018A0009EBDAB01DF01415051094115510559F46D
:1018B00021503109E20FF31F0DB407FEFDCF9EB595
:1018C0009083789469CF11966C9111970DB407FEAF
:1018D000FDCF9EB56EBD9D93E6CF80E05DCFAF920C
:1018E000BF92CF92DF92EF92FF920F93CF93DF934D
:1018F000D82F6B01C42F590116161706D4F01A14ED
:101900001B040CF03BC08C2F8370E9DE882379F038
:10191000C295CF70D0E06701E12CF12CF601008375
:10192000018362E070E0C6011CDF811132C080E0FB
:1019300026C08370D4DE8823D1F3B601C70111DF3E
:101940008823A9F3D295DF7080E0D817C1F225E88B
:101950002A95F1F700008F5FF8CFF5E3FA95F1F7DC
:10196000000001968C179D07C4F322E0E20EF11CE3
:1019700082E0C80ED11CEA14FB0484F281E0DF91FE
:10198000CF910F91FF90EF90DF90CF90BF90AF90ED
:10199000089580E090E0E6CF982F8091610288233F
:1019A000B1F09923A9F02A9A6623A1F0299A90917F
:1019B0005A0291110CC020915D0230915E02232BDE
:1019C00019F49CB59F7B9CBD91E090935A020895B9
:1019D0002A98EACF2998EBCFDFDF882329F083B15B
:1019E00083FB882780F908958FEF08958091610225
:1019F0008823A9F080915A02882389F02A9A90912D
:101A00005C02992369F0299A20915D0230915E026F
:101A1000232B19F49CB590649CBD10925A02089532
:101A20002998F2CF8F929F92AF92BF92CF92DF927E
:101A3000EF92FF920F931F93CF93DF93982FFA01AA
:101A4000A90180916102882309F455C080915A024E
:101A5000882309F450C0392F32953F70B92EB694BF
:101A6000B694292F2270922E292F229526952695FD
:101A7000237097FF03C0223081F02A9A31FF1CC0E7
:101A8000317020915C02222311F021E032273323B0
:101A900031F0299A20E030E008C02A98EFCF299849
:101AA000F9CF000000002F5F3F4FA0915D02B09181
:101AB0005E022A173B07A8F320E030E070E008C080
:101AC000AFE9BFE01197F1F700C000002F5F3F4F73
:101AD00026173707A8F39A01220F331F2E0F3F1F37
:101AE00008E010E0B1E0E217F30790F0B1FE03C0A8
:101AF000B0FEE7C02A9ADF91CF911F910F91FF901E
:101B0000EF90DF90CF90BF90AF909F908F9008950F
:101B1000408147704F5F642F70E0483049F0418149
:101B2000E801C61BD70B01C0440FCA95EAF74183F1
:101B3000992039F0A1E0AF014E5F5F4F4217530784
:101B400008F4A0E040E050E07B01C1E0EC1AF108AD
:101B5000AA2329F0AA24A394E416F50609F0A12CDF
:101B6000CA2DC170AC2E8180C82DD0E0CC0FDD1FF6
:101B7000C183C0915B02CC2309F455C0C0915C02C3
:101B8000C11104C0299AC0E0D0E005C02998FBCF5C
:101B9000000000002196C0905D02D0905E02CC153E
:101BA000DD05B0F387FE0BC02A9AD0915C02A1102C
:101BB00023C0DD2331F0299AC0E0D0E007C02A9885
:101BC000F4CF2998F9CF000000002196C0905D0263
:101BD000D0905E02CC15DD05B0F3D3B1D3FBDD2789
:101BE000D0F9C181CD2BC1834F5F5F4F4617570797
:101BF0000CF4AECF329677CFC92FC170D111CB275D
:101C0000CC2321F0299AC0E0D0E005C02998FBCF71
:101C1000000000002196C0905D02D0905E02CC15BD
:101C2000DD05B0F3DACF87FE09C02A9AC0915C02C5
:101C3000CC2331F02998C0E0D0E007C02A98F6CF35
:101C4000299AF9CF000000002196C0905D02D09043
:101C50005E02CC15DD05B0F3D3B1D3FBDD27D0F99F
:101C6000C181CD2BC183D0915C02A11013C0DD23B3
:101C700021F0299AC0E0D0E005C02998FBCF0000F0
:101C800000002196C0905D02D0905E02CC15DD056B
:101C9000B0F3AACFC92FC170D111CB27CC2321F02B
:101CA000299AC0E0D0E005C02998FBCF00000000D1
:101CB0002196C0905D02D0905E02CC15DD05B0F398
:101CC00093CF2A9818CF90916102992309F452C0BA
:101CD00090915A02992309F44DC0813099F5289AC0
:101CE0002A9829982FEF80E792E021508040904079
:101CF000E1F700C0000028988FE79EE30197F1F715
:101D000000C00000289A95E39A95F1F70000289802
:101D10008FE79EE30197F1F700C0000088E390E0B1
:101D2000299A25E32A95F1F70000299825E32A95B9
:101D3000F1F700000197009799F78091600291E018
:101D4000892708958230B1F428988FE39CE90197A0
:101D5000F1F700C00000289A87E795E00197F1F7B6
:101D600000C0000028988FE39CE90197F1F700C0BC
:101D70000000E3CF8FEF08954F925F926F927F92B2
:101D80008F929F92BF92CF92DF92EF92FF920F932A
:101D90001F93CF93DF93CDB7DEB728970FB6F89494
:101DA000DEBF0FBECDBF6B017C01142F022F8091CF
:101DB000620281116CC08091420190914301A09117
:101DC0004401B091450189839A83AB83BC8392E03F
:101DD000492E512C612C712CC701B601A30192012F
:101DE0000E94CC2CDA01C9019C5DAB40BF4FBC0105
:101DF000CD01A70196010E94CC2CDA01C9010F97F1
:101E0000A109B1098D839E83AF83B887BC01CD0141
:101E1000A30192010E94CC2C29013A01DE01119606
:101E20004D01B12CF40121914F0130E040E050E030
:101E3000DA01C9010197A109B109840D951DA61DFB
:101E4000B71D8D839E83AF83B887BC01CD010E94EF
:101E5000CC2CDA01C9010A97A109B109863F910585
:101E6000A105B10558F501116DC08091BC008460D9
:101E70008093BC00B092B9002093B800103108F4F0
:101E800068C01FE01093360181E08093620281E018
:101E900028960FB6F894DEBF0FBECDBFDF91CF916D
:101EA0001F910F91FF90EF90DF90CF90BF909F9088
:101EB0008F907F906F905F904F900895B39494E0CF
:101EC000B912B0CF89E390E3A0E0B0E08C199D098E
:101ED000AE09BF0942ED56E760E070E04C195D09BC
:101EE0006E097F0977FF07C0709560955095419501
:101EF0005F4F6F4F7F4FB7FF07C0B095A09590958C
:101F000081959F4FAF4FBF4F84179507A607B7071F
:101F10006CF4011104C083E0B82E2FEFA6CF85B179
:101F2000806385B984B1806384B9F5CF011103C0A2
:101F30002AE0B12C9ACF85B1806385B984B18063E2
:101F400084B9F6CF85B1806385B984B1806384B9E3
:101F50008CCF111197CF11E095CF80916202882329
:101F600069F08091BC008B7F8093BC0084B18F7C32
:101F700084B985B18F7C85B91092620208958091F1
:101F800062020895AF92BF92CF92DF92EF92FF92DA
:101F90000F931F93CF93DF93F62EE72E8A01C22E65
:101FA000D0906202D1100DC0D12C8D2DDF91CF9138
:101FB0001F910F91FF90EF90DF90CF90BF90AF9067
:101FC00008954F3F510509F07CF760913601880F65
:101FD0000E94292CA12CB12C8111E6CFA016B106AC
:101FE00034F0CC2011F384E98093BC00DECFCF2DF8
:101FF000DE2D89910E94802C8FEFA81AB80AFC2E42
:10200000ED2EECCFAF92BF92CF92DF92EF92FF9284
:102010000F931F93CF93DF936B01EA01E22EF090B1
:102020006202F1100DC0F12C8F2DDF91CF911F9125
:102030000F91FF90EF90DF90CF90BF90AF900895F9
:102040004F3F510509F07CF7880F609136018160A0
:102050000E94292C8111E7CF00E010E05E0181E0B1
:10206000A81AB1080C171D0734F0EE20E9F284E934
:102070008093BC00D9CF61E0A016B10609F060E002
:10208000C601800F911F0E94912C0F5F1F4FEACF56
:1020900090916502911109C080936402882339F000
:1020A0002898209A81E08093650281E00895289A1B
:1020B000F8CF80916502882319F02098109265026C
:1020C000089580916502089580916502882341F00A
:1020D00090916402992329F0289A91E090936302E9
:1020E00008952898FACF80916502882339F090915D
:1020F0006402992321F02898109263020895289A87
:10210000FBCF8091630208959091C9009F779093CF
:10211000C9009091C900977F9093C9009091C90020
:102120009F7E9093C90090916F02992361F0811175
:1021300004C080916D02811106C08091CA008E7B1F
:102140008093CA0055981092700208958F929F92C2
:10215000AF92BF92CF92DF92EF92FF92CF93DF9335
:1021600000D000D00F92CDB7DEB76B017C0120917B
:102170006F022D83222309F444C031E0C31632E1FB
:10218000D3063AE7E306F10408F08EC0D701C60192
:102190009C5DAB40BF4F89839A83AB83BC83BC01FA
:1021A000CD01A7019601220F331F441F551F0E9426
:1021B000AA2C21503109211590E1390708F074C08B
:1021C000F8943093CD002093CC007894C0923C01D9
:1021D000D0923D01E0923E01F0923F01A1E0AD833B
:1021E0008D810F900F900F900F900F90DF91CF91F6
:1021F000FF90EF90DF90CF90BF90AF909F908F9027
:102200000895B1E8CB16B4E8DB06BEE1EB06F104B5
:1022100038F746015701F3E0880C991CAA1CBB1C37
:10222000FA95D1F7D701C601975FA24CBF4F9C0129
:10223000AD01A2E0220F331F441F551FAA95D1F70D
:1022400029833A834B835C83CA01B901A5019401B8
:102250000E94AA2C21503109211540E1340730F4A5
:102260008091C80082608093C800AACFD501C401C4
:102270009C5DAB40BF4F89839A83AB83BC83BC0119
:10228000CD01A7019601E4E0220F331F441F551F23
:10229000EA95D1F70E94AA2C21503109211590E12D
:1022A000390708F48DCF9CCF1D829ACF8091C90049
:1022B00080688093C90080916F02882331F18091FA
:1022C0006D028823B1F080916C02811112C05B987D
:1022D000539A5D9A559A2FEF8EE595E021508040F4
:1022E0009040E1F700C000005B9A25E02A95F1F7E5
:1022F00000008091CA0081648093CA00559A8FE3E0
:102300009FE10197F1F700C0000080916D028111FB
:1023100005C08091C90088608093C9008091C90080
:1023200080618093C90080916F02882351F0809171
:102330006D02882331F080916C02811102C05398A4
:102340005B9891E09093700210926E0280916D0202
:1023500080936C02892780936B020895CF93DF935B
:1023600000D000D00F92CDB7DEB7909170029D8360
:1023700091112CC02091680230916902232B41F108
:10238000862B80936F0260936D0210926C02109204
:102390006A028091380190913901A0913A01B0917F
:1023A0003B0189839A83AB83BC83BC01CD01CEDE24
:1023B000882371F08091670290916602892B909139
:1023C0003701892B8E738093CA0070DF91E09D8363
:1023D0008D810F900F900F900F900F90DF91CF9104
:1023E000089580916D028823D9F05B9A5D988AB137
:1023F00088628AB981E088DE80916D02882379F055
:102400002FEF81EE94E0215080409040E1F700C032
:1024100000008AB1877D8AB98BB1877D8BB9089519
:1024200053985B98E7CFCF93DF9300D000D0CDB720
:10243000DEB75B9A539A80E067DE80913801909115
:102440003901A0913A01B0913B0189839A83AB8312
:10245000BC83BC01CD017ADE811117C080913C01A3
:1024600090913D01A0913E01B0913F0189839A83F3
:10247000AB83BC838093380190933901A0933A01D8
:10248000B0933B01BC01CD0161DE80916702909168
:102490006602892B90913701892B8E738093CA0035
:1024A00005DF53985B980F900F900F900F90DF917E
:1024B000CF9108952F932FB72F933F934F935F930F
:1024C0008F939F93AF93BF93EF93FF93E091680235
:1024D000F0916902309769F18091CE0090913C04AF
:1024E000943039F59FB7F894228533859FBF408596
:1024F000518542175307E9F0E0916802F0916902B3
:10250000A081B1818C938081918101969183808398
:10251000268137818217930721F4848195819183E5
:1025200080832FB7F894828593850196938782875D
:102530002FBFFF91EF91BF91AF919F918F915F91CD
:102540004F913F912F912FBF2F9118959093690232
:1025500080936802089581E02091680230916902B9
:10256000232B09F480E008958091700208958091F2
:102570006F020895609338017093390180933A0196
:1025800090933B01089580936702089580936602BB
:1025900008958093370108959091C80095FFFCCF6E
:1025A0008093CE0080916A028823F9F08150809355
:1025B0006A0281111AC08091C80085FFFCCF80910A
:1025C000C80086FFFCCF8091C80080648093C8005B
:1025D00085E88A95F1F700008091C900877F809394
:1025E000C90053985B9810926B0208958091700215
:1025F000882321F180916E02811120C08091C80052
:1026000085FD0DC08091C80085FFFCCF8091C8007A
:1026100086FFFCCF8091C80080648093C8005B98DF
:10262000539A8091C900877F8093C9008091C80028
:1026300080648093C80081E080936E020895809149
:1026400070028823B9F080916E02882399F05B9A1A
:10265000539A90916D02992371F08FE99FE0019751
:10266000F1F700C0000053985B9880E080936B0204
:1026700010926E0208959091C90098609093C900DD
:102680005B98F4CF809170028823C9F080916B022F
:10269000811115C05B9A539A8091C900886080931C
:1026A000C9005B9885E88A95F1F700008091C80021
:1026B00085FFFCCF81E080936B0210926A0208953F
:1026C000809170028823F1F080916B028823D1F011
:1026D0008091C80085FD0DC08091C80085FFFCCFAA
:1026E0008091C80086FFFCCF8091C80080648093F1
:1026F000C8008091C900877F8093C90053985B9878
:1027000010926B02089590917002992329F0909194
:102710006B02911180936A02089560E080E01ECE02
:102720008091700281115DCE0895809170028111B7
:102730007ACE089560E081E011CE61E081E00ECEB6
:102740008091700281114DCE0895809170028111A7
:102750006ACE08952F923F924F925F926F927F922E
:102760008F929F92AF92BF92CF92DF92EF92FF92A1
:102770000F931F93CF93DF93CDB7DEB728970FB694
:10278000F894DEBF0FBECDBF382E262E842F2D83AA
:102790003983909174029111ADC07ADC882309F4D9
:1027A000AAC0A1DC239884B1866084B92A982998AC
:1027B000C801AD81B981813F09E4900702E0A0071B
:1027C000B10508F4B1C080EF99E4A2E0B0E09C014B
:1027D000AD012E5C3F4F4F4F5F4F29833A834B83B0
:1027E0005C83CA01B90124E630E040E050E00E9479
:1027F000AA2C49015A0163E472E080E090E0FB01F9
:102800000591149120E030E0AC0102966E5F7F4F9D
:10281000FB01C590D490081519052A053B050CF459
:102820008FC0E12CF12C8C149D04AE04BF040CF479
:1028300087C0FA01EF5CFD4F459154915E834D8353
:102840008F5C9D4FFC01A591B491280139014C1872
:102850005D086E087F08A9019801281939094A09FD
:102860005B090E94E82C69837A838B839C83A50192
:1028700094012C193D094E095F09AD81BE810E946A
:10288000E82C8B019C0189819A81AB81BC81800FEE
:10289000911FA21FB31FB301A201759567955795AC
:1028A00047958C019D01040F151F261F371F0983B3
:1028B0001A832B833C83C901B801A30192010E94B2
:1028C000CC2C309341012093400181E012E0311281
:1028D00080E08093730281E023E0321280E08093F5
:1028E000720281E0821508F080E08093710281E03D
:1028F0008093740281E028960FB6F894DEBF0FBE75
:10290000CDBFDF91CF911F910F91FF90EF90DF909E
:10291000CF90BF90AF909F908F907F906F905F907F
:102920004F903F902F900895843F11E09107A105AB
:10293000B10508F04CCF84EF91E0A0E0B0E047CFC4
:102940008031910509F05BCFC0CF8091740288235C
:1029500031F0AFDB84B1817F84B9109274020895A5
:10296000809174020895809174028111ADCB80E052
:102970000895809174028111B6CB80E00895CF93C1
:10298000DF93C82FD62F80917402811104C080E09C
:10299000DF91CF910895B5DB8823C9F3DD2319F1C9
:1029A0002A9A90E04FEF9C1799F3299820914001C3
:1029B000309141012F3F310509F0B8F4211531055F
:1029C00011F02A95F1F7299A2091400130914101A7
:1029D0002F3F310509F078F42115310511F02A95C2
:1029E000F1F79F5FE0CF2A98DCCF542F5A95F1F78B
:1029F0002F5F3109DFCF542F5A95F1F72F5F31093F
:102A0000E7CF0F931F93CF93DF938C01EB0180915E
:102A10007402811106C080E0DF91CF911F910F9168
:102A200008956FDB8823B9F3F80140E050E09FEF91
:102A300061E04C175D0784F729982A98209140019E
:102A4000309141012F3F310511F008F0AFC0211541
:102A5000310511F02A95F1F7299A20914001309122
:102A600041012F3F310511F008F0A6C021153105B5
:102A700011F02A95F1F7B191A8E070E02B2F2170A9
:102A80007227B6952998222309F49CC02A9A20918E
:102A90004001309141012F3F310511F008F094C001
:102AA0002115310511F02A95F1F7299A209140015D
:102AB000309141012F3F310511F008F08BC02115F5
:102AC000310511F02A95F1F7A150A111D7CF20912E
:102AD0007202211185C020917302222311F12998DD
:102AE000772309F47FC02A9A209140013091410157
:102AF0002F3F310511F008F077C02115310511F095
:102B00002A95F1F7299A20914001309141012F3FF8
:102B1000310511F008F06EC02115310511F02A952C
:102B2000F1F729982A9A20914001309141012F3FD5
:102B3000310511F008F064C02115310511F02A9516
:102B4000F1F7299A20914001309141012F3F310541
:102B500011F008F05BC02115310511F02A95F1F74D
:102B6000209171022223F9F029982A9A209140019C
:102B7000309141012F3F310511F008F04DC0211572
:102B8000310511F02A95F1F7299A209140013091F1
:102B900041012F3F310511F008F044C021153105E6
:102BA00011F02A95F1F74F5F5F4F43CF792F7A9558
:102BB000F1F72F5F310946CF792F7A95F1F72F5F23
:102BC00031094FCF2A9863CF192F1A95F1F72F5F4C
:102BD000310961CF192F1A95F1F72F5F31096ACFAB
:102BE00076277DCF2A9880CF792F7A95F1F72F5FBE
:102BF00031097ECF792F7A95F1F72F5F310987CF91
:102C0000792F7A95F1F72F5F310991CF792F7A9546
:102C1000F1F72F5F31099ACF792F7A95F1F72F5F6E
:102C20003109A8CF792F7A95F1F72F5F3109B1CF0C
:102C30008F929F92AF92BF92CF92DF92EF92FF92CC
:102C40000F931F93CF93DF9300D000D000D0CDB768
:102C5000DEB77C018B0180917402811115C0D12CEB
:102C60008D2D0F900F900F900F900F900F90DF9180
:102C7000CF911F910F91FF90EF90DF90CF90BF9079
:102C8000AF909F908F9008953CDAD82E882339F327
:102C9000ED82FE82E12CF12CCC24CA94E016F106E0
:102CA000FCF60E949F084B015C012998809140012D
:102CB000909141018F3F910509F038F5009711F08F
:102CC0008A95F1F7299A80914001909141018F3FB7
:102CD000910509F000F5009711F08A95F1F783B19D
:102CE00088708823F1F00E949F0869837A838B8320
:102CF0009C83DC01CB0188199909AA09BB09893E8B
:102D00009340A105B10588F2AACF2C2D2A95F1F7A1
:102D10008F5F9109CFCF2C2D2A95F1F78F5F910905
:102D2000D6CF58E040E06FEF2998209140013091D4
:102D300041012F3F310511F008F057C02115310531
:102D400011F02A95F1F7299A209140013091410123
:102D50002F3F310511F008F04EC02115310511F05B
:102D60002A95F1F793B1987021E0911101C020E00C
:102D7000869591118068422751505111D5CFED8130
:102D8000FE818193FE83ED8380917302811139C0AE
:102D900080917202811135C02998809140019091F3
:102DA00041013FEF8F3F910511F008F060C000979F
:102DB00011F08A95F1F7299A209140013091410153
:102DC0009FEF2F3F310511F008F057C02115310555
:102DD00011F02A95F1F71B9B42CF8091710281116E
:102DE00052C0FFEFEF1AFF0A59CF962F9A95F1F7CD
:102DF0002F5F31099ECF962F9A95F1F72F5F3109FA
:102E0000A7CF299880914001909141013FEF8F3FDA
:102E1000910509F000F5009711F08A95F1F7299ACC
:102E200080914001909141013FEF8F3F910509F062
:102E3000C0F4009711F08A95F1F783B183FB8827DE
:102E400080F990917202992311F091E04927481777
:102E500009F4A2CF04CF232F2A95F1F78F5F9109B0
:102E6000D6CF232F2A95F1F78F5F9109DECF232F3D
:102E70002A95F1F78F5F910995CF892F8A95F1F700
:102E80002F5F31099ECF2998209140013091410157
:102E90009FEF2F3F310509F0B8F42115310511F0EE
:102EA0002A95F1F7299A20914001309141019FEF35
:102EB0002F3F310509F070F42115310511F02A95E5
:102EC000F1F71B998ECFCBCE892F8A95F1F72F5F23
:102ED0003109DFCF892F8A95F1F72F5F3109E8CFCC
:102EE0001F93262F2150330BA90121E030E002C0AF
:102EF000220F331F4A95E2F7002491E02A980F939E
:102F000009E00A95F1F70F912A9A00000000A895B0
:102F1000182F122349F02A9809262A9A0F9307E0BE
:102F20000A95F1F70F9107C02A980F9309E00A95C7
:102F3000F1F70F912A9A880F6A9551F700FE09C0A0
:102F40002A9809262A9A0F9306E00A95F1F70F911D
:102F500007C02A980F9309E00A95F1F70F912A9A72
:102F600088271B99FECF0000A8951B9B01C081E01C
:102F70001B9BFECF1F910895FB01002491E028E0E8
:102F800055272A980F9309E00A95F1F70F912A9A8D
:102F900000000000A89587FF09C02A9809262A9AF0
:102FA0000F9307E00A95F1F70F9107C02A980F9346
:102FB00009E00A95F1F70F912A9A880F2A9559F797
:102FC00000FE09C02A9809262A9A0F9306E00A955E
:102FD000F1F70F9107C02A980F9309E00A95F1F7CE
:102FE0000F912A9A1B99FECF0000A8951B9B6AC0DF
:102FF0001B9BFECF2A9A22272395283C80F41B99FD
:10300000FBCF0F930FEF0A95F1F70F912A980F93CB
:1030100009E00A95F1F70F912A9AA89501C052C0CC
:103020001B99FECF002428E088271B9B20C001C0ED
:10303000000C1B99FECF3327000000001B9904C031
:103040003395343020F4F8CF092A8927A8952A959A
:1030500079F71B99FECF0000A8951B9B03C088231E
:1030600031F018C0882319F41B9BFECF13C0539571
:10307000503140F5A8950F930FE10A95F1F70F91A4
:103080002A980F9309E00A95F1F70F912A9AA895CB
:10309000A895C6CF0192A8954A9551F055270F9350
:1030A00002E00A95F1F70F912A98A8952A9AB8CFCD
:1030B0000F9302E00A95F1F70F912A98A8952A9AA2
:1030C00081E001C08827A8950895CF93DF93D09120
:1030D0007502D111E3C040E060E080E00E941D0B6A
:1030E000882309F4DCC02A9A80E18CBD1DBC8FE8DE
:1030F00091E00197F1F700C000000E94990B9FEF4B
:1031000021EE84E0915020408040E1F700C00000B3
:10311000F8942A9A95E59A95F1F700002A9825E502
:103120002A95F1F700002A9A8FEC97E00197F1F7C2
:1031300000C000002A988FEC97E00197F1F700C0DB
:1031400000002A9A8FEC97E00197F1F700C0000089
:103150002A988FEC97E00197F1F700C000002A9AB7
:103160008FEC97E00197F1F700C000002A988FECF0
:1031700097E00197F1F700C000002A9A8FEC97E0E2
:103180000197F1F700C000002A988FEC97E00197B3
:10319000F1F700C000002A9A87EE93E00197F1F75B
:1031A00000C000002A9887EE93E00197F1F700C075
:1031B00000002A9A87EE93E00197F1F700C0000023
:1031C0002A9887EE93E00197F1F700C000002A9A51
:1031D00087EE93E00197F1F700C000002A9887EE90
:1031E00093E00197F1F700C000002A9A87EE93E080
:1031F0000197F1F700C000002A9887EE93E001974D
:10320000F1F700C000002A9A000089ECC3B1C87031
:10321000C11149C01B9B4EC02A9A0000000000004B
:103220000000000000000000000063E082E058DEC3
:10323000882309F43BC068E081E052DE8823B1F1C5
:1032400068E080E04DDE882389F168E08FE748DEA2
:10325000882361F168E080E843DE882339F168E083
:1032600080EA3EDE882311F180E58CBD7894CF5052
:10327000CF31E0F48FE891E00197F1F700C0000052
:103280000E94A50B9FEF21EE84E0915020408040EA
:10329000E1F700C0000081E080937502D1E08D2F3E
:1032A000DF91CF91089581508111B0CF78940E9421
:1032B0004B0BF5CFCF5FC93C09F0ACCFF7CF809176
:1032C0007502882321F00E944B0B1092750208951D
:1032D00080917502089580917502882309F1F89410
:1032E0002A9A80E18CBD1DBC2A9880E88A95F1F766
:1032F0002A9A000000000000000099EC83B1887059
:10330000811110C01B9B15C00000000000000000D0
:1033100090E59CBD789491EF980F81E09F3108F083
:1033200080E0089591509111E9CF789480E58CBDAB
:10333000F7CF8F5F893C31F7F8CFCF93DF93DC0174
:103340009B01BA01809175028823D9F0F8949C9171
:103350009EBDA901FD0191E06115710541F5415046
:1033600051094115510581F4F9013197EA0FFB1F0D
:103370000DB407FEFDCF9EB59083672B09F01DBCF1
:103380007894DF91CF910895C1810DB407FEFDCFF0
:103390009EB5CEBD9193E3CFD1810DB407FEFDCF95
:1033A000CEB5DEBD6417750709F49DBDC1934150CC
:1033B00051094115510581F7D7CFCF932A9A80E162
:1033C0008CBD1DBC88E19BE00FB6F894A895809356
:1033D00060000FBE90936000A8950E942C09F8949D
:1033E00063E080E07DDDC82F7894A8950FB6F8944F
:1033F000A8958091600088618093600010926000C1
:103400000FBE0E94330980E58CBDC11101C063DF8E
:1034100081E0C11101C080E0CF910895DF92EF9269
:10342000FF920F931F93CF93DF93F82E192FEB0189
:10343000D42EE22E6F3F710511F00CF059C02A9A7C
:1034400080E18CBD1DBC88E19BE00FB6F894A89587
:10345000809360000FBE90936000A8950E942C0995
:10346000F89463E081E03CDD882381F168E08C2FF3
:1034700037DD882359F168E08D2D32DD882331F165
:1034800068E08E2D2DDD882309F14C2F6F2D712FD3
:10349000802F72DD8823D1F07894A8950FB6F89428
:1034A000A895809160008861809360001092600010
:1034B0000FBE0E94330980E58CBD81E0DF91CF9182
:1034C0001F910F91FF90EF90DF9008957894A89549
:1034D0000FB6F894A8958091600088618093600091
:1034E000109260000FBE0E94330980E58CBDF3DEB0
:1034F00080E0E4CFDF92EF92FF920F931F93CF9380
:10350000DF93EC017B01D42E122F6F3F710511F078
:103510000CF06EC02A9A80E18CBD1DBC88E19BE056
:103520000FB6F894A895809360000FBE909360004A
:10353000A8950E942C09F89463E082E0D1DC8823EE
:1035400009F444C068E08E2DCBDC882309F43EC02A
:1035500068E08D2DC5DC882309F438C068E0812F30
:10356000BFDC882309F432C068E0802FB9DC8823EF
:1035700069F17894EC0EFD1EEC16FD06C9F4A895D1
:103580000FB6F894A89580916000886180936000E0
:10359000109260000FBE0E94330980E58CBD81E06F
:1035A000DF91CF911F910F91FF90EF90DF900895E1
:1035B000F89418E0115018F478942196DDCF68E063
:1035C00088818EDC8823B1F31111F6CF7894A89509
:1035D0000FB6F894A8958091600088618093600090
:1035E000109260000FBE0E94330980E58CBD73DE2F
:1035F00080E0D6CF8FEF8093D6028FEF9FEF90932E
:10360000D5028093D4021092D3021092D20210926B
:103610008D0210928C0210928B0210928A021092EC
:1036200089021092870210928602109285021092EF
:10363000840210928302109282020895FF920F93E7
:103640001F93CF93DF93182FD92F809189029091E8
:103650008A02C0E0009719F00E94012DC82F812F27
:103660009D2F0E9442096FEF812F9D2F0E94B72A44
:103670006C2F812F9D2F0E94B72ACC2319F100E0D7
:103680002C2F30E0002321F1203131050CF02FE008
:103690002150FF24FA94FC0EF21AE0918902F09175
:1036A0008A02E00FF11D6491812F9D2F0E94B72A9D
:1036B000811104C0C1500F5FFC12EFCF0E94BE0801
:1036C000C1110BC0DF91CF911F910F91FF9092CF4D
:1036D0002E303105ECF22DE0DBCF812F9D2F0E94A3
:1036E0004209CECFE6EDF3E0A281B3818D91B383A1
:1036F000A28326813781A217B30721F42481358163
:10370000338322839FB7F894228533852150310972
:10371000338722879FBF08952FB7F8948091E003E5
:103720009091E1032FBF08950E94B20A21E2E0E0E8
:10373000F0E020935700E491A7E7B2E0EC93E2E0D9
:10374000F0E020935700E4911196EC931197E4E098
:10375000F0E020935700E4911296EC931297E1E089
:10376000F0E020935700249113962C93139714960E
:103770009C93149715968C93159781E016968C93CD
:10378000169782E017968C93179718961C92E6ED81
:10379000F3E02FB7F89482EE93E0918380839383D4
:1037A00082839583848382E294E09783868380E496
:1037B00090E091878087138612862FBF1BCFDF9200
:1037C000EF92FF920F931F93CF93DF9300D000D01F
:1037D00000D0CDB7DEB78D839E8386ED93E09CDF6E
:1037E0002091DE033091DF038217930769F08D810A
:1037F0009E810E944A2B97FF50C086ED93E08CDF9C
:10380000892BA9F10E94BE088091D6028F3F09F052
:1038100075C086ED93E080DF029708F46FC086EDF7
:1038200093E060DF8A3AA9F786ED93E05BDFE82F4B
:10383000F0E0E856F44FE491EF3F09F04AC0E0931E
:103840008D0288E89BE090938A02809389028D81A3
:103850009E810F900F900F900F900F900F90DF911F
:10386000CF911F910F91FF90EF90DF90E7CE809165
:10387000D4029091D502181619060CF4C5CF0F90FA
:103880000F900F900F900F900F90DF91CF911F919D
:103890000F91FF90EF90DF900895E6EDF3E0A081A7
:1038A000B1818C938081918101969183808326815F
:1038B00037818217930721F48481958191838083D6
:1038C0002FB7F894828593850196938782872FBFBF
:1038D00084CF8093D602F0E0F093D502E093D40237
:1038E0001092D3021092D2020E949F086093CE02DF
:1038F0007093CF028093D0029093D102E090D402D3
:10390000F090D5021E141F0444F48091D2029091CD
:10391000D3028E159F050CF471C03091D6023F3F43
:1039200009F4ADCF4091D2025091D3028091D402DC
:103930009091D5024817590709F0A1CF303809F402
:1039400026C508F0E0C1323409F46EC308F04CC15A
:10395000303209F4FEC208F022C1383009F4C7C27F
:1039600008F08CC0323009F4B4C208F07AC03111CA
:10397000A2C280918D0287FD6ACF8D819E810E94B7
:10398000420960EF8D819E810E94B72A10E020914C
:103990008D022111BFC700E010E080918B02909151
:1039A0008C02009709F0E8C70F900F900F900F90CE
:1039B0000F900F90DF91CF911F910F91FF90EF909B
:1039C000DF9018CEC80101969093D3028093D20263
:1039D00086ED93E087DEF801E952FD4F8083DD2418
:1039E000D39486ED93E098DE0091D2021091D30239
:1039F000892B31F00E151F052CF38FCFD12CF1CF71
:103A00000E151F050CF089CFDD2051F00E949F0894
:103A10006093CE027093CF028093D0029093D10234
:103A20000E949F0869837A838B839C838091CE0256
:103A30009091CF02A091D002B091D102E980FA809A
:103A40000B811C81E81AF90A0A0B1B0BD801C7016C
:103A5000893C9105A105B10508F45FCF8EE59BE097
:103A6000F2CE353009F485CF8FEF80938D0285E556
:103A700092E090938A02809389027BCF393009F4D7
:103A80004BC23D3089F70E94B41281115AC2809115
:103A9000D702883609F055C28091D802853409F0E2
:103AA00050C28091D9028C3409F04BC28091DA0265
:103AB0008C3409F046C23091DB023F3609F041C236
:103AC0009091DC029A3009F03CC28AE480938E0225
:103AD00088E780938F024DE44093900281E68093C3
:103AE00091028BE68093920225E62093930280E276
:103AF0008093940255E55093950253E550939602B6
:103B000052E4509397025DE25093980257E4509329
:103B1000990250E550939A0259E450939B025FE456
:103B200050939C0280939D0240939E0230939F028B
:103B300034E63093A00235E73093A1023CE630939F
:103B4000A2022093A3029093A402909177029093F3
:103B5000A502909178029093A60290917902909399
:103B6000A70290917A029093A80290917B02909381
:103B7000A90290917C029093AA0290917D02909369
:103B8000AB0290917E029093AC0290917F02909351
:103B9000AD0280938D0281E080937602EACE3432CA
:103BA00009F4EFC168F4323209F4DCC1333209F4AC
:103BB000E1C16091D8028091D7020E94BC09D9CEA0
:103BC000303409F4EDC1313409F04ECF0E94960B28
:103BD000811127C28FEF80938D0283E79AE0909343
:103BE0008A0280938902C5CE3C3409F426C308F0CA
:103BF0005BC0363409F4A8C2A0F4343409F422C2FC
:103C0000353409F48BC20E94A50B8111B2CE8FEF1F
:103C100080938D0285E39AE090938A0280938902D3
:103C2000A8CE3A3418F5373409F41ECF0E94960B0B
:103C3000882381F26091D70267FFAAC2862F827023
:103C400061709091D602993409F094C20E94EC0CF4
:103C500087FF06C02BE839E030938A02209389025F
:103C600080938E0281E080938D0283CE3A3409F0F6
:103C7000FBCE209187022111C1C22091D9022223BB
:103C800049F0822F90E0880F991F8F3F910509F02E
:103C90000CF497C28FEF80938D0287E399E09093A5
:103CA0008A028093890265CE313609F40CC3A8F4E8
:103CB000303509F4F2C1303609F0D6CE0E94BF0F7C
:103CC000882309F4D5C28FEF80938D028AEE98E0A5
:103CD00090938A02809389024CCE343608F404C350
:103CE0008CE9830F823008F0BFCE4091D802411199
:103CF0002BC38FEF80938D0281E898E090938A0226
:103D00008093890236CE313B09F49EC408F076C018
:103D1000323A09F4F1C378F5363809F48CC3B8F4B3
:103D2000343809F470C3353809F479C3313809F0EF
:103D30009BCE0E94B41281115DC38FEF80938D02E0
:103D400086E997E090938A028093890212CE303AF6
:103D500009F48CC3313A09F087CE0E94B412811164
:103D6000BCC38FEF80938D028EEC96E090938A0215
:103D700080938902FECD353A09F4FCC358F5333AF5
:103D800009F0EDC3A5DA8111BBC30E94960B811126
:103D9000B7C30E94611081110FC0809188020E94F8
:103DA0004810811109C08FEF80938D0281E296E067
:103DB00090938A02809389020E9473108111D9CD59
:103DC0008FEF80938D0280E096E090938A0280933B
:103DD0008902CFCD363A09F4D8C3303B09F044CE3E
:103DE00077DA882309F4EDC38FEF80938D0287EC97
:103DF00095E090938A0280938902BBCD313D09F40E
:103E0000CEC468F5353B09F454C4A0F4333B09F43F
:103E10002CC4343B09F437C40E94B3148111A9CDDA
:103E20008FEF80938D028FE195E090938A028093CB
:103E300089029FCD363B09F45FC4303D09F014CEB2
:103E40000E946110882309F480C48FEF80938D0253
:103E500082E294E090938A02809389028ACD343D75
:103E600009F4EFC480F4323D09F0AAC434DA8111B8
:103E700080CD8FEF80938D028EE793E090938A023E
:103E80008093890276CD353D09F4E9C4363D09F0C9
:103E9000EBCD60918702611126C58091D702811117
:103EA00013C58FEF80938D0281EA92E090938A028E
:103EB000809389025ECD81E080938E0282E08093C0
:103EC0008F02109290021092910284E080938D02F2
:103ED00050CD81E080938E0210928F028AE0809311
:103EE00090021092910284E080938D0242CD0E9454
:103EF0009F0869837A838B839C83DC01CB01865086
:103F00009F4FAF4FBF4F80934C0190934D01A093B3
:103F10004E01B0934F012DCD0E949F0869837A8393
:103F20008B839C83DC01CB0186509F4FAF4FBF4FEB
:103F30008093480190934901A0934A01B0934B01AB
:103F400018CD8FEF80938D0210928A021092890211
:103F500010CD4091D9026091D8028091D7020E9481
:103F6000640907CD0E940C0A80938E0281E0809341
:103F70008D02FFCC6091D8028091D7020E944E0A38
:103F8000F8CC8091D7020E947D0A9827892798272C
:103F900090938F0280938E0282E080938D02E9CC11
:103FA0000E946110882351F08FEF80938D0287EF7C
:103FB0009AE090938A0280938902DBCC89D9882386
:103FC00051F08FEF80938D028FEB9AE090938A02ED
:103FD00080938902CECC0E94960B882351F08FEFFC
:103FE00080938D0285EA9AE090938A0280938902F9
:103FF000C0CC8091D702482F4F7084FB662760F9B0
:104000008295869583700E941D0B8111B2CC8FEF33
:1040100080938D0289E89AE090938A0280938902C6
:10402000A8CC0E944B0BA5CC0E94990B8111A1CC6E
:104030008FEF80938D0285E59AE090938A028093BA
:10404000890297CC6091870261110EC08091D702DE
:10405000811160C18FEF80938D028EEF99E0909374
:104060008A028093890285CC70E087ED92E00E94FD
:10407000B10B81110AC08FEF80938D0287EE99E01A
:1040800090938A028093890274CC8091870290E099
:1040900090938C0280938B026CCC809187029091DC
:1040A0008602892B811118C08091D70280938402E7
:1040B0008091D802809387029091D90290938302D5
:1040C0009091DA02909386029091DB0290938202A3
:1040D000882311F090E07FC06091870220918602D2
:1040E000862F822B882309F444CC30E070E0E7ED82
:1040F000EE2EE2E0FE2E009182024091830280913A
:1041000084020E946F0C882309F4B5CF8091860247
:1041100090E090938C0280938B022BCC0E94960BA4
:10412000882309F457CD8091D7028F770E94600BC6
:1041300081111FCC8FEF80938D0284EC99E09093D6
:104140008A028093890215CC0E94960B882309F479
:1041500041CD8091D70283700E946F0B811109CCF1
:104160008FEF80938D0286EA99E090938A02809384
:104170008902FFCB0E94CC0C8111FBCB8FEF809387
:104180008D028BE899E090938A0280938902F1CBAB
:104190000E94F60C81110AC08FEF80938D028EE68B
:1041A00099E090938A0280938902E3CB8091D602B2
:1041B000893409F0DECB10928E0281E080938D026B
:1041C000D8CB3091D702309381023091D80230930E
:1041D0008002209387029093D5028093D40210929C
:1041E000D3021092D2020E949F086093CE02709375
:1041F000CF028093D0029093D10241CB30E047EDC3
:1042000052E060918002809181020E94120D811122
:104210000AC08FEF80938D028DE199E090938A021E
:1042200080938902A6CB8091870290E0880F991F26
:1042300090938C0280938B029CCB0E94960B8823D8
:1042400009F4C8CC8091D7020E94630E87FF0AC090
:104250008FEF80938D0284E099E090938A0280939F
:10426000890287CB80938E0281E080938D0281CB7F
:104270004091DA02242F217042954F703091D7027D
:104280008091D80290E0A0E0B0E0BA2FA92F982F3B
:104290008827A32B3091D9027C018D01E32AE98282
:1042A000FA820B831C83C801B7010E94BC0E8111E6
:1042B00060CB8FEF80938D028EEC98E090938A0212
:1042C0008093890256CB0E94BF0F81110AC08FEFE5
:1042D00080938D0288EB98E090938A028093890204
:1042E00048CB0E94AD0F45CB40918702411115C0CC
:1042F0008091D80281110AC08FEF80938D0281E8EE
:1043000098E090938A028093890233CB9091D702F0
:104310009093850280938702DDCE21E0333609F445
:1043200020E050E067ED72E0809185020E94C20FAC
:1043300081111FCB8FEF80938D028DE698E09093D3
:104340008A028093890215CB8091D70280938502DF
:104350004093870221E0353609F420E050E067ED14
:1043600072E00E94021081110AC08FEF80938D02CB
:104370008AE598E090938A0280938902FACA809134
:10438000870290E090938C0280938B02F2CA0E9485
:10439000B412882399F00E94B7128FEF80938D0298
:1043A0000E94B712882339F081E298E090938A0244
:1043B00080938902DECA86E098E0F8CF81E045D399
:1043C00081110AC08FEF80938D028AEC97E0909361
:1043D0008A0280938902CDCA0E948D138111C9CAB5
:1043E0008FEF80938D028DEA97E090938A028093FD
:1043F0008902BFCA0E94B71281119FCC0E949013FC
:1044000081E03ED3B6CA0E94B412882309F495CC49
:104410000E94B712811191CC0E944213AACA0E9435
:10442000B412882309F489CC0E94B712811185CC7B
:104430000E9460139ECA0E94B412882309F47DCCA6
:104440000E94B712811179CCACD381110AC08FEFD1
:1044500080938D0286E597E090938A02809389028B
:1044600088CA8091D7020E94831383CA0E94B41223
:10447000882399F00E94B7128FEF80938D020E94DB
:10448000B712811107C08DE197E090938A02809363
:1044900089026FCA82E097E0F8CF82E0D6D2882303
:1044A00009F490CF8091D702182F117087FF12C0A6
:1044B0000E949D1391E08927882349F08FEF809314
:1044C0008D0285EE96E090938A0280938902109384
:1044D00088024FCA0E949A13EDCF0E94B712882318
:1044E00009F43FCC0E94611081110E9459100E9472
:1044F000A01382E0C5D23DCA0E946819882351F0FA
:104500008FEF80938D028AE596E090938A028093E4
:1045100089022FCA0E94960B8111F2CF0E9461106E
:1045200081110FC0809188020E944810811109C03A
:104530008FEF80938D0281E296E090938A028093C0
:1045400089020E946410811114CA8FEF80938D023A
:1045500080E096E090938A02809389020ACA0E94C2
:10456000B412882309F4FDCB0E94B712882309F402
:10457000F8CB52CF0E94B412882309F4F2CB0E94E8
:10458000B712882309F4EDCB53CF0E94B4128823CD
:1045900009F4E7CB0E94B712882309F4E2CB01D3D8
:1045A00081110AC08FEF80938D0286E597E090938A
:1045B0008A0280938902DDC98091D7020E94831309
:1045C000D8C90E94960B882351F08FEF80938D02FB
:1045D0008FE895E090938A0280938902CAC90E946D
:1045E000B014882351F08FEF80938D0284E795E01B
:1045F00090938A0280938902BCC98091DA029091DB
:10460000D7020091D80210E020E030E0322F212FB5
:10461000102F0027292B9091D902092B482F417088
:1046200083FB662760F96F5F829583700E94AA13EF
:1046300081119FC98FEF80938D0287E595E090935C
:104640008A028093890295C90E94B01481110AC020
:104650008FEF80938D0280E495E090938A0280939F
:10466000890287C90E94A51484C90E94B9148111C6
:1046700080C98FEF80938D028FE195E090938A023D
:104680008093890276C961E08091D802811101C0CE
:1046900060E08091D7020E94BF1481116AC98FEF38
:1046A00080938D0281EF94E090938A028093890237
:1046B00060C96091870261110EC08091D70281119B
:1046C00029CE8FEF80938D0289EB94E090938A023C
:1046D000809389024EC970E087ED92E00E94011537
:1046E000811147C98FEF80938D0281EA94E0909306
:1046F0008A02809389023DC96091D70261110AC084
:104700008FEF80938D0289EB94E090938A028093DF
:1047100089022FC96093870270E087ED92E00E94C2
:10472000181681110AC08FEF80938D028AE894E0F9
:1047300090938A02809389021CC98091870290E03D
:1047400090938C0280938B0214C90E94960B88234D
:1047500051F08FEF80938D028AEE93E090938A025E
:104760008093890206C90E946819882351F08FEF4F
:1047700080938D028FEC93E090938A02809389025C
:10478000F8C80E9465188111F4C88FEF80938D02DC
:1047900082EB93E090938A0280938902EAC80E9498
:1047A000681981110AC08FEF80938D028BE993E025
:1047B00090938A0280938902DCC80E945F19D9C84D
:1047C00060918702611121C08091D70281110AC0D6
:1047D0008FEF80938D0287E493E090938A02809319
:1047E0008902C7C89091D802981750F08FEF809334
:1047F0008D028DE093E090938A0280938902B9C87C
:10480000809387029093860265CC4091860250E0A7
:1048100070E087ED92E00E949D1981110AC08FEF30
:1048200080938D0285EF92E090938A0280938902B3
:10483000A0C88091870290E090938C0280938B02B5
:1048400098C80E94DD19811194C88FEF80938D0262
:1048500089ED92E090938A02809389028AC86091E0
:10486000D70261110AC08FEF80938D0281EA92E036
:1048700090938A02809389027CC86093870240915A
:10488000D802409384022091D902209383020091A0
:10489000DA020093820270E087ED92E00E940E1A25
:1048A00081110AC08FEF80938D0285E892E090938A
:1048B0008A02809389025DC88091870290E090937C
:1048C0008C0280938B0255C8809387029091D80206
:1048D000909384029091D902909383029091DA028E
:1048E00090938202F7CB70E00091820220918302C4
:1048F0004091840287ED92E00E947A1A811139C8B2
:104900008FEF80938D0289E692E090938A028093E4
:1049100089022FC8022E000C330B112341F12031E4
:1049200031050CF02FE0215001E0010F020FE12FC3
:10493000012E000CFF0BE257FD4F60818D819E819F
:1049400016D6811108C080918D02815080938D020E
:104950001F5F0113ECCF0E94BE0880918D02882357
:1049600009F415C88D819E810E94420910C82F301C
:104970003105CCF22EE0D7CF2EE00115110509F05C
:104980002FE030E0281739070CF4C901F82EF00E9B
:10499000F01649F0F801E952FD4F60818D819E814A
:1049A000E6D5882381F00E94BE0880918B02909109
:1049B0008C02892B11F40C94CD1C8D819E810E9458
:1049C00042090C94CD1C80918B0290918C0201972E
:1049D00090938C0280938B020F5F1F4FD9CFFC0105
:1049E0002FB7F894828593852FBF0895FC01A2818B
:1049F000B3818D91B383A28326813781A217B30738
:104A000021F424813581338322839FB7F894228552
:104A1000338521503109338722879FBF08959B0139
:104A2000FC018FB7F894718360837383628375830D
:104A3000648320583F4F3783268320E830E0318756
:104A40002087138612868FBF0895CF930E94C208D5
:104A5000C82F882391F040E850E068ED71E08EE2C5
:104A600094E0DDDF40E850E068E571E082E294E048
:104A7000D6DF82E294E00E94A6128C2FCF91089597
:104A8000CF93C82F0E94AB12882341F080E090E0C2
:104A90000E94A6128C2FCF910C94D508CF91089527
:104AA0000F931F93CF938C010E94AB12811109C009
:104AB000C801C8D5892B09F060C0CF911F910F9113
:104AC00008950E94B412882399F38EE294E087DF60
:104AD000209136043091370482179307F9F0C8010A
:104AE000D9D597FD1BC0EEE2F4E0A081B1818C9393
:104AF00080819181019691838083268137818217FD
:104B0000930721F484819581918380832FB7F89452
:104B1000828593850196938782872FBF82E294E0F6
:104B20005EDFC82FF80181818F708093E900CC236C
:104B3000B1F08091E80080FF12C0C03108F0CFE0F2
:104B4000C150E0912404F09125046081C8010FD583
:104B5000811105C082E294E049DFC15090F78EE2F6
:104B600094E03DDF892B09F4A8CF8EE294E03EDF8C
:104B70000E94CC120E94BE08F2CFC8018BD597FFCD
:104B8000FCCF80917602882309F497CF49E050E06A
:104B900067E772E0C801CDD4C80110D51092760243
:104BA0008CCF8EE294E01BDF9C0181E0232B09F087
:104BB00080E00895AF92BF92CF92DF92FF920F9361
:104BC0001F93CF93DF936C01EB018A0186D1F82EFE
:104BD000811123C00115110539F0F80180819181FF
:104BE000C81BD90BC80ED91EA12CB12C2097A9F037
:104BF0008091E80085FD21C08091E8008E77809348
:104C0000E80001151105A1F0F801808191818A0D5C
:104C10009B1D9183808385E0F82E8F2DDF91CF91AE
:104C20001F910F91FF90DF90CF90BF90AF900895AC
:104C300054D18823E9F2F82EF0CFF60181916F016B
:104C40008093F1002197FFEFAF1ABF0ACFCFFC018D
:104C50009B0180914304909144048617970718F0B4
:104C6000672B61F0C90140E0009771F441110CC05D
:104C70008091E80082FF35C080E008958091E800CF
:104C80008E778093E800EECF20913C042223A9F197
:104C90002530A9F12091E80023FD2DC02091E800E6
:104CA00022FDE6CF2091E80020FFDECF3091F30017
:104CB0002091F200009719F02830310558F041E0BA
:104CC0002830310509F040E02091E8002E7720934C
:104CD000E800CACF41914093F10001972F5F3F4F09
:104CE000E9CF80913C04882341F0853041F08091E8
:104CF000E80083FFBDCF81E0089582E0089583E05E
:104D00000895FC019B01809143049091440486170F
:104D1000970718F0672B61F0C90140E0009771F424
:104D200041110CC08091E80082FF36C080E00895F8
:104D30008091E8008E778093E800EECF20913C04CC
:104D40002223B1F12530B1F12091E80023FD2EC0DE
:104D50002091E80022FDE6CF2091E80020FFDECF81
:104D60003091F3002091F200009719F028303105BE
:104D700058F041E02830310509F040E02091E8008A
:104D80002E772093E800CACF44914093F1003196EA
:104D900001972F5F3F4FE8CF80913C04882341F07B
:104DA000853041F08091E80083FFBCCF81E0089519
:104DB00082E0089583E00895982F973028F08F704F
:104DC0008093E90081E008959093E900242F762FE5
:104DD00050E0981731F07091EC002091ED00509167
:104DE000F00021FD02C09F5FE8CF3091EB003E7FD5
:104DF0003093EB003091ED003D7F3093ED0030912A
:104E0000EB0031603093EB007093EC002093ED00E9
:104E10005093F0002091EE0027FDE5CF80E008954B
:104E20000F931F93CF93DF93162FEC0100E0011334
:104E300002C081E00FC09881911103C00F5F2596D9
:104E4000F6CF3C81E981FA812B81892F8F708730E1
:104E500030F080E0DF91CF911F910F9108953230B3
:104E6000B8F036E068E070E040E06E177F0790F041
:104E70004295407F432B692F661F6627661F90E48B
:104E8000299F90011124622B97DF8111D7CFE1CFA9
:104E900032E0E8CF4F5F660F771FE7CF80913D0488
:104EA00087FF13C08091E80082FF06C08091E80070
:104EB0008B778093E80004C080913C048111F2CF8D
:104EC000089580913C048823D9F38091E80080FF05
:104ED000F8CF8091E8008E77ECCF2091E4003091FC
:104EE000E50095E6A9018091EC008170882331F0FE
:104EF0008091E80080FF06C080E008952091E800DE
:104F000022FD1BC080913C04882391F0853091F0F4
:104F10008091EB0085FD10C02091E4003091E50008
:104F20004217530701F391509111DCCF84E00895AB
:104F300082E0089583E0089581E0089565D06CD003
:104F4000E0EEF0E0808181608083E8EDF0E0808138
:104F50008F77808319BCA7EDB0E08C918E7F8C9306
:104F600080818F7E80831092450408950F931F9354
:104F7000CF93DF9349D050D0C8EDD0E088818F77B0
:104F8000888388818068888388818F7D888319BC25
:104F900010923C0410923B0410923A0400EE10E090
:104FA000F80180818B7F808388818160888342E0E3
:104FB00060E080E001DFE1EEF0E080818E7F8083C1
:104FC000E2EEF0E080818160808380818860808370
:104FD000F80180818E7F8083888180618883DF9162
:104FE000CF911F910F910895E8EDF0E080818F7EC1
:104FF0008083E7EDF0E080818160808384E082BF80
:1050000081E080934504B2CFE8EDF0E080818E7FAF
:1050100080831092E20008951092DA001092E1006D
:1050200008951F920F920FB60F9211242F933F9362
:105030004F935F936F937F938F939F93AF93BF93A0
:10504000EF93FF938091E10082FF0AC08091E2001C
:1050500082FF06C08091E1008B7F8093E10043D204
:105060008091DA0080FF19C08091D80080FF15C0C0
:105070008091DA008E7F8093DA008091D90080FFE2
:1050800090C080E189BD82E189BD09B400FEFDCFF9
:1050900081E080933C040E940C078091E10080FF36
:1050A00018C08091E20080FF14C08091E2008E7FE2
:1050B0008093E2008091E20080618093E200809121
:1050C000D80080628093D80019BC85E080933C04AE
:1050D0000AD28091E10084FF28C08091E20084FF21
:1050E00024C080E189BD82E189BD09B400FEFDCF05
:1050F0008091D8008F7D8093D8008091E1008F7ED1
:105100008093E1008091E2008F7E8093E2008091A5
:10511000E20081608093E20080913B04882309F4DF
:1051200046C084E080933C04DED18091E10083FF9F
:1051300027C08091E20083FF23C08091E100877F38
:105140008093E10082E080933C0410923B048091C4
:10515000E1008E7F8093E1008091E2008E7F80935A
:10516000E2008091E20080618093E20042E060E032
:1051700080E022DE8091F00088608093F000B3D15F
:10518000FF91EF91BF91AF919F918F917F916F911F
:105190005F914F913F912F910F900FBE0F901F90F5
:1051A000189519BC10923C040E940D0776CF80918F
:1051B000E30087FF02C083E0B5CF81E0B3CF1F9249
:1051C0000F920FB60F921124FF920F931F932F93FC
:1051D0003F934F935F936F937F938F939F93AF937F
:1051E000BF93CF93DF93EF93FF9309EE10E0F801A5
:1051F0008081C091EC00C795CC27C7958F70FC2E9D
:10520000F82A1082C0EFD0E08881877F8883789465
:105210001ED0F8011082888188608883CF2DCF70DE
:10522000C083FF91EF91DF91CF91BF91AF919F919B
:105230008F917F916F915F914F913F912F911F912E
:105240000F91FF900F900FBE0F901F9018951F9316
:10525000CF93DF93CDB7DEB7AA970FB6F894DEBF32
:105260000FBECDBF8DE394E0FC0101962091F100CB
:10527000208324E085349207B9F70E9416078091B5
:10528000E80083FF10C080913D0490913E0495306A
:1052900009F4C4C000F5292F2D7F213009F484C002
:1052A000992309F45DC08091E80083FF0AC08091D2
:1052B000E800877F8093E8008091EB008062809314
:1052C000EB00AA960FB6F894DEBF0FBECDBFDF91FC
:1052D000CF911F910895983009F4D9C0993009F4FD
:1052E000E3C0963001F780588230E8F680913F04A1
:1052F000909140048C3D53E0950709F0B2C083E0E3
:105300008A838AE289834FB7F894DE01139620E0FE
:105310003EE051E2E32FF0E050935700849120FFEC
:1053200003C082958F703F5F8F708A3008F497C0FA
:10533000895C90E08D939D932F5F243159F74FBF87
:105340008091E800877F8093E8006AE270E0CE01F8
:1053500001967DDC8091E8008B778093E800A3CFF5
:10536000803899F0823809F09ECF809141048F7087
:10537000873008F098CF8093E9008091EB0085FB9F
:10538000882780F91092E90002C080913A04909138
:10539000E800977F9093E8008093F1001092F1006D
:1053A0008091E8008E7721C0823009F07CCF809117
:1053B0003F04811115C0809141048F702FEF280F99
:1053C000263008F070CF8093E9002091EB0020FF99
:1053D00007C0933071F48091EB0080628093EB0002
:1053E0001092E9008091E800877F8093E80056DD05
:1053F0005ACF9091EB0090619093EB0021E030E068
:10540000A90102C0440F551F8A95E2F74093EA00B4
:105410001092EA008091EB008860E0CF811143CFC9
:1054200010913F041F778091E3008078812B809357
:10543000E3008091E800877F8093E8002FDD809172
:10544000E80080FFFCCF8091E30080688093E30058
:1054500083E0111101C082E080933C0424CF805D81
:1054600068CF6091410470914204AE014F5F5F4F7D
:105470000E94EB07BC01892B09F415CF8091E8004D
:10548000877F8093E80089819A813BDC63CF8038F5
:1054900009F009CF8091E800877F8093E800809130
:1054A0003B048093F1007CCF8111FDCE90913F04AD
:1054B000923008F0F8CE8091E800877F8093E80072
:1054C00090933B04EBDC80913B04882331F084E033
:1054D00080933C040E940E07E6CE8091E30087FD96
:1054E000F6CF81E0F5CF0895CF93DF93EC01FC0177
:1054F00070968BE0DF011D928A95E9F782E08C833C
:10550000898783E08E8761E0CE01019689DC88235C
:1055100061F061E0CE01069683DC882331F061E022
:10552000CE010B96DF91CF917BCC80E0DF91CF91C4
:1055300008950F931F93FC01CB01BA0120913C0405
:10554000243089F40489158926893789012B022B97
:10555000032B49F021812F702093E90040E050E0B7
:105560001F910F9127CB82E01F910F910895CF9348
:10557000FC01C62F80913C048430F1F48489958924
:10558000A689B789892B8A2B8B2BB1F081818F70EB
:105590008093E9008091E80085FF05C0C093F10089
:1055A00080E0CF9108958091E8008E778093E800A5
:1055B00094DC882399F3F5CF82E0F3CFFC0180914E
:1055C0003C04843029F584899589A689B789892B7B
:1055D0008A2B8B2BE9F081818F708093E900909169
:1055E000F3008091F200892B89F09091E80080917E
:1055F000E8008E778093E80095FD08C06EDC81118D
:1056000008C08091E8008E778093E80080E00895DC
:1056100082E00895FC0180913C04843091F48489F7
:105620009589A689B789892B8A2B8B2B51F081818B
:105630008F708093E9008091E80080FF02C0CF0165
:10564000BDCF0895FC0180913C048430D9F4848955
:105650009589A689B789892B8A2B8B2B99F086810E
:105660008F708093E9008091E80082FF0BC09091D9
:10567000F3008091F200892B41F48091E8008B7750
:105680008093E80080E090E008959091F30080918D
:10569000F2000895FC0180913C04843019F08FEFF2
:1056A0009FEF089584899589A689B789892B8A2BCC
:1056B0008B2BA9F386818F708093E9008091E8009D
:1056C00082FFEDCF9091F3008091F200892B79F069
:1056D0008091F10090E03091F3002091F200232BB3
:1056E00029F42091E8002B772093E80008958FEFAC
:1056F0009FEFF1CFCF93DF93EC018091E80083FF20
:1057000014C0888190E02091410430914204281710
:10571000390759F480913E04823209F484C040F480
:10572000803209F44DC08132B1F0DF91CF910895FC
:105730008332D9F780913D048132B9F78091E80036
:10574000877F8093E800AADB60913F04CE01DF9160
:10575000CF910C941E0780913D04813A31F78091DE
:10576000E800877F8093E8008091E80080FFFCCF0D
:105770008C899D89AE89BF898093F100492F5A2F6A
:105780006B2F77274093F100AD0166277727409371
:10579000F1008B2F9927AA27BB278093F100888DD2
:1057A0008093F100898D8093F1008A8D8093F100C0
:1057B0008091E8008E778093E800DF91CF916ECBE7
:1057C00080913D04813209F0B0CF8091E800877F5D
:1057D0008093E8008091E80082FF20C03091F100C2
:1057E0002091F1009091F1008091F1003C8B2D8B84
:1057F0009E8B8F8B8091F100888F8091F100898F33
:105800008091F1008A8F8091E8008B778093E80087
:1058100045DBCE01DF91CF910C94320780913C049F
:105820008111D8CF82CF80913D04813209F07DCFA4
:105830008091E800877F8093E80030DB80913F040F
:1058400090914004998B888BCE01DF91CF910C947D
:10585000310794EA9093BC0094E6699FB00111244B
:105860009B012115310521F417C094EA9093BC00E7
:105870009091BC0097FF1AC09091B900987F903129
:1058800021F0983391F3983061F495E39A95F1F70C
:1058900000002130310571F584E08093BC0082E086
:1058A000089584E08093BC0081E0089595E39A9583
:1058B000F1F7000021503109D4CF8091BC0087FD61
:1058C00012C085E38A95F1F70000615071096115F6
:1058D000710599F783E00895803451F084E980934D
:1058E000BC0084E008958091B900887F8831A1F7D9
:1058F00080E008958093BB0084E88093BC00E7CFEC
:105900008093BB0084E88093BC008091BC0087FF3B
:10591000FCCF9091B900987F81E0983209F080E047
:105920000895FC0184EC611184E88093BC008091AF
:10593000BC0087FFFCCF8091BB0080839091B900B1
:10594000987F81E0662321F0983509F080E0089582
:105950009035FBCFA1E21A2EAA1BBB1BFD010DC087
:10596000AA1FBB1FEE1FFF1FA217B307E407F5070F
:1059700020F0A21BB30BE40BF50B661F771F881FEB
:10598000991F1A9469F760957095809590959B0181
:10599000AC01BD01CF010895052E97FB16F40094CC
:1059A0000FD057FD05D0D6DF07FC02D046F408C063
:1059B00050954095309521953F4F4F4F5F4F08953B
:1059C00090958095709561957F4F8F4F9F4F08956B
:1059D00009D0A59F900DB49F900DA49F800D911D9F
:1059E00011240895A29FB001B39FC001A39F700D21
:1059F000811D1124911DB29F700D811D1124911DD7
:105A00000895FC0105900020E9F7809590958E0F90
:085A10009F1F0895F894FFCFD9
:105A18000284100000010510000001860800000142
:105A280000000000000000000000000081100000DD
:105A380001021000000183080000010000000000BE
:105A48000000000000000A0600C2010000C20100B8
:085A58000100010410400000F0
:00000001FF
