:10000000D5C400000C94FB0907C5000005C500001D
:1000100003C5000001C50000FFC40000FDC40000CE
:10002000FBC40000F9C40000F7C40000F5C40000E0
:10003000F3C40000F1C40000EFC40000EDC40000F0
:10004000EBC40000E9C400000C94D809E5C400002A
:10005000E3C40000E1C40000DFC40000DDC4000010
:10006000DBC40000D9C40000D7C40000D5C4000020
:10007000D3C40000D1C40000CFC40000CDC4000030
:10008000CBC40000C9C40000C7C400002E2E2E201F
:1000900075706469426567696E2829202D20757323
:1000A000696E67204856206D6F646520285365741B
:1000B000203D2025733B2052656164203D2025733F
:1000C000290A002E2E2E2075706469426567696EBC
:1000D0002829202D207573696E67204C56206D6F7E
:1000E00064650A003E3E3E20526573657420736964
:1000F000676E616C2F74726967676572202D20626C
:100100006567696E203A2048562028536574203D63
:100110002025733B2052656164203D202573290A08
:10012000003E3E3E205265736574207369676E61C0
:100130006C2F74726967676572202D20626567692C
:100140006E203A204C560A0056426F6F7374202876
:10015000436865636B290056426F6F7374202853A0
:1001600065742020290056426F6F737420285072E6
:1001700065762029004368616E67696E6720746840
:1001800065206F757470757420766F6C7461676527
:10019000206F662074686520426F6F737420436F10
:1001A0006E766572746572204D6F64756C6520742F
:1001B0006F205B25735D202E2E2E002E2E2E207597
:1001C000706469426567696E2829202D20646F6E0E
:1001D00065205B55504449206B65792074696D65D5
:1001E000203D207E3D20256C756D533B2066756E4D
:1001F0006374696F6E20657865637574696F6E20CE
:1002000074696D65207E3D20256C756D535D002EF3
:100210002E2E2075706469426567696E2829202D2D
:1002200020656E61626C696E6720555044492D549B
:1002300049434B202876696120494E543029206279
:10024000792073746F72696E672074686520696EB7
:100250006974616C20746865207469636B207661D1
:100260006C7565002E2E2E20757064694265676975
:100270006E2829202D2064697361626C696E672085
:10028000555044492D53454E53452028494E54302E
:10029000292070756C6C2D7570002E2E2E207570B7
:1002A0006469426567696E2829202D20636F6E6E30
:1002B000656374696E672074686520757073747205
:1002C00065616D2055504449207369676E616C20EB
:1002D00066726F6D207468652070726F6772616DF1
:1002E0006D6572002E2E2E207570646942656769F7
:1002F0006E2829202D20656E61626C696E6720561C
:10030000646420616E642073656E64696E67205555
:10031000504449206B6579002E2E2E20757064693B
:10032000426567696E2829202D20656E61626C69BF
:100330006E67205664642C2073656E64696E672056
:1003400048562070756C73652C20616E642073654F
:100350006E64696E672055504449206B6579002EA4
:100360002E2E2075706469426567696E2829202DDC
:10037000207573696E67205B25535D004B45595F9F
:100380004E564D50524F47004B45595F43484950D8
:100390005F4552415345003E3E3E205265736574B1
:1003A000207369676E616C2F74726967676572206C
:1003B0002D20656E64203A2070756C736528732952
:1003C000203D2025750A002E2E2E2075706469456B
:1003D0006E642829202D20646F6E65205B746F7415
:1003E000616C2066756E6374696F6E2065786563F5
:1003F0007574696F6E2074696D65207E3D20256C73
:10040000756D535D002E2E2E2075706469456E64E7
:100410002829202D2070617573696E67206D6F6DBE
:10042000656E746172696C7920746F20656E737586
:100430007265207468652055504449206C696E656A
:10044000207265616368657320616E2069646C6504
:10045000207374617465002E2E2E207570646945BA
:100460006E642829202D2064697361626C696E674F
:1004700020566464002E2E2E2075706469456E64CB
:100480002829202D20646973636F6E6E656374691B
:100490006E672074686520757073747265616D2075
:1004A00055504449207369676E616C2066726F6DA8
:1004B000207468652070726F6772616D6D6572007F
:1004C0002E2E2E2075706469456E642829202D20FB
:1004D000656E61626C696E6720555044492D5345C5
:1004E0004E53452028494E5430292070756C6C2D90
:1004F0007570002E2E2E2075706469456E64282953
:10050000202D2064697361626C696E6720555044C8
:10051000492D5449434B202876696120494E543077
:100520002920627920636C656172696E6720746846
:1005300065207469636B2076616C75650057617422
:100540006368646F672054696D6572005541525449
:100550003100494E543000427574746F6E73002040
:1005600020202041766572616765642056426F6F76
:100570007374206F7574707574206973206E6F7456
:1005800020737570706F727465642E0020202020B7
:1005900041766572616765642056426F6F7374209F
:1005A0006F757470757420697320737570706F72D5
:1005B0007465642E0056426F6F7374202831332E99
:1005C0003456290056426F6F7374202831322E340E
:1005D00056290056426F6F7374202831312E3456DD
:1005E000290056426F6F7374202831302E345629FB
:1005F0000056426F6F7374202830392E345629000C
:1006000056426F6F7374202830382E3456290043B9
:100610006865636B696E6720746865206F757470B8
:10062000757420766F6C74616765206F66207468DE
:100630006520426F6F737420436F6E7665727465C8
:1006400072204D6F64756C65202E2E2E0056426F01
:100650006F7374202849646C652029002530327539
:100660002E253032755600202020202553203D2095
:10067000257325532E000020284F564552564F4CC7
:100680005441474529002028554E444552564F4C69
:100690005441474529004469676974616C2053756A
:1006A00070706C790041444300426F6F7374204353
:1006B0006F6E766572746572204D6F64756C65201F
:1006C000436F6E74726F6C6C6572000A2323232370
:1006D000232053595354454D2048414C5445442000
:1006E00023232323230A000A2121212046415441A8
:1006F0004C204552524F52203A202553202121218F
:100700000A002020202044473431314459206465B8
:1007100074656374656400202020204447343132BE
:10072000445920646574656374656400416E616C4E
:100730006F6720537769746368204D6F64756C65CB
:1007400020436F6E74726F6C6C657220616E6420F2
:10075000557073747265616D205369676E616C6961
:100760006E6720285047432F5047442900556E613B
:10077000626C6520746F2064657465726D696E6566
:100780002077686574686572207468652027416EFB
:10079000616C6F6720537769746368204D6F64756F
:1007A0006C652720636F6E7461696E7320612044ED
:1007B000473431314459206F722044473431324438
:1007C00059004C454473005469636B202854696D8B
:1007D0006572302900255320696E697469616C69FE
:1007E0007A6174696F6E20636F6D706C6574656497
:1007F0002E0A000A23232323232323232323232313
:1008000023232323232323232323232323232323B8
:100810002323232323232323232323230A0A000A16
:100820004669726D776172652056657273696F6E85
:100830002025642E25642E2564000A4A784D616BBC
:100840006520486967682D566F6C746167652D4136
:1008500074746163686D656E74204D6F64756C654A
:10086000204949000A23232323232323232323234B
:100870002323232323232323232323232323232348
:10088000232323232323232323232323230055410B
:1008900052543020616E6420446562756720537441
:1008A0007265616D003E3E3E2055504449203A201D
:1008B000557073747265616D2074726967676572D3
:1008C000003E3E3E2055504449203A205047432D9B
:1008D0005047442074726967676572003E3E3E204F
:1008E00055504449203A204D616E75616C207472F8
:1008F00069676765722028434849505F45524153F4
:100900004529003E3E3E2055504449203A204D6145
:100910006E75616C207472696767657220284E5627
:100920004D50524F4729002E2E2E003E3E3E204570
:100930006E640A0053797374656D20696E69746919
:10094000616C697A656420616E64207265616479A6
:1009500020696E207E2575206D696C6C69736563F6
:100960006F6E64732E0A002E0020506F7765722D13
:100970006F6E002045787465726E616C0020427263
:100980006F776E2D6F757400205761746368646FA4
:100990006700204A544147005265736574207265B0
:1009A00061736F6E203A205B25735D0020922B02ED
:1009B000F894A8958091600088618093600080E140
:1009C0008093600084B780932C0214BE80912C0227
:1009D000811104C080912B0280932C0211241FBE30
:1009E000CFEFD0E4DEBFCDBF11E0A0E0B1E0EEE894
:1009F000FAE200E00BBF02C007900D92AA33B107E4
:100A0000D9F722E0AAE3B1E001C01D92AB32B207F0
:100A1000E1F743D50C944515F3CACF92DF92EF92DC
:100A2000FF9228E080E090E030917A0030643093CB
:100A30007A0030917A0036FD2DC0409178005091B7
:100A40007900840F951FF894C0902702D090280257
:100A5000E0902902F0902A027894A895F8944091A9
:100A60002702509128026091290270912A027894FD
:100A7000C416D506E606F70681F321502111D4CF1E
:100A800023E0969587952A95E1F7FF90EF90DF9008
:100A9000CF900895A895CDCFC0DFF894409127025C
:100AA000509128026091290270912A027894A895A9
:100AB000F8948091270290912802A0912902B09188
:100AC0002A027894841B950BA60BB70B0A97A105F5
:100AD000B10568F3A2DFA0E0B0E022E0880F991F23
:100AE000AA1FBB1F2A95D1F708959091C00095FFCA
:100AF00006C08093C600A89580E090E00895A89570
:100B0000F4CF80912202882329F0119880E080930D
:100B10002202C2CF119A81E0FACFCF92DF92EF92F8
:100B2000FF920F931F93CF93DF93CDB7DEB7289734
:100B30000FB6F894DEBF0FBECDBF88E0E0E1F1E074
:100B4000DE01119601900D928A95E1F71A9B32C051
:100B5000A895FE0131969E01275F3F4FA08188E056
:100B600090E8B3B1F894C0902702D0902802E090AA
:100B70002902F0902A0278941A9908C04A2F492332
:100B8000B1FF28C0411128C0A89514C0A895F894B9
:100B900040912702509128026091290270912A0207
:100BA00078944C195D096E097F0945365105610538
:100BB000710510F380E028960FB6F894DEBF0FBEE3
:100BC000CDBFDF91CF911F910F91FF90EF90DF90FC
:100BD000CF9008954111D8CF9695F894C0902702F0
:100BE000D0902802E0902902F0902A0278941A9B73
:100BF00041C081508111B5CF3196E217F30709F05A
:100C0000ADCF10921D0288E023B1F894C090270266
:100C1000D0902802E0902902F0902A0278941A9944
:100C20003FC090911D02990F90931D0221FF05C0B6
:100C300090911D02916090931D02F89400912702FB
:100C4000109128022091290230912A0278941A9B4F
:100C50003DC081508111D8CF80911D028E3409F49E
:100C60004BC090911D0281E0953409F080E08170C5
:100C7000A895A1CFA895F8944091270250912802F9
:100C80006091290270912A0278944C195D096E09CD
:100C90007F09453651056105710508F4A8CF8ACF53
:100CA000A895F8944091270250912802609129025A
:100CB00070912A0278944C195D096E097F094536B6
:100CC00051056105710508F4AACF74CFA895F89471
:100CD00040912702509128026091290270912A02C6
:100CE0007894401B510B620B730B4536510561051F
:100CF000710508F4ACCF5ECF81E0B9CFA8959F9382
:100D00008F9385ED97E09F938F930E945312A89540
:100D10000F900F900F900F900895CF93DF93CDB762
:100D2000DEB7AE014B5F5F4FFA0161917191AF0188
:100D3000A89580913C0190913D010E94AA12A8952E
:100D4000DF91CF9108959C01CB0164E670E00E9491
:100D5000A811A8959F938F937F936F938CE596E04E
:100D60009F938F933F932F930E947B12A8958DB7EB
:100D70009EB708960FB6F8949EBF0FBE8DBF08951C
:100D8000A89560913C0170913D018AE090E00E943D
:100D9000F711A8950895CF93DF93CDB7DEB7AE01D5
:100DA0004B5F5F4FFA0161917191AF01A8958091FE
:100DB0003C0190913D010E94AA12A895E1DFDF91CC
:100DC000CF910895419A98B1937098B998B1982BA2
:100DD00098B991E0811101C090E0909321028111B6
:100DE000419808951F93CF93DF9300D000D00F92C6
:100DF000CDB7DEB76D83798390912202992309F4F0
:100E00005FC0119890E090932202DCDF2D81398140
:100E1000A2E3B4EB0E94DE1120E038EC40E050E0A9
:100E20000E94BC11ACEFB3E00E94ED1169837A839C
:100E30008B839C83DC01CB019E5FAF4FBF4F2AE0C9
:100E4000B695A795979587952A95D1F79A83898323
:100E500010E1F894409127025091280260912902F4
:100E600070912A027894A895F89480912702909125
:100E70002802A0912902B0912A027894841B950B34
:100E8000A60BB70B4997A105B10568F38091220223
:100E90008823C9F0119880E080932202FDDD29812A
:100EA0003A818217930718F411501111D2CF0F9085
:100EB0000F900F900F900F90DF91CF911F91089599
:100EC000119A91E0A0CF119A81E0E6CF4F925F9204
:100ED0006F927F928F929F92AF92BF92CF92DF924A
:100EE000EF92FF92CF93DF93882309F44CC1F894DB
:100EF00040902702509028026090290270902A02A8
:100F0000789481E080931802C9E2D1E088E893E008
:100F10009F938F938FE593E09F938F933CDFA895EA
:100F200060913C0170913D0187EB91E00E94271296
:100F3000A8950F900F900F900F9080912102882319
:100F400009F433C188E193E09F938F9324DF0F90DE
:100F50000F905F9AF8944091270250912802609177
:100F6000290270912A027894A895F894809127021A
:100F700090912802A0912902B0912A027894841BB2
:100F8000950BA60BB70B0297A105B10568F38091ED
:100F900021028823D1F080910F01882309F408C130
:100FA0005E985C982C982B9880910F01882309F407
:100FB00004C15C9A86E695E00197F1F70000809104
:100FC0000F01882309F4FBC05C98F89480902702F5
:100FD00090902802A0902902B0902A0278948091E3
:100FE0000F01882309F4EDC05E985C982C982B982B
:100FF00080910F01882309F4E9C02C9A95E29A9513
:10100000F1F75B9800C000005B9A88E292E00197DC
:10101000F1F700C0000086E695E00197F1F70000C7
:101020008091C90088608093C900A895CE01409640
:10103000288121963091C80035FFCAC02093CE0088
:101040008C179D07A9F7A8958091C900877F809389
:10105000C900F894C0902702D0902802E09029029D
:10106000F0902A0278945B98F8944091270250916E
:1010700028026091290270912A027894A895F89428
:101080008091270290912802A0912902B0912A0212
:101090007894841B950BA60BB70B4997A105B10556
:1010A00068F35B9A8AE992E09F938F9374DE0F90C6
:1010B0000F9080910F01882309F48CC02C988091A7
:1010C0000F01882309F488C05E985C982C982B98AF
:1010D00080910F01882309F484C02B9A84E692E062
:1010E0009F938F9358DE5A988FE092E09F938F934F
:1010F00052DEF8948091270290912802A091290253
:10110000B0912A028093190290931A02A0931B02B5
:10111000B0931C02789410921702F89480912702E1
:1011200090912802A0912902B0912A027894841902
:101130009509A609B709BF93AF939F938F93C818DA
:10114000D908EA08FB08FF92EF92DF92CF928BEB6F
:1011500091E09F938F931FDE8DB79EB70E960FB6CB
:10116000F8949EBF0FBE8DBFDF91CF91FF90EF909F
:10117000DF90CF90BF90AF909F908F907F906F90B7
:101180005F904F900895F894409027025090280265
:101190006090290270902A02789481E0809318026E
:1011A000C9E1D1E08CE793E0B3CE84EE92E0CCCEFF
:1011B0005E9A5C9A2C9A2B9AF7CE5C98FBCE5C9A3E
:1011C00004CF5E9A5C9A2C9A2B9A12CF2C9816CF49
:1011D000A89530CF2C9A73CF5E9A5C9A2C9A2B9A52
:1011E00077CF2B987BCF9F92AF92BF92CF92DF9217
:1011F000EF92FF920F931F93CF93DF93182F992EA7
:10120000EB016A01790196E8A92E96E0B92E6417E0
:10121000750758F026E7A22E26E0B22EE616F7064E
:1012200020F487E7A82E86E0B82EBE0187E491E07F
:101230008ADDBF92AF9287E491E09F938F939F9254
:101240001F9387E696E09F938F93A5DD8DB79EB79A
:1012500008960FB6F8949EBF0FBE8DBFCC15DD0566
:1012600008F04BC0002311F080E0ACDD8BEC96E081
:101270009F938F9390DDF8940F900F902E9AF8948F
:1012800040912702509128026091290270912A0210
:101290007894A895F8948091270290912802A091C3
:1012A0002902B0912A027894841B950BA60BB70BE8
:1012B000883C9105A105B10560F32E98F894409102
:1012C0002702509128026091290270912A02789495
:1012D000A895F8948091270290912802A091290264
:1012E000B0912A027894841B950BA60BB70B883C0F
:1012F0009105A105B10560F3C1CFEC16FD0608F01C
:101300004BC0002311F080E05DDD8BEC96E09F93F5
:101310008F9341DDF8940F900F902D9AF89440919F
:101320002702509128026091290270912A02789434
:10133000A895F8948091270290912802A091290203
:10134000B0912A027894841B950BA60BB70B883CAE
:101350009105A105B10560F32D98F89440912702FD
:10136000509128026091290270912A027894A895E0
:10137000F8948091270290912802A0912902B091BF
:101380002A027894841B950BA60BB70B883C910519
:10139000A105B10560F3C1CFDF91CF911F910F91EE
:1013A000FF90EF90DF90CF90BF90AF909F90089507
:1013B0001F921FB61F9211248F939F93AF93BF93D9
:1013C0008091270290912802A0912902B0912A02CF
:1013D0000196A11DB11D8093270290932802A0932E
:1013E0002902B0932A02BF91AF919F918F911F90D4
:1013F0001FBE1F9018951F921FB61F9211248F9326
:101400009F93AF93BF938091190290911A02A0917C
:101410001B02B0911C02892B8A2B8B2B81F18091AE
:10142000270290912802A0912902B0912A0280936C
:10143000190290931A02A0931B02B0931C02809190
:10144000190290911A02A0911B02B0911C02009700
:10145000A105B10561F481E090E0A0E0B0E08093E7
:10146000190290931A02A0931B02B0931C02BF9121
:10147000AF919F918F911F901FBE1F9018958091E3
:1014800018028111F4CF809117028111F0CF4A998F
:10149000EECF81E080931702EACFCDB7DEB76A972F
:1014A0000FB6F894DEBF0FBECDBF86E08093C200BA
:1014B00082E08093C0001092C5008093C40088E051
:1014C0008093C10080E091E090933D0180933C01C6
:1014D000A89584E698E09F938F93E5D78AE398E0F8
:1014E0009F938F93E0D71F921F921F921F921F927C
:1014F00081E08F938FE198E09F938F93D4D783EF10
:1015000097E09F938F93CFD7A8958EE898E0F6DB6E
:101510008DEA86BD83E085BD80916E0081608093F9
:101520006E0087EC97E0EADBF894C0902702D09039
:101530002802E0902902F0902A02789440912C022F
:10154000EEE4F1E00FB6F894DEBF0FBECDBF27E0AA
:1015500030E050E0CA01022E02C0969587950A94A9
:10156000E2F781709927C09681932150310990F755
:101570008EE491E0109256019F938F9388E999E051
:101580009F938F93CADB80912C020F900F900F9046
:101590000F9084FF07C082E999E09F938F93BDDB92
:1015A0000F900F9080912C0283FF07C088E899E08C
:1015B0009F938F93B2DB0F900F9080912C0282FF4C
:1015C00007C08DE799E09F938F93A7DB0F900F9053
:1015D00080912C0281FF07C083E799E09F938F934E
:1015E0009CDB0F900F9080912C0280FF07C089E652
:1015F00099E09F938F9391DB0F900F9087E699E08E
:101600009F938F93C8DB7894099A119884B1806670
:1016100084B985B18F7985B982EC97E06FDB5E98EC
:1016200056985C9854982C9824982B98239823B11A
:10163000207131E00F900F90211101C030E089B18D
:1016400099B143B186FB882780F9832792959170E1
:101650009327892B811106C043FB882780F98317C4
:1016600009F494C0A8958DE697E09F938F9387EE39
:1016700096E09F938F9317D7A8958BEC96E09F9356
:101680008F9389DBF8940F900F900F900F900F902D
:101690000F902D9AF8944091270250912802609162
:1016A000290270912A027894A895F89480912702D3
:1016B00090912802A0912902B0912A027894841B6B
:1016C000950BA60BB70B883C9105A105B10560F3FE
:1016D0002D98F89440912702509128026091290298
:1016E00070912A027894A895F8948091270290919D
:1016F0002802A0912902B0912A027894841B950BAC
:10170000A60BB70B883C9105A105B10560F32E9A95
:10171000F89440912702509128026091290270911B
:101720002A027894A895F894809127029091280233
:10173000A0912902B0912A027894841B950BA60BE4
:10174000B70B883C9105A105B10560F32E98F8947C
:1017500040912702509128026091290270912A023B
:101760007894A895F8948091270290912802A091EE
:101770002902B0912A027894841B950BA60BB70B13
:10178000883C9105A105B10560F383CF222309F4BC
:10179000E5C110920F015E9A5C9A2C9A2B9A549A8A
:1017A000569A249A239A5F98579A5D98559A84B1CD
:1017B000897F84B985B1866085B98CE297E09EDA2D
:1017C00080910F01882309F4D1C187E197E09F93AD
:1017D0008F93E1DA0F900F9081B1837081B982B15C
:1017E0008C6F82B988B1837088B9419A87B18E6F46
:1017F00087B989EA96E082DA089881E080937E00D2
:1018000087E080937A008EE580937C0080917A0057
:10181000806880937A00F8944091270250912802C2
:101820006091290270912A027894A895F894809189
:10183000270290912802A0912902B0912A0278945F
:10184000841B950BA60BB70B0A97A105B10568F38E
:10185000E4D8E3D89C0140E050E060E078EB81E020
:1018600090E08AD5309326022093250280917A0059
:101870008F7780937A0080EC80937C0080917A004F
:10188000806880937A00F894409127025091280252
:101890006091290270912A027894A895F894809119
:1018A000270290912802A0912902B0912A027894EF
:1018B000841B950BA60BB70B0A97A105B10568F31E
:1018C000EBD8909324028093230285EA96E016DAFF
:1018D000609125027091260200E024E232E049E4A2
:1018E00051E086E996E07FDC60912302709124024A
:1018F0002BE932E041E751E08DE496E074DC8FE0C3
:1019000096E09F938F9347DA68E473E084E06ADAA5
:10191000F8D8BC0101E02FE633E041EF52E080E06F
:1019200096E061DC6CEA73E088E05CDAEAD8BC013E
:1019300027ED33E04BE453E081EF95E054DC60E1C8
:1019400074E080E14FDADDD8BC0121E434E045EAFF
:1019500053E082EE95E047DC64E774E080E242DA2F
:10196000D0D8BC0129EA34E04FEF53E083ED95E095
:101970003ADC68ED74E080E435DAC3D8BC0122E1DA
:1019800035E049E554E084EC95E02DDC6CE375E04E
:1019900080E828DAB6D8BC012BE735E042EB54E00A
:1019A00085EB95E020DC60E070E080E01BDAA9D8F0
:1019B000BC012BE932E041E751E08DE496E013DC15
:1019C00062E474E084E80EDA9CD8825D93400F9064
:1019D0000F90843A910518F481E08093200260E032
:1019E00070E080E0FFD98DD8BC0101E02BE932E046
:1019F00041E751E08DE496E0F6DB809120028823F8
:101A000009F4B7C08CE895E09F938F93C4D90F90E9
:101A10000F901198109222022098289A27982F9AB6
:101A20003898409A87E595E069D952985A9A8091FA
:101A30006900826080936900809169008E7F809345
:101A40006900E09AE89A82E595E058D98EE28093A1
:101A5000CA001092CD0083E28093CC005B9A539A27
:101A60008CE495E04BD988E1809360008BE0809313
:101A700060008DE395E042D9F8948091270290911F
:101A80002802A0912902B0912A0278948C199D090C
:101A9000AE09BF09BF93AF939F938F9384E399E0FF
:101AA0009F938F9378D90F900F900F900F900F9076
:101AB0000F901B8A1C8A1D8A1E8A1CED212E18E09D
:101AC000312E00E4C02E01E0D02EF894409119028E
:101AD00050911A0260911B0270911C02789441157A
:101AE00051056105710509F047C01899ADC1A89568
:101AF00060913C0170913D0187E591E0A8D4A895E3
:101B00009091210280910F01911148C1882309F41D
:101B100040C15E985C982C982B985D9A5F9A81E002
:101B2000189B4FC15F9890912102911160C15D98FF
:101B300055E25A95F1F718997AC18F5F90910F018C
:101B400020912102211160C1992309F458C15E98A6
:101B50005C982C982B985D9A5F9AE2CF81E08093F5
:101B60000F015E985C982C982B9819CE82E097E034
:101B70002ECE8FE595E048CFF89480912702909182
:101B80002802A0912902B0912A027894841B950B17
:101B9000A60BB70B883E9340A105B10508F5F89454
:101BA0008091270290912802A0912902B0912A02E7
:101BB0008F87988BA98BBA8B78942B893C894D8918
:101BC0005E89281739074A075B0709F0C9C02F85C6
:101BD000388949895A892B8B3C8B4D8B5E8BBCC0D5
:101BE000F8948090270290902802A0902902B0904B
:101BF0002A02789443EF54E05F934F93CCD8F89443
:101C00001092190210921A0210921B0210921C02DA
:101C10007894A0ECB4E0BF93AF93BDD85A9A45E74F
:101C200054E05F934F93B7D80F900F900F900F90A1
:101C30000F900F9080910F01882309F48FC02B988B
:101C4000A7E5B4E0BF93AF93A6D85F9845E054E012
:101C50005F934F93A0D8F8944091270250912802A7
:101C60006091290270912A0278940F900F900F9042
:101C70000F90A895F8948091270290912802A09146
:101C80002902B0912A027894841B950BA60BB70BFE
:101C9000883C9105A105B10560F3F89440912702B5
:101CA000509128026091290270912A027894A89597
:101CB000F8948091270290912802A0912902B09176
:101CC0002A027894841B950BA60BB70B883C9105D0
:101CD000A105B10560F3F8944091270250912802C4
:101CE0006091290270912A027894A895F8948091C5
:101CF000270290912802A0912902B0912A0278949B
:101D0000841B950BA60BB70B84369105A105B10575
:101D100060F310921802F8948091270290912802A3
:101D2000A0912902B0912A02789488199909AA09E8
:101D3000BB09BF93AF939F938F93A7ECB3E0BF937F
:101D4000AF9329D84BE259E05F934F9324D80FB655
:101D5000F894DEBF0FBECDBFA895B7CE2B9A70CF3B
:101D60006F85788989899A8928EE33E040E050E0D0
:101D700003D36F8B788F898F9A8F672B682B692B92
:101D800059F727E239E03F932F9305D80F900F9032
:101D90001ECF5E9A5C9A2C9A2B9ABFCE882351F064
:101DA0005E985C982C982B9880910F01882339F0CD
:101DB0005E9AB4CE5E9A5C9A2C9A2B9AF5CF5E9876
:101DC000ADCEF894409127025091280260912902EB
:101DD00070912A027894A895F89440912702509126
:101DE00028026091290270912A02789499CE9091EC
:101DF0000F01992311F05E989BCE5E9A99CE5E9A60
:101E00005C9A2C9A2B9AA7CE992351F05E985C98F5
:101E10002C982B9890910F01992339F05E9A9CCEC3
:101E20005E9A5C9A2C9A2B9AF5CF5E9895CE1F926B
:101E30008F9387E993E09F938F930E94CB060F9037
:101E40000F900F900F9088CF1F9B15C0309B3EC006
:101E50000E948D05882309F467C081EC98E09F9368
:101E60008F930E94CB0690911D0281E0953409F476
:101E700054C080E052C0F89440912702509128024B
:101E80006091290270912A027894A895F894809123
:101E9000270290912802A0912902B0912A027894F9
:101EA000841B950BA60BB70B84369105A105B105D4
:101EB00060F31F99CBCF1F9B07C083E099E09F93EE
:101EC0008F930E94CB06D5CFA895F5CFF89440917B
:101ED0002702509128026091290270912A02789479
:101EE000A895F8948091270290912802A091290248
:101EF000B0912A027894841B950BA60BB70B8436FD
:101F00009105A105B10560F33099A2CF309B0AC0BD
:101F10003F922F920E94CB0681E00E9466070F90AD
:101F20000F901ACFA895F2CF80911702882321F045
:101F300085EA98E09F93C4CF80B1182F1C7F9091C1
:101F40000E01191709F408CF10930E01982F947001
:101F500020912002222309F430C1ECE3F5E061E096
:101F600017FF03C0E0E0F0E060E086FD03C06F5FB4
:101F7000E852FB4F85FD03C06F5FEC58FB4F282FE5
:101F8000287084FDF2C06F5FE05FFB4F222309F4ED
:101F9000EEC0992309F4F1C070E0CF01D9D17B01E3
:101FA00080911E0290911F028E159F0509F4D4CED8
:101FB000B701812F0E94F206119810922202E0E4EC
:101FC000F1E045E050E0212F2695269530E0C9014B
:101FD000042E02C0969587950A94E2F7817099279E
:101FE000C09681934150510990F710924601DF92BB
:101FF000CF9285E791E09F938F930E94CB06A090AC
:102000001E02B0901F029501A2E3B2EDD7D120E0ED
:1020100038EC40E050E0B0D1ACEFB3E0DED12B01C2
:102020003C0192E0590E611C711C2AE07694679481
:10203000579447942A95D1F79501A2E3B4EBBED10A
:1020400020E038EC40E050E097D1ACEFB3E0C5D1F0
:10205000AB01BC015E5F6F4F7F4F3AE076956795AD
:10206000579547953A95D1F701E09201B50186E67B
:1020700091E0B9D89701A2E3B2EDA0D120E038EC0D
:1020800040E050E079D1ACEFB3E0A7D12B013C01A7
:10209000A2E05A0E611C711C4AE076946794579432
:1020A00047944A95D1F79701A2E3B4EB87D120E09A
:1020B00038EC40E050E060D1ACEFB3E08ED16F87F8
:1020C000788B898B9A8B4B015C01B2E09B0EA11C33
:1020D000B11C5AE0B694A794979487945A95D1F777
:1020E0000F900F900F900F90112309F498C0920158
:1020F000A401B70187E591E076D80E948105BC0173
:102100009201A40188E491E06ED80E94C006119863
:1021100010922202F0921F02E0921E02A895809176
:1021200021028111C7C081E291E09F938F9387E5DF
:1021300091E09F938F93DFD10F900F900F900F90AE
:10214000A895A895809121028111DBC083EC90E0D5
:102150009F938F9387EB91E09F938F93CCD10F90B8
:102160000F900F900F90A895F7CD211104C06F5FCD
:10217000E455FC4F0ECF911106C0CF01885B9C4FF8
:102180006F5F70E00BCF662351F0262F30E0CF0158
:10219000B901DED07B01E217F30708F001CFE09030
:1021A0002302F0902402B5E0EB0EF11CC7016AE0B7
:1021B00070E0CED0E81AF90AF3CE992361F083FFDC
:1021C00010C084FF14C085FF18C086FF1CC017FF15
:1021D00020C010E0E4CF14E0B8E4EB2EB3E0FB2E17
:1021E000DFCE18E0ACEAEA2EA3E0FA2ED9CE10E159
:1021F000F0E1EF2EF4E0FF2ED3CE10E2E4E7EE2E76
:10220000E4E0FE2ECDCE10E478EDE72E74E0F72E5C
:10221000C7CE10E86CE3E62E65E0F62EC1CE01E0F5
:102220009201A401B7018DE496E00E94F308A0900A
:102230002302B09024020E948105982E192F950147
:10224000A2E3B2EDBBD020E038EC40E050E094D007
:10225000ACEFB3E0C2D02B013C0122E0520E611C76
:10226000711C8AE076946794579447948A95D1F7C5
:102270009501A2E3B4EBA2D020E038EC40E050E0BE
:102280007BD0ACEFB3E0A9D06F87788B898B9A8B2A
:10229000AB01BC015E5F6F4F7F4F9AE0769567950B
:1022A000579547959A95D1F79201692D712F88E43A
:1022B00091E02ACF60911E0270911F027E0138E0EA
:1022C000E30EF11CC7010E94A3060E944C05BC014D
:1022D0008E010F5F1F4FC8010E94A3061F930F932B
:1022E000FF92EF9284EE90E09F938F9387E591E0C9
:1022F0009F938F9300D10FB6F894DEBF0FBECDBF72
:102300001FCF60911E0270911F027E0158E0E50E02
:10231000F11CC7010E94A3060E944C05BC018E015E
:102320000F5F1F4FC8010E94A3061F930F93FF92D8
:10233000EF928CE890E09F938F9387EB91E09F93CF
:102340008F93D9D00FB6F894DEBF0FBECDBF0BCFA1
:10235000AA1BBB1B51E107C0AA1FBB1FA617B707CB
:1023600010F0A61BB70B881F991F5A95A9F78095E7
:102370009095BC01CD010895A1E21A2EAA1BBB1BAA
:10238000FD010DC0AA1FBB1FEE1FFF1FA217B30741
:10239000E407F50720F0A21BB30BE40BF50B661F57
:1023A000771F881F991F1A9469F76095709580951B
:1023B00090959B01AC01BD01CF010895A29FB00192
:1023C000B39FC001A39F700D811D1124911DB29F69
:1023D000700D811D1124911D0895F0DFA59F900DB2
:1023E000B49F900DA49F800D911D112408950F930B
:1023F0001F93CF93DF93182F092FEB018B8181FD62
:1024000009C01FEF0FEF812F902FDF91CF911F9108
:102410000F91089582FF14C02E813F818C819D8190
:10242000281739073CF4E881F981CF010196998397
:10243000888310838E819F8101969F838E83E3CF53
:10244000E885F985812F0995892BA1F3DACFEF92E1
:10245000FF920F931F93CF93DF938B01DB011396B2
:102460002C91E12CF12C21FD12C0EE24EA94FF24E2
:10247000FA9411C0D8011896ED91FC91B801099514
:10248000892B21F0EE24EA94FF24FA94CE01EC018A
:1024900089918111EFCFC701DF91CF911F910F91EA
:1024A000FF90EF9008950F931F93CF93DF93CDB7D5
:1024B000DEB7AE01495F5F4FDA016D917D91AD01ED
:1024C0000AE311E0F80182819381DC0113962C91DB
:1024D0001397286013962C934DD09C01D801129627
:1024E000ED91FC919381977F9383C901DF91CF9107
:1024F0001F910F9108950F931F93CF93DF93CDB743
:10250000DEB72E970FB6F894DEBF0FBECDBF0D8994
:102510001E898EE08C831A8309838FEF9FE79E8349
:102520008D83AE01475E5F4F6F89788DCE01019636
:1025300021D02F813885020F131FF80110822E96AB
:102540000FB6F894DEBF0FBECDBFDF91CF911F91C4
:102550000F910895CF93DF93EC018B8188608B837B
:10256000CE0108D09C019B81977F9B83C901DF919D
:10257000CF9108955F926F927F928F929F92AF92C8
:10258000BF92CF92DF92EF92FF920F931F93CF9360
:10259000DF93CDB7DEB72F970FB6F894DEBF0FBE2F
:1025A000CDBF6C017B018A01DC0117961C921E9243
:1025B000169713968C9181FFF1C12AE0522EF601F5
:1025C0009381F70193FD859193FF81917F0188238A
:1025D00009F471C0853239F493FD859193FF81919F
:1025E0007F01853221F4B60190E001DFE8CF912C24
:1025F000612C712CFFE1F71508F445C08B32C1F155
:10260000F0F48032B9F1833209F43AC0833609F428
:102610009AC0833709F4A3C0833509F0C3C0F80119
:10262000A190B1908F01692D70E076FC02C06FEF30
:102630007FEFC501B6D14C01689477F871C08D3237
:10264000E1F0803351F020ED280F2A3048F18E322E
:1026500009F04BC0689476F802C0689470F8F701EE
:1026600093FD859193FF81917F018111C3CF45C077
:10267000689471F8689472F8F2CF689473F8EFCFA9
:10268000689474F8ECCF77FC38C020ED280F2A301E
:1026900070F476FE05C0959C200D1124922EDFCF9C
:1026A000659C200D1124622E689475F8D8CF8E3267
:1026B000E1F476FECFCFD60116968D919C912F96A0
:1026C0000FB6F894DEBF0FBECDBFDF91CF911F9143
:1026D0000F91FF90EF90DF90CF90BF90AF909F90C1
:1026E0008F907F906F905F9008958C3619F4689466
:1026F00077F8B5CF883609F4B2CF982F9F7D9554DF
:10270000933008F083CF0C5F1F4F8FE389838824B9
:102710008394912CAE014F5F5F4F5A01E89477F894
:1027200073FC05C0862D90E08816990630F181145F
:10273000910449F5662009F442CFB60180E290E0A9
:1027400056DE6A94F7CFD8018C9189830E5F1F4FB4
:1027500088248394912CFE0131965F01DFCFD8014C
:10276000AD90BD908D01692D70E076FC02C06FEFD9
:102770007FEFC50121D14C01D1CFB60180E290E0BD
:1027800036DE6A94CFCFF50177FC859177FE819193
:102790005F01B60190E02BDE61106A94F1E08F1AC0
:1027A0009108C5CF843619F0893609F07DC0F8014B
:1027B00077FE73C061917191819191918F01272D65
:1027C0002F76822E97FF09C0909580957095619520
:1027D0007F4F8F4F9F4F689487F82AE030E0AE011B
:1027E0004F5F5F4F5A01F3D08A19A82EBA2C782C6C
:1027F00086FE0CC0E89470F8A91440F484FE05C06D
:1028000082FC03C0782D7E7E772EB92C74FEA1C089
:10281000FE01EA0DF11D8081803309F093C0872D00
:10282000897E782E73FC0EC070FEA1C09A2CB6145F
:1028300018F4960C9B18B62C862D8B196B1408F483
:1028400080E0B80EB61408F094C06B1874FE93C004
:10285000B60180E390E0CBDD72FE08C088E590E031
:1028600071FC02C088E790E0B601C1DDA91408F44C
:102870008FC0AA94B12C9FEFA91AB90ADE01119654
:102880004D01AA0EBB1EF50182915F01B60190E0D9
:10289000AEDD8A149B04B9F74DCF61917191072E7B
:1028A000000C880B990B8ACF872CE89484F82AE0D7
:1028B00030E0853769F0572D597F852E803769F1D3
:1028C00010F5883569F18F3609F0F5CE28E030E053
:1028D000F80187FE2DC081919191A191B1918C87D2
:1028E0009D87AE87BF878F01BE016F5F7F4F5B0102
:1028F000AB016C857D858E859F8569D08A19A82E50
:10290000E89487F873CF883709F0D5CE84FE02C0EB
:10291000689482F820E130E0DBCF689484F8F6CF49
:1029200074FE03C0652F6660862E20E132E0D0CFB2
:1029300081919191AC0160E070E04C875D876E877A
:102940007F87D1CF72FC02C0B3946CCFB394B394A1
:1029500069CF872D8678882309F464CFF5CFB60137
:1029600080E290E044DD83948614C8F365CF8B2C1D
:10297000FBCF612C6BCF872D8678882309F476CF27
:102980008BE271FE80E277FC8DE2B60190E06DCFC4
:10299000B60180E390E02BDD9A9468CF8FEF9FEF34
:1029A0008ECEFC010590615070400110D8F78095E3
:1029B00090958E0F9F1F0895FC016150704001900B
:1029C0000110D8F7809590958E0F9F1F0895FA01FA
:1029D000AA27283051F1203181F1E8946F936E7F5E
:1029E0006E5F7F4F8F4F9F4FAF4FB1E03ED0B4E04F
:1029F0003CD0670F781F891F9A1FA11D680F791F90
:102A00008A1F911DA11D6A0F711D811D911DA11DA0
:102A100020D009F468943F912AE0269F11243019B0
:102A2000305D3193DEF6CF010895462F4770405D4B
:102A30004193B3E00FD0C9F7F6CF462F4F70405DFA
:102A40004A3318F0495D31FD4052419302D0A9F755
:102A5000EACFB4E0A6959795879577956795BA954F
:102A6000C9F700976105710508959B01AC010A2E15
:102A700006945795479537952795BA95C9F7620FEC
:0E2A8000731F841F951FA01D0895F894FFCFAB
:102A8E000000000300000000750500000000FF01BB
:102A9E0048562D555044493A0055E020676F725004
:102AAE004D564E55C85955C80055E065736172456F
:0A2ABE004D564E55C85955C800008A
:00000001FF
