:100000000C94DC110C9415120C9415120C9415120E
:100010000C9415120C9415120C9415120C941512C4
:100020000C9415120C9415120C9415120C941512B4
:100030000C9415120C9415120C9415120C941512A4
:100040000C9415120C9415120C9415120C94151294
:100050000C9475160C9415120C9415120C94151220
:100060000C9415120C9415120C9415120C94151274
:100070000C9415120C9415120C9415120C94151264
:100080000C9415120C9415120C9415120C94151254
:100090000C9415120C9415120C9415120C94151244
:1000A0000C9415120C9415120C9415120C94151234
:1000B0000C9415120C9415120C9415120C94151224
:1000C0000C9415120C9415120C9415120C94151214
:1000D0000C9415120C9415120C9415120C94151204
:1000E0000C9415120C9415120C9415120C941512F4
:1000F0000C9415120C9415120C9415120C941512E4
:100100000C9415120C9415120C9415120C941512D3
:100110000C9415120C9415120C9415120C941512C3
:100120000C9415120C9415120C9415120C941512B3
:100130000C9415120C9415120C9415120C941512A3
:100140000C9415120C9415120C9415120C94151293
:100150000C9415120C9415120C9415120C94151283
:100160000C942D280C9415120C9415120C94151245
:100170000C9415120C9415120C9415120C94151263
:100180000C9415120C9415120C9415120C94151253
:100190000C9415120C9415120C9415120C94151243
:1001A0000C9415120C9415120C9415120C94151233
:1001B0000C9415120C9415120C9415120C94151223
:1001C0000C9415120C9415120C9415120C94151213
:1001D0000C9415120C9415120C9415120C94151203
:1001E0000C9415120C9415120C9415120C941512F3
:1001F0000C9415120C9467550C9415122553434416
:10020000432D41434D2032203A20426175645261B2
:100210007465425053203D20256C750A00455645B3
:100220004E545F4344435F4465766963655F4C6940
:100230006E65456E636F64696E674368616E67657E
:10024000642829202D200025534344432D41434D4C
:100250002031203A204261756452617465425053E6
:10026000203D20256C750A0025534344432D41430E
:100270004D203220646973636F6E6E6563746564CC
:100280000A0025534344432D41434D203220636FE0
:100290006E6E65637465640A0025534344432D41C3
:1002A000434D203120646973636F6E6E65637465BE
:1002B000640A004556454E545F4344435F446576A7
:1002C0006963655F436F6E74726F4C696E655374DA
:1002D0006174654368616E6765642829202D20007C
:1002E00025534344432D41434D203120636F6E6EAF
:1002F00065637465640A0025534344432D41434DAF
:10030000203F3F3F0A0025536877757872745F631A
:100310006C656172427265616B28290A0025536819
:1003200077757872745F736574427265616B2020B3
:1003300028290A0025534344432D41434D203220B0
:100340003D2025640A004556454E545F4344435FB3
:100350004465766963655F427265616B53656E746F
:100360002829202D200025534344432D41434D206F
:1003700031203D2025640A004556454E545F5553B3
:10038000425F4465766963655F436F6E6669677552
:10039000726174696F6E4368616E676564282920B5
:1003A0002D2000255355534220636F6E6669677593
:1003B000726174696F6E20737563636573730A008D
:1003C00025533E3E3E205B5761746368646F67202F
:1003D00052657365745D202D207761697420646FA8
:1003E0006E650A0A0A0A0025533E3E3E205B5761AD
:1003F000746368646F672052657365745D202D2097
:10040000776169742025642F25640A005F73657421
:10041000757048617264776172652829202D20000B
:1004200025530A0A0A0A0025537265736574546FCE
:10043000426F6F746C6F6164657228290A002553DE
:10044000726573657453797374656D28290A002584
:10045000533D3D3D3D3D20656E746572696E67207C
:10046000746865206D61696E206C6F6F7020285212
:1004700053542E5354415455533D307825303258FF
:1004800029203D3D3D3D3D0A0A0A0A006D61696E25
:100490002829202D200034034A0078004D006100F7
:1004A0006B00650020005500530042002D004700FE
:1004B000500049004F0020004D006F00640075009F
:1004C0006C006500200049004900000062034A00FA
:1004D00078004D0061006B00650020002800680076
:1004E00074007400700073003A002F002F00730036
:1004F0006F00750072006300650066006F00720097
:10050000670065002E006E00650074002F0070000B
:1005100072006F006A0065006300740073002F00B2
:100520006A0078006D0061006B0065002900000022
:100530000403090409028300040100C032080B000F
:100540000202020100090400000102020100052468
:100550000010010424020605240600010705830398
:100560000800FF09040100020A000000070502025A
:1005700040000507058102400005080B0202020247
:10058000010009040200010202010005240010011B
:10059000042402060524060203070586030800FF5B
:1005A00009040300020A00000007050502400005D7
:1005B0000705840240000512011001EF020108EB5B
:1005C000034E2001000102DC010008101820283031
:1005D00038010204081020408008060806080608B2
:1005E00006080608060806080605060506050605A7
:1005F000060506050605060506060606060606069F
:10060000060606060606060606410641064106419E
:1006100006000000000000000042064206420642BA
:1006200006000000000000000040064006400640B2
:10063000060000000000000000010601060106019E
:10064000060106010601060106020602060206026E
:100650000602060206020602060006000600060062
:100660000600060006000600061006110612061314
:1006700006140615061606170628082A082C082E42
:100680000800000000000000001020408000000072
:100690000068777477695F726561645F6F6E655F2C
:1006A00063662829202D20002553726571756573B6
:1006B0007465642053434C206672657175656E6382
:1006C00079202825642920746F6F206C6F770A00C9
:1006D00068777477695F77726974655F6F6E655F5D
:1006E00063662829202D2000255372657175657376
:1006F0007465642053434C206672657175656E6342
:1007000079202825642920746F6F20686967680A3A
:100710000025537265717565737465642053434C8D
:10072000206672657175656E6379202825642920BD
:10073000746F6F206C6F773B207573696E672073E1
:100740007570706F72746564206D696E696D756D1A
:100750002053434C206672657175656E63790A009B
:1007600068777477695F626567696E2829202D2034
:100770000025537265717565737465642053434C2D
:10078000206672657175656E63792028256429205D
:10079000746F6F20686967683B207573696E6720A6
:1007A000737570706F72746564206D6178696D75B2
:1007B0006D2053434C206672657175656E63790ACE
:1007C000005F6877756172745F7365744261756408
:1007D000726174655F696D706C2829202D20005F3F
:1007E0006877757372745F73657442617564726162
:1007F00074655F696D706C2829202D200025536277
:1008000061756472617465206368616E67656420F8
:10081000746F20256C750A002553726571756573B8
:100820007465642062617564726174652028256C4A
:10083000752920746F6F206C6F773B20626175643F
:100840007261746520756E6368616E6765640A0025
:100850002553726571756573746564206261756492
:10086000726174652028256C752920746F6F20686B
:100870006967683B20626175647261746520756E9A
:100880006368616E6765640A00255373746F702036
:100890006269742032206572726F720A0025537388
:1008A000746F70206269742031206572726F720AF1
:1008B000002553706172697479206572726F720AD3
:1008C000006262757372745F72782829202D20008F
:1008D000255374696D656F7574207768696C652040
:1008E00077616974696E6720666F722073746172D4
:1008F00074206269740A000000010002000400060E
:100900000008000A00190032004B006400FA00F4ED
:1009100001EE02E803C40988134C1D1027A86118D2
:10092000F6000048EE0000D8D60000C8AF00007006
:10093000940000E880000030750000803E00005404
:1009400024000064190000881300003408000042ED
:10095000040000B202000012020000D20000006E8B
:100960000000004600000032000000140000006299
:10097000627377696D5F6C696E6552657365742823
:1009800029202D200062627377696D5F6265676957
:100990006E2829202D200025532564207C202564E5
:1009A000205B25642025645D0A0025533F0A005F13
:1009B00073656E644E616B5F7265736574436D64DD
:1009C0002829202D2000255325530A006E6F7420FE
:1009D000696D706C656D656E746564207965740011
:1009E0002553636F6D6D616E642025303258206928
:1009F00073206E6F7420696D706C656D656E7465C3
:100A000064207965740A004A544147205842207492
:100A100072616E73666572206661696C6564004A16
:100A200054414720746865206E756D626572206F51
:100A300066207061697273206973206F7574206F0E
:100A4000662074686520616C6C6F776564207261E4
:100A50006E676500434D445F4A5441475F58425FAB
:100A60005452414E53464552004A544147207472F5
:100A7000616E73666572206661696C6564004A54D4
:100A8000414720746865206E756D626572206F66DF
:100A9000206279746573206973206F7574206F66A6
:100AA0002074686520616C6C6F7765642072616E7C
:100AB000676500434D445F4A5441475F5452414E7D
:100AC00053464552004A54414720544D53206661D5
:100AD000696C65640025532553202D206661696C7F
:100AE00065643A20544D53206572726F720A002576
:100AF000532553202564202564202564207C20254F
:100B000064205B253032585D0A00434D445F4A54EF
:100B100041475F544D53006661696C656420746F92
:100B200020736574204A544147206E5253542F6EEF
:100B3000545253542F5444490025532553202D20FB
:100B40006661696C65643A20736574206E52535413
:100B50002F6E545253542F544449206572726F7251
:100B60000A00434D445F4A5441475F5345545F5226
:100B700045534554006661696C656420746F207349
:100B80006574204A54414720636C6F636B2064692D
:100B9000766964657200434D445F4A5441475F5330
:100BA00045545F4652455155454E4359004A5441BC
:100BB00047206973206E6F7420656E61626C656496
:100BC00000434D445F4A5441475F44495341424CBE
:100BD00045006661696C656420746F20696E697494
:100BE00069616C697A65204A5441470063616E6EA1
:100BF0006F7420656E61626C65204A5441472062C3
:100C00006563617573652048572D5350492F4857C8
:100C10002D555852542F42422D555352542F424273
:100C20002D5357494D20697320616C726561647959
:100C300020656E61626C65640025532553202D206C
:100C40006661696C65643A2048572D5350492F48B6
:100C5000572D555852542F42422D555352542F421E
:100C6000422D5357494D20697320656E61626C6552
:100C7000640A004A54414720697320616C726561BF
:100C8000647920656E61626C656400434D445F4A1F
:100C90005441475F454E41424C450042422D535717
:100CA000494D20636F6D6D616E6420574F5446202F
:100CB0006661696C65640025532553202D205048DA
:100CC0004153452032205B25645D20253032582079
:100CD0002530325820253032580A00434D445F42B7
:100CE000425F5357494D5F574F5446002553255394
:100CF000202D2050484153452031205B25645D2044
:100D000025303258202530325820253032580A00FC
:100D100042422D5357494D20636F6D6D616E6420C3
:100D2000524F5446206661696C65640042422D53FF
:100D300057494D20746865206E756D626572206F2D
:100D400066206279746573206973206F7574206FF3
:100D5000662074686520616C6C6F776564207261D1
:100D60006E676500434D445F42425F5357494D5F94
:100D7000524F54460025532553205B25645D2025A2
:100D8000303258202530325820253032580A00425F
:100D9000422D5357494D20636F6D6D616E64205332
:100DA000525354206661696C656400434D445F4250
:100DB000425F5357494D5F535253540042422D53A3
:100DC00057494D206661696C656420746F206C69B9
:100DD0006E6520726573657400434D445F42425FE7
:100DE0005357494D5F4C494E455F5245534554005A
:100DF00042422D5357494D206973206E6F74206510
:100E00006E61626C656400434D445F42425F5357BC
:100E1000494D5F44495341424C45006661696C65E8
:100E20006420746F20696E697469616C697A6520E9
:100E300042422D5357494D0042422D5357494D20B0
:100E4000697320616C726561647920656E61626CA2
:100E500065640063616E6E6F7420656E61626C65BF
:100E60002042422D5357494D206265636175736579
:100E70002048572D53504920697320616C72656179
:100E8000647920656E61626C65640063616E6E6F8B
:100E90007420656E61626C652042422D5357494D46
:100EA00020626563617573652042422D555352542B
:100EB00020697320616C726561647920656E61627E
:100EC0006C6564206F722048572D5553525420682A
:100ED000617320656E61626C656420736C61766518
:100EE0002073656C656374696F6E20737570706FC5
:100EF00072740063616E6E6F7420656E61626C6502
:100F00002042422D5357494D2062656361757365D8
:100F1000204A54414720697320616C72656164798D
:100F200020656E61626C656400434D445F42425FC0
:100F30005357494D5F454E41424C450042422D5565
:100F40005352542072656365697665206661696CE9
:100F500065640025532553202D206661696C656406
:100F60003A2072656365697665206572726F720AF0
:100F700000434D445F42425F555352545F52580004
:100F800042422D55535254207472616E736D6974D0
:100F9000206661696C65640025532553202D206609
:100FA00061696C65643A207472616E736D69742056
:100FB0006572726F720A0042422D5553525420746A
:100FC0006865206E756D626572206F662062797447
:100FD0006573206973206F7574206F66207468656F
:100FE00020616C6C6F7765642072616E6765004389
:100FF0004D445F42425F555352545F545800424241
:101000002D55535254206661696C656420746F20BD
:1010100070756C7365207468652073657269616CA6
:1010200020636C6F636B206C696E6500434D445F99
:1010300042425F555352545F50554C53455F58439D
:101040004B00434D445F42425F555352545F444509
:1010500053454C4543545F534C4156450042422D45
:1010600055535254206661696C656420746F206426
:101070006573656C65637420736C61766500434DC0
:10108000445F42425F555352545F53454C4543546D
:101090005F534C4156450042422D555352542069EE
:1010A00073206E6F7420656E61626C656400434DE1
:1010B000445F42425F555352545F44495341424C4E
:1010C00045006661696C656420746F20696E69749F
:1010D00069616C697A652042422D5553525400254E
:1010E00053255320256C7520256420256420256414
:1010F0000A0042422D5553525420697320616C728C
:101100006561647920656E61626C65640063616E1F
:101110006E6F7420656E61626C652042422D55537E
:10112000525420626563617573652048572D535092
:101130004920697320616C726561647920656E6114
:10114000626C65640025532553202D206661696C0F
:1011500065643A2048572D53504920697320656EC5
:1011600061626C65640A0063616E6E6F7420656E07
:1011700061626C652042422D555352542062656372
:10118000617573652042422D5357494D2069732084
:10119000616C726561647920656E61626C65640082
:1011A00063616E6E6F7420656E61626C6520424291
:1011B0002D555352542062656361757365204A54FE
:1011C000414720697320616C726561647920656EA6
:1011D00061626C656400434D445F42425F55535207
:1011E000545F454E41424C4500434D445F48575F74
:1011F000555352545F44495341424C455F54585FE4
:10120000414654455200434D445F48575F55535241
:10121000545F44495341424C455F545800434D4448
:101220005F48575F555352545F454E41424C455FAE
:1012300054580048572D55535254206661696C65C7
:101240006420746F20646573656C65637420736CCF
:1012500061766500434D445F48575F555352545F74
:10126000444553454C4543545F534C415645004813
:10127000572D55535254206661696C656420746F14
:101280002073656C65637420736C617665006661BC
:10129000696C656420746F20696E697469616C693A
:1012A0007A6520736C6176652073656C656374691B
:1012B0006F6E20737570706F727420666F72204845
:1012C000572D555352540025532553202D20666128
:1012D000696C65643A20535320737570706F727433
:1012E00020696E697469616C697A6174696F6E20D6
:1012F0006572726F720A0025532553202D20666196
:10130000696C65643A205353206973207573656472
:101310002062792048572D5350490A00696E207485
:1013200068652063757272656E742073746174658C
:101330002C2048572D5553525420646F6573206EEE
:101340006F7420737570706F727420736C61766542
:101350002073656C656374696F6E20626563617587
:10136000736520746865207369676E616C206973AA
:1013700020616C726561647920757365642062799F
:101380002048572D5350492F42422D5357494D0065
:1013900025532553202D206661696C65643A2053DE
:1013A0005320697320757365642062792042422D51
:1013B0005357494D0A00434D445F48575F555352B8
:1013C000545F53454C4543545F534C415645004888
:1013D000572D55535254206973206E6F7420656EDB
:1013E00061626C656400434D445F48575F555352DA
:1013F000545F44495341424C45006661696C6564E1
:1014000020746F20696E697469616C697A6520481F
:10141000572D55535254002553255320256420251C
:10142000640A0025532553202D206661696C65648C
:101430003A207365636F6E646172792076697274A5
:1014400075616C2073657269616C20706F727420B5
:10145000696E697469616C697A6174696F6E20651F
:1014600072726F720A0048572D5553525420697397
:1014700020616C726561647920656E61626C65647F
:101480000063616E6E6F7420656E61626C652048EA
:10149000572D55535254206265636175736520481A
:1014A000572D5541525420697320616C72656164F7
:1014B0007920656E61626C65640025532553202D8B
:1014C000206661696C65643A2048572D5541525435
:1014D00020697320656E61626C65640A0063616EE9
:1014E0006E6F7420656E61626C652048572D555390
:1014F00052542062656361757365204A54414720E8
:10150000697320616C726561647920656E61626CDB
:10151000656400434D445F48575F555352545F45DF
:101520004E41424C4500746865207365636F6E647C
:101530006172792028706173732D7468726F75679A
:10154000682920696E7465726661636520726561E1
:101550006420627566666572206973206E6F742000
:10156000656D7074790025532553202D20666169BF
:101570006C65643A20627566666572206E6F7420D1
:10158000656D7074790A00434D445F48575F55415B
:1015900052545F44495341424C455F54585F414661
:1015A00054455200434D445F48575F554152545F84
:1015B00044495341424C455F545800434D445F48B1
:1015C000575F554152545F454E41424C455F545818
:1015D0000048572D55415254206973206E6F742076
:1015E000656E61626C656400434D445F48575F55AA
:1015F0004152545F44495341424C45006661696C15
:10160000656420746F20696E697469616C697A65BC
:101610002048572D55415254006661696C6564201D
:10162000746F20696E697469616C697A6520746889
:1016300065207365636F6E646172792028706173D1
:10164000732D7468726F7567682920696E7465728E
:10165000666163650025532553202D206661696C02
:1016600065643A207365636F6E6461727920766990
:10167000727475616C2073657269616C20706F7231
:1016800074206572726F720A0048572D554152548A
:1016900020697320616C726561647920656E616296
:1016A0006C65640063616E6E6F7420656E61626C60
:1016B000652048572D55415254206265636175730A
:1016C000652048572D5553525420697320616C7220
:1016D0006561647920656E61626C656400255325DF
:1016E00053202D206661696C65643A2048572D555A
:1016F00053525420697320656E61626C65640A0000
:1017000063616E6E6F7420656E61626C6520485710
:101710002D554152542062656361757365204A54AA
:10172000414720697320616C726561647920656E40
:1017300061626C656400434D445F48575F55415298
:10174000545F454E41424C450048572D545749205F
:1017500072656164206F6E6520627974652028432C
:101760004629206661696C656400434D445F4857B3
:101770005F5457495F524541445F4F4E455F434672
:10178000002553255320256C7520253032580A003A
:1017900048572D545749207772697465206F6E65DC
:1017A00020627974652028434629206661696C654A
:1017B0006400434D445F48575F5457495F5752494F
:1017C00054455F4F4E455F43460025532553202522
:1017D0006C75202530325820253032580A00485781
:1017E0002D545749207363616E6E696E6720666180
:1017F000696C656400434D445F48575F5457495FC7
:101800005343414E0025532553202D206661696CBA
:1018100065643A207363616E6E696E6720657272EB
:101820006F720A00434D445F48575F5457495F4900
:10183000535F454E41424C45440048572D5457494B
:101840002072656164206661696C656400255325BA
:1018500053202D206661696C65643A20726561646D
:10186000206572726F720A00434D445F48575F549F
:1018700057495F524541445B5F4E4F5F53544F5051
:101880005D0025532553205B25645D0A0048572DD4
:10189000545749207772697465206661696C656484
:1018A0000025532553202D206661696C65643A201C
:1018B0007772697465206572726F720A0048572DDD
:1018C00054574920746865206E756D626572206F8B
:1018D00066206279746573206973206F7574206F58
:1018E000662074686520616C6C6F77656420726136
:1018F0006E676500434D445F48575F5457495F57D3
:10190000524954455B5F4E4F5F53544F505D004802
:10191000572D545749206973206E6F7420656E618E
:10192000626C656400434D445F48575F5457495F9C
:1019300044495341424C45006661696C65642074BA
:101940006F20696E697469616C697A652048572DEA
:10195000545749002553255320256C7520256420B4
:1019600025640A0048572D54574920697320616C3B
:10197000726561647920656E61626C656400434DD7
:10198000445F48575F5457495F454E41424C4500BC
:1019900048572D5350492058422073706563696140
:1019A0006C206661696C65640025532553202D20E9
:1019B0006661696C65643A2058422073706563699A
:1019C000616C206572726F720A00434D445F485724
:1019D0005F5350495F58425F5350454349414C0063
:1019E00048572D535049205842207472616E7366D7
:1019F0006572206661696C65640025532553202D4E
:101A0000206661696C65643A205842207472616E88
:101A100073666572206572726F720A0048572D53A3
:101A2000504920746865206E756D626572206F661E
:101A3000207061697273206973206F7574206F66FE
:101A40002074686520616C6C6F7765642072616ECC
:101A500067650025532553202D206661696C6564F8
:101A60003A20746865206E756D626572206F66201D
:101A700070616972732028256429206973206F754D
:101A800074206F662072616E67650A00434D445F83
:101A900048575F5350495F58425F5452414E534636
:101AA00045520025532553202D20504841534520B1
:101AB00031205B253032583A253032585D205B2585
:101AC000645D0A006661696C656420746F20636CF4
:101AD0006561722048572D53504920627265616BD1
:101AE0000025532553202D206661696C65643A20DA
:101AF000636C65617220627265616B0A0066616980
:101B00006C656420746F207365742048572D5350A2
:101B10004920627265616B0025532553202D206694
:101B200061696C65643A2073657420627265616BEB
:101B30000A002553255320253038580A00434D44C8
:101B40005F48575F5350495F5345545F434C525F62
:101B5000425245414B5B5F4558545D006661696C7C
:101B6000656420746F207365742048572D53504965
:101B700020535049206D6F64650025532553202D57
:101B8000206661696C65643A20736574205350491E
:101B9000206D6F6465206572726F720A00434D4458
:101BA0005F48575F5350495F5345545F5350495FF7
:101BB0004D4F4445006661696C656420746F207305
:101BC00065742048572D53504920636C6F636B2018
:101BD000646976696465720025532553202D20665B
:101BE00061696C65643A2073657420636C6F636B24
:101BF0002064697669646572206572726F720A008A
:101C0000255325532025640A00434D445F48575F00
:101C10005350495F5345545F53434B5F46524551C0
:101C200055454E43590025532553202D20504841FA
:101C300053452032205B25645D205B25645D0A00EE
:101C4000434D445F48575F5350495F5452414E5390
:101C50004645525F5731364E445F523136444E004E
:101C600025532553202D2050484153452031205BDA
:101C700025645D205B25645D0A0048572D5350495B
:101C8000207472616E73666572206661696C65644A
:101C90000025532553202D206661696C65643A2028
:101CA0007472616E73666572206572726F720A007B
:101CB00025532553202D2050484153452032205B89
:101CC00025645D0A0048572D5350492074686520EB
:101CD0006E756D626572206F66206279746573201F
:101CE0006973206F7574206F662074686520616C5D
:101CF0006C6F7765642072616E67650025532553AC
:101D0000202D206661696C65643A20746865206ED8
:101D1000756D626572206F66206279746573202824
:101D2000256429206973206F7574206F66207261A5
:101D30006E67650A00434D445F48575F5350495FE3
:101D40005452414E534645520025532553202D20D1
:101D500050484153452031205B25645D0A004857B7
:101D60002D535049206661696C656420746F20644E
:101D70006573656C65637420736C61766500434DB3
:101D8000445F48575F5350495F444553454C454372
:101D9000545F534C4156450048572D5350492066D7
:101DA00061696C656420746F2073656C6563742071
:101DB000736C6176650025532553202D206661697B
:101DC0006C65640A00434D445F48575F5350495F58
:101DD00053454C4543545F534C4156450048572D9D
:101DE000535049206973206E6F7420656E61626C78
:101DF00065640025532553202D206661696C656458
:101E00003A206E6F7420656E61626C65640A0043EF
:101E10004D445F48575F5350495F44495341424CDA
:101E200045006661696C656420746F20696E697431
:101E300069616C697A652048572D535049002553D4
:101E40002553202D206661696C65643A20696E69AE
:101E50007469616C697A6174696F6E206572726F02
:101E6000720A00255325532025642025642025640B
:101E70000A0048572D53504920697320616C7265E0
:101E800061647920656E61626C6564002553255339
:101E9000202D206661696C65643A20616C72656111
:101EA000647920656E61626C65640A0063616E6EC0
:101EB0006F7420656E61626C652048572D535049E0
:101EC00020626563617573652042422D5357494D09
:101ED00020697320616C726561647920656E61624E
:101EE0006C65640025532553202D206661696C655F
:101EF000643A2042422D5357494D20697320656E44
:101F000061626C65640A0063616E6E6F7420656E59
:101F100061626C652048572D5350492062656361AA
:101F20007573652042422D555352542069732061C8
:101F30006C726561647920656E61626C6564206FA6
:101F4000722048572D555352542068617320656E96
:101F500061626C656420736C6176652073656C6585
:101F60006374696F6E20737570706F72740025539F
:101F70002553202D206661696C65643A2042422D0C
:101F80005553525420697320656E61626C656420FC
:101F90006F722048572D5553525420686173206545
:101FA0006E61626C656420535320737570706F723C
:101FB000740A0063616E6E6F7420656E61626C6599
:101FC0002048572D53504920626563617573652021
:101FD0004A54414720697320616C726561647920BD
:101FE000656E61626C65640025532553202D206663
:101FF00061696C65643A204A5441472069732065E1
:102000006E61626C65640A00434D445F48575F53DC
:1020100050495F454E41424C45006661696C6564BC
:1020200020746F2063616C6962726174652056521E
:102030004541440025532553202D206661696C6578
:10204000643A2063616C6962726174696F6E2065C5
:1020500072726F720A00434D445F48575F475049A0
:102060004F5F43414C4942524154455F56524541AE
:102070004400255325532025253034580A00255384
:10208000434D445F48575F4750494F5F4745545F52
:10209000565245414420253034580A002553434DBB
:1020A000445F48575F4750494F5F4745545F41443D
:1020B0004320253034580A002553434D445F485788
:1020C0005F4750494F5F5345545F50574D2025306F
:1020D000325820253032580A002553434D445F487A
:1020E000575F4750494F5F4745545F56414C5545F0
:1020F0005320253032580A002553434D445F48573A
:102100005F4750494F5F5345545F56414C554553C7
:10211000202530325820253032580A002553434DAF
:10212000445F48575F4750494F5F5345545F4D4F99
:102130004445202530325820253032582025303271
:10214000580A002553434D445F4445544543540ABF
:10215000002553434D445F52455345545F544F5FF0
:10216000424F4F544C4F414445520A002553434D72
:10217000445F52455345540A002553434D445F453F
:102180004E41424C455F44454255475F4D45535390
:1021900041474520253032580A002553434D445FBE
:1021A0004745545F4649524D574152455F56455247
:1021B00053494F4E0A002553434D445F4745545FF2
:1021C00050524F544F434F4C5F56455253494F4E18
:1021D0000A002553434D445F50494E470A0025539A
:1021E000726563656976656420256420636F6D6D33
:1021F000616E6420706172616D65746572206279D0
:1022000074652873290A00726563656976652063C1
:102210006F6D6D616E6420706172616D6574657261
:1022200020627974652873292074696D656F7574EF
:1022300000255372656365697665642076616C6913
:102240006420636F6D6D616E642025303258203BD1
:10225000206E756D626572206F6620706172616DAF
:10226000657465722062797465287329203D202584
:10227000640A00696E76616C696420636F6D6D61DC
:102280006E640068616E646C655072696D6172792C
:102290002829202D200025537265636569766564C1
:1022A00020696E76616C696420636F6D6D616E6428
:1022B00020253032580A00000000FFFF01FFFF0018
:1022C00000FFFFFF06FFFFFFFFFFFFFFFFFFFFFF16
:1022D000FFFFFFFFFFFFFF03020002010002FFFFFD
:1022E000FFFFFFFFFFFFFFFFFFFFFFFFFFFFFFFFFE
:1022F000FFFFFFFFFFFFFF01000000010101FF01E1
:102300000103FF01FFFFFF05FFFFFFFFFFFFFFFFCF
:10231000FFFFFFFFFFFFFF040002020202FFFFFFBB
:102320000000FF0504FFFFFFFFFFFFFFFFFFFFFFB0
:10233000FFFFFFFFFFFFFF0000FFFF000001FFFFA7
:10234000FFFFFFFFFFFFFFFFFFFFFFFFFFFFFFFF9D
:10235000FFFFFFFFFFFFFF01000000000001FFFF84
:10236000FFFFFFFFFFFFFF04000000020101FFFF6E
:10237000FFFFFFFFFFFFFFFFFFFFFFFFFFFFFFFF6D
:10238000FFFFFFFFFFFFFF000000FF000404FFFF4F
:10239000FFFFFFFFFFFFFFFFFFFFFFFFFFFFFFFF4D
:1023A000FFFFFFFFFFFFFF01000101FF02FF02022D
:1023B000FFFFFFFFFFFFFF0011241FBECFEFCDBFC8
:1023C000DFE3DEBF00E00CBF18BE19BE1ABE1BBEA5
:1023D0008091780090E08093FA2B9093FB2B8FEF05
:1023E00080937800A89588ED91E084BF9093800059
:1023F0008091820080FDFCCF10E2A0E0B0E2E8EA2C
:10240000F6EB00E00BBF02C007900D92A435B107B8
:10241000D9F71BBE2BE2A4E5B0E201C01D92AA3F92
:10242000B207E1F704D00C94525B0C9400008BE4EB
:10243000809352008091500088608093500080917A
:10244000510083FFFCCF84EC8093550080915000B5
:102450008061809350008091510084FFFCCF8FB742
:10246000F894A0E4B0E028ED30E094E01BBEFD015C
:1024700024BF90838FBF8FE39FE10197F1F700C0E6
:102480000000809140008091500082608093500055
:102490008091510081FFFCCF809156008460809331
:1024A00056008BE18093650087EB8093660092E095
:1024B0009093CA01EDE1F0E0E491E0936200ECE179
:1024C000F0E0E491E09363001092CA0181E0809310
:1024D000600027E02093A20023E820930001D0E2CF
:1024E000D0936106C0E1C093610690932606909355
:1024F000210694E0909326069093210698E090930D
:102500002606909321068093660680936106B0D4D8
:102510000E94971A0E94013725D746D5882309F4CF
:1025200099C08091FA2B9091FB2B87739927892B67
:1025300009F08FC08CE094E09F938F9380E294E049
:102540009F938F938FEF8F934BD7D0936606C09353
:1025500066060F900F900F900F900F90C1E0D0E0A3
:1025600095E0B92E0CE014E027EEE22E23E0F22EE7
:10257000AA24AA9430E2D32E40E1C42E1F92BF9227
:10258000DF93CF931F930F93FF92EF92AF9228D7D1
:102590004DB75EB7475F5F4F4DBF5EBF85E0D092DE
:1025A00065065FEF92E527E0515090402040E1F74B
:1025B00000C00000D09266063FEF42E557E0315080
:1025C00040405040E1F700C0000081508111E7CF4A
:1025D0008FEF99E628E1815090402040E1F700C05C
:1025E000000085E0C09265063FEF42E557E03150BC
:1025F00040405040E1F700C00000C09266069FEFE7
:1026000022E537E0915020403040E1F700C0000063
:1026100081508111E7CF4FEF59E688E1415050409A
:102620008040E1F700C000002196C630D10509F0D6
:10263000A5CF8CE094E09F938F9380EC93E09F93E1
:102640008F938FEF8F93CCD60F900F900F900F90AA
:102650000F90A5D42AE090E280E1909365068093E4
:1026600066063FEF41EE54E0315040405040E1F704
:1026700000C0000090936606809365063FEF41EE30
:1026800054E0315040405040E1F700C0000021507C
:102690002111E3CF90936606809366060E94305521
:1026A000789416D4CCE8D4E0DF93CF9380E294E022
:1026B0009F938F931FEF1F9393D68091FA2B909146
:1026C000FB2B9F938F93DF93CF938FE494E09F93A3
:1026D0008F931F9385D6DED36B017C014DB75EB718
:1026E000445F5F4F4DBF5EBF2601370100E010E23F
:1026F000D0E18BE190E20E948E5680E090E20E9451
:102700008E560E94BA51C0915E20C11129C0C2D319
:10271000462F572FBC01DB01CA018C199D09AE0958
:10272000BF09853C9940A105B105D0F4DB01CA0180
:1027300084199509A609B7094997A105B105C8F2F9
:10274000011109C010936506D0936606C1E00C2FF5
:102750002A013B01CECF10936606D0936506F7CFD2
:1027600080915E20882309F451C0CCE8D4E08EE348
:10277000A82E84E0B82E99249A9407E214E08BE105
:1027800090E20E94633780E090E20E94EC4F8BE180
:1027900090E20E948E5680E090E20E948E560E9447
:1027A000BA5178D36B017C01F894809158209091B4
:1027B0005920A0915A20B0915B20892B8A2B8B2B1A
:1027C00009F052C08091542090915520A09156203C
:1027D000B0915720892B8A2B8B2B09F443C0809111
:1027E000542090915520A0915620B0915720789474
:1027F0008C159D05AE05BF0508F0C1CFDF93CF93C3
:102800001F930F939F92ECD590D650C00E94F7541F
:1028100025E090E280E190936506809366063FEFA5
:1028200041EE54E0315040405040E1F700C000001C
:1028300090936606809365063FEF41EE54E0315079
:1028400040405040E1F700C0000021502111E3CF8B
:10285000909366068093660688ED91E084BF90931E
:102860007900FFCF78948BCF809158209091592098
:10287000A0915A20B0915B20409154205091552056
:102880006091562070915720452B462B472BA1F481
:1028900078948C159D05AE05BF0508F070CFDF93C9
:1028A000CF93BF92AF929F929BD53DD60F900F9042
:1028B0000F900F900F9063CF409054205090552070
:1028C000609056207090572078948C159D05AE0529
:1028D000BF0538F04C145D046E047F0408F48ECFFD
:1028E0004ECF8CE894E09F938F938EE394E09F9378
:1028F0008F938FEF8F9374D516D60F900F900F9004
:102900000F900F90E7CFE4C2E3C2CF938BE190E248
:102910000E94DF55C82F80E090E20E94DF55CC2353
:10292000A9F0882399F081E080935E2088E793E006
:102930009F938F9383EA93E09F938F938FEF8F936F
:102940004FD50F900F900F900F900F90CF91C0C266
:102950008BE190E20E94345780E090E20C9434576F
:102960000F931F93CF93DF93EC01162F0E949928AA
:10297000882309F454C080E2CB31D807B9F41F9200
:102980001F9386E493E09F938F9386E693E09F9353
:102990008F938FEF8F9324D58DB79EB707968DBFFA
:1029A0009EBFDF91CF911F910F9192C2C050D04234
:1029B00059F51F921F93C6E4D3E0DF93CF9384E3CE
:1029C00093E09F938F930FEF0F930AD58DB79EB728
:1029D00007968DBF9EBF112381F00E94EA28DF93E6
:1029E000CF938DE193E09F938F930F93F9D40F9042
:1029F0000F900F900F900F90D4CF0E942029DF935B
:102A0000CF9386E093E0EFCF86E493E09F938F939C
:102A100087EF92E09F938F938FEF8F93E7CFDF91B4
:102A2000CF911F910F9108959C0180E22B313807BF
:102A300009F580912B20817080935D2080915D202D
:102A4000882389F083EB92E09F938F9380EE92E04E
:102A50009F938F938FEF8F93C3D40F900F900F900E
:102A60000F900F9035C283EB92E09F938F9389E98B
:102A700092E0EECF20503042B9F480911020817066
:102A800080935C2080915C20882339F083EB92E076
:102A90009F938F9382E892E0DBCF83EB92E09F934A
:102AA0008F9388E692E0D4CF83EB92E09F938F934D
:102AB00087EF92E0CDCFCF93DF9300D00F92CDB7C9
:102AC000DEB79C0180E22B31380709F048C08091C5
:102AD00032208F93809131208F93809130208F937B
:102AE00080912F208F938DE192E09F938F9387E4C5
:102AF00092E09F938F938FEF8F9372D4CDBFDEBF01
:102B000080912F2090913020A0913120B0913220DF
:102B1000803B9440A105B105C9F4BCD169837A8397
:102B20008B839C83DC01CB0186509F4FAF4FBF4FFF
:102B30008093542090935520A0935620B093572013
:102B40002496CDBFDEBFDF91CF91C2C11092542039
:102B5000109255201092562010925720F1CF2050FD
:102B6000304209F07FC0809117208F93809116200A
:102B70008F93809115208F93809114208F938DE1F6
:102B800092E09F938F938CEF91E09F938F938FEFC1
:102B90008F9326D48091142090911520A091162017
:102BA000B091172089839A83AB83BC83BC01CD018C
:102BB0000E949F2880911920CDBFDEBF823061F135
:102BC00040F481112DC080E00E94A82810921920A5
:102BD00003C083508230B8F380911820882311F10C
:102BE0008150823018F180911A208730B1F128F598
:102BF000853069F1863079F10E949928882309F49B
:102C00009FCF0E94CE3281119BCF0E949C288823A7
:102C100031F10E94CA2994CF80E20E94A828DCCF1B
:102C200080E3FBCF80E00E94AB28DDCF88E00E94EC
:102C3000AB2882E080931820D6CF88508230E0F60F
:102C400083E00E94AE2888E080931A20D5CF80E0F0
:102C50000E94AE28D1CF81E0FBCF82E0F9CF0E9465
:102C6000BA296ECF8DE192E09F938F9387EF92E028
:102C70009F938F938FEF8F93B3D30F900F900F90FD
:102C80000F900F905DCF9C01DA01832F992782303E
:102C9000910509F18330910539F0019709F180E040
:102CA00090E020E030E00EC0C9019927213069F0A2
:102CB0008230910569F0E0E3F5E0892B81F784919A
:102CC00090E09F012D933C930895ECECF4E0F7CF56
:102CD000E6E9F4E0F4CF83E890E024E335E0F2CFD6
:102CE00082E190E027EB35E0EDCF1F921FB61F92F7
:102CF00011242F9328B72F9318BE29B72F9319BEED
:102D00003F938F939F93AF93BF9380916720909150
:102D10006820A0916920B0916A200A96A11DB11D7A
:102D20008093672090936820A0936920B0936A20D5
:102D300080916320882309F474C08091652090916C
:102D40006620019680936520909366200A97C0F0D4
:102D50009091642081E0911180E0809364208091C3
:102D60006420882309F459C080E28093650610929C
:102D700065201092662080916320815080936320AB
:102D800080915F202AE030E0811102C024E630E02B
:102D900080916120909162200196809361209093B0
:102DA00062208217930758F19091602081E0911181
:102DB00080E08093602080916020882309F44CC0DB
:102DC00080E18093650680915F20882309F44BC0E1
:102DD00080916020882309F443C0C901880F991F9E
:102DE000820F931F9695879596958795809361207E
:102DF0009093622080915F20815080935F20BF91EB
:102E0000AF919F918F913F912F9129BF2F9128BF13
:102E10002F911F901FBE1F90189580E28093660629
:102E2000A6CF80916420882309F4AACF80916520E1
:102E300090916620019680936520909366200A9772
:102E400008F49ECF1092642080E280936606109270
:102E500065201092662094CF80E180936606B3CF00
:102E600080E090E0C3CF1092612010926220C7CF23
:102E7000E0E4F8E088E391E086A397A310A211A212
:102E8000148213821282118287E0808381E086831C
:102E900017820895CF93DF9300D00F92CDB7DEB79E
:102EA000F8948091672090916820A0916920B0915A
:102EB0006A2089839A83AB83BC83789469817A8101
:102EC0008B819C812496CDBFDEBFDF91CF91089589
:102ED00084E080936320089584E080935F200895C8
:102EE0008091410187FDFCCF80916B2290916C22F3
:102EF000009769F0809344019093450110926B22F2
:102F000010926C2280914001806880934001089566
:102F1000CF93C82F80916B2290916C2281159240A3
:102F200008F0DEDF20916B2230916C22C9010196FE
:102F300080936B2290936C2225593F4DF901C083F9
:102F400080E090E0CF91089590917524911107C091
:102F50008093752481E08093742481E00895981310
:102F600004C0809174248F5FF6CF80E00895909123
:102F7000752498130BC0809174248150809374241D
:102F8000811102C01092752481E0089580E00895B7
:102F90008AEA9AEA8093FC2B9093FD2B0895109275
:102FA000FC2B1092FD2B08952091FC2B3091FD2BD2
:102FB00081E02A3A3A4A09F080E00895CF93DF93FE
:102FC000EC0189810E9456530E947B53882319F09B
:102FD000DF91CF910895CE010E948E56F5CF0F93C9
:102FE0001F93CF93DF9300D00F92CDB7DEB78983C5
:102FF000E0ECF1E08485886084870E947350098149
:10300000802F90E088509E4F880F991F880F991F3E
:10301000FC01F05F20813196408150E060E070E07B
:10302000BA0155274427722B32962081422B3197C3
:1030300080818A019B01182B09831A832B833C838F
:10304000C901B8012496CDBFDEBFDF91CF911F919A
:103050000F910895FF920F931F93CF93DF93C82F83
:10306000D42F152F062FF72EE0ECF1E08485886031
:1030700084870E9473508C2F90E088509E4F880F59
:10308000991F880F991FFC01F05FF0823196008331
:10309000319610833196D0838FE3DF91CF911F91CA
:1030A0000F91FF900C9478502F923F924F925F9225
:1030B0006F927F928F929F92AF92BF92CF92DF9248
:1030C000EF92FF920F931F93CF93DF93CDB7DEB7AD
:1030D0006997CDBFDEBF69837A838B839C83E9EFD9
:1030E0002E2E33243A94412CF8E45F2EF8EE6F2E06
:1030F000772473944E8A5F8A688E798E1D8A00E0E9
:1031000010E01C8A298680E090E0A0E2B1EA022C5F
:1031100004C0B695A795979587950A94D2F72C0188
:103120003D0183E076946794579447948A95D1F74C
:103130004C865D866E867F868824839402C072E00A
:10314000872E912CA12CB12C27FC86C06C857D8507
:103150008E859F85A50194010E942D582D833E8365
:103160004F835887CA01B90129813A814B815C811B
:103170000E942D5869017A0184E0D81AE108F1080B
:10318000C114D10490E4E906F104A0F52AE0F69414
:10319000E794D794C7942A95D1F7A70196012F5F9A
:1031A0003F4F4F4F5F4F6AE0220F331F441F551FA1
:1031B0006A95D1F76D817E818F8198850E942D5807
:1031C00049805A806B807C804216530664067506DF
:1031D00008F492C0D301C201821B930BA40BB50B60
:1031E0004E885F88688C798C84159505A605B7058F
:1031F00008F4A7C08A9489288A288B2809F49FCFCD
:103200004E885F88688C798C45284628472841F08D
:103210002FEF221A320A38E02316310409F072CF58
:10322000712F7295707F702B6C898D896996CDBFD7
:10323000DEBFDF91CF911F910F91FF90EF90DF9054
:10324000CF90BF90AF909F908F907F906F905F9046
:103250004F903F902F90089560E870E080E090E0FC
:10326000A50194010E942D5860E078E488EE91E079
:103270000E941E586D837E838F83988766247724EF
:103280006218730829813A814B815C810E942D5814
:10329000DA01C9019450A109B109888B998BAA8BD5
:1032A000BB8B20E034E040E050E0062C04C0569593
:1032B0004795379527950A94D2F7BC01CD010E9416
:1032C0002D5869017A01211590E139074105510511
:1032D00008F090CF9AE0220F331F441F551F9A9594
:1032E000D1F704C056954795379527956A94D2F73C
:1032F0003C5F4F4F5F4F5ECFDA01C90149805A8072
:103300006B807C8084199509A609B7094E885F886F
:10331000688C798C84159505A605B70508F06ACFE9
:1033200021E02C8B31E083169104A104B10409F053
:103330001C8A8E8B9F8BA88FB98FCD8A0D2D1985F6
:1033400059CF41E04C8B51E085169104A104B104A2
:1033500009F01C8A0097A105B10559F7CD8A0D2DFA
:1033600019855ECF1092A70A81E08093A60A109279
:10337000A30A83E08093A50A88E08093A40A94E0DE
:10338000909382068093810680E48093400180912F
:10339000400186FDFCCF84E0809340011092410102
:1033A00080ED809342018CE8809343018BE690E2AC
:1033B000809348019093490110924A0180EA8093DA
:1033C0004C018AE080934D0110924E0186E390E219
:1033D00080936E2290936F22089580936D220895BA
:1033E000CF92DF92EF92FF921F93CF93DF93CDB7EF
:1033F000DEB71B85EC84FD84C0906E22D0906F22D6
:10340000C114D104F1F01F3F21F56ADDE114F1048C
:10341000C1F060E070E08BE57BDD60E070E088E5A6
:1034200077DD60E070E08DE573DD60E070E080E204
:103430006FDDAE01425F5F4FB701C6010E948D583C
:103440004FDDDF91CF911F91FF90EF90DF90CF90F4
:10345000089580916D228123882399F341DDE11441
:10346000F10479F360E070E08BE552DD60E070E03C
:1034700085E410FDD5CF60E070E087E511FDD0CF89
:1034800060E070E08EE412FDCBCF13FFCACF60E0A6
:1034900070E089E4C5CFC82F1F921F928FEF8F93E2
:1034A0009FDF0E94F7542FEF33EC49E0215030406A
:1034B0004040E1F700C000000F900F900F9085E0B2
:1034C00090E020E1209365065FEF33EC49E0515036
:1034D00030404040E1F700C00000209366065FEFF7
:1034E00033EC49E0515030404040E1F700C000006B
:1034F0000197009739F75FEF83EC99E051508040D6
:103500009040E1F700C00000F894CC2331F0EEEFDA
:10351000F0E091E09CBF1994FFCF88ED91E084BF6B
:1035200090937900FFCF80E0B6DF81E0B4DFCF93E6
:10353000DF93E0E0F8E085E08083818312821382EC
:1035400014828FEF90E086A397A316821782A0E0E3
:10355000B2E013961C92139716961C92169783E06E
:1035600012968C93129786E014968C931497C0EC65
:10357000D1E082E08A87E0E2F0E0E4911C96EC93EF
:103580001C97E1E2F0E0E4911D96EC931D971A86FA
:1035900080E611968C93119781E08C9390968C9392
:1035A000DF91CF9108950F931F93CF93A7E0B0E0E1
:1035B0002EE030E0C0E89A2FE62FA4301CF09CEFFC
:1035C0009A0FE82FF0E0990F02C0F595E7959A95CC
:1035D000E2F79E2F9370FD01E757F94F7491FD01BB
:1035E000EF52FA4F5491772371F0F0910108E72FD1
:1035F000E095EF23E0930108F901E75EF94F0591AB
:103600001491F80150839130F1F0923061F19111F1
:1036100010C0F901E75BF94F05911491F80150834F
:10362000F901E759F94F05911491F8019081977CC0
:103630009083C69522503109119708F0BCCFCF91E5
:103640001F910F910895F901E75BF94F05911491CE
:10365000F8015083F901E759F94F05911491F801E8
:1036600090819861E5CFF901E75CF94F05911491DC
:10367000F8015083942F9C23F901992339F0E751E5
:10368000FA4F05911491F8015083D3CFE750FA4FC8
:10369000F8CF0F931F93CF93DF93A7E0B0E02EE016
:1036A00030E050E8982F9523992309F439C0762FFC
:1036B0007523FD01E757F94F4491F901E75AF94F96
:1036C000C591D491F901E75DF94F05911491FD0180
:1036D000EF52FA4F9491E881E923E11105C0E80126
:1036E000E881E923EE23E1F0442391F0E091010821
:1036F00040954E2340930108F901E75EF94FC591CB
:10370000D4919883F901E75CF94FC591D4919883DE
:10371000F901772399F0E751FA4FC591D491988335
:1037200056952250310911972E3FDFEF3D0709F0E2
:10373000B9CFDF91CF911F910F910895E750FA4FC4
:10374000ECCF0F931F93CF93DF9367E070E02EE0F1
:1037500030E050E880E0FB01E757F94F4491F90170
:10376000E75AF94F05911491F901E75DF94FC591B9
:10377000D491F901E752FA4FA591B491FB01EF52B0
:10378000FA4F9491F8011081E12FE923E1111CC057
:10379000E881E923E11118C0442391F0E091010888
:1037A00040954E2340930108F901E75EF94FC5911A
:1037B000D4919883F901E75CF94FC591D49198832E
:1037C0004C9194239111852B5695225031096150CB
:1037D00071092E3FFFEF3F0709F0BDCFDF91CF9179
:1037E0001F910F910895CF93DF9390E0FC01E7576D
:1037F000F94F44919C01220F331FF901E75AF94F09
:10380000A591B491F901E75DF94FC591D4918F521B
:103810009A4FFC018491442309F19C9198239111C2
:1038200004C0988198239923C9F0F901E75BF94F07
:10383000A591B4918C93F901E75FF94FA591B491EB
:103840008C93F901E758F94FA591B49170E06D930D
:103850007C9380910108842B80930108DF91CF91A4
:103860000895809321028091200280688093200235
:103870008091230280FFFCCF809124029091250249
:103880008E3B910510F48EEB90E021E02093230213
:103890008E5B91090895CF93DF9390E09C01220FF6
:1038A000331FF901E75AF94FA591B491F901E75D8A
:1038B000F94FC591D491FC01EF52FA4F24918753EF
:1038C0009A4FFC0184918F3F59F09C919223911162
:1038D00007C098819223911103C0DF91CF91C1CF8E
:1038E00080E090E0DF91CF91089581E080932206FF
:1038F00080E4B7CFCF93DF9300D00F92CDB7DEB780
:103900008091442090914520A0914620B09147207D
:103910008F3F9F4FAF4FBF4FB9F480E060DB462F22
:10392000572FBC01DB01CA019150A240B10981307F
:103930009247A105B10540F540934420509345209E
:103940006093462070934720D0DF2091442030912F
:1039500045204091462050914720DC010E946B5841
:1039600069837A838B839C83DC01CB01189624E1E5
:10397000B695A795979587952A95D1F72496CDBFAB
:10398000DEBFDF91CF91089580E09AE3A2E0B0E03E
:103990008093442090934520A0934620B0934720E5
:1039A000D3CFCF92DF92EF92FF92CF93DF9300D0ED
:1039B00000D0CDB7DEB7A0E0B0E024E1880F991FBA
:1039C000AA1FBB1F2A95D1F79C01AD014850510990
:1039D00029833A834B835C8348E050E04D835E83C8
:1039E000C12CD12C760181DF9C0140E050E069813F
:1039F0007A818B819C810E942D58C20ED31EE41EB9
:103A0000F51E8D819E8101978D839E83892B59F7A9
:103A1000B701A6014C5F5F4F6F4F7F4F83E07695F4
:103A20006795579547958A95D1F7DB01CA01915063
:103A3000A240B10981309247A105B105A8F4409395
:103A4000442050934520609346207093472080E0A7
:103A500001DB81E02696CDBFDEBFDF91CF91FF90E5
:103A6000EF90DF90CF90089580E0F4CF883040F160
:103A70002091792430917A24232B29F49091C00845
:103A80009F7B9093C0088C3099F168F48A3099F14B
:103A90008B30A1F18830A9F18CE190E080937924FA
:103AA00090937A2408958E3079F18F3081F18D30A2
:103AB00089F1863690F1833798F58456990BEECFCD
:103AC0009FEF980F963008F4892F91E08927982F5F
:103AD000969520917B24922B9093C00880FF05C07F
:103AE0008091C00880688093C00880E090E0D6CFC5
:103AF00086EF90E0D3CF8CE390E0D0CF89E790E0E1
:103B0000CDCF8DE090E0CACF81EE93E0C7CF80ECBF
:103B100097E0C4CF8FEE91E0C1CF81E090E0BECFBF
:103B20008FE090E0BBCF982F842F20917D2421112E
:103B300069C060937C2444E0949F90011124206527
:103B400020937B2491FB222720F9209378249170E5
:103B50009093772490915406977C662309F454C07F
:103B600090619093540690E190934606909155068B
:103B7000977C98619093550690E2909345069091BA
:103B80007824992309F447C090915706977C98614F
:103B90009093570690E89093450690E490934206E0
:103BA00091E09093650690E2909341069091702287
:103BB00091110DC090917322911103C022E02093C6
:103BC00025069F5F9093732291E09093702290E876
:103BD000909341069091712291110DC090917322A2
:103BE000911103C022E0209325069F5F90937322DA
:103BF00091E09093712290E19093410637DF81E04C
:103C000080937D2481E0089598619093540690E11B
:103C100090934506ABCF90915706977C9061909317
:103C2000570690E890934606B8CF80917D2488236C
:103C300009F44DC080E48093420680E280934206FE
:103C400080915506877C8093550681E080936606B7
:103C500080E88093420680915706877C80935706C0
:103C600080917022882361F080917322815080932B
:103C70007322811103C082E0809326061092702285
:103C800080E18093420680915406877C809354069D
:103C900080917122882361F08091732281508093FA
:103CA0007322811103C082E0809326061092712254
:103CB0008091792490917A24892B29F48091C008ED
:103CC0008F7B8093C00810927D24109276240895F3
:103CD000CF93C0917D24CC2329F09091762491112B
:103CE00004C0C4DE8C2FCF910895C0E0FBCF982F85
:103CF00080917D24882329F140917B24437F54E0E7
:103D0000959F90011124242B20937B2491FB222743
:103D100020F920937824917090937724209179242E
:103D200030917A24232B69F42091C0089091C00827
:103D30009F7B9093C008237890917B24922B909343
:103D4000C008089580917D24089580917D24882362
:103D500059F090917C24992321F090E190934506AD
:103D6000089590E190934606089580917D248823DC
:103D700059F090917C24992321F090E1909346068C
:103D8000089590E19093450608950F931F93CF9364
:103D9000DF93DB01FC0140E050E080E820E24A17BD
:103DA0005B072CF0DF91CF911F910F91089568E090
:103DB00070E09081392F317096959083909178249E
:103DC000C0917724CC2309F446C0911105C080939B
:103DD0004506C0E0D0E006C080934606FACF00005A
:103DE000000021960091792410917A24C017D10700
:103DF000B0F3332359F0209345069091782499230A
:103E000041F080934506C0E0D0E009C0209346060B
:103E1000F4CF80934606F7CF000000002196009172
:103E2000792410917A24C017D107B0F390914806F5
:103E300096FB992790F99795992797953081932B21
:103E40009083615071096115710509F0B2CF4F5F20
:103E50005F4F3196A4CF332349F020934506992331
:103E600041F080934606C0E0D0E009C020934606AA
:103E7000F6CF80934506F7CF000000002196009111
:103E8000792410917A24C017D107B0F39091480695
:103E900096FB992790F99795992797953081932BC1
:103EA000908390917824992329F080934506C0E06F
:103EB000D0E006C080934606FACF000000002196AD
:103EC0000091792410917A24C017D107B0F3B9CFAB
:103ED0000F931F93CF93DF93FC019B0180917D246F
:103EE0008823A9F0909176249111C4C061157105C1
:103EF00071F04091792450917A24452B09F495C0B2
:103F000060E070E090E840E2621773072CF0DF9108
:103F1000CF911F910F910895A8E0B0E05081C52F77
:103F2000D0E0CC0FDD1FC083C0917824D0917724DE
:103F3000DD2309F440C0C1112DC090934506C0E0B7
:103F4000D0E00091792410917A24C017D10728F18C
:103F500057FF27C04093450650917824552321F1FF
:103F600090934506C0E0D0E00091792410917A2426
:103F7000C017D107E0F0C0914806C6FBCC27C0F9B6
:103F800050815C2B50831197109741F66F5F7F4FE4
:103F90003196BACF90934606D2CF0000000021960A
:103FA000D0CF40934606D8CF90934606DBCF000093
:103FB00000002196D9CF57FF2BC040934506CC2354
:103FC00051F190934606C0E0D0E000917924109121
:103FD0007A24C017D10710F1C0914806C6FBCC2740
:103FE000C0F950815C2B5083509178245523D1F037
:103FF00090934506C0E0D0E00091792410917A2496
:10400000C017D10708F0BFCF000000002196F4CF01
:1040100040934606D4CF90934506D5CF00000000CC
:104020002196D3CF90934606E5CFF8949081909354
:10403000C308AB01DF01415051094115510569F435
:1040400021503109E20FF31F9091C20897FFFCCF76
:104050009091C308908378945ACF11966C911197E0
:104060009091C20897FFFCCF9091C3086093C3085A
:104070009D93E1CF80E04BCFAF92BF92CF92DF9282
:10408000EF92FF920F93CF93DF93D82F6B01C42F42
:10409000590116161706D4F01A141B040CF03DC073
:1040A0008C2F837024DE882379F0C295CF70D0E006
:1040B0006701E12CF12CF6010083018362E070E0DE
:1040C000C60106DF811134C080E028C083700FDE96
:1040D0008823D1F3B601C701FBDE8823A9F3D2956B
:1040E000DF7080E0D817C1F2E7ECF0E03197F1F72C
:1040F00000C000008F5FF6CFFAE6FA95F1F700C036
:1041000001968C179D07C4F322E0E20EF11C82E0B9
:10411000C80ED11CEA14FB0474F281E0DF91CF9148
:104120000F91FF90EF90DF90CF90BF90AF900895E8
:1041300080E090E0E6CF982F80917D248823E1F005
:104140009923D9F090E29093450690E86623C9F050
:10415000909345069091762491110EC02091792478
:1041600030917A24232B29F49091C0089F7B90935F
:10417000C00891E090937624089590E290934606CB
:10418000E4CF90934606E6CFD6DF882331F08091C6
:10419000480686FB882780F908958FEF089580915F
:1041A0007D248823D9F0809176248823B9F090E289
:1041B0009093450690917824992389F090E8909304
:1041C00045062091792430917A24232B29F490916B
:1041D000C00890649093C00810927624089590E8E7
:1041E00090934606EECF6F927F928F929F92AF92FE
:1041F000BF92CF92DF92EF92FF920F931F93CF93D4
:10420000DF93782FFA01A90180917D24882309F496
:1042100064C080917624882309F45FC0972F92951B
:104220009F70872E86948694272F2270722E272FB8
:10423000229526952695237077FF05C02230A1F0A0
:1042400020E22093450691FF22C0917020917824AE
:10425000222311F021E09227992351F090E89093C6
:10426000450620E030E00CC020E220934606EBCF6C
:1042700090E890934606F5CF000000002F5F3F4F77
:10428000A0917924B0917A242A173B07A8F320E063
:1042900030E0A62FB0E008C0CFE3DFE12197F1F7CF
:1042A00000C000002F5F3F4F2A173B07A8F39A0179
:1042B000220F331F2E0F3F1F48E0A42EB12C99244C
:1042C000939490E840E2E217F307B0F081FE05C056
:1042D00090E280FEFBC090934506DF91CF911F9145
:1042E0000F91FF90EF90DF90CF90BF90AF909F9095
:1042F0008F907F906F900895508157705F5FC52FAA
:10430000D0E0583049F05181D501AC1BBD0B01C044
:10431000550FAA95EAF75183772031F051E0DF017C
:104320001296A217B30708F450E0A0E0B0E07E01B7
:1043300061E0E61AF108552321F061E0EA16FB0678
:1043400009F060E061706180062D10E0000F111F20
:1043500001831091782400917724002309F45EC032
:10436000111105C09093450600E010E007C090933E
:104370004606FACF000000000F5F1F4FC09079245F
:10438000D0907A240C151D05A8F367FE0DC040934C
:10439000450610917824611127C0112341F09093B4
:1043A000450600E010E00AC040934606F2CF909325
:1043B0004606F7CF000000000F5F1F4FC090792422
:1043C000D0907A240C151D05A8F31091480616FB11
:1043D000112710F96181612B61831196AC17BD071C
:1043E0000CF4A9CF32966FCF672F61701111692538
:1043F000662329F09093450600E010E007C09093F3
:104400004606FACF000000000F5F1F4FC0907924CE
:10441000D0907A240C151D05A8F3D7CF67FE09C0EC
:1044200040934506112341F09093460600E010E0CA
:104430000AC040934606F6CF90934506F7CF00009A
:1044400000000F5F1F4FC0907924D0907A240C1584
:104450001D05A8F30091480606FB002700F911810D
:10446000102B118310917824611116C0112329F0AB
:104470009093450600E010E007C090934606FACFFF
:10448000000000000F5F1F4FC0907924D0907A2465
:104490000C151D05A8F3A1CF672F617011116925B7
:1044A000662329F09093450600E010E007C0909342
:1044B0004606FACF000000000F5F1F4FC09079241E
:1044C000D0907A240C151D05A8F387CF909346064B
:1044D00004CF90917D24992309F469C090917624AA
:1044E000992309F464C0813009F03FC080E18093D2
:1044F000450690E29093460690E8909346062FEF8B
:1045000031EE94E0215030409040E1F700C00000CF
:1045100080934606EFEFFCE73197F1F700C000000B
:1045200080934506FAE6FA95F1F700C080934606B7
:104530008FEF9CE70197F1F700C0000088E390E05F
:1045400020E820934506EAE6EA95F1F700C02093BB
:104550004606FAE6FA95F1F700C00197009789F749
:1045600080917C2491E089270895823001F580E1D3
:10457000809346062FEF39EF90E021503040904075
:10458000E1F700C0000080934506EFEEFAE03197B6
:10459000F1F700C0000080934606FFEF29EF30E0FE
:1045A000F15020403040E1F700C00000D9CF8FEF3C
:1045B0000895CF92DF92EF92FF92CF936B017C012F
:1045C000C42F80917E2481113FC060E078E488EEA2
:1045D00091E0A7019601220F331F441F551F0E942F
:1045E0002D58DA01C9010597A109B109B7FF33C0F8
:1045F000FF92EF92DF92CF9280E697E09F938F93A6
:1046000081E797E09F938F9382E08F930E94F01948
:104610008DB79EB709968DBF9EBF80E090E0DC010C
:104620001092A0048093A50488E08093A1041092C6
:10463000A20481E08093A404C03168F1CFE0C0936C
:10464000482081E080937E2481E0CF91FF90EF901D
:10465000DF90CF9008958F3F9105A105B10501F33B
:10466000FCF2FF92EF92DF92CF9280E697E09F9369
:104670008F9381E197E09F938F9382E08F930E94C5
:10468000F0198DB79EB709968DBF9EBF8FEF90E052
:10469000A0E0B0E0C5CFC111D2CFC1E0D0CF8091B2
:1046A0007E24882339F08091A104877F8093A10420
:1046B00010927E24089580917E240895AF92BF9237
:1046C000CF92DF92EF92FF920F931F93CF93DF93DE
:1046D000F62EE72E8A01C22ED0907E24D1100DC076
:1046E000D12C8D2DDF91CF911F910F91FF90EF90E5
:1046F000DF90CF90BF90AF9008954130524084F743
:10470000682F660F4091482080EA94E00E94D157BC
:10471000A12CB12C8111E4CFA016B10634F0CC202D
:1047200001F387E08093A304DCCFCF2DDE2D6991C8
:1047300080EA94E00E94F9578FEFA81AB80AFC2E7D
:10474000ED2EEACFAF92BF92CF92DF92EF92FF921F
:104750000F931F93CF93DF936B01EA01E22EF0904A
:104760007E24F1100DC0F12C8F2DDF91CF911F9180
:104770000F91FF90EF90DF90CF90BF90AF90089592
:104780004130524084F7880F682F61604091482083
:1047900080EA94E00E94D1578111E5CF00E010E05B
:1047A0005E0181E0A81AB1080C171D0734F0EE2055
:1047B000D9F287E08093A304D7CF41E0A016B106D9
:1047C00009F040E0B601600F711F80EA94E00E949A
:1047D0000A580F5F1F4FE8CFFF920F931F93CF939D
:1047E000DF93D0917E24DD23D9F08C01C0E087E0F7
:1047F000F82EA8956C2F660F61604091482080EAE2
:1048000094E00E94D157811112C0F092A30481E07C
:10481000F80181938F010E94BA51CF5FC03849F7E8
:104820008D2FDF91CF911F910F91FF90089580E020
:10483000EFCFCF92DF92EF92FF921F93CF93DF9350
:104840006B017C01C42F122FD0917E24DD2341F116
:1048500060E078E488EE91E0A7019601220F331F13
:10486000441F551F0E942D58DA01C9010597A1095F
:10487000B109B7FF1FC0FF92EF92DF92CF9280ED98
:1048800096E09F938F9388EE96E09F938F9381E0BD
:104890008F930E94F0198DB79EB709968DBF9EBF6A
:1048A000D0E08D2FDF91CF911F91FF90EF90DF909F
:1048B000CF9008958F3F9105A105B105B9F0B4F0EF
:1048C000FF92EF92DF92CF9280ED96E09F938F93CD
:1048D00088EA96E09F938F9381E08F930E94F0196E
:1048E0008DB79EB709968DBF9EBFDACFF090A50415
:1048F0008093A5046C2F660F4091482080EA94E0D5
:104900000E94D157811108C0612F80EA94E00E9473
:10491000F95787E08093A304F092A504C2CFCF9209
:10492000DF92EF92FF920F931F93CF93DF936B0170
:104930007C01C42F8901D0917E24DD2341F160E008
:1049400078E488EE91E0A7019601220F331F441FFF
:10495000551F0E942D58DA01C9010597A109B10917
:10496000B7FF20C0FF92EF92DF92CF9281E996E0ED
:104970009F938F9388EE96E09F938F9381E08F9320
:104980000E94F0198DB79EB709968DBF9EBFD0E0EB
:104990008D2FDF91CF911F910F91FF90EF90DF90BE
:1049A000CF9008958F3F9105A105B105B9F0B4F0FE
:1049B000FF92EF92DF92CF9281E996E09F938F93DF
:1049C00088EA96E09F938F9381E08F930E94F0197D
:1049D0008DB79EB709968DBF9EBFD9CFF090A50425
:1049E0008093A5046C2F660F61604091482080EA97
:1049F00094E00E94D157811109C041E0B80180EADA
:104A000094E00E940A5887E08093A304F092A504E2
:104A1000BFCF90918124911124C08093802488235A
:104A200011F180915406877C80618093540680E167
:104A3000809346068091712281110DC0809173226E
:104A4000811103C092E0909325068F5F80937322BB
:104A500081E08093712280E18093410681E0809320
:104A6000812481E0089580915406877C8861809339
:104A7000540680E180934506DDCF80918124882310
:104A8000D1F080E18093420680915406877C809328
:104A9000540680917122882361F0809173228150A5
:104AA00080937322811103C082E0809326061092C6
:104AB000712210928124089580918124089580911B
:104AC0008124882351F090918024992339F090E13A
:104AD0009093450691E090937F24089590E1909300
:104AE0004606F8CF80918124882349F09091802454
:104AF000992331F090E19093460610927F24089517
:104B000090E190934506F9CF80917F24089590918C
:104B1000A3099F7C9093A3099091A409977E9093F9
:104B2000A40990918A24992381F0811104C0809175
:104B3000882481110AC0809171068F7B8093710651
:104B40008091A5098F7B8093A50910928B240895ED
:104B5000CF92DF92EF92FF92CF93DF9300D00F922C
:104B6000CDB7DEB76B017C0180918A24882309F4DC
:104B700070C081E0C81684E2D80684EFE806F1042C
:104B8000A0F0FF92EF92DF926F938FED97E09F93EB
:104B90008F9380E598E09F938F9381E08F930E949D
:104BA000F019CDBFDEBF80E04AC0D701C601985BD7
:104BB000A741BE4F89839A83AB83BC83BC01CD01DF
:104BC000A7019601220F331F441F551F0E942D5825
:104BD00021503109211590E1390758F0FF92EF92E9
:104BE000DF92CF928FED97E09F938F9388E198E0CB
:104BF000D2CFF8948091A4098B7F8093A40930933D
:104C0000A7092093A6097894C0924E20D0924F20F5
:104C1000E0925020F0925120FF92EF92DF92CF92DB
:104C20008FED97E09F938F938DEF97E09F938F93F6
:104C300084E08F930E94F019CDBFDEBF81E02496FF
:104C4000CDBFDEBFDF91CF91FF90EF90DF90CF908F
:104C5000089591E0C91699E0D9069DE3E906F104AB
:104C600038F0FF92EF92DF926F9381EC97E08FCF55
:104C7000C701B6010E94541861110BC0711123C005
:104C8000811121C0FF92EF92DF92CF9281EC97E0E9
:104C9000ABCFF8949091A40994609093A409709379
:104CA000A7098093A6097894C0924E20D0924F20F5
:104CB000E0925020F0925120FF92EF92DF92CF923B
:104CC00081EC97E0AFCFF8949091A4099B7FE5CF5A
:104CD000CF93DF9300D00F920F92CDB7DEB7209124
:104CE0008B242D832111AAC0209184243091852406
:104CF000232B09F4A5C0862B80938A2460938824F3
:104D00001092862480914A2090914B20A0914C20B3
:104D1000B0914D2089839A83AB83BC83BC01CD01C4
:104D200017DF882309F48CC020918A248091832482
:104D300090918224892B90914920892B8F73922FF7
:104D40009295990F990F907C892B8093A50980915A
:104D5000A30980628093A309222309F44EC08091A5
:104D60008824882309F473C080917306877C80614E
:104D70008093730688E0809366068093250680936F
:104D8000610680917106877C88618093710692E04C
:104D9000909365068091722281110CC080917322DC
:104DA000811102C0909325068F5F8093732281E06A
:104DB0008093722282E0809361069FEFADEBBAE0B0
:104DC0009150A040B040E1F700C0000088E080931F
:104DD00065062AE02A95F1F700C08091A509806454
:104DE0008093A509809171068064809371068FE796
:104DF0009EE30197F1F700C000008091882488238A
:104E000009F444C08091A40980618093A40998E0CA
:104E10009093620680917306877C809373069093CB
:104E2000260684E08093620691E090938B24109292
:104E300089248091882489278093872491E09D8309
:104E40008D812596CDBFDEBFDF91CF9108958091F2
:104E5000A50980648093A509809171068064809380
:104E600071068091722281110DC08091732281118F
:104E700003C092E0909325068F5F8093732281E0B8
:104E80008093722282E080936106B7CF8091A4095B
:104E900088618093A40988E0809325068093610649
:104EA000C0CF80918824882391F080917306877CFD
:104EB00088618093730688E080936506809171060F
:104EC000877C80618093710682E08093660681E032
:104ED0001EDE80918824882349F02FEF83EC99E02F
:104EE000215080409040E1F700C0000098E090938E
:104EF000620680917306877C8093730690932606E2
:104F000092E09093620680917106877C809371068F
:104F100080917222882359F080917322815080936E
:104F20007322811102C09093260610927222089576
:104F3000CF93DF9300D00F92CDB7DEB78091882456
:104F4000811112C080917306877C886180937306FB
:104F500088E08093650680917106877C80618093EC
:104F6000710682E08093660680E0D1DD80914A2060
:104F700090914B20A0914C20B0914D2089839A8331
:104F8000AB83BC83BC01CD01E3DD811117C08091EF
:104F90004E2090914F20A0915020B09151208983B4
:104FA0009A83AB83BC8380934A2090934B20A09339
:104FB0004C20B0934D20BC01CD01CADD20918A2444
:104FC0008091832490918224892B90914920892B70
:104FD0008F73922F9295990F990F907C892B8093C4
:104FE000A5098091A30980628093A309222389F0F7
:104FF0008091882481110DC08091A50980648093DF
:10500000A5098091710680648093710682E0809387
:105010006106809188249091A4098823B9F0906159
:105020009093A40998E09093620694E090936206AE
:1050300091E090938B241092892489278093872470
:105040002496CDBFDEBFDF91CF91089598619093F4
:10505000A40998E090936106E8CF1F921FB61F92B3
:1050600011242F9328B72F9318BE29B72F9319BE59
:105070002BB72F931BBE3F934F935F938F939F93B9
:10508000AF93BF93EF93FF93E0918424F091852435
:10509000309769F18091A0099091DC27943039F51F
:1050A0009FB7F894228533859FBF4085518542176D
:1050B0005307E9F0E0918424F0918524A081B18127
:1050C0008C938081918101968083918326813781A1
:1050D0008217930721F484819581808391832FB770
:1050E000F894828593850196828793872FBFFF91DD
:1050F000EF91BF91AF919F918F915F914F913F91B0
:105100002F912BBF2F9129BF2F9128BF2F911F9037
:105110001FBE1F9018958093842490938524089532
:1051200081E02091842430918524232B09F480E0B0
:10513000089580918B24089580918A240895609326
:105140004A2070934B2080934C2090934D200895DB
:105150008093832408958093822408958093492026
:1051600008959091A10995FFFCCF8093A0098091AB
:105170008624882371F1815080938624811129C06F
:105180008091A10985FFFCCF8091A10986FFFCCF0A
:105190008091A10980648093A10987EC90E0019738
:1051A000F1F700C0000098E09093620680917306CA
:1051B000877C80937306909326068091A409877F4D
:1051C0008093A4098091A10980648093A109109221
:1051D0008724089580918B24882389F180918924E4
:1051E00081112DC08091A10985FD0DC08091A1097B
:1051F00085FFFCCF8091A10986FFFCCF8091A1099A
:1052000080648093A10980917306877C806180937C
:10521000730688E080936606809325068093610676
:105220009091A409977F9093A4099091A10990640B
:105230009093A1098093610681E080938924089569
:1052400080918B24882349F190918924992329F115
:1052500080917306877C88618093730688E08093D1
:105260006506809325068093610620918824222379
:10527000A9F0EFE3FFE13197F1F700C00000809360
:10528000620690917306977C90937306809326062E
:1052900090E0909387241092892408958091A40926
:1052A00088608093A409F5CF80918B248823F9F03E
:1052B0008091872481111BC080917306877C88614F
:1052C0008093730688E0809365068093250680931B
:1052D00061068091A40988608093A4098091A10946
:1052E00085FFFCCF81E08093872410928624089567
:1052F00080918B24882359F180918724882339F168
:105300008091A10985FD0DC08091A10985FFFCCF89
:105310008091A10986FFFCCF8091A10980648093D0
:10532000A10998E09093620680917306877C809330
:105330007306909326068091A409877F8093A40921
:105340008091A10980648093A10910928724089517
:1053500090918B24992329F0909187249111809327
:105360008624089560E080E0B3CC80918B24811185
:1053700098CD089580918B248111DACD089560E055
:1053800081E0A6CC61E081E0A3CC80918B248111E7
:1053900088CD089580918B248111CACD08952F92D4
:1053A0003F924F925F926F927F928F929F92AF92B5
:1053B000BF92CF92DF92EF92FF920F931F93CF9302
:1053C000DF93CDB7DEB72897CDBFDEBF382E262EB0
:1053D000842F2D83398390918F249111D8C019DBAC
:1053E000882309F4D5C07EDB80915506877C8061D7
:1053F0008093550690E29093460680915706877CED
:1054000080618093570680E88093460680E480930D
:10541000420681E080936506909341068091702258
:1054200081110DC080917322811103C092E090938D
:1054300025068F5F8093732281E08093702280E83D
:1054400080934106C801AD81B981813F0CE9900785
:1054500009E0A007B10508F4B1C080EF9CE9A9E01C
:10546000B0E09C01AD012B5F3F4F4F4F5F4F298351
:105470003A834B835C83CA01B9012AE030E040E003
:1054800050E00E942D5849015A014FE159E060E077
:1054900070E0FA010591159125913491CB016F5F70
:1054A0007F4F4C5F5F4FFA01C590D590E590F49027
:1054B000081519052A053B050CF48BC08C149D04B6
:1054C000AE04BF040CF485C0880F991FFC01E9509D
:1054D000F74F459154914D835E838750974FFC0160
:1054E000A591B491280139014C185D086E087F0818
:1054F000A9019801281939094A095B090E946B58CA
:1055000069837A838B839C83A50194012C193D09BF
:105510004E095F09AD81BE810E946B588B019C01D1
:1055200089819A81AB81BC81800F911FA21FB31F1B
:10553000B301A20175956795579547958C019D011B
:10554000040F151F261F371F09831A832B833C83E3
:10555000C901B801A30192010E944F582093522023
:105560003093532081E012E0311280E080938E244A
:1055700081E023E0321280E080938D2481E0821567
:1055800008F080E080938C2481E080938F2481E078
:105590002896CDBFDEBFDF91CF911F910F91FF9075
:1055A000EF90DF90CF90BF90AF909F908F907F90C3
:1055B0006F905F904F903F902F900895883C910599
:1055C000A105B10508F04DCF88EC90E0A0E0B0E077
:1055D00048CF429709F05DCFC5CF80918F248823B3
:1055E00049F14BDA80E48093420680E280934206E0
:1055F00080915506877C8093550681E080936606EE
:1056000080E88093420680915706877C80935706F6
:1056100080917022882361F0809173228150809361
:105620007322811103C082E08093260610927022BB
:1056300010928F24089580918F24089580918F2453
:1056400081113DCA80E0089580918F2481114ACA5A
:1056500080E00895CF93DF93C82FD62F80918F24B9
:10566000811104C080E0DF91CF9108954DDA882345
:10567000C9F390E2DD2339F19093450690E040E8CC
:105680005FEF9C1781F340934606209152203091A2
:1056900053202F3F310509F0C8F42115310511F0D1
:1056A0002A95F1F7409345062091522030915320DE
:1056B0002F3F310509F080F42115310511F02A95AD
:1056C000F1F79F5FDECF90934606D8CF652F6A959E
:1056D000F1F72F5F3109DDCF652F6A95F1F72F5F65
:1056E0003109E6CFCF92DF92EF92FF920F931F9393
:1056F000CF93DF93F82E092FEB0180918F24811136
:105700000AC080E0DF91CF911F910F91FF90EF9041
:10571000DF90CF900895F8D9882399F3A0918D2434
:1057200010918E24B0918C24EF2DF02F60E070E06A
:1057300090E830E22FEF01E06C177D071CF79093A3
:1057400046063093460640915220509153204F3FD9
:10575000510511F008F0B7C04115510511F04A95F7
:10576000F1F79093450640915220509153204F3FBE
:10577000510511F008F0ADC04115510511F04A95E1
:10578000F1F7D19048E0E42EF12C4D2D4170F42634
:10579000D69490934606442309F4A1C0309345065D
:1057A00040915220509153204F3F510511F008F085
:1057B00099C04115510511F04A95F1F790934506AE
:1057C00040915220509153204F3F510511F008F065
:1057D0008FC04115510511F04A95F1F7EA94E11097
:1057E000D4CFA1118BC0112329F190934606FF203D
:1057F00009F486C0309345064091522050915320C1
:105800004F3F510511F008F07EC04115510511F0D0
:105810004A95F1F7909345064091522050915320BC
:105820004F3F510511F008F074C04115510511F0BA
:105830004A95F1F7909346063093450640915220E1
:10584000509153204F3F510511F008F068C04115A9
:10585000510511F04A95F1F7909345064091522079
:10586000509153204F3F510511F008F05EC0411593
:10587000510511F04A95F1F7BB2311F190934606BB
:105880003093450640915220509153204F3F51058F
:1058900011F008F050C04115510511F04A95F1F78B
:1058A0009093450640915220509153204F3F51050F
:1058B00011F008F046C04115510511F04A95F1F775
:1058C0006F5F7F4F39CFF22EFA94F1F74F5F510996
:1058D0003ECFF22EFA94F1F74F5F510948CF309343
:1058E00046065ECFC22ECA94F1F74F5F51095CCFD6
:1058F000C22ECA94F1F74F5F510966CFF02675CFDB
:105900003093460679CFF22EFA94F1F74F5F5109A2
:1059100077CFF22EFA94F1F74F5F510981CFF22E33
:10592000FA94F1F74F5F51098DCFF22EFA94F1F707
:105930004F5F510997CFF22EFA94F1F74F5F51095B
:10594000A5CFF22EFA94F1F74F5F5109AFCF4F92E6
:105950005F926F927F92BF92CF92DF92EF92FF920F
:105960000F931F93CF93DF9300D000D0CDB7DEB756
:105970007C018B0180918F24882309F45CC0C4D8FA
:10598000D82E882309F457C0ED82FE82E12CF12C39
:1059900080E8C82EBB24BA94E016F1060CF04CC087
:1059A0000E944A172B013C01C0924606809152206A
:1059B000909153208F3F910511F008F04FC0009750
:1059C00011F08A95F1F7C09245068091522090918E
:1059D00053208F3F910511F008F046C0009711F059
:1059E0008A95F1F7809148068074882309F442C0B3
:1059F0000E944A1769837A838B839C83DC01CB01E5
:105A000084199509A609B709893E9340A105B105F6
:105A100008F4CACF81EC98E09F938F9380ED98E0D3
:105A20009F938F9381E08F930E94F0190F900F90B6
:105A30000F900F900F90D12C8D2D2696CDBFDEBFED
:105A4000DF91CF911F910F91FF90EF90DF90CF905A
:105A5000BF907F906F905F904F9008952B2D2A9567
:105A6000F1F78F5F9109A6CF2B2D2A95F1F78F5F64
:105A70009109AFCF58E040E060E87FEF60934606C1
:105A800020915220309153202F3F310511F008F022
:105A900065C02115310511F02A95F1F7609345068F
:105AA00020915220309153202F3F310511F008F002
:105AB0005BC02115310511F02A95F1F79091480648
:105AC000907421E0911101C020E0869591118068C9
:105AD000422751505111D2CFED81FE818193ED8348
