:10000000DFC0FDC0FCC0FBC0FAC0F9C0F8C0F7C03B
:10001000F6C080C2F4C0F3C0F2C0F1C09EC2EFC00F
:10002000EEC0EDC0ECC045464765666700202B2D4D
:100030002E303132333435363738396800232323B4
:10004000232323232323232323232553232323234E
:100050002323232323232323230A0A00204E4F5242
:100060004D414C204F5045524154494F4E414C2038
:100070004D4F444520004669726D77617265205688
:10008000657273696F6E2025642E25642E25640ABF
:100090000025532053656374696F6E0A004A784DDA
:1000A000616B6520486967682D566F6C7461676580
:1000B0002D4174746163686D656E74204D6F647555
:1000C0006C650A000A2323232323232323232323CA
:1000D00023232323232323232323232323232323F0
:1000E00023232323232323232323232323232323E0
:1000F00023232323232323230A003E3E3E204D6156
:100100006E75616C2074726967676572202D206559
:100110006E640A0A003E3E3E204D616E75616C20A1
:1001200074726967676572202D20626567696E2049
:10013000284144435F526566203D202564292028DC
:10014000547269676765725F4D53203D20256429AD
:100150000A003E3E3E205265736574207369676EE7
:10016000616C202D20656E640A0A003E3E3E2052DE
:1001700065736574207369676E616C202D206265FC
:1001800067696E20284144435F526566203D202503
:1001900064290A00426F6F737420436F6E76657234
:1001A00074657220616E64204156522D4953502F60
:1001B0005450492026205049432D494353500000B4
:1001C00011241FBECFE5D4E0DEBFCDBFA89580E1EE
:1001D00081BD14BE10E0A0E6B0E0E6EDFDE002C097
:1001E00005900D92A037B107D9F720E0A0E7B0E065
:1001F00001C01D92A838B207E1F72AD3EAC500CFA3
:10020000AFE0B0E0E5E0F1E0C6C45C018B013A018B
:10021000DC0117961C921E92169713968C9181FF03
:1002200025C1FE0131964F01D5011396EC90F801DE
:10023000E3FCF590E3FEF1908F01FF2061F0B5E261
:10024000FB120FC0E3FCF590E3FEF1908F01FB166B
:1002500041F0F1100DC0F501868197812F96EEE0F7
:10026000B6C4B5018F2D90E002D573013701DCCF04
:10027000D12CC12C27C0FCE6FF120BC06894D7F824
:10028000F801E3FCF590E3FEF1908F01CD2CFF2007
:1002900011F36F2D70E086E290E0DED4892B39F106
:1002A000730144E0E40EF11CB5018FE390E0DFD46C
:1002B000DDCFF801E3FCF590E3FEF1908F01CD2C4A
:1002C000FF2049F26F2D70E08DE290E0C5D4892BBC
:1002D00081F7E3E2FE12CFCFF801E3FCF590E3FEF5
:1002E000F1908F0180E1D82E90E1C92EE9CF53E63D
:1002F000F516C9F063E7F61629F073E5F71219C091
:100300006894D0F8F301619071907F01F301D0FC03
:100310008591D0FE81913F01882309F4A7CFB501D3
:1003200090E0A5D4F3CFB501D3018D919D917D01CE
:10033000BECFF4E6FF1619F049E6F41253C0C7FE2B
:1003400048C0D3016D917D918D919D917D01E8947F
:10035000D4F897FF09C090958095709561957F4F6F
:100360008F4F9F4F6894D6F82AE030E0AE014F5F80
:100370005F4F3A01D0D4C82EC618D6FE04C0B501CE
:100380008DE290E074D4D4FE13C0FE01EC0DF11D9B
:100390008081803369F0B50180E390E068D4D2FEBB
:1003A00007C09D2D9072985AB501892F90E05FD4B7
:1003B000CA94D12C7FEFC71AD70AC80CD91CD60112
:1003C0008E916D01B50190E052D48C149D04B9F763
:1003D0004DCFF301619171917F01072E000C880BC5
:1003E000990BB5CF50E7F51689F15F1548F068E530
:1003F000F61679F17FE6F7122ECF28E030E010C034
:1004000085E7F81649F098E7F91225CFAD2DA462DB
:10041000DA2E20E130E004C0E894D4F82AE030E09D
:10042000D7FE1CC0D3014D915D916D917D917D01F1
:100430004C875D876E877F87BE016F5F7F4F3B0173
:10044000AB016C857D858E859F8594CF6894D4F8AB
:10045000DDCF6894D2F820E132E0E2CFF301819160
:1004600091917F01AC0160E070E0E2CF8FEF9FEFF0
:10047000F5CE5D9BFECF8CB980E090E0089520B36F
:10048000322F3C7F8FE493E061E022FF03C080E0E5
:1004900090E060E023FD03C06F5F815F9C4F24FD0F
:1004A00003C06F5F81539D4F422F407425FD0BC0E9
:1004B0006F5F81579D4F442341F037FF0CC070E0C0
:1004C0002CD3CB010895411104C06F5F815B9D4F18
:1004D000F4CF37FD04C06F5F815F9D4FF0CF611196
:1004E000EECF80E090E008958091820090918300AB
:1004F000892B19F4AD9AAB9A0895AC9AFCCF8091F0
:10050000820090918300AB98892B11F4AD980895E7
:10051000AC9808951F921FB61F9211248F939F933A
:10052000AF93BF938091840090918500A091860045
:10053000B09187000196A11DB11D80938400909316
:100540008500A0938600B0938700BF91AF919F91E3
:100550008F911F901FBE1F9018950F920FB60F928C
:100560001F9211244F925F926F927F928F929F926F
:10057000AF92BF92CF92DF92EF92FF920F931F93B1
:100580002F933F934F935F936F937F938F939F939B
:10059000AF93BF93EF93FF93CF93DF93CDB7DEB7C6
:1005A0002A97DEBFCDBF84B195B1A8952091820076
:1005B00030918300232B09F04DC08DE090E09BBD6E
:1005C0008ABDB998C19885E080936F0080936E00D2
:1005D00010927E0010927F00109280001092810095
:1005E00010927A0010927B0010927C0010927D0095
:1005F0001092760010927700109278001092790095
:10060000AA9A369AA8952A960FB6F894DEBF0FBE1E
:10061000CDBFDF91CF91FF91EF91BF91AF919F91AE
:100620008F917F916F915F914F913F912F911F918A
:100630000F91FF90EF90DF90CF90BF90AF909F9081
:100640008F907F906F905F904F901F900F900FBE94
:100650000F90189520916F00222359F08DE090E0C3
:100660009BBD8ABDB99A80916F00815080936F00C5
:10067000C8CF209182003091830040E050E0281BD9
:10068000390B41095109DA01C901EAE0880F991FC4
:10069000AA1FBB1FEA95D1F7C0907A00D0907B00CB
:1006A000E0907C00F0907D00C80ED91EEA1EFB1E73
:1006B000C0927A00D0927B00E0927C00F0927D00A4
:1006C000C0907E00D0907F00E0908000F09081008C
:1006D0004C015D018C189D08AE08BF088092760021
:1006E00090927700A0927800B0927900C0907A0042
:1006F000D0907B00E0907C00F0907D00C11404E07D
:10070000D006E1040EEFF0060CF082C0C12C74E0BC
:10071000D72EE12C7EEFF72EC0927A00D0927B008C
:10072000E0927C00F0927D0080907A0090907B00B7
:10073000A0907C00B0907D0089829A82AB82BC82BE
:10074000C0907600D0907700E0907800F09079002B
:1007500080937E0090937F00A0938000B0938100EF
:10076000AAB4BBB4BA86A98660E07CEA83E090E0D4
:10077000C5D16D837E838F839887412C24E0522ED0
:10078000612C712CA3019201DCD149015A016981CC
:100790007A818B819C81A3019201D3D1820E931E19
:1007A000A41EB51EA7E0B0E0A7019601E6D1A30103
:1007B0009201C7D185017401E20EF31E041F151FBB
:1007C000E982FA820B831C83C801B70120E030E183
:1007D00040E050E0B6D189859A859927820F931F12
:1007E000843B91057CF183EB90E09BBD8ABDB99A77
:1007F00080916E00882309F404CF80916E008150AF
:1008000080936E0080916E008111FBCEAA98F9CE84
:10081000C0907A00D0907B00E0907C00F0907D004A
:1008200011E0C1161CEFD1061FEFE10611E0F10641
:100830000CF47ACFC12C6CEFD62EEE24EA94FF2470
:10084000F3946ACF8D30910584F68DE090E0CDCFA2
:1008500086E880BD10BCC5E0C9B988E18AB980E6E8
:1008600090E090937300809372008DEA82BF83E0E2
:1008700083BF89B7816089BFA0988FE086B980EC7B
:1008800087B986B1806C86B984EC90E09F938F9392
:100890001ED28DE990E09F938F9319D284E991E065
:1008A0009F938F9381E990E09F938F9310D21F9233
:1008B000CF931F921F921F9281E08F9386E790E063
:1008C0009F938F9304D2B898C09ABA98C29A85B36E
:1008D000877C85BB84B3886384BB81B3837081BB11
:1008E00082B38C6F82BBA198A99AAA9AA29AC7DDFB
:1008F000909383008093820078948DE090E09BBD7C
:100900008ABD81E88FBD89E08EBDB99A8CE590E003
:100910009F938F938DE390E09F938F93D8D1F8941A
:10092000409184005091850060918600709187000D
:1009300078948DB79EB744960FB6F8949EBF0FBEBD
:100940008DBFA895F8948091840090918500A09126
:100950008600B09187007894841B950BA60BB70B8B
:10096000883C9105A105B10560F3F894409184009D
:100970005091850060918600709187007894A895C9
:10098000F8948091840090918500A0918600B091A8
:1009900087007894841B950BA60BB70B883C9105B8
:1009A000A105B10560F38BE181BD83E1B82E98E824
:1009B000A92EC5E1D1E00AEF10E02BE6E22E21E0FE
:1009C000F22E32E5C32E31E0D32EB0992EC08091A5
:1009D0008200909183009F938F93FF92EF9277D143
:1009E00083DD0F900F900F900F90B09B08C087DDB4
:1009F000DF92CF926CD10F900F90A895E6CFF8942C
:100A00008091840090918500A0918600B09187002C
:100A10007894A895F8948091840090918500A09195
:100A20008600B09187007894E0CFB29920C0F89406
:100A300040918400509185006091860070918700FC
:100A40007894A895F8948091840090918500A09165
:100A50008600B09187007894841B950BA60BB70B8A
:100A600084369105A105B10560F3B29B0CC020E06E
:100A700030E0999B02C003DD9C01309383002093FA
:100A80008200BBCFA895B29BFDCF80918200909150
:100A90008300BF92AF929F938F93DF93CF9317D131
:100AA00023DD0F900F900F900F900F900F9089E122
:100AB00090E0F8944090840050908500609086000B
:100AC000709087007894A895F89440918400509194
:100AD00085006091860070918700789444195509CB
:100AE00066097709483C51056105710560F3019776
:100AF0000097F9F604DD1F930F937CCFDB018F93F2
:100B00009F933BD0BF91AF91A29F800D911DA39F5A
:100B1000900DB29F900D11240895AA1BBB1B51E1AB
:100B200007C0AA1FBB1FA617B70710F0A61BB70B5D
:100B3000881F991F5A95A9F780959095BC01CD0102
:100B40000895052E97FB16F400940FD057FD05D09D
:100B500055D007FC02D046F408C05095409530951A
:100B600021953F4F4F4F5F4F089590958095709519
:100B700061957F4F8F4F9F4F089562D0A59F900D35
:100B8000B49F900DA49F800D911D112408952F9264
:100B90003F924F925F926F927F928F929F92AF920D
:100BA000BF92CF92DF92EF92FF920F931F93CF935A
:100BB000DF93CDB7DEB7CA1BDB0B0FB6F894DEBFF1
:100BC0000FBECDBF09942A88398848885F846E8417
:100BD0007D848C849B84AA84B984C884DF80EE8061
:100BE000FD800C811B81AA81B981CE0FD11D0FB66A
:100BF000F894DEBF0FBECDBFED010895A1E21A2E1D
:100C0000AA1BBB1BFD010DC0AA1FBB1FEE1FFF1FB0
:100C1000A217B307E407F50720F0A21BB30BE40B00
:100C2000F50B661F771F881F991F1A9469F7609547
:100C30007095809590959B01AC01BD01CF01089501
:100C4000A29FB001B39FC001A39F01D0B29F700DBE
:100C5000811D1124911D0895FC010590061621F0B7
:100C60000020D9F7C00108953197CF0108950F935F
:100C70001F93CF93DF93182F092FEB018B8181FDF9
:100C800009C01FEF0FEF812F902FDF91CF911F91A0
:100C90000F91089582FF14C02E813F818C819D8128
:100CA000281739073CF4E881F981CF01019699832F
:100CB000888310838E819F8101969F838E83E3CFEB
:100CC000E885F985812F0995892BA1F3DACFA0E07A
:100CD000B0E0ECE6F6E069CFAE01495F5F4FDA01C4
:100CE0006D917D91AD0100E710E0F8018281938163
:100CF000DC0113962C911397286013962C9380DABD
:100D00009C01D8011296ED91FC919381977F93837A
:100D1000C901E4E066CFFA01AA27283051F1203159
:100D200081F1E8946F936E7F6E5F7F4F8F4F9F4F7F
:100D3000AF4FB1E03ED0B4E03CD0670F781F891FC1
:100D40009A1FA11D680F791F8A1F911DA11D6A0F8F
:100D5000711D811D911DA11D20D009F468943F9142
:100D60002AE0269F11243019305D3193DEF6CF0141
:100D70000895462F4770405D4193B3E00FD0C9F707
:100D8000F6CF462F4F70405D4A3318F0495D31FD74
:100D90004052419302D0A9F7EACFB4E0A6959795C7
:100DA000879577956795BA95C9F70097610571059D
:100DB00008959B01AC010A2E0694579547953795E7
:100DC0002795BA95C9F7620F731F841F951FA01D41
:060DD0000895F894FFCF26
:100DD60000000003000000003902000000000505C5
:00000001FF
