:1000000019C027C026C025C024C023C022C021C0DB
:1000100020C01FC01EC01DC01CC01BC01AC019C0FC
:1000200018C046575F56455253494F4E3D312E300A
:100030002E32000011241FBECFE5D1E0DEBFCDBFC0
:10004000F894A89514BE81B5886181BD11BC23D0F8
:100050005DC2D6CF86B382FB882780F920E0A895C1
:10006000EFE1FEE43197F1F700C00000A895EFE161
:10007000FEE43197F1F700C00000A89596B392FB1B
:10008000992790F9981304C02F5F253011F4089533
:1000900020E0892FE4CF00D000D000D0CDB7DEB76C
:1000A00082E290E088E181BD84E081BD9FE89BBB56
:1000B0009FE09ABB88BB17BA1982FF24F394A895D6
:1000C000C9DFA895982F9F2529819217C1F399B36D
:1000D000A895882351F0D89AA895D99AA895DA9A24
:1000E000A895DB9AA8951982EACF00E010E897FD61
:1000F00038C08BEB8E8394E49D83A89520E030E09C
:1001000040E251E49E818D8109831A839B838C8315
:1001100069817A818B819C81ECD018163CF520E0B6
:1001200030E040E251E469817A818B819C81E5D0A5
:1001300069837A838B839C8369817A818B819C819B
:1001400044D1CB0120E030E028173907B1F0EFE1CE
:10015000FEE43197F1F700C00000A8952F5F3F4FF4
:10016000F3CFEBE3EE83F4E4FD83C7CF8FE19EE4AE
:100170000197F1F700C00000A895DB98A895A89515
:1001800020E030E040E251E49E818D8109831A83B2
:100190009B838C8369817A818B819C81AAD018167C
:1001A00014F520E030E040E251E469817A818B81EE
:1001B0009C81A3D069837A838B839C8369817A81B4
:1001C0008B819C8102D1CB0120E030E028173907D8
:1001D00089F0EFE1FEE43197F1F700C00000A89547
:1001E0002F5F3F4FF3CF8FE19EE40197F1F700C0FF
:1001F0000000A895DA98A895A89520E030E040E2A4
:1002000051E49E818D8109831A839B838C8369814C
:100210007A818B819C816DD0181614F520E030E036
:1002200040E251E469817A818B819C8166D0698347
:100230007A838B839C8369817A818B819C81C5D0F1
:10024000CB0120E030E02817390789F0EFE1FEE428
:100250003197F1F700C00000A8952F5F3F4FF3CF13
:100260008FE19EE40197F1F700C00000A895D998AE
:10027000A895A89520E030E040E251E49E818D8170
:1002800009831A839B838C8369817A818B819C810A
:1002900030D0181614F520E030E040E251E46981D6
:1002A0007A818B819C8129D069837A838B839C831B
:1002B00069817A818B819C8188D0CB0120E030E0FC
:1002C0002817390789F0EFE1FEE43197F1F700C014
:1002D0000000A8952F5F3F4FF3CF8FE19EE4019779
:1002E000F1F700C00000A895D898A895F1E0F9832F
:1002F000E6CE97D008F481E008950CD0CDC0C5D0EB
:1003000040F0BCD030F021F45F3F19F0AEC0511185
:10031000F7C0B1C0D2D098F39923C9F35523B1F3F4
:10032000951B550BBB27AA2762177307840738F064
:100330009F5F5F4F220F331F441FAA1FA9F333D0C3
:100340000E2E3AF0E0E830D091505040E695001C77
:10035000CAF729D0FE2F27D0660F771F881FBB1F33
:10036000261737074807AB07B0E809F0BB0B802D0D
:10037000BF01FF2793585F4F2AF09E3F510568F059
:1003800074C0BEC05F3FECF3983EDCF38695779572
:100390006795B795F7959F5FC9F7880F911D96955B
:1003A000879597F90895E1E0660F771F881FBB1FB7
:1003B000621773078407BA0720F0621B730B840B64
:1003C000BA0BEE1F88F7E09508957FD088F09F570D
:1003D00090F0B92F9927B751A0F0D1F0660F771F91
:1003E000881F991F1AF0BA95C9F712C0B13081F071
:1003F00086D0B1E0089583C0672F782F8827B85F33
:1004000039F0B93FCCF3869577956795B395D9F7D1
:100410003EF490958095709561957F4F8F4F9F4FDB
:100420000895990F0008550FAA0BE0E8FEEF161685
:100430001706E807F907C0F012161306E407F507D8
:1004400098F0621B730B840B950B39F40A2661F04C
:10045000232B242B252B21F408950A2609F4A140EF
:10046000A6958FEF811D811D089597F99F6780E8FC
:1004700070E060E008959FEF80EC089500240A94F6
:100480001616170618060906089500240A9412166F
:100490001306140605060895092E0394000C11F4A2
:1004A000882352F0BB0F40F4BF2B11F460FF04C04F
:1004B0006F5F7F4F8F4F9F4F089557FD9058440FA8
:1004C000551F59F05F3F71F04795880F97FB991FB3
:1004D00061F09F3F79F08795089512161306140670
:1004E000551FF2CF4695F1DF08C0161617061806FD
:1004F000991FF1CF86957105610508940895E894D8
:10050000BB2766277727CB0197F90895F894FFCF8B
:00000001FF
